{
	"contracts/TimeLock.sol": {
		"TimeLock": {
			"abi": [
				{
					"inputs": [],
					"stateMutability": "nonpayable",
					"type": "constructor"
				},
				{
					"inputs": [
						{
							"internalType": "bytes32",
							"name": "txId",
							"type": "bytes32"
						}
					],
					"name": "AlreadyQueuedError",
					"type": "error"
				},
				{
					"inputs": [],
					"name": "NotOwnerError",
					"type": "error"
				},
				{
					"inputs": [
						{
							"internalType": "bytes32",
							"name": "txId",
							"type": "bytes32"
						}
					],
					"name": "NotQueuedError",
					"type": "error"
				},
				{
					"inputs": [
						{
							"internalType": "uint256",
							"name": "blockTimestamp",
							"type": "uint256"
						},
						{
							"internalType": "uint256",
							"name": "expiresAt",
							"type": "uint256"
						}
					],
					"name": "TimestampExpiredError",
					"type": "error"
				},
				{
					"inputs": [
						{
							"internalType": "uint256",
							"name": "blockTimestamp",
							"type": "uint256"
						},
						{
							"internalType": "uint256",
							"name": "timestamp",
							"type": "uint256"
						}
					],
					"name": "TimestampNotInRangeError",
					"type": "error"
				},
				{
					"inputs": [
						{
							"internalType": "uint256",
							"name": "blockTimestmap",
							"type": "uint256"
						},
						{
							"internalType": "uint256",
							"name": "timestamp",
							"type": "uint256"
						}
					],
					"name": "TimestampNotPassedError",
					"type": "error"
				},
				{
					"inputs": [],
					"name": "TxFailedError",
					"type": "error"
				},
				{
					"anonymous": false,
					"inputs": [
						{
							"indexed": true,
							"internalType": "bytes32",
							"name": "txId",
							"type": "bytes32"
						}
					],
					"name": "Cancel",
					"type": "event"
				},
				{
					"anonymous": false,
					"inputs": [
						{
							"indexed": true,
							"internalType": "bytes32",
							"name": "txId",
							"type": "bytes32"
						},
						{
							"indexed": true,
							"internalType": "address",
							"name": "target",
							"type": "address"
						},
						{
							"indexed": false,
							"internalType": "uint256",
							"name": "value",
							"type": "uint256"
						},
						{
							"indexed": false,
							"internalType": "string",
							"name": "func",
							"type": "string"
						},
						{
							"indexed": false,
							"internalType": "bytes",
							"name": "data",
							"type": "bytes"
						},
						{
							"indexed": false,
							"internalType": "uint256",
							"name": "timestamp",
							"type": "uint256"
						}
					],
					"name": "Execute",
					"type": "event"
				},
				{
					"anonymous": false,
					"inputs": [
						{
							"indexed": true,
							"internalType": "bytes32",
							"name": "txId",
							"type": "bytes32"
						},
						{
							"indexed": true,
							"internalType": "address",
							"name": "target",
							"type": "address"
						},
						{
							"indexed": false,
							"internalType": "uint256",
							"name": "value",
							"type": "uint256"
						},
						{
							"indexed": false,
							"internalType": "string",
							"name": "func",
							"type": "string"
						},
						{
							"indexed": false,
							"internalType": "bytes",
							"name": "data",
							"type": "bytes"
						},
						{
							"indexed": false,
							"internalType": "uint256",
							"name": "timestamp",
							"type": "uint256"
						}
					],
					"name": "Queue",
					"type": "event"
				},
				{
					"inputs": [],
					"name": "GRACE_PERIOD",
					"outputs": [
						{
							"internalType": "uint256",
							"name": "",
							"type": "uint256"
						}
					],
					"stateMutability": "view",
					"type": "function"
				},
				{
					"inputs": [],
					"name": "MAX_DELAY",
					"outputs": [
						{
							"internalType": "uint256",
							"name": "",
							"type": "uint256"
						}
					],
					"stateMutability": "view",
					"type": "function"
				},
				{
					"inputs": [],
					"name": "MIN_DELAY",
					"outputs": [
						{
							"internalType": "uint256",
							"name": "",
							"type": "uint256"
						}
					],
					"stateMutability": "view",
					"type": "function"
				},
				{
					"inputs": [
						{
							"internalType": "bytes32",
							"name": "_txId",
							"type": "bytes32"
						}
					],
					"name": "cancel",
					"outputs": [],
					"stateMutability": "nonpayable",
					"type": "function"
				},
				{
					"inputs": [
						{
							"internalType": "address",
							"name": "_target",
							"type": "address"
						},
						{
							"internalType": "uint256",
							"name": "_value",
							"type": "uint256"
						},
						{
							"internalType": "string",
							"name": "_func",
							"type": "string"
						},
						{
							"internalType": "bytes",
							"name": "_data",
							"type": "bytes"
						},
						{
							"internalType": "uint256",
							"name": "_timestamp",
							"type": "uint256"
						}
					],
					"name": "execute",
					"outputs": [
						{
							"internalType": "bytes",
							"name": "",
							"type": "bytes"
						}
					],
					"stateMutability": "payable",
					"type": "function"
				},
				{
					"inputs": [
						{
							"internalType": "address",
							"name": "_target",
							"type": "address"
						},
						{
							"internalType": "uint256",
							"name": "_value",
							"type": "uint256"
						},
						{
							"internalType": "string",
							"name": "_func",
							"type": "string"
						},
						{
							"internalType": "bytes",
							"name": "_data",
							"type": "bytes"
						},
						{
							"internalType": "uint256",
							"name": "_timestamp",
							"type": "uint256"
						}
					],
					"name": "getTxId",
					"outputs": [
						{
							"internalType": "bytes32",
							"name": "",
							"type": "bytes32"
						}
					],
					"stateMutability": "pure",
					"type": "function"
				},
				{
					"inputs": [],
					"name": "owner",
					"outputs": [
						{
							"internalType": "address",
							"name": "",
							"type": "address"
						}
					],
					"stateMutability": "view",
					"type": "function"
				},
				{
					"inputs": [
						{
							"internalType": "address",
							"name": "_target",
							"type": "address"
						},
						{
							"internalType": "uint256",
							"name": "_value",
							"type": "uint256"
						},
						{
							"internalType": "string",
							"name": "_func",
							"type": "string"
						},
						{
							"internalType": "bytes",
							"name": "_data",
							"type": "bytes"
						},
						{
							"internalType": "uint256",
							"name": "_timestamp",
							"type": "uint256"
						}
					],
					"name": "queue",
					"outputs": [
						{
							"internalType": "bytes32",
							"name": "txId",
							"type": "bytes32"
						}
					],
					"stateMutability": "nonpayable",
					"type": "function"
				},
				{
					"inputs": [
						{
							"internalType": "bytes32",
							"name": "",
							"type": "bytes32"
						}
					],
					"name": "queued",
					"outputs": [
						{
							"internalType": "bool",
							"name": "",
							"type": "bool"
						}
					],
					"stateMutability": "view",
					"type": "function"
				},
				{
					"stateMutability": "payable",
					"type": "receive"
				}
			],
			"devdoc": {
				"kind": "dev",
				"methods": {
					"queue(address,uint256,string,bytes,uint256)": {
						"params": {
							"_data": "ABI 인코딩된 데이터.",
							"_func": "Function signature(함수 서명), 예를 들어, \"foo(address,uint256)\"",
							"_target": "호출하려는 contract or account 주소",
							"_timestamp": "트랜잭션이 실행되고 난 후의 timestamp.",
							"_value": "보내려는 ETH의 양"
						}
					}
				},
				"version": 1
			},
			"evm": {
				"assembly": "    /* \"contracts/TimeLock.sol\":61:4489  contract TimeLock {... */\n  mstore(0x40, 0x80)\n    /* \"contracts/TimeLock.sol\":1154:1205  constructor() {... */\n  callvalue\n  dup1\n  iszero\n  tag_1\n  jumpi\n  0x00\n  dup1\n  revert\ntag_1:\n  pop\n    /* \"contracts/TimeLock.sol\":1187:1197  msg.sender */\n  caller\n    /* \"contracts/TimeLock.sol\":1179:1184  owner */\n  0x00\n  dup1\n    /* \"contracts/TimeLock.sol\":1179:1197  owner = msg.sender */\n  0x0100\n  exp\n  dup2\n  sload\n  dup2\n  0xffffffffffffffffffffffffffffffffffffffff\n  mul\n  not\n  and\n  swap1\n  dup4\n  0xffffffffffffffffffffffffffffffffffffffff\n  and\n  mul\n  or\n  swap1\n  sstore\n  pop\n    /* \"contracts/TimeLock.sol\":61:4489  contract TimeLock {... */\n  dataSize(sub_0)\n  dup1\n  dataOffset(sub_0)\n  0x00\n  codecopy\n  0x00\n  return\nstop\n\nsub_0: assembly {\n        /* \"contracts/TimeLock.sol\":61:4489  contract TimeLock {... */\n      mstore(0x40, 0x80)\n      jumpi(tag_1, lt(calldatasize, 0x04))\n      shr(0xe0, calldataload(0x00))\n      dup1\n      0x8da5cb5b\n      gt\n      tag_12\n      jumpi\n      dup1\n      0x8da5cb5b\n      eq\n      tag_7\n      jumpi\n      dup1\n      0x9f81aed7\n      eq\n      tag_8\n      jumpi\n      dup1\n      0xb0f8b142\n      eq\n      tag_9\n      jumpi\n      dup1\n      0xc1a287e2\n      eq\n      tag_10\n      jumpi\n      dup1\n      0xc4d252f5\n      eq\n      tag_11\n      jumpi\n      jump(tag_2)\n    tag_12:\n      dup1\n      0x228250c9\n      eq\n      tag_3\n      jumpi\n      dup1\n      0x4125ff90\n      eq\n      tag_4\n      jumpi\n      dup1\n      0x4b9915a5\n      eq\n      tag_5\n      jumpi\n      dup1\n      0x8a1ce0b6\n      eq\n      tag_6\n      jumpi\n      jump(tag_2)\n    tag_1:\n      jumpi(tag_2, calldatasize)\n      stop\n    tag_2:\n      0x00\n      dup1\n      revert\n        /* \"contracts/TimeLock.sol\":1107:1145  mapping(bytes32 => bool) public queued */\n    tag_3:\n      callvalue\n      dup1\n      iszero\n      tag_15\n      jumpi\n      0x00\n      dup1\n      revert\n    tag_15:\n      pop\n      tag_16\n      0x04\n      dup1\n      calldatasize\n      sub\n      dup2\n      add\n      swap1\n      tag_17\n      swap2\n      swap1\n      tag_18\n      jump\t// in\n    tag_17:\n      tag_19\n      jump\t// in\n    tag_16:\n      mload(0x40)\n      tag_20\n      swap2\n      swap1\n      tag_21\n      jump\t// in\n    tag_20:\n      mload(0x40)\n      dup1\n      swap2\n      sub\n      swap1\n      return\n        /* \"contracts/TimeLock.sol\":935:975  uint256 public constant MAX_DELAY = 1000 */\n    tag_4:\n      callvalue\n      dup1\n      iszero\n      tag_22\n      jumpi\n      0x00\n      dup1\n      revert\n    tag_22:\n      pop\n      tag_23\n      tag_24\n      jump\t// in\n    tag_23:\n      mload(0x40)\n      tag_25\n      swap2\n      swap1\n      tag_26\n      jump\t// in\n    tag_25:\n      mload(0x40)\n      dup1\n      swap2\n      sub\n      swap1\n      return\n        /* \"contracts/TimeLock.sol\":2028:2832  function queue(... */\n    tag_5:\n      callvalue\n      dup1\n      iszero\n      tag_27\n      jumpi\n      0x00\n      dup1\n      revert\n    tag_27:\n      pop\n      tag_28\n      0x04\n      dup1\n      calldatasize\n      sub\n      dup2\n      add\n      swap1\n      tag_29\n      swap2\n      swap1\n      tag_30\n      jump\t// in\n    tag_29:\n      tag_31\n      jump\t// in\n    tag_28:\n      mload(0x40)\n      tag_32\n      swap2\n      swap1\n      tag_33\n      jump\t// in\n    tag_32:\n      mload(0x40)\n      dup1\n      swap2\n      sub\n      swap1\n      return\n        /* \"contracts/TimeLock.sol\":1383:1670  function getTxId(... */\n    tag_6:\n      callvalue\n      dup1\n      iszero\n      tag_34\n      jumpi\n      0x00\n      dup1\n      revert\n    tag_34:\n      pop\n      tag_35\n      0x04\n      dup1\n      calldatasize\n      sub\n      dup2\n      add\n      swap1\n      tag_36\n      swap2\n      swap1\n      tag_30\n      jump\t// in\n    tag_36:\n      tag_37\n      jump\t// in\n    tag_35:\n      mload(0x40)\n      tag_38\n      swap2\n      swap1\n      tag_33\n      jump\t// in\n    tag_38:\n      mload(0x40)\n      dup1\n      swap2\n      sub\n      swap1\n      return\n        /* \"contracts/TimeLock.sol\":1056:1076  address public owner */\n    tag_7:\n      callvalue\n      dup1\n      iszero\n      tag_39\n      jumpi\n      0x00\n      dup1\n      revert\n    tag_39:\n      pop\n      tag_40\n      tag_41\n      jump\t// in\n    tag_40:\n      mload(0x40)\n      tag_42\n      swap2\n      swap1\n      tag_43\n      jump\t// in\n    tag_42:\n      mload(0x40)\n      dup1\n      swap2\n      sub\n      swap1\n      return\n        /* \"contracts/TimeLock.sol\":879:917  uint256 public constant MIN_DELAY = 10 */\n    tag_8:\n      callvalue\n      dup1\n      iszero\n      tag_44\n      jumpi\n      0x00\n      dup1\n      revert\n    tag_44:\n      pop\n      tag_45\n      tag_46\n      jump\t// in\n    tag_45:\n      mload(0x40)\n      tag_47\n      swap2\n      swap1\n      tag_26\n      jump\t// in\n    tag_47:\n      mload(0x40)\n      dup1\n      swap2\n      sub\n      swap1\n      return\n        /* \"contracts/TimeLock.sol\":2840:4270  function execute(... */\n    tag_9:\n      tag_48\n      0x04\n      dup1\n      calldatasize\n      sub\n      dup2\n      add\n      swap1\n      tag_49\n      swap2\n      swap1\n      tag_30\n      jump\t// in\n    tag_49:\n      tag_50\n      jump\t// in\n    tag_48:\n      mload(0x40)\n      tag_51\n      swap2\n      swap1\n      tag_52\n      jump\t// in\n    tag_51:\n      mload(0x40)\n      dup1\n      swap2\n      sub\n      swap1\n      return\n        /* \"contracts/TimeLock.sol\":993:1036  uint256 public constant GRACE_PERIOD = 1000 */\n    tag_10:\n      callvalue\n      dup1\n      iszero\n      tag_53\n      jumpi\n      0x00\n      dup1\n      revert\n    tag_53:\n      pop\n      tag_54\n      tag_55\n      jump\t// in\n    tag_54:\n      mload(0x40)\n      tag_56\n      swap2\n      swap1\n      tag_26\n      jump\t// in\n    tag_56:\n      mload(0x40)\n      dup1\n      swap2\n      sub\n      swap1\n      return\n        /* \"contracts/TimeLock.sol\":4278:4486  function cancel(bytes32 _txId) external onlyOwner {... */\n    tag_11:\n      callvalue\n      dup1\n      iszero\n      tag_57\n      jumpi\n      0x00\n      dup1\n      revert\n    tag_57:\n      pop\n      tag_58\n      0x04\n      dup1\n      calldatasize\n      sub\n      dup2\n      add\n      swap1\n      tag_59\n      swap2\n      swap1\n      tag_18\n      jump\t// in\n    tag_59:\n      tag_60\n      jump\t// in\n    tag_58:\n      stop\n        /* \"contracts/TimeLock.sol\":1107:1145  mapping(bytes32 => bool) public queued */\n    tag_19:\n      mstore(0x20, 0x01)\n      dup1\n      0x00\n      mstore\n      keccak256(0x00, 0x40)\n      0x00\n      swap2\n      pop\n      sload\n      swap1\n      0x0100\n      exp\n      swap1\n      div\n      0xff\n      and\n      dup2\n      jump\t// out\n        /* \"contracts/TimeLock.sol\":935:975  uint256 public constant MAX_DELAY = 1000 */\n    tag_24:\n        /* \"contracts/TimeLock.sol\":971:975  1000 */\n      0x03e8\n        /* \"contracts/TimeLock.sol\":935:975  uint256 public constant MAX_DELAY = 1000 */\n      dup2\n      jump\t// out\n        /* \"contracts/TimeLock.sol\":2028:2832  function queue(... */\n    tag_31:\n        /* \"contracts/TimeLock.sol\":2221:2233  bytes32 txId */\n      0x00\n        /* \"contracts/TimeLock.sol\":1263:1268  owner */\n      dup1\n      0x00\n      swap1\n      sload\n      swap1\n      0x0100\n      exp\n      swap1\n      div\n      0xffffffffffffffffffffffffffffffffffffffff\n      and\n        /* \"contracts/TimeLock.sol\":1249:1268  msg.sender != owner */\n      0xffffffffffffffffffffffffffffffffffffffff\n      and\n        /* \"contracts/TimeLock.sol\":1249:1259  msg.sender */\n      caller\n        /* \"contracts/TimeLock.sol\":1249:1268  msg.sender != owner */\n      0xffffffffffffffffffffffffffffffffffffffff\n      and\n      eq\n        /* \"contracts/TimeLock.sol\":1245:1319  if (msg.sender != owner) {... */\n      tag_62\n      jumpi\n        /* \"contracts/TimeLock.sol\":1292:1307  NotOwnerError() */\n      mload(0x40)\n      0x74a2152700000000000000000000000000000000000000000000000000000000\n      dup2\n      mstore\n      0x04\n      add\n      mload(0x40)\n      dup1\n      swap2\n      sub\n      swap1\n      revert\n        /* \"contracts/TimeLock.sol\":1245:1319  if (msg.sender != owner) {... */\n    tag_62:\n        /* \"contracts/TimeLock.sol\":2253:2303  getTxId(_target, _value, _func, _data, _timestamp) */\n      tag_64\n        /* \"contracts/TimeLock.sol\":2261:2268  _target */\n      dup9\n        /* \"contracts/TimeLock.sol\":2270:2276  _value */\n      dup9\n        /* \"contracts/TimeLock.sol\":2278:2283  _func */\n      dup9\n      dup9\n        /* \"contracts/TimeLock.sol\":2285:2290  _data */\n      dup9\n      dup9\n        /* \"contracts/TimeLock.sol\":2292:2302  _timestamp */\n      dup9\n        /* \"contracts/TimeLock.sol\":2253:2260  getTxId */\n      tag_37\n        /* \"contracts/TimeLock.sol\":2253:2303  getTxId(_target, _value, _func, _data, _timestamp) */\n      jump\t// in\n    tag_64:\n        /* \"contracts/TimeLock.sol\":2246:2303  txId = getTxId(_target, _value, _func, _data, _timestamp) */\n      swap1\n      pop\n        /* \"contracts/TimeLock.sol\":2318:2324  queued */\n      0x01\n        /* \"contracts/TimeLock.sol\":2318:2330  queued[txId] */\n      0x00\n        /* \"contracts/TimeLock.sol\":2325:2329  txId */\n      dup3\n        /* \"contracts/TimeLock.sol\":2318:2330  queued[txId] */\n      dup2\n      mstore\n      0x20\n      add\n      swap1\n      dup2\n      mstore\n      0x20\n      add\n      0x00\n      keccak256\n      0x00\n      swap1\n      sload\n      swap1\n      0x0100\n      exp\n      swap1\n      div\n      0xff\n      and\n        /* \"contracts/TimeLock.sol\":2314:2390  if (queued[txId]) {... */\n      iszero\n      tag_65\n      jumpi\n        /* \"contracts/TimeLock.sol\":2373:2377  txId */\n      dup1\n        /* \"contracts/TimeLock.sol\":2354:2378  AlreadyQueuedError(txId) */\n      mload(0x40)\n      0x995042be00000000000000000000000000000000000000000000000000000000\n      dup2\n      mstore\n      0x04\n      add\n      tag_66\n      swap2\n      swap1\n      tag_33\n      jump\t// in\n    tag_66:\n      mload(0x40)\n      dup1\n      swap2\n      sub\n      swap1\n      revert\n        /* \"contracts/TimeLock.sol\":2314:2390  if (queued[txId]) {... */\n    tag_65:\n        /* \"contracts/TimeLock.sol\":915:917  10 */\n      0x0a\n        /* \"contracts/TimeLock.sol\":2534:2549  block.timestamp */\n      timestamp\n        /* \"contracts/TimeLock.sol\":2534:2561  block.timestamp + MIN_DELAY */\n      tag_67\n      swap2\n      swap1\n      tag_68\n      jump\t// in\n    tag_67:\n        /* \"contracts/TimeLock.sol\":2521:2531  _timestamp */\n      dup3\n        /* \"contracts/TimeLock.sol\":2521:2561  _timestamp < block.timestamp + MIN_DELAY */\n      lt\n        /* \"contracts/TimeLock.sol\":2521:2622  _timestamp < block.timestamp + MIN_DELAY... */\n      dup1\n      tag_69\n      jumpi\n      pop\n        /* \"contracts/TimeLock.sol\":971:975  1000 */\n      0x03e8\n        /* \"contracts/TimeLock.sol\":2595:2610  block.timestamp */\n      timestamp\n        /* \"contracts/TimeLock.sol\":2595:2622  block.timestamp + MAX_DELAY */\n      tag_70\n      swap2\n      swap1\n      tag_68\n      jump\t// in\n    tag_70:\n        /* \"contracts/TimeLock.sol\":2582:2592  _timestamp */\n      dup3\n        /* \"contracts/TimeLock.sol\":2582:2622  _timestamp > block.timestamp + MAX_DELAY */\n      gt\n        /* \"contracts/TimeLock.sol\":2521:2622  _timestamp < block.timestamp + MIN_DELAY... */\n    tag_69:\n        /* \"contracts/TimeLock.sol\":2503:2721  if (... */\n      iszero\n      tag_71\n      jumpi\n        /* \"contracts/TimeLock.sol\":2681:2696  block.timestamp */\n      timestamp\n        /* \"contracts/TimeLock.sol\":2698:2708  _timestamp */\n      dup3\n        /* \"contracts/TimeLock.sol\":2656:2709  TimestampNotInRangeError(block.timestamp, _timestamp) */\n      mload(0x40)\n      0x1a9616c200000000000000000000000000000000000000000000000000000000\n      dup2\n      mstore\n      0x04\n      add\n      tag_72\n      swap3\n      swap2\n      swap1\n      tag_73\n      jump\t// in\n    tag_72:\n      mload(0x40)\n      dup1\n      swap2\n      sub\n      swap1\n      revert\n        /* \"contracts/TimeLock.sol\":2503:2721  if (... */\n    tag_71:\n        /* \"contracts/TimeLock.sol\":2748:2752  true */\n      0x01\n        /* \"contracts/TimeLock.sol\":2733:2739  queued */\n      dup1\n        /* \"contracts/TimeLock.sol\":2733:2745  queued[txId] */\n      0x00\n        /* \"contracts/TimeLock.sol\":2740:2744  txId */\n      dup4\n        /* \"contracts/TimeLock.sol\":2733:2745  queued[txId] */\n      dup2\n      mstore\n      0x20\n      add\n      swap1\n      dup2\n      mstore\n      0x20\n      add\n      0x00\n      keccak256\n      0x00\n        /* \"contracts/TimeLock.sol\":2733:2752  queued[txId] = true */\n      0x0100\n      exp\n      dup2\n      sload\n      dup2\n      0xff\n      mul\n      not\n      and\n      swap1\n      dup4\n      iszero\n      iszero\n      mul\n      or\n      swap1\n      sstore\n      pop\n        /* \"contracts/TimeLock.sol\":2782:2789  _target */\n      dup8\n        /* \"contracts/TimeLock.sol\":2770:2824  Queue(txId, _target, _value, _func, _data, _timestamp) */\n      0xffffffffffffffffffffffffffffffffffffffff\n      and\n        /* \"contracts/TimeLock.sol\":2776:2780  txId */\n      dup2\n        /* \"contracts/TimeLock.sol\":2770:2824  Queue(txId, _target, _value, _func, _data, _timestamp) */\n      0x3c22f47140594040d205a5533cfedd86c9ab8622c39ead03affb2d97052c794c\n        /* \"contracts/TimeLock.sol\":2791:2797  _value */\n      dup10\n        /* \"contracts/TimeLock.sol\":2799:2804  _func */\n      dup10\n      dup10\n        /* \"contracts/TimeLock.sol\":2806:2811  _data */\n      dup10\n      dup10\n        /* \"contracts/TimeLock.sol\":2813:2823  _timestamp */\n      dup10\n        /* \"contracts/TimeLock.sol\":2770:2824  Queue(txId, _target, _value, _func, _data, _timestamp) */\n      mload(0x40)\n      tag_74\n      swap7\n      swap6\n      swap5\n      swap4\n      swap3\n      swap2\n      swap1\n      tag_75\n      jump\t// in\n    tag_74:\n      mload(0x40)\n      dup1\n      swap2\n      sub\n      swap1\n      log3\n        /* \"contracts/TimeLock.sol\":2028:2832  function queue(... */\n      swap8\n      swap7\n      pop\n      pop\n      pop\n      pop\n      pop\n      pop\n      pop\n      jump\t// out\n        /* \"contracts/TimeLock.sol\":1383:1670  function getTxId(... */\n    tag_37:\n        /* \"contracts/TimeLock.sol\":1571:1578  bytes32 */\n      0x00\n        /* \"contracts/TimeLock.sol\":1619:1626  _target */\n      dup8\n        /* \"contracts/TimeLock.sol\":1628:1634  _value */\n      dup8\n        /* \"contracts/TimeLock.sol\":1636:1641  _func */\n      dup8\n      dup8\n        /* \"contracts/TimeLock.sol\":1643:1648  _data */\n      dup8\n      dup8\n        /* \"contracts/TimeLock.sol\":1650:1660  _timestamp */\n      dup8\n        /* \"contracts/TimeLock.sol\":1608:1661  abi.encode(_target, _value, _func, _data, _timestamp) */\n      add(0x20, mload(0x40))\n      tag_77\n      swap8\n      swap7\n      swap6\n      swap5\n      swap4\n      swap3\n      swap2\n      swap1\n      tag_78\n      jump\t// in\n    tag_77:\n      mload(0x40)\n      0x20\n      dup2\n      dup4\n      sub\n      sub\n      dup2\n      mstore\n      swap1\n      0x40\n      mstore\n        /* \"contracts/TimeLock.sol\":1598:1662  keccak256(abi.encode(_target, _value, _func, _data, _timestamp)) */\n      dup1\n      mload\n      swap1\n      0x20\n      add\n      keccak256\n        /* \"contracts/TimeLock.sol\":1591:1662  return keccak256(abi.encode(_target, _value, _func, _data, _timestamp)) */\n      swap1\n      pop\n        /* \"contracts/TimeLock.sol\":1383:1670  function getTxId(... */\n      swap8\n      swap7\n      pop\n      pop\n      pop\n      pop\n      pop\n      pop\n      pop\n      jump\t// out\n        /* \"contracts/TimeLock.sol\":1056:1076  address public owner */\n    tag_41:\n      0x00\n      dup1\n      sload\n      swap1\n      0x0100\n      exp\n      swap1\n      div\n      0xffffffffffffffffffffffffffffffffffffffff\n      and\n      dup2\n      jump\t// out\n        /* \"contracts/TimeLock.sol\":879:917  uint256 public constant MIN_DELAY = 10 */\n    tag_46:\n        /* \"contracts/TimeLock.sol\":915:917  10 */\n      0x0a\n        /* \"contracts/TimeLock.sol\":879:917  uint256 public constant MIN_DELAY = 10 */\n      dup2\n      jump\t// out\n        /* \"contracts/TimeLock.sol\":2840:4270  function execute(... */\n    tag_50:\n        /* \"contracts/TimeLock.sol\":3043:3055  bytes memory */\n      0x60\n        /* \"contracts/TimeLock.sol\":1263:1268  owner */\n      0x00\n      dup1\n      sload\n      swap1\n      0x0100\n      exp\n      swap1\n      div\n      0xffffffffffffffffffffffffffffffffffffffff\n      and\n        /* \"contracts/TimeLock.sol\":1249:1268  msg.sender != owner */\n      0xffffffffffffffffffffffffffffffffffffffff\n      and\n        /* \"contracts/TimeLock.sol\":1249:1259  msg.sender */\n      caller\n        /* \"contracts/TimeLock.sol\":1249:1268  msg.sender != owner */\n      0xffffffffffffffffffffffffffffffffffffffff\n      and\n      eq\n        /* \"contracts/TimeLock.sol\":1245:1319  if (msg.sender != owner) {... */\n      tag_80\n      jumpi\n        /* \"contracts/TimeLock.sol\":1292:1307  NotOwnerError() */\n      mload(0x40)\n      0x74a2152700000000000000000000000000000000000000000000000000000000\n      dup2\n      mstore\n      0x04\n      add\n      mload(0x40)\n      dup1\n      swap2\n      sub\n      swap1\n      revert\n        /* \"contracts/TimeLock.sol\":1245:1319  if (msg.sender != owner) {... */\n    tag_80:\n        /* \"contracts/TimeLock.sol\":3068:3080  bytes32 txId */\n      0x00\n        /* \"contracts/TimeLock.sol\":3083:3133  getTxId(_target, _value, _func, _data, _timestamp) */\n      tag_82\n        /* \"contracts/TimeLock.sol\":3091:3098  _target */\n      dup10\n        /* \"contracts/TimeLock.sol\":3100:3106  _value */\n      dup10\n        /* \"contracts/TimeLock.sol\":3108:3113  _func */\n      dup10\n      dup10\n        /* \"contracts/TimeLock.sol\":3115:3120  _data */\n      dup10\n      dup10\n        /* \"contracts/TimeLock.sol\":3122:3132  _timestamp */\n      dup10\n        /* \"contracts/TimeLock.sol\":3083:3090  getTxId */\n      tag_37\n        /* \"contracts/TimeLock.sol\":3083:3133  getTxId(_target, _value, _func, _data, _timestamp) */\n      jump\t// in\n    tag_82:\n        /* \"contracts/TimeLock.sol\":3068:3133  bytes32 txId = getTxId(_target, _value, _func, _data, _timestamp) */\n      swap1\n      pop\n        /* \"contracts/TimeLock.sol\":3149:3155  queued */\n      0x01\n        /* \"contracts/TimeLock.sol\":3149:3161  queued[txId] */\n      0x00\n        /* \"contracts/TimeLock.sol\":3156:3160  txId */\n      dup3\n        /* \"contracts/TimeLock.sol\":3149:3161  queued[txId] */\n      dup2\n      mstore\n      0x20\n      add\n      swap1\n      dup2\n      mstore\n      0x20\n      add\n      0x00\n      keccak256\n      0x00\n      swap1\n      sload\n      swap1\n      0x0100\n      exp\n      swap1\n      div\n      0xff\n      and\n        /* \"contracts/TimeLock.sol\":3144:3217  if (!queued[txId]) {... */\n      tag_83\n      jumpi\n        /* \"contracts/TimeLock.sol\":3200:3204  txId */\n      dup1\n        /* \"contracts/TimeLock.sol\":3185:3205  NotQueuedError(txId) */\n      mload(0x40)\n      0x0995c9d500000000000000000000000000000000000000000000000000000000\n      dup2\n      mstore\n      0x04\n      add\n      tag_84\n      swap2\n      swap1\n      tag_33\n      jump\t// in\n    tag_84:\n      mload(0x40)\n      dup1\n      swap2\n      sub\n      swap1\n      revert\n        /* \"contracts/TimeLock.sol\":3144:3217  if (!queued[txId]) {... */\n    tag_83:\n        /* \"contracts/TimeLock.sol\":3345:3355  _timestamp */\n      dup3\n        /* \"contracts/TimeLock.sol\":3327:3342  block.timestamp */\n      timestamp\n        /* \"contracts/TimeLock.sol\":3327:3355  block.timestamp < _timestamp */\n      lt\n        /* \"contracts/TimeLock.sol\":3323:3443  if (block.timestamp < _timestamp) {... */\n      iszero\n      tag_85\n      jumpi\n        /* \"contracts/TimeLock.sol\":3403:3418  block.timestamp */\n      timestamp\n        /* \"contracts/TimeLock.sol\":3420:3430  _timestamp */\n      dup4\n        /* \"contracts/TimeLock.sol\":3379:3431  TimestampNotPassedError(block.timestamp, _timestamp) */\n      mload(0x40)\n      0x035fce5b00000000000000000000000000000000000000000000000000000000\n      dup2\n      mstore\n      0x04\n      add\n      tag_86\n      swap3\n      swap2\n      swap1\n      tag_73\n      jump\t// in\n    tag_86:\n      mload(0x40)\n      dup1\n      swap2\n      sub\n      swap1\n      revert\n        /* \"contracts/TimeLock.sol\":3323:3443  if (block.timestamp < _timestamp) {... */\n    tag_85:\n        /* \"contracts/TimeLock.sol\":1032:1036  1000 */\n      0x03e8\n        /* \"contracts/TimeLock.sol\":3475:3485  _timestamp */\n      dup4\n        /* \"contracts/TimeLock.sol\":3475:3500  _timestamp + GRACE_PERIOD */\n      tag_87\n      swap2\n      swap1\n      tag_68\n      jump\t// in\n    tag_87:\n        /* \"contracts/TimeLock.sol\":3457:3472  block.timestamp */\n      timestamp\n        /* \"contracts/TimeLock.sol\":3457:3500  block.timestamp > _timestamp + GRACE_PERIOD */\n      gt\n        /* \"contracts/TimeLock.sol\":3453:3633  if (block.timestamp > _timestamp + GRACE_PERIOD) {... */\n      iszero\n      tag_88\n      jumpi\n        /* \"contracts/TimeLock.sol\":3564:3579  block.timestamp */\n      timestamp\n        /* \"contracts/TimeLock.sol\":1032:1036  1000 */\n      0x03e8\n        /* \"contracts/TimeLock.sol\":3581:3591  _timestamp */\n      dup5\n        /* \"contracts/TimeLock.sol\":3581:3606  _timestamp + GRACE_PERIOD */\n      tag_89\n      swap2\n      swap1\n      tag_68\n      jump\t// in\n    tag_89:\n        /* \"contracts/TimeLock.sol\":3524:3621  TimestampExpiredError(... */\n      mload(0x40)\n      0x92ae26d100000000000000000000000000000000000000000000000000000000\n      dup2\n      mstore\n      0x04\n      add\n      tag_90\n      swap3\n      swap2\n      swap1\n      tag_73\n      jump\t// in\n    tag_90:\n      mload(0x40)\n      dup1\n      swap2\n      sub\n      swap1\n      revert\n        /* \"contracts/TimeLock.sol\":3453:3633  if (block.timestamp > _timestamp + GRACE_PERIOD) {... */\n    tag_88:\n        /* \"contracts/TimeLock.sol\":3660:3665  false */\n      0x00\n        /* \"contracts/TimeLock.sol\":3645:3651  queued */\n      0x01\n        /* \"contracts/TimeLock.sol\":3645:3657  queued[txId] */\n      0x00\n        /* \"contracts/TimeLock.sol\":3652:3656  txId */\n      dup4\n        /* \"contracts/TimeLock.sol\":3645:3657  queued[txId] */\n      dup2\n      mstore\n      0x20\n      add\n      swap1\n      dup2\n      mstore\n      0x20\n      add\n      0x00\n      keccak256\n      0x00\n        /* \"contracts/TimeLock.sol\":3645:3665  queued[txId] = false */\n      0x0100\n      exp\n      dup2\n      sload\n      dup2\n      0xff\n      mul\n      not\n      and\n      swap1\n      dup4\n      iszero\n      iszero\n      mul\n      or\n      swap1\n      sstore\n      pop\n        /* \"contracts/TimeLock.sol\":3707:3724  bytes memory data */\n      0x60\n        /* \"contracts/TimeLock.sol\":3761:3762  0 */\n      0x00\n        /* \"contracts/TimeLock.sol\":3745:3750  _func */\n      dup9\n      dup9\n        /* \"contracts/TimeLock.sol\":3739:3758  bytes(_func).length */\n      swap1\n      pop\n        /* \"contracts/TimeLock.sol\":3739:3762  bytes(_func).length > 0 */\n      gt\n        /* \"contracts/TimeLock.sol\":3735:3996  if (bytes(_func).length > 0) {... */\n      iszero\n      tag_91\n      jumpi\n        /* \"contracts/TimeLock.sol\":3871:3876  _func */\n      dup8\n      dup8\n        /* \"contracts/TimeLock.sol\":3855:3878  keccak256(bytes(_func)) */\n      mload(0x40)\n      tag_92\n      swap3\n      swap2\n      swap1\n      tag_93\n      jump\t// in\n    tag_92:\n      mload(0x40)\n      dup1\n      swap2\n      sub\n      swap1\n      keccak256\n        /* \"contracts/TimeLock.sol\":3881:3886  _data */\n      dup7\n      dup7\n        /* \"contracts/TimeLock.sol\":3831:3887  abi.encodePacked(bytes4(keccak256(bytes(_func))), _data) */\n      add(0x20, mload(0x40))\n      tag_94\n      swap4\n      swap3\n      swap2\n      swap1\n      tag_95\n      jump\t// in\n    tag_94:\n      mload(0x40)\n      0x20\n      dup2\n      dup4\n      sub\n      sub\n      dup2\n      mstore\n      swap1\n      0x40\n      mstore\n        /* \"contracts/TimeLock.sol\":3824:3887  data = abi.encodePacked(bytes4(keccak256(bytes(_func))), _data) */\n      swap1\n      pop\n        /* \"contracts/TimeLock.sol\":3735:3996  if (bytes(_func).length > 0) {... */\n      jump(tag_96)\n    tag_91:\n        /* \"contracts/TimeLock.sol\":3979:3984  _data */\n      dup6\n      dup6\n        /* \"contracts/TimeLock.sol\":3972:3984  data = _data */\n      dup1\n      dup1\n      0x1f\n      add\n      0x20\n      dup1\n      swap2\n      div\n      mul\n      0x20\n      add\n      mload(0x40)\n      swap1\n      dup2\n      add\n      0x40\n      mstore\n      dup1\n      swap4\n      swap3\n      swap2\n      swap1\n      dup2\n      dup2\n      mstore\n      0x20\n      add\n      dup4\n      dup4\n      dup1\n      dup3\n      dup5\n      calldatacopy\n      0x00\n      dup2\n      dup5\n      add\n      mstore\n      not(0x1f)\n      0x1f\n      dup3\n      add\n      and\n      swap1\n      pop\n      dup1\n      dup4\n      add\n      swap3\n      pop\n      pop\n      pop\n      pop\n      pop\n      pop\n      pop\n      swap1\n      pop\n        /* \"contracts/TimeLock.sol\":3735:3996  if (bytes(_func).length > 0) {... */\n    tag_96:\n        /* \"contracts/TimeLock.sol\":4035:4042  bool ok */\n      0x00\n        /* \"contracts/TimeLock.sol\":4044:4060  bytes memory res */\n      dup1\n        /* \"contracts/TimeLock.sol\":4064:4071  _target */\n      dup12\n        /* \"contracts/TimeLock.sol\":4064:4076  _target.call */\n      0xffffffffffffffffffffffffffffffffffffffff\n      and\n        /* \"contracts/TimeLock.sol\":4084:4090  _value */\n      dup12\n        /* \"contracts/TimeLock.sol\":4092:4096  data */\n      dup5\n        /* \"contracts/TimeLock.sol\":4064:4097  _target.call{value: _value}(data) */\n      mload(0x40)\n      tag_97\n      swap2\n      swap1\n      tag_98\n      jump\t// in\n    tag_97:\n      0x00\n      mload(0x40)\n      dup1\n      dup4\n      sub\n      dup2\n      dup6\n      dup8\n      gas\n      call\n      swap3\n      pop\n      pop\n      pop\n      returndatasize\n      dup1\n      0x00\n      dup2\n      eq\n      tag_101\n      jumpi\n      mload(0x40)\n      swap2\n      pop\n      and(add(returndatasize, 0x3f), not(0x1f))\n      dup3\n      add\n      0x40\n      mstore\n      returndatasize\n      dup3\n      mstore\n      returndatasize\n      0x00\n      0x20\n      dup5\n      add\n      returndatacopy\n      jump(tag_100)\n    tag_101:\n      0x60\n      swap2\n      pop\n    tag_100:\n      pop\n        /* \"contracts/TimeLock.sol\":4034:4097  (bool ok, bytes memory res) = _target.call{value: _value}(data) */\n      swap2\n      pop\n      swap2\n      pop\n        /* \"contracts/TimeLock.sol\":4113:4115  ok */\n      dup2\n        /* \"contracts/TimeLock.sol\":4108:4166  if (!ok) {... */\n      tag_102\n      jumpi\n        /* \"contracts/TimeLock.sol\":4139:4154  TxFailedError() */\n      mload(0x40)\n      0xd9b4f81e00000000000000000000000000000000000000000000000000000000\n      dup2\n      mstore\n      0x04\n      add\n      mload(0x40)\n      dup1\n      swap2\n      sub\n      swap1\n      revert\n        /* \"contracts/TimeLock.sol\":4108:4166  if (!ok) {... */\n    tag_102:\n        /* \"contracts/TimeLock.sol\":4197:4204  _target */\n      dup12\n        /* \"contracts/TimeLock.sol\":4183:4239  Execute(txId, _target, _value, _func, _data, _timestamp) */\n      0xffffffffffffffffffffffffffffffffffffffff\n      and\n        /* \"contracts/TimeLock.sol\":4191:4195  txId */\n      dup5\n        /* \"contracts/TimeLock.sol\":4183:4239  Execute(txId, _target, _value, _func, _data, _timestamp) */\n      0xd1d5c3c892c18716bd88852091d1b63dc6849e9d7c37f69d566884bf954d4bd9\n        /* \"contracts/TimeLock.sol\":4206:4212  _value */\n      dup14\n        /* \"contracts/TimeLock.sol\":4214:4219  _func */\n      dup14\n      dup14\n        /* \"contracts/TimeLock.sol\":4221:4226  _data */\n      dup14\n      dup14\n        /* \"contracts/TimeLock.sol\":4228:4238  _timestamp */\n      dup14\n        /* \"contracts/TimeLock.sol\":4183:4239  Execute(txId, _target, _value, _func, _data, _timestamp) */\n      mload(0x40)\n      tag_103\n      swap7\n      swap6\n      swap5\n      swap4\n      swap3\n      swap2\n      swap1\n      tag_75\n      jump\t// in\n    tag_103:\n      mload(0x40)\n      dup1\n      swap2\n      sub\n      swap1\n      log3\n        /* \"contracts/TimeLock.sol\":4259:4262  res */\n      dup1\n        /* \"contracts/TimeLock.sol\":4252:4262  return res */\n      swap5\n      pop\n      pop\n      pop\n      pop\n      pop\n        /* \"contracts/TimeLock.sol\":2840:4270  function execute(... */\n      swap8\n      swap7\n      pop\n      pop\n      pop\n      pop\n      pop\n      pop\n      pop\n      jump\t// out\n        /* \"contracts/TimeLock.sol\":993:1036  uint256 public constant GRACE_PERIOD = 1000 */\n    tag_55:\n        /* \"contracts/TimeLock.sol\":1032:1036  1000 */\n      0x03e8\n        /* \"contracts/TimeLock.sol\":993:1036  uint256 public constant GRACE_PERIOD = 1000 */\n      dup2\n      jump\t// out\n        /* \"contracts/TimeLock.sol\":4278:4486  function cancel(bytes32 _txId) external onlyOwner {... */\n    tag_60:\n        /* \"contracts/TimeLock.sol\":1263:1268  owner */\n      0x00\n      dup1\n      sload\n      swap1\n      0x0100\n      exp\n      swap1\n      div\n      0xffffffffffffffffffffffffffffffffffffffff\n      and\n        /* \"contracts/TimeLock.sol\":1249:1268  msg.sender != owner */\n      0xffffffffffffffffffffffffffffffffffffffff\n      and\n        /* \"contracts/TimeLock.sol\":1249:1259  msg.sender */\n      caller\n        /* \"contracts/TimeLock.sol\":1249:1268  msg.sender != owner */\n      0xffffffffffffffffffffffffffffffffffffffff\n      and\n      eq\n        /* \"contracts/TimeLock.sol\":1245:1319  if (msg.sender != owner) {... */\n      tag_105\n      jumpi\n        /* \"contracts/TimeLock.sol\":1292:1307  NotOwnerError() */\n      mload(0x40)\n      0x74a2152700000000000000000000000000000000000000000000000000000000\n      dup2\n      mstore\n      0x04\n      add\n      mload(0x40)\n      dup1\n      swap2\n      sub\n      swap1\n      revert\n        /* \"contracts/TimeLock.sol\":1245:1319  if (msg.sender != owner) {... */\n    tag_105:\n        /* \"contracts/TimeLock.sol\":4344:4350  queued */\n      0x01\n        /* \"contracts/TimeLock.sol\":4344:4357  queued[_txId] */\n      0x00\n        /* \"contracts/TimeLock.sol\":4351:4356  _txId */\n      dup3\n        /* \"contracts/TimeLock.sol\":4344:4357  queued[_txId] */\n      dup2\n      mstore\n      0x20\n      add\n      swap1\n      dup2\n      mstore\n      0x20\n      add\n      0x00\n      keccak256\n      0x00\n      swap1\n      sload\n      swap1\n      0x0100\n      exp\n      swap1\n      div\n      0xff\n      and\n        /* \"contracts/TimeLock.sol\":4339:4414  if (!queued[_txId]) {... */\n      tag_107\n      jumpi\n        /* \"contracts/TimeLock.sol\":4396:4401  _txId */\n      dup1\n        /* \"contracts/TimeLock.sol\":4381:4402  NotQueuedError(_txId) */\n      mload(0x40)\n      0x0995c9d500000000000000000000000000000000000000000000000000000000\n      dup2\n      mstore\n      0x04\n      add\n      tag_108\n      swap2\n      swap1\n      tag_33\n      jump\t// in\n    tag_108:\n      mload(0x40)\n      dup1\n      swap2\n      sub\n      swap1\n      revert\n        /* \"contracts/TimeLock.sol\":4339:4414  if (!queued[_txId]) {... */\n    tag_107:\n        /* \"contracts/TimeLock.sol\":4442:4447  false */\n      0x00\n        /* \"contracts/TimeLock.sol\":4426:4432  queued */\n      0x01\n        /* \"contracts/TimeLock.sol\":4426:4439  queued[_txId] */\n      0x00\n        /* \"contracts/TimeLock.sol\":4433:4438  _txId */\n      dup4\n        /* \"contracts/TimeLock.sol\":4426:4439  queued[_txId] */\n      dup2\n      mstore\n      0x20\n      add\n      swap1\n      dup2\n      mstore\n      0x20\n      add\n      0x00\n      keccak256\n      0x00\n        /* \"contracts/TimeLock.sol\":4426:4447  queued[_txId] = false */\n      0x0100\n      exp\n      dup2\n      sload\n      dup2\n      0xff\n      mul\n      not\n      and\n      swap1\n      dup4\n      iszero\n      iszero\n      mul\n      or\n      swap1\n      sstore\n      pop\n        /* \"contracts/TimeLock.sol\":4472:4477  _txId */\n      dup1\n        /* \"contracts/TimeLock.sol\":4465:4478  Cancel(_txId) */\n      0xe8d9861dbc9c663ed3accd261bbe2fe01e0d3d9e5f51fa38523b265c7757a93a\n      mload(0x40)\n      mload(0x40)\n      dup1\n      swap2\n      sub\n      swap1\n      log2\n        /* \"contracts/TimeLock.sol\":4278:4486  function cancel(bytes32 _txId) external onlyOwner {... */\n      pop\n      jump\t// out\n        /* \"#utility.yul\":88:205   */\n    tag_110:\n        /* \"#utility.yul\":197:198   */\n      0x00\n        /* \"#utility.yul\":194:195   */\n      dup1\n        /* \"#utility.yul\":187:199   */\n      revert\n        /* \"#utility.yul\":211:328   */\n    tag_111:\n        /* \"#utility.yul\":320:321   */\n      0x00\n        /* \"#utility.yul\":317:318   */\n      dup1\n        /* \"#utility.yul\":310:322   */\n      revert\n        /* \"#utility.yul\":334:411   */\n    tag_112:\n        /* \"#utility.yul\":371:378   */\n      0x00\n        /* \"#utility.yul\":400:405   */\n      dup2\n        /* \"#utility.yul\":389:405   */\n      swap1\n      pop\n        /* \"#utility.yul\":334:411   */\n      swap2\n      swap1\n      pop\n      jump\t// out\n        /* \"#utility.yul\":417:539   */\n    tag_113:\n        /* \"#utility.yul\":490:514   */\n      tag_154\n        /* \"#utility.yul\":508:513   */\n      dup2\n        /* \"#utility.yul\":490:514   */\n      tag_112\n      jump\t// in\n    tag_154:\n        /* \"#utility.yul\":483:488   */\n      dup2\n        /* \"#utility.yul\":480:515   */\n      eq\n        /* \"#utility.yul\":470:533   */\n      tag_155\n      jumpi\n        /* \"#utility.yul\":529:530   */\n      0x00\n        /* \"#utility.yul\":526:527   */\n      dup1\n        /* \"#utility.yul\":519:531   */\n      revert\n        /* \"#utility.yul\":470:533   */\n    tag_155:\n        /* \"#utility.yul\":417:539   */\n      pop\n      jump\t// out\n        /* \"#utility.yul\":545:684   */\n    tag_114:\n        /* \"#utility.yul\":591:596   */\n      0x00\n        /* \"#utility.yul\":629:635   */\n      dup2\n        /* \"#utility.yul\":616:636   */\n      calldataload\n        /* \"#utility.yul\":607:636   */\n      swap1\n      pop\n        /* \"#utility.yul\":645:678   */\n      tag_157\n        /* \"#utility.yul\":672:677   */\n      dup2\n        /* \"#utility.yul\":645:678   */\n      tag_113\n      jump\t// in\n    tag_157:\n        /* \"#utility.yul\":545:684   */\n      swap3\n      swap2\n      pop\n      pop\n      jump\t// out\n        /* \"#utility.yul\":690:1019   */\n    tag_18:\n        /* \"#utility.yul\":749:755   */\n      0x00\n        /* \"#utility.yul\":798:800   */\n      0x20\n        /* \"#utility.yul\":786:795   */\n      dup3\n        /* \"#utility.yul\":777:784   */\n      dup5\n        /* \"#utility.yul\":773:796   */\n      sub\n        /* \"#utility.yul\":769:801   */\n      slt\n        /* \"#utility.yul\":766:885   */\n      iszero\n      tag_159\n      jumpi\n        /* \"#utility.yul\":804:883   */\n      tag_160\n      tag_110\n      jump\t// in\n    tag_160:\n        /* \"#utility.yul\":766:885   */\n    tag_159:\n        /* \"#utility.yul\":924:925   */\n      0x00\n        /* \"#utility.yul\":949:1002   */\n      tag_161\n        /* \"#utility.yul\":994:1001   */\n      dup5\n        /* \"#utility.yul\":985:991   */\n      dup3\n        /* \"#utility.yul\":974:983   */\n      dup6\n        /* \"#utility.yul\":970:992   */\n      add\n        /* \"#utility.yul\":949:1002   */\n      tag_114\n      jump\t// in\n    tag_161:\n        /* \"#utility.yul\":939:1002   */\n      swap2\n      pop\n        /* \"#utility.yul\":895:1012   */\n      pop\n        /* \"#utility.yul\":690:1019   */\n      swap3\n      swap2\n      pop\n      pop\n      jump\t// out\n        /* \"#utility.yul\":1025:1115   */\n    tag_115:\n        /* \"#utility.yul\":1059:1066   */\n      0x00\n        /* \"#utility.yul\":1102:1107   */\n      dup2\n        /* \"#utility.yul\":1095:1108   */\n      iszero\n        /* \"#utility.yul\":1088:1109   */\n      iszero\n        /* \"#utility.yul\":1077:1109   */\n      swap1\n      pop\n        /* \"#utility.yul\":1025:1115   */\n      swap2\n      swap1\n      pop\n      jump\t// out\n        /* \"#utility.yul\":1121:1230   */\n    tag_116:\n        /* \"#utility.yul\":1202:1223   */\n      tag_164\n        /* \"#utility.yul\":1217:1222   */\n      dup2\n        /* \"#utility.yul\":1202:1223   */\n      tag_115\n      jump\t// in\n    tag_164:\n        /* \"#utility.yul\":1197:1200   */\n      dup3\n        /* \"#utility.yul\":1190:1224   */\n      mstore\n        /* \"#utility.yul\":1121:1230   */\n      pop\n      pop\n      jump\t// out\n        /* \"#utility.yul\":1236:1446   */\n    tag_21:\n        /* \"#utility.yul\":1323:1327   */\n      0x00\n        /* \"#utility.yul\":1361:1363   */\n      0x20\n        /* \"#utility.yul\":1350:1359   */\n      dup3\n        /* \"#utility.yul\":1346:1364   */\n      add\n        /* \"#utility.yul\":1338:1364   */\n      swap1\n      pop\n        /* \"#utility.yul\":1374:1439   */\n      tag_166\n        /* \"#utility.yul\":1436:1437   */\n      0x00\n        /* \"#utility.yul\":1425:1434   */\n      dup4\n        /* \"#utility.yul\":1421:1438   */\n      add\n        /* \"#utility.yul\":1412:1418   */\n      dup5\n        /* \"#utility.yul\":1374:1439   */\n      tag_116\n      jump\t// in\n    tag_166:\n        /* \"#utility.yul\":1236:1446   */\n      swap3\n      swap2\n      pop\n      pop\n      jump\t// out\n        /* \"#utility.yul\":1452:1529   */\n    tag_117:\n        /* \"#utility.yul\":1489:1496   */\n      0x00\n        /* \"#utility.yul\":1518:1523   */\n      dup2\n        /* \"#utility.yul\":1507:1523   */\n      swap1\n      pop\n        /* \"#utility.yul\":1452:1529   */\n      swap2\n      swap1\n      pop\n      jump\t// out\n        /* \"#utility.yul\":1535:1653   */\n    tag_118:\n        /* \"#utility.yul\":1622:1646   */\n      tag_169\n        /* \"#utility.yul\":1640:1645   */\n      dup2\n        /* \"#utility.yul\":1622:1646   */\n      tag_117\n      jump\t// in\n    tag_169:\n        /* \"#utility.yul\":1617:1620   */\n      dup3\n        /* \"#utility.yul\":1610:1647   */\n      mstore\n        /* \"#utility.yul\":1535:1653   */\n      pop\n      pop\n      jump\t// out\n        /* \"#utility.yul\":1659:1881   */\n    tag_26:\n        /* \"#utility.yul\":1752:1756   */\n      0x00\n        /* \"#utility.yul\":1790:1792   */\n      0x20\n        /* \"#utility.yul\":1779:1788   */\n      dup3\n        /* \"#utility.yul\":1775:1793   */\n      add\n        /* \"#utility.yul\":1767:1793   */\n      swap1\n      pop\n        /* \"#utility.yul\":1803:1874   */\n      tag_171\n        /* \"#utility.yul\":1871:1872   */\n      0x00\n        /* \"#utility.yul\":1860:1869   */\n      dup4\n        /* \"#utility.yul\":1856:1873   */\n      add\n        /* \"#utility.yul\":1847:1853   */\n      dup5\n        /* \"#utility.yul\":1803:1874   */\n      tag_118\n      jump\t// in\n    tag_171:\n        /* \"#utility.yul\":1659:1881   */\n      swap3\n      swap2\n      pop\n      pop\n      jump\t// out\n        /* \"#utility.yul\":1887:2013   */\n    tag_119:\n        /* \"#utility.yul\":1924:1931   */\n      0x00\n        /* \"#utility.yul\":1964:2006   */\n      0xffffffffffffffffffffffffffffffffffffffff\n        /* \"#utility.yul\":1957:1962   */\n      dup3\n        /* \"#utility.yul\":1953:2007   */\n      and\n        /* \"#utility.yul\":1942:2007   */\n      swap1\n      pop\n        /* \"#utility.yul\":1887:2013   */\n      swap2\n      swap1\n      pop\n      jump\t// out\n        /* \"#utility.yul\":2019:2115   */\n    tag_120:\n        /* \"#utility.yul\":2056:2063   */\n      0x00\n        /* \"#utility.yul\":2085:2109   */\n      tag_174\n        /* \"#utility.yul\":2103:2108   */\n      dup3\n        /* \"#utility.yul\":2085:2109   */\n      tag_119\n      jump\t// in\n    tag_174:\n        /* \"#utility.yul\":2074:2109   */\n      swap1\n      pop\n        /* \"#utility.yul\":2019:2115   */\n      swap2\n      swap1\n      pop\n      jump\t// out\n        /* \"#utility.yul\":2121:2243   */\n    tag_121:\n        /* \"#utility.yul\":2194:2218   */\n      tag_176\n        /* \"#utility.yul\":2212:2217   */\n      dup2\n        /* \"#utility.yul\":2194:2218   */\n      tag_120\n      jump\t// in\n    tag_176:\n        /* \"#utility.yul\":2187:2192   */\n      dup2\n        /* \"#utility.yul\":2184:2219   */\n      eq\n        /* \"#utility.yul\":2174:2237   */\n      tag_177\n      jumpi\n        /* \"#utility.yul\":2233:2234   */\n      0x00\n        /* \"#utility.yul\":2230:2231   */\n      dup1\n        /* \"#utility.yul\":2223:2235   */\n      revert\n        /* \"#utility.yul\":2174:2237   */\n    tag_177:\n        /* \"#utility.yul\":2121:2243   */\n      pop\n      jump\t// out\n        /* \"#utility.yul\":2249:2388   */\n    tag_122:\n        /* \"#utility.yul\":2295:2300   */\n      0x00\n        /* \"#utility.yul\":2333:2339   */\n      dup2\n        /* \"#utility.yul\":2320:2340   */\n      calldataload\n        /* \"#utility.yul\":2311:2340   */\n      swap1\n      pop\n        /* \"#utility.yul\":2349:2382   */\n      tag_179\n        /* \"#utility.yul\":2376:2381   */\n      dup2\n        /* \"#utility.yul\":2349:2382   */\n      tag_121\n      jump\t// in\n    tag_179:\n        /* \"#utility.yul\":2249:2388   */\n      swap3\n      swap2\n      pop\n      pop\n      jump\t// out\n        /* \"#utility.yul\":2394:2516   */\n    tag_123:\n        /* \"#utility.yul\":2467:2491   */\n      tag_181\n        /* \"#utility.yul\":2485:2490   */\n      dup2\n        /* \"#utility.yul\":2467:2491   */\n      tag_117\n      jump\t// in\n    tag_181:\n        /* \"#utility.yul\":2460:2465   */\n      dup2\n        /* \"#utility.yul\":2457:2492   */\n      eq\n        /* \"#utility.yul\":2447:2510   */\n      tag_182\n      jumpi\n        /* \"#utility.yul\":2506:2507   */\n      0x00\n        /* \"#utility.yul\":2503:2504   */\n      dup1\n        /* \"#utility.yul\":2496:2508   */\n      revert\n        /* \"#utility.yul\":2447:2510   */\n    tag_182:\n        /* \"#utility.yul\":2394:2516   */\n      pop\n      jump\t// out\n        /* \"#utility.yul\":2522:2661   */\n    tag_124:\n        /* \"#utility.yul\":2568:2573   */\n      0x00\n        /* \"#utility.yul\":2606:2612   */\n      dup2\n        /* \"#utility.yul\":2593:2613   */\n      calldataload\n        /* \"#utility.yul\":2584:2613   */\n      swap1\n      pop\n        /* \"#utility.yul\":2622:2655   */\n      tag_184\n        /* \"#utility.yul\":2649:2654   */\n      dup2\n        /* \"#utility.yul\":2622:2655   */\n      tag_123\n      jump\t// in\n    tag_184:\n        /* \"#utility.yul\":2522:2661   */\n      swap3\n      swap2\n      pop\n      pop\n      jump\t// out\n        /* \"#utility.yul\":2667:2784   */\n    tag_125:\n        /* \"#utility.yul\":2776:2777   */\n      0x00\n        /* \"#utility.yul\":2773:2774   */\n      dup1\n        /* \"#utility.yul\":2766:2778   */\n      revert\n        /* \"#utility.yul\":2790:2907   */\n    tag_126:\n        /* \"#utility.yul\":2899:2900   */\n      0x00\n        /* \"#utility.yul\":2896:2897   */\n      dup1\n        /* \"#utility.yul\":2889:2901   */\n      revert\n        /* \"#utility.yul\":2913:3030   */\n    tag_127:\n        /* \"#utility.yul\":3022:3023   */\n      0x00\n        /* \"#utility.yul\":3019:3020   */\n      dup1\n        /* \"#utility.yul\":3012:3024   */\n      revert\n        /* \"#utility.yul\":3050:3603   */\n    tag_128:\n        /* \"#utility.yul\":3108:3116   */\n      0x00\n        /* \"#utility.yul\":3118:3124   */\n      dup1\n        /* \"#utility.yul\":3168:3171   */\n      dup4\n        /* \"#utility.yul\":3161:3165   */\n      0x1f\n        /* \"#utility.yul\":3153:3159   */\n      dup5\n        /* \"#utility.yul\":3149:3166   */\n      add\n        /* \"#utility.yul\":3145:3172   */\n      slt\n        /* \"#utility.yul\":3135:3257   */\n      tag_189\n      jumpi\n        /* \"#utility.yul\":3176:3255   */\n      tag_190\n      tag_125\n      jump\t// in\n    tag_190:\n        /* \"#utility.yul\":3135:3257   */\n    tag_189:\n        /* \"#utility.yul\":3289:3295   */\n      dup3\n        /* \"#utility.yul\":3276:3296   */\n      calldataload\n        /* \"#utility.yul\":3266:3296   */\n      swap1\n      pop\n        /* \"#utility.yul\":3319:3337   */\n      0xffffffffffffffff\n        /* \"#utility.yul\":3311:3317   */\n      dup2\n        /* \"#utility.yul\":3308:3338   */\n      gt\n        /* \"#utility.yul\":3305:3422   */\n      iszero\n      tag_191\n      jumpi\n        /* \"#utility.yul\":3341:3420   */\n      tag_192\n      tag_126\n      jump\t// in\n    tag_192:\n        /* \"#utility.yul\":3305:3422   */\n    tag_191:\n        /* \"#utility.yul\":3455:3459   */\n      0x20\n        /* \"#utility.yul\":3447:3453   */\n      dup4\n        /* \"#utility.yul\":3443:3460   */\n      add\n        /* \"#utility.yul\":3431:3460   */\n      swap2\n      pop\n        /* \"#utility.yul\":3509:3512   */\n      dup4\n        /* \"#utility.yul\":3501:3505   */\n      0x01\n        /* \"#utility.yul\":3493:3499   */\n      dup3\n        /* \"#utility.yul\":3489:3506   */\n      mul\n        /* \"#utility.yul\":3479:3487   */\n      dup4\n        /* \"#utility.yul\":3475:3507   */\n      add\n        /* \"#utility.yul\":3472:3513   */\n      gt\n        /* \"#utility.yul\":3469:3597   */\n      iszero\n      tag_193\n      jumpi\n        /* \"#utility.yul\":3516:3595   */\n      tag_194\n      tag_127\n      jump\t// in\n    tag_194:\n        /* \"#utility.yul\":3469:3597   */\n    tag_193:\n        /* \"#utility.yul\":3050:3603   */\n      swap3\n      pop\n      swap3\n      swap1\n      pop\n      jump\t// out\n        /* \"#utility.yul\":3622:4174   */\n    tag_129:\n        /* \"#utility.yul\":3679:3687   */\n      0x00\n        /* \"#utility.yul\":3689:3695   */\n      dup1\n        /* \"#utility.yul\":3739:3742   */\n      dup4\n        /* \"#utility.yul\":3732:3736   */\n      0x1f\n        /* \"#utility.yul\":3724:3730   */\n      dup5\n        /* \"#utility.yul\":3720:3737   */\n      add\n        /* \"#utility.yul\":3716:3743   */\n      slt\n        /* \"#utility.yul\":3706:3828   */\n      tag_196\n      jumpi\n        /* \"#utility.yul\":3747:3826   */\n      tag_197\n      tag_125\n      jump\t// in\n    tag_197:\n        /* \"#utility.yul\":3706:3828   */\n    tag_196:\n        /* \"#utility.yul\":3860:3866   */\n      dup3\n        /* \"#utility.yul\":3847:3867   */\n      calldataload\n        /* \"#utility.yul\":3837:3867   */\n      swap1\n      pop\n        /* \"#utility.yul\":3890:3908   */\n      0xffffffffffffffff\n        /* \"#utility.yul\":3882:3888   */\n      dup2\n        /* \"#utility.yul\":3879:3909   */\n      gt\n        /* \"#utility.yul\":3876:3993   */\n      iszero\n      tag_198\n      jumpi\n        /* \"#utility.yul\":3912:3991   */\n      tag_199\n      tag_126\n      jump\t// in\n    tag_199:\n        /* \"#utility.yul\":3876:3993   */\n    tag_198:\n        /* \"#utility.yul\":4026:4030   */\n      0x20\n        /* \"#utility.yul\":4018:4024   */\n      dup4\n        /* \"#utility.yul\":4014:4031   */\n      add\n        /* \"#utility.yul\":4002:4031   */\n      swap2\n      pop\n        /* \"#utility.yul\":4080:4083   */\n      dup4\n        /* \"#utility.yul\":4072:4076   */\n      0x01\n        /* \"#utility.yul\":4064:4070   */\n      dup3\n        /* \"#utility.yul\":4060:4077   */\n      mul\n        /* \"#utility.yul\":4050:4058   */\n      dup4\n        /* \"#utility.yul\":4046:4078   */\n      add\n        /* \"#utility.yul\":4043:4084   */\n      gt\n        /* \"#utility.yul\":4040:4168   */\n      iszero\n      tag_200\n      jumpi\n        /* \"#utility.yul\":4087:4166   */\n      tag_201\n      tag_127\n      jump\t// in\n    tag_201:\n        /* \"#utility.yul\":4040:4168   */\n    tag_200:\n        /* \"#utility.yul\":3622:4174   */\n      swap3\n      pop\n      swap3\n      swap1\n      pop\n      jump\t// out\n        /* \"#utility.yul\":4180:5489   */\n    tag_30:\n        /* \"#utility.yul\":4298:4304   */\n      0x00\n        /* \"#utility.yul\":4306:4312   */\n      dup1\n        /* \"#utility.yul\":4314:4320   */\n      0x00\n        /* \"#utility.yul\":4322:4328   */\n      dup1\n        /* \"#utility.yul\":4330:4336   */\n      0x00\n        /* \"#utility.yul\":4338:4344   */\n      dup1\n        /* \"#utility.yul\":4346:4352   */\n      0x00\n        /* \"#utility.yul\":4395:4398   */\n      0xa0\n        /* \"#utility.yul\":4383:4392   */\n      dup9\n        /* \"#utility.yul\":4374:4381   */\n      dup11\n        /* \"#utility.yul\":4370:4393   */\n      sub\n        /* \"#utility.yul\":4366:4399   */\n      slt\n        /* \"#utility.yul\":4363:4483   */\n      iszero\n      tag_203\n      jumpi\n        /* \"#utility.yul\":4402:4481   */\n      tag_204\n      tag_110\n      jump\t// in\n    tag_204:\n        /* \"#utility.yul\":4363:4483   */\n    tag_203:\n        /* \"#utility.yul\":4522:4523   */\n      0x00\n        /* \"#utility.yul\":4547:4600   */\n      tag_205\n        /* \"#utility.yul\":4592:4599   */\n      dup11\n        /* \"#utility.yul\":4583:4589   */\n      dup3\n        /* \"#utility.yul\":4572:4581   */\n      dup12\n        /* \"#utility.yul\":4568:4590   */\n      add\n        /* \"#utility.yul\":4547:4600   */\n      tag_122\n      jump\t// in\n    tag_205:\n        /* \"#utility.yul\":4537:4600   */\n      swap8\n      pop\n        /* \"#utility.yul\":4493:4610   */\n      pop\n        /* \"#utility.yul\":4649:4651   */\n      0x20\n        /* \"#utility.yul\":4675:4728   */\n      tag_206\n        /* \"#utility.yul\":4720:4727   */\n      dup11\n        /* \"#utility.yul\":4711:4717   */\n      dup3\n        /* \"#utility.yul\":4700:4709   */\n      dup12\n        /* \"#utility.yul\":4696:4718   */\n      add\n        /* \"#utility.yul\":4675:4728   */\n      tag_124\n      jump\t// in\n    tag_206:\n        /* \"#utility.yul\":4665:4728   */\n      swap7\n      pop\n        /* \"#utility.yul\":4620:4738   */\n      pop\n        /* \"#utility.yul\":4805:4807   */\n      0x40\n        /* \"#utility.yul\":4794:4803   */\n      dup9\n        /* \"#utility.yul\":4790:4808   */\n      add\n        /* \"#utility.yul\":4777:4809   */\n      calldataload\n        /* \"#utility.yul\":4836:4854   */\n      0xffffffffffffffff\n        /* \"#utility.yul\":4828:4834   */\n      dup2\n        /* \"#utility.yul\":4825:4855   */\n      gt\n        /* \"#utility.yul\":4822:4939   */\n      iszero\n      tag_207\n      jumpi\n        /* \"#utility.yul\":4858:4937   */\n      tag_208\n      tag_111\n      jump\t// in\n    tag_208:\n        /* \"#utility.yul\":4822:4939   */\n    tag_207:\n        /* \"#utility.yul\":4971:5036   */\n      tag_209\n        /* \"#utility.yul\":5028:5035   */\n      dup11\n        /* \"#utility.yul\":5019:5025   */\n      dup3\n        /* \"#utility.yul\":5008:5017   */\n      dup12\n        /* \"#utility.yul\":5004:5026   */\n      add\n        /* \"#utility.yul\":4971:5036   */\n      tag_128\n      jump\t// in\n    tag_209:\n        /* \"#utility.yul\":4953:5036   */\n      swap6\n      pop\n      swap6\n      pop\n        /* \"#utility.yul\":4748:5046   */\n      pop\n        /* \"#utility.yul\":5113:5115   */\n      0x60\n        /* \"#utility.yul\":5102:5111   */\n      dup9\n        /* \"#utility.yul\":5098:5116   */\n      add\n        /* \"#utility.yul\":5085:5117   */\n      calldataload\n        /* \"#utility.yul\":5144:5162   */\n      0xffffffffffffffff\n        /* \"#utility.yul\":5136:5142   */\n      dup2\n        /* \"#utility.yul\":5133:5163   */\n      gt\n        /* \"#utility.yul\":5130:5247   */\n      iszero\n      tag_210\n      jumpi\n        /* \"#utility.yul\":5166:5245   */\n      tag_211\n      tag_111\n      jump\t// in\n    tag_211:\n        /* \"#utility.yul\":5130:5247   */\n    tag_210:\n        /* \"#utility.yul\":5279:5343   */\n      tag_212\n        /* \"#utility.yul\":5335:5342   */\n      dup11\n        /* \"#utility.yul\":5326:5332   */\n      dup3\n        /* \"#utility.yul\":5315:5324   */\n      dup12\n        /* \"#utility.yul\":5311:5333   */\n      add\n        /* \"#utility.yul\":5279:5343   */\n      tag_129\n      jump\t// in\n    tag_212:\n        /* \"#utility.yul\":5261:5343   */\n      swap4\n      pop\n      swap4\n      pop\n        /* \"#utility.yul\":5056:5353   */\n      pop\n        /* \"#utility.yul\":5392:5395   */\n      0x80\n        /* \"#utility.yul\":5419:5472   */\n      tag_213\n        /* \"#utility.yul\":5464:5471   */\n      dup11\n        /* \"#utility.yul\":5455:5461   */\n      dup3\n        /* \"#utility.yul\":5444:5453   */\n      dup12\n        /* \"#utility.yul\":5440:5462   */\n      add\n        /* \"#utility.yul\":5419:5472   */\n      tag_124\n      jump\t// in\n    tag_213:\n        /* \"#utility.yul\":5409:5472   */\n      swap2\n      pop\n        /* \"#utility.yul\":5363:5482   */\n      pop\n        /* \"#utility.yul\":4180:5489   */\n      swap3\n      swap6\n      swap9\n      swap2\n      swap5\n      swap8\n      pop\n      swap3\n      swap6\n      pop\n      jump\t// out\n        /* \"#utility.yul\":5495:5613   */\n    tag_130:\n        /* \"#utility.yul\":5582:5606   */\n      tag_215\n        /* \"#utility.yul\":5600:5605   */\n      dup2\n        /* \"#utility.yul\":5582:5606   */\n      tag_112\n      jump\t// in\n    tag_215:\n        /* \"#utility.yul\":5577:5580   */\n      dup3\n        /* \"#utility.yul\":5570:5607   */\n      mstore\n        /* \"#utility.yul\":5495:5613   */\n      pop\n      pop\n      jump\t// out\n        /* \"#utility.yul\":5619:5841   */\n    tag_33:\n        /* \"#utility.yul\":5712:5716   */\n      0x00\n        /* \"#utility.yul\":5750:5752   */\n      0x20\n        /* \"#utility.yul\":5739:5748   */\n      dup3\n        /* \"#utility.yul\":5735:5753   */\n      add\n        /* \"#utility.yul\":5727:5753   */\n      swap1\n      pop\n        /* \"#utility.yul\":5763:5834   */\n      tag_217\n        /* \"#utility.yul\":5831:5832   */\n      0x00\n        /* \"#utility.yul\":5820:5829   */\n      dup4\n        /* \"#utility.yul\":5816:5833   */\n      add\n        /* \"#utility.yul\":5807:5813   */\n      dup5\n        /* \"#utility.yul\":5763:5834   */\n      tag_130\n      jump\t// in\n    tag_217:\n        /* \"#utility.yul\":5619:5841   */\n      swap3\n      swap2\n      pop\n      pop\n      jump\t// out\n        /* \"#utility.yul\":5847:5965   */\n    tag_131:\n        /* \"#utility.yul\":5934:5958   */\n      tag_219\n        /* \"#utility.yul\":5952:5957   */\n      dup2\n        /* \"#utility.yul\":5934:5958   */\n      tag_120\n      jump\t// in\n    tag_219:\n        /* \"#utility.yul\":5929:5932   */\n      dup3\n        /* \"#utility.yul\":5922:5959   */\n      mstore\n        /* \"#utility.yul\":5847:5965   */\n      pop\n      pop\n      jump\t// out\n        /* \"#utility.yul\":5971:6193   */\n    tag_43:\n        /* \"#utility.yul\":6064:6068   */\n      0x00\n        /* \"#utility.yul\":6102:6104   */\n      0x20\n        /* \"#utility.yul\":6091:6100   */\n      dup3\n        /* \"#utility.yul\":6087:6105   */\n      add\n        /* \"#utility.yul\":6079:6105   */\n      swap1\n      pop\n        /* \"#utility.yul\":6115:6186   */\n      tag_221\n        /* \"#utility.yul\":6183:6184   */\n      0x00\n        /* \"#utility.yul\":6172:6181   */\n      dup4\n        /* \"#utility.yul\":6168:6185   */\n      add\n        /* \"#utility.yul\":6159:6165   */\n      dup5\n        /* \"#utility.yul\":6115:6186   */\n      tag_131\n      jump\t// in\n    tag_221:\n        /* \"#utility.yul\":5971:6193   */\n      swap3\n      swap2\n      pop\n      pop\n      jump\t// out\n        /* \"#utility.yul\":6199:6297   */\n    tag_132:\n        /* \"#utility.yul\":6250:6256   */\n      0x00\n        /* \"#utility.yul\":6284:6289   */\n      dup2\n        /* \"#utility.yul\":6278:6290   */\n      mload\n        /* \"#utility.yul\":6268:6290   */\n      swap1\n      pop\n        /* \"#utility.yul\":6199:6297   */\n      swap2\n      swap1\n      pop\n      jump\t// out\n        /* \"#utility.yul\":6303:6471   */\n    tag_133:\n        /* \"#utility.yul\":6386:6397   */\n      0x00\n        /* \"#utility.yul\":6420:6426   */\n      dup3\n        /* \"#utility.yul\":6415:6418   */\n      dup3\n        /* \"#utility.yul\":6408:6427   */\n      mstore\n        /* \"#utility.yul\":6460:6464   */\n      0x20\n        /* \"#utility.yul\":6455:6458   */\n      dup3\n        /* \"#utility.yul\":6451:6465   */\n      add\n        /* \"#utility.yul\":6436:6465   */\n      swap1\n      pop\n        /* \"#utility.yul\":6303:6471   */\n      swap3\n      swap2\n      pop\n      pop\n      jump\t// out\n        /* \"#utility.yul\":6477:6616   */\n    tag_134:\n        /* \"#utility.yul\":6566:6572   */\n      dup3\n        /* \"#utility.yul\":6561:6564   */\n      dup2\n        /* \"#utility.yul\":6556:6559   */\n      dup4\n        /* \"#utility.yul\":6550:6573   */\n      mcopy\n        /* \"#utility.yul\":6607:6608   */\n      0x00\n        /* \"#utility.yul\":6598:6604   */\n      dup4\n        /* \"#utility.yul\":6593:6596   */\n      dup4\n        /* \"#utility.yul\":6589:6605   */\n      add\n        /* \"#utility.yul\":6582:6609   */\n      mstore\n        /* \"#utility.yul\":6477:6616   */\n      pop\n      pop\n      pop\n      jump\t// out\n        /* \"#utility.yul\":6622:6724   */\n    tag_135:\n        /* \"#utility.yul\":6663:6669   */\n      0x00\n        /* \"#utility.yul\":6714:6716   */\n      0x1f\n        /* \"#utility.yul\":6710:6717   */\n      not\n        /* \"#utility.yul\":6705:6707   */\n      0x1f\n        /* \"#utility.yul\":6698:6703   */\n      dup4\n        /* \"#utility.yul\":6694:6708   */\n      add\n        /* \"#utility.yul\":6690:6718   */\n      and\n        /* \"#utility.yul\":6680:6718   */\n      swap1\n      pop\n        /* \"#utility.yul\":6622:6724   */\n      swap2\n      swap1\n      pop\n      jump\t// out\n        /* \"#utility.yul\":6730:7103   */\n    tag_136:\n        /* \"#utility.yul\":6816:6819   */\n      0x00\n        /* \"#utility.yul\":6844:6882   */\n      tag_227\n        /* \"#utility.yul\":6876:6881   */\n      dup3\n        /* \"#utility.yul\":6844:6882   */\n      tag_132\n      jump\t// in\n    tag_227:\n        /* \"#utility.yul\":6898:6968   */\n      tag_228\n        /* \"#utility.yul\":6961:6967   */\n      dup2\n        /* \"#utility.yul\":6956:6959   */\n      dup6\n        /* \"#utility.yul\":6898:6968   */\n      tag_133\n      jump\t// in\n    tag_228:\n        /* \"#utility.yul\":6891:6968   */\n      swap4\n      pop\n        /* \"#utility.yul\":6977:7042   */\n      tag_229\n        /* \"#utility.yul\":7035:7041   */\n      dup2\n        /* \"#utility.yul\":7030:7033   */\n      dup6\n        /* \"#utility.yul\":7023:7027   */\n      0x20\n        /* \"#utility.yul\":7016:7021   */\n      dup7\n        /* \"#utility.yul\":7012:7028   */\n      add\n        /* \"#utility.yul\":6977:7042   */\n      tag_134\n      jump\t// in\n    tag_229:\n        /* \"#utility.yul\":7067:7096   */\n      tag_230\n        /* \"#utility.yul\":7089:7095   */\n      dup2\n        /* \"#utility.yul\":7067:7096   */\n      tag_135\n      jump\t// in\n    tag_230:\n        /* \"#utility.yul\":7062:7065   */\n      dup5\n        /* \"#utility.yul\":7058:7097   */\n      add\n        /* \"#utility.yul\":7051:7097   */\n      swap2\n      pop\n        /* \"#utility.yul\":6820:7103   */\n      pop\n        /* \"#utility.yul\":6730:7103   */\n      swap3\n      swap2\n      pop\n      pop\n      jump\t// out\n        /* \"#utility.yul\":7109:7418   */\n    tag_52:\n        /* \"#utility.yul\":7220:7224   */\n      0x00\n        /* \"#utility.yul\":7258:7260   */\n      0x20\n        /* \"#utility.yul\":7247:7256   */\n      dup3\n        /* \"#utility.yul\":7243:7261   */\n      add\n        /* \"#utility.yul\":7235:7261   */\n      swap1\n      pop\n        /* \"#utility.yul\":7307:7316   */\n      dup2\n        /* \"#utility.yul\":7301:7305   */\n      dup2\n        /* \"#utility.yul\":7297:7317   */\n      sub\n        /* \"#utility.yul\":7293:7294   */\n      0x00\n        /* \"#utility.yul\":7282:7291   */\n      dup4\n        /* \"#utility.yul\":7278:7295   */\n      add\n        /* \"#utility.yul\":7271:7318   */\n      mstore\n        /* \"#utility.yul\":7335:7411   */\n      tag_232\n        /* \"#utility.yul\":7406:7410   */\n      dup2\n        /* \"#utility.yul\":7397:7403   */\n      dup5\n        /* \"#utility.yul\":7335:7411   */\n      tag_136\n      jump\t// in\n    tag_232:\n        /* \"#utility.yul\":7327:7411   */\n      swap1\n      pop\n        /* \"#utility.yul\":7109:7418   */\n      swap3\n      swap2\n      pop\n      pop\n      jump\t// out\n        /* \"#utility.yul\":7424:7604   */\n    tag_137:\n        /* \"#utility.yul\":7472:7549   */\n      0x4e487b7100000000000000000000000000000000000000000000000000000000\n        /* \"#utility.yul\":7469:7470   */\n      0x00\n        /* \"#utility.yul\":7462:7550   */\n      mstore\n        /* \"#utility.yul\":7569:7573   */\n      0x11\n        /* \"#utility.yul\":7566:7567   */\n      0x04\n        /* \"#utility.yul\":7559:7574   */\n      mstore\n        /* \"#utility.yul\":7593:7597   */\n      0x24\n        /* \"#utility.yul\":7590:7591   */\n      0x00\n        /* \"#utility.yul\":7583:7598   */\n      revert\n        /* \"#utility.yul\":7610:7801   */\n    tag_68:\n        /* \"#utility.yul\":7650:7653   */\n      0x00\n        /* \"#utility.yul\":7669:7689   */\n      tag_235\n        /* \"#utility.yul\":7687:7688   */\n      dup3\n        /* \"#utility.yul\":7669:7689   */\n      tag_117\n      jump\t// in\n    tag_235:\n        /* \"#utility.yul\":7664:7689   */\n      swap2\n      pop\n        /* \"#utility.yul\":7703:7723   */\n      tag_236\n        /* \"#utility.yul\":7721:7722   */\n      dup4\n        /* \"#utility.yul\":7703:7723   */\n      tag_117\n      jump\t// in\n    tag_236:\n        /* \"#utility.yul\":7698:7723   */\n      swap3\n      pop\n        /* \"#utility.yul\":7746:7747   */\n      dup3\n        /* \"#utility.yul\":7743:7744   */\n      dup3\n        /* \"#utility.yul\":7739:7748   */\n      add\n        /* \"#utility.yul\":7732:7748   */\n      swap1\n      pop\n        /* \"#utility.yul\":7767:7770   */\n      dup1\n        /* \"#utility.yul\":7764:7765   */\n      dup3\n        /* \"#utility.yul\":7761:7771   */\n      gt\n        /* \"#utility.yul\":7758:7794   */\n      iszero\n      tag_237\n      jumpi\n        /* \"#utility.yul\":7774:7792   */\n      tag_238\n      tag_137\n      jump\t// in\n    tag_238:\n        /* \"#utility.yul\":7758:7794   */\n    tag_237:\n        /* \"#utility.yul\":7610:7801   */\n      swap3\n      swap2\n      pop\n      pop\n      jump\t// out\n        /* \"#utility.yul\":7807:8139   */\n    tag_73:\n        /* \"#utility.yul\":7928:7932   */\n      0x00\n        /* \"#utility.yul\":7966:7968   */\n      0x40\n        /* \"#utility.yul\":7955:7964   */\n      dup3\n        /* \"#utility.yul\":7951:7969   */\n      add\n        /* \"#utility.yul\":7943:7969   */\n      swap1\n      pop\n        /* \"#utility.yul\":7979:8050   */\n      tag_240\n        /* \"#utility.yul\":8047:8048   */\n      0x00\n        /* \"#utility.yul\":8036:8045   */\n      dup4\n        /* \"#utility.yul\":8032:8049   */\n      add\n        /* \"#utility.yul\":8023:8029   */\n      dup6\n        /* \"#utility.yul\":7979:8050   */\n      tag_118\n      jump\t// in\n    tag_240:\n        /* \"#utility.yul\":8060:8132   */\n      tag_241\n        /* \"#utility.yul\":8128:8130   */\n      0x20\n        /* \"#utility.yul\":8117:8126   */\n      dup4\n        /* \"#utility.yul\":8113:8131   */\n      add\n        /* \"#utility.yul\":8104:8110   */\n      dup5\n        /* \"#utility.yul\":8060:8132   */\n      tag_118\n      jump\t// in\n    tag_241:\n        /* \"#utility.yul\":7807:8139   */\n      swap4\n      swap3\n      pop\n      pop\n      pop\n      jump\t// out\n        /* \"#utility.yul\":8145:8314   */\n    tag_138:\n        /* \"#utility.yul\":8229:8240   */\n      0x00\n        /* \"#utility.yul\":8263:8269   */\n      dup3\n        /* \"#utility.yul\":8258:8261   */\n      dup3\n        /* \"#utility.yul\":8251:8270   */\n      mstore\n        /* \"#utility.yul\":8303:8307   */\n      0x20\n        /* \"#utility.yul\":8298:8301   */\n      dup3\n        /* \"#utility.yul\":8294:8308   */\n      add\n        /* \"#utility.yul\":8279:8308   */\n      swap1\n      pop\n        /* \"#utility.yul\":8145:8314   */\n      swap3\n      swap2\n      pop\n      pop\n      jump\t// out\n        /* \"#utility.yul\":8320:8468   */\n    tag_139:\n        /* \"#utility.yul\":8418:8424   */\n      dup3\n        /* \"#utility.yul\":8413:8416   */\n      dup2\n        /* \"#utility.yul\":8408:8411   */\n      dup4\n        /* \"#utility.yul\":8395:8425   */\n      calldatacopy\n        /* \"#utility.yul\":8459:8460   */\n      0x00\n        /* \"#utility.yul\":8450:8456   */\n      dup4\n        /* \"#utility.yul\":8445:8448   */\n      dup4\n        /* \"#utility.yul\":8441:8457   */\n      add\n        /* \"#utility.yul\":8434:8461   */\n      mstore\n        /* \"#utility.yul\":8320:8468   */\n      pop\n      pop\n      pop\n      jump\t// out\n        /* \"#utility.yul\":8498:8815   */\n    tag_140:\n        /* \"#utility.yul\":8596:8599   */\n      0x00\n        /* \"#utility.yul\":8617:8688   */\n      tag_245\n        /* \"#utility.yul\":8681:8687   */\n      dup4\n        /* \"#utility.yul\":8676:8679   */\n      dup6\n        /* \"#utility.yul\":8617:8688   */\n      tag_138\n      jump\t// in\n    tag_245:\n        /* \"#utility.yul\":8610:8688   */\n      swap4\n      pop\n        /* \"#utility.yul\":8698:8754   */\n      tag_246\n        /* \"#utility.yul\":8747:8753   */\n      dup4\n        /* \"#utility.yul\":8742:8745   */\n      dup6\n        /* \"#utility.yul\":8735:8740   */\n      dup5\n        /* \"#utility.yul\":8698:8754   */\n      tag_139\n      jump\t// in\n    tag_246:\n        /* \"#utility.yul\":8779:8808   */\n      tag_247\n        /* \"#utility.yul\":8801:8807   */\n      dup4\n        /* \"#utility.yul\":8779:8808   */\n      tag_135\n      jump\t// in\n    tag_247:\n        /* \"#utility.yul\":8774:8777   */\n      dup5\n        /* \"#utility.yul\":8770:8809   */\n      add\n        /* \"#utility.yul\":8763:8809   */\n      swap1\n      pop\n        /* \"#utility.yul\":8498:8815   */\n      swap4\n      swap3\n      pop\n      pop\n      pop\n      jump\t// out\n        /* \"#utility.yul\":8843:9157   */\n    tag_141:\n        /* \"#utility.yul\":8939:8942   */\n      0x00\n        /* \"#utility.yul\":8960:9030   */\n      tag_249\n        /* \"#utility.yul\":9023:9029   */\n      dup4\n        /* \"#utility.yul\":9018:9021   */\n      dup6\n        /* \"#utility.yul\":8960:9030   */\n      tag_133\n      jump\t// in\n    tag_249:\n        /* \"#utility.yul\":8953:9030   */\n      swap4\n      pop\n        /* \"#utility.yul\":9040:9096   */\n      tag_250\n        /* \"#utility.yul\":9089:9095   */\n      dup4\n        /* \"#utility.yul\":9084:9087   */\n      dup6\n        /* \"#utility.yul\":9077:9082   */\n      dup5\n        /* \"#utility.yul\":9040:9096   */\n      tag_139\n      jump\t// in\n    tag_250:\n        /* \"#utility.yul\":9121:9150   */\n      tag_251\n        /* \"#utility.yul\":9143:9149   */\n      dup4\n        /* \"#utility.yul\":9121:9150   */\n      tag_135\n      jump\t// in\n    tag_251:\n        /* \"#utility.yul\":9116:9119   */\n      dup5\n        /* \"#utility.yul\":9112:9151   */\n      add\n        /* \"#utility.yul\":9105:9151   */\n      swap1\n      pop\n        /* \"#utility.yul\":8843:9157   */\n      swap4\n      swap3\n      pop\n      pop\n      pop\n      jump\t// out\n        /* \"#utility.yul\":9163:9934   */\n    tag_75:\n        /* \"#utility.yul\":9398:9402   */\n      0x00\n        /* \"#utility.yul\":9436:9439   */\n      0x80\n        /* \"#utility.yul\":9425:9434   */\n      dup3\n        /* \"#utility.yul\":9421:9440   */\n      add\n        /* \"#utility.yul\":9413:9440   */\n      swap1\n      pop\n        /* \"#utility.yul\":9450:9521   */\n      tag_253\n        /* \"#utility.yul\":9518:9519   */\n      0x00\n        /* \"#utility.yul\":9507:9516   */\n      dup4\n        /* \"#utility.yul\":9503:9520   */\n      add\n        /* \"#utility.yul\":9494:9500   */\n      dup10\n        /* \"#utility.yul\":9450:9521   */\n      tag_118\n      jump\t// in\n    tag_253:\n        /* \"#utility.yul\":9568:9577   */\n      dup2\n        /* \"#utility.yul\":9562:9566   */\n      dup2\n        /* \"#utility.yul\":9558:9578   */\n      sub\n        /* \"#utility.yul\":9553:9555   */\n      0x20\n        /* \"#utility.yul\":9542:9551   */\n      dup4\n        /* \"#utility.yul\":9538:9556   */\n      add\n        /* \"#utility.yul\":9531:9579   */\n      mstore\n        /* \"#utility.yul\":9596:9684   */\n      tag_254\n        /* \"#utility.yul\":9679:9683   */\n      dup2\n        /* \"#utility.yul\":9670:9676   */\n      dup8\n        /* \"#utility.yul\":9662:9668   */\n      dup10\n        /* \"#utility.yul\":9596:9684   */\n      tag_140\n      jump\t// in\n    tag_254:\n        /* \"#utility.yul\":9588:9684   */\n      swap1\n      pop\n        /* \"#utility.yul\":9731:9740   */\n      dup2\n        /* \"#utility.yul\":9725:9729   */\n      dup2\n        /* \"#utility.yul\":9721:9741   */\n      sub\n        /* \"#utility.yul\":9716:9718   */\n      0x40\n        /* \"#utility.yul\":9705:9714   */\n      dup4\n        /* \"#utility.yul\":9701:9719   */\n      add\n        /* \"#utility.yul\":9694:9742   */\n      mstore\n        /* \"#utility.yul\":9759:9845   */\n      tag_255\n        /* \"#utility.yul\":9840:9844   */\n      dup2\n        /* \"#utility.yul\":9831:9837   */\n      dup6\n        /* \"#utility.yul\":9823:9829   */\n      dup8\n        /* \"#utility.yul\":9759:9845   */\n      tag_141\n      jump\t// in\n    tag_255:\n        /* \"#utility.yul\":9751:9845   */\n      swap1\n      pop\n        /* \"#utility.yul\":9855:9927   */\n      tag_256\n        /* \"#utility.yul\":9923:9925   */\n      0x60\n        /* \"#utility.yul\":9912:9921   */\n      dup4\n        /* \"#utility.yul\":9908:9926   */\n      add\n        /* \"#utility.yul\":9899:9905   */\n      dup5\n        /* \"#utility.yul\":9855:9927   */\n      tag_118\n      jump\t// in\n    tag_256:\n        /* \"#utility.yul\":9163:9934   */\n      swap8\n      swap7\n      pop\n      pop\n      pop\n      pop\n      pop\n      pop\n      pop\n      jump\t// out\n        /* \"#utility.yul\":9940:10822   */\n    tag_78:\n        /* \"#utility.yul\":10203:10207   */\n      0x00\n        /* \"#utility.yul\":10241:10244   */\n      0xa0\n        /* \"#utility.yul\":10230:10239   */\n      dup3\n        /* \"#utility.yul\":10226:10245   */\n      add\n        /* \"#utility.yul\":10218:10245   */\n      swap1\n      pop\n        /* \"#utility.yul\":10255:10326   */\n      tag_258\n        /* \"#utility.yul\":10323:10324   */\n      0x00\n        /* \"#utility.yul\":10312:10321   */\n      dup4\n        /* \"#utility.yul\":10308:10325   */\n      add\n        /* \"#utility.yul\":10299:10305   */\n      dup11\n        /* \"#utility.yul\":10255:10326   */\n      tag_131\n      jump\t// in\n    tag_258:\n        /* \"#utility.yul\":10336:10408   */\n      tag_259\n        /* \"#utility.yul\":10404:10406   */\n      0x20\n        /* \"#utility.yul\":10393:10402   */\n      dup4\n        /* \"#utility.yul\":10389:10407   */\n      add\n        /* \"#utility.yul\":10380:10386   */\n      dup10\n        /* \"#utility.yul\":10336:10408   */\n      tag_118\n      jump\t// in\n    tag_259:\n        /* \"#utility.yul\":10455:10464   */\n      dup2\n        /* \"#utility.yul\":10449:10453   */\n      dup2\n        /* \"#utility.yul\":10445:10465   */\n      sub\n        /* \"#utility.yul\":10440:10442   */\n      0x40\n        /* \"#utility.yul\":10429:10438   */\n      dup4\n        /* \"#utility.yul\":10425:10443   */\n      add\n        /* \"#utility.yul\":10418:10466   */\n      mstore\n        /* \"#utility.yul\":10483:10571   */\n      tag_260\n        /* \"#utility.yul\":10566:10570   */\n      dup2\n        /* \"#utility.yul\":10557:10563   */\n      dup8\n        /* \"#utility.yul\":10549:10555   */\n      dup10\n        /* \"#utility.yul\":10483:10571   */\n      tag_140\n      jump\t// in\n    tag_260:\n        /* \"#utility.yul\":10475:10571   */\n      swap1\n      pop\n        /* \"#utility.yul\":10618:10627   */\n      dup2\n        /* \"#utility.yul\":10612:10616   */\n      dup2\n        /* \"#utility.yul\":10608:10628   */\n      sub\n        /* \"#utility.yul\":10603:10605   */\n      0x60\n        /* \"#utility.yul\":10592:10601   */\n      dup4\n        /* \"#utility.yul\":10588:10606   */\n      add\n        /* \"#utility.yul\":10581:10629   */\n      mstore\n        /* \"#utility.yul\":10646:10732   */\n      tag_261\n        /* \"#utility.yul\":10727:10731   */\n      dup2\n        /* \"#utility.yul\":10718:10724   */\n      dup6\n        /* \"#utility.yul\":10710:10716   */\n      dup8\n        /* \"#utility.yul\":10646:10732   */\n      tag_141\n      jump\t// in\n    tag_261:\n        /* \"#utility.yul\":10638:10732   */\n      swap1\n      pop\n        /* \"#utility.yul\":10742:10815   */\n      tag_262\n        /* \"#utility.yul\":10810:10813   */\n      0x80\n        /* \"#utility.yul\":10799:10808   */\n      dup4\n        /* \"#utility.yul\":10795:10814   */\n      add\n        /* \"#utility.yul\":10786:10792   */\n      dup5\n        /* \"#utility.yul\":10742:10815   */\n      tag_118\n      jump\t// in\n    tag_262:\n        /* \"#utility.yul\":9940:10822   */\n      swap9\n      swap8\n      pop\n      pop\n      pop\n      pop\n      pop\n      pop\n      pop\n      pop\n      jump\t// out\n        /* \"#utility.yul\":10828:10975   */\n    tag_142:\n        /* \"#utility.yul\":10929:10940   */\n      0x00\n        /* \"#utility.yul\":10966:10969   */\n      dup2\n        /* \"#utility.yul\":10951:10969   */\n      swap1\n      pop\n        /* \"#utility.yul\":10828:10975   */\n      swap3\n      swap2\n      pop\n      pop\n      jump\t// out\n        /* \"#utility.yul\":11003:11330   */\n    tag_143:\n        /* \"#utility.yul\":11117:11120   */\n      0x00\n        /* \"#utility.yul\":11138:11226   */\n      tag_265\n        /* \"#utility.yul\":11219:11225   */\n      dup4\n        /* \"#utility.yul\":11214:11217   */\n      dup6\n        /* \"#utility.yul\":11138:11226   */\n      tag_142\n      jump\t// in\n    tag_265:\n        /* \"#utility.yul\":11131:11226   */\n      swap4\n      pop\n        /* \"#utility.yul\":11236:11292   */\n      tag_266\n        /* \"#utility.yul\":11285:11291   */\n      dup4\n        /* \"#utility.yul\":11280:11283   */\n      dup6\n        /* \"#utility.yul\":11273:11278   */\n      dup5\n        /* \"#utility.yul\":11236:11292   */\n      tag_139\n      jump\t// in\n    tag_266:\n        /* \"#utility.yul\":11317:11323   */\n      dup3\n        /* \"#utility.yul\":11312:11315   */\n      dup5\n        /* \"#utility.yul\":11308:11324   */\n      add\n        /* \"#utility.yul\":11301:11324   */\n      swap1\n      pop\n        /* \"#utility.yul\":11003:11330   */\n      swap4\n      swap3\n      pop\n      pop\n      pop\n      jump\t// out\n        /* \"#utility.yul\":11336:11627   */\n    tag_93:\n        /* \"#utility.yul\":11476:11479   */\n      0x00\n        /* \"#utility.yul\":11498:11601   */\n      tag_268\n        /* \"#utility.yul\":11597:11600   */\n      dup3\n        /* \"#utility.yul\":11588:11594   */\n      dup5\n        /* \"#utility.yul\":11580:11586   */\n      dup7\n        /* \"#utility.yul\":11498:11601   */\n      tag_143\n      jump\t// in\n    tag_268:\n        /* \"#utility.yul\":11491:11601   */\n      swap2\n      pop\n        /* \"#utility.yul\":11618:11621   */\n      dup2\n        /* \"#utility.yul\":11611:11621   */\n      swap1\n      pop\n        /* \"#utility.yul\":11336:11627   */\n      swap4\n      swap3\n      pop\n      pop\n      pop\n      jump\t// out\n        /* \"#utility.yul\":11633:11782   */\n    tag_144:\n        /* \"#utility.yul\":11669:11676   */\n      0x00\n        /* \"#utility.yul\":11709:11775   */\n      0xffffffff00000000000000000000000000000000000000000000000000000000\n        /* \"#utility.yul\":11702:11707   */\n      dup3\n        /* \"#utility.yul\":11698:11776   */\n      and\n        /* \"#utility.yul\":11687:11776   */\n      swap1\n      pop\n        /* \"#utility.yul\":11633:11782   */\n      swap2\n      swap1\n      pop\n      jump\t// out\n        /* \"#utility.yul\":11788:11866   */\n    tag_145:\n        /* \"#utility.yul\":11826:11833   */\n      0x00\n        /* \"#utility.yul\":11855:11860   */\n      dup2\n        /* \"#utility.yul\":11844:11860   */\n      swap1\n      pop\n        /* \"#utility.yul\":11788:11866   */\n      swap2\n      swap1\n      pop\n      jump\t// out\n        /* \"#utility.yul\":11872:12025   */\n    tag_146:\n        /* \"#utility.yul\":11975:12018   */\n      tag_272\n        /* \"#utility.yul\":11994:12017   */\n      tag_273\n        /* \"#utility.yul\":12011:12016   */\n      dup3\n        /* \"#utility.yul\":11994:12017   */\n      tag_144\n      jump\t// in\n    tag_273:\n        /* \"#utility.yul\":11975:12018   */\n      tag_145\n      jump\t// in\n    tag_272:\n        /* \"#utility.yul\":11970:11973   */\n      dup3\n        /* \"#utility.yul\":11963:12019   */\n      mstore\n        /* \"#utility.yul\":11872:12025   */\n      pop\n      pop\n      jump\t// out\n        /* \"#utility.yul\":12031:12458   */\n    tag_95:\n        /* \"#utility.yul\":12197:12200   */\n      0x00\n        /* \"#utility.yul\":12212:12285   */\n      tag_275\n        /* \"#utility.yul\":12281:12284   */\n      dup3\n        /* \"#utility.yul\":12272:12278   */\n      dup7\n        /* \"#utility.yul\":12212:12285   */\n      tag_146\n      jump\t// in\n    tag_275:\n        /* \"#utility.yul\":12310:12311   */\n      0x04\n        /* \"#utility.yul\":12305:12308   */\n      dup3\n        /* \"#utility.yul\":12301:12312   */\n      add\n        /* \"#utility.yul\":12294:12312   */\n      swap2\n      pop\n        /* \"#utility.yul\":12329:12432   */\n      tag_276\n        /* \"#utility.yul\":12428:12431   */\n      dup3\n        /* \"#utility.yul\":12419:12425   */\n      dup5\n        /* \"#utility.yul\":12411:12417   */\n      dup7\n        /* \"#utility.yul\":12329:12432   */\n      tag_143\n      jump\t// in\n    tag_276:\n        /* \"#utility.yul\":12322:12432   */\n      swap2\n      pop\n        /* \"#utility.yul\":12449:12452   */\n      dup2\n        /* \"#utility.yul\":12442:12452   */\n      swap1\n      pop\n        /* \"#utility.yul\":12031:12458   */\n      swap5\n      swap4\n      pop\n      pop\n      pop\n      pop\n      jump\t// out\n        /* \"#utility.yul\":12464:12850   */\n    tag_147:\n        /* \"#utility.yul\":12568:12571   */\n      0x00\n        /* \"#utility.yul\":12596:12634   */\n      tag_278\n        /* \"#utility.yul\":12628:12633   */\n      dup3\n        /* \"#utility.yul\":12596:12634   */\n      tag_132\n      jump\t// in\n    tag_278:\n        /* \"#utility.yul\":12650:12738   */\n      tag_279\n        /* \"#utility.yul\":12731:12737   */\n      dup2\n        /* \"#utility.yul\":12726:12729   */\n      dup6\n        /* \"#utility.yul\":12650:12738   */\n      tag_142\n      jump\t// in\n    tag_279:\n        /* \"#utility.yul\":12643:12738   */\n      swap4\n      pop\n        /* \"#utility.yul\":12747:12812   */\n      tag_280\n        /* \"#utility.yul\":12805:12811   */\n      dup2\n        /* \"#utility.yul\":12800:12803   */\n      dup6\n        /* \"#utility.yul\":12793:12797   */\n      0x20\n        /* \"#utility.yul\":12786:12791   */\n      dup7\n        /* \"#utility.yul\":12782:12798   */\n      add\n        /* \"#utility.yul\":12747:12812   */\n      tag_134\n      jump\t// in\n    tag_280:\n        /* \"#utility.yul\":12837:12843   */\n      dup1\n        /* \"#utility.yul\":12832:12835   */\n      dup5\n        /* \"#utility.yul\":12828:12844   */\n      add\n        /* \"#utility.yul\":12821:12844   */\n      swap2\n      pop\n        /* \"#utility.yul\":12572:12850   */\n      pop\n        /* \"#utility.yul\":12464:12850   */\n      swap3\n      swap2\n      pop\n      pop\n      jump\t// out\n        /* \"#utility.yul\":12856:13127   */\n    tag_98:\n        /* \"#utility.yul\":12986:12989   */\n      0x00\n        /* \"#utility.yul\":13008:13101   */\n      tag_282\n        /* \"#utility.yul\":13097:13100   */\n      dup3\n        /* \"#utility.yul\":13088:13094   */\n      dup5\n        /* \"#utility.yul\":13008:13101   */\n      tag_147\n      jump\t// in\n    tag_282:\n        /* \"#utility.yul\":13001:13101   */\n      swap2\n      pop\n        /* \"#utility.yul\":13118:13121   */\n      dup2\n        /* \"#utility.yul\":13111:13121   */\n      swap1\n      pop\n        /* \"#utility.yul\":12856:13127   */\n      swap3\n      swap2\n      pop\n      pop\n      jump\t// out\n\n    auxdata: 0xa26469706673582212208ea104b2f503a669df1b0fee4a0bb6cfd708cfdf9f96ff1474c540b8607e159364736f6c634300081a0033\n}\n",
				"bytecode": {
					"linkReferences": {},
					"object": "6080604052348015600e575f80fd5b50335f806101000a81548173ffffffffffffffffffffffffffffffffffffffff021916908373ffffffffffffffffffffffffffffffffffffffff160217905550610ff38061005b5f395ff3fe608060405260043610610089575f3560e01c80638da5cb5b116100585780638da5cb5b146101725780639f81aed71461019c578063b0f8b142146101c6578063c1a287e2146101f6578063c4d252f51461022057610090565b8063228250c9146100945780634125ff90146100d05780634b9915a5146100fa5780638a1ce0b61461013657610090565b3661009057005b5f80fd5b34801561009f575f80fd5b506100ba60048036038101906100b591906109a8565b610248565b6040516100c791906109ed565b60405180910390f35b3480156100db575f80fd5b506100e4610265565b6040516100f19190610a1e565b60405180910390f35b348015610105575f80fd5b50610120600480360381019061011b9190610b71565b61026b565b60405161012d9190610c37565b60405180910390f35b348015610141575f80fd5b5061015c60048036038101906101579190610b71565b610458565b6040516101699190610c37565b60405180910390f35b34801561017d575f80fd5b50610186610499565b6040516101939190610c5f565b60405180910390f35b3480156101a7575f80fd5b506101b06104bc565b6040516101bd9190610a1e565b60405180910390f35b6101e060048036038101906101db9190610b71565b6104c1565b6040516101ed9190610ce8565b60405180910390f35b348015610201575f80fd5b5061020a61082c565b6040516102179190610a1e565b60405180910390f35b34801561022b575f80fd5b50610246600480360381019061024191906109a8565b610832565b005b6001602052805f5260405f205f915054906101000a900460ff1681565b6103e881565b5f805f9054906101000a900473ffffffffffffffffffffffffffffffffffffffff1673ffffffffffffffffffffffffffffffffffffffff163373ffffffffffffffffffffffffffffffffffffffff16146102f1576040517f74a2152700000000000000000000000000000000000000000000000000000000815260040160405180910390fd5b61030088888888888888610458565b905060015f8281526020019081526020015f205f9054906101000a900460ff161561036257806040517f995042be0000000000000000000000000000000000000000000000000000000081526004016103599190610c37565b60405180910390fd5b600a4261036f9190610d35565b82108061038857506103e8426103859190610d35565b82115b156103cc5742826040517f1a9616c20000000000000000000000000000000000000000000000000000000081526004016103c3929190610d68565b60405180910390fd5b6001805f8381526020019081526020015f205f6101000a81548160ff0219169083151502179055508773ffffffffffffffffffffffffffffffffffffffff16817f3c22f47140594040d205a5533cfedd86c9ab8622c39ead03affb2d97052c794c89898989898960405161044596959493929190610e05565b60405180910390a3979650505050505050565b5f878787878787876040516020016104769796959493929190610e5a565b604051602081830303815290604052805190602001209050979650505050505050565b5f8054906101000a900473ffffffffffffffffffffffffffffffffffffffff1681565b600a81565b60605f8054906101000a900473ffffffffffffffffffffffffffffffffffffffff1673ffffffffffffffffffffffffffffffffffffffff163373ffffffffffffffffffffffffffffffffffffffff1614610547576040517f74a2152700000000000000000000000000000000000000000000000000000000815260040160405180910390fd5b5f61055789898989898989610458565b905060015f8281526020019081526020015f205f9054906101000a900460ff166105b857806040517f0995c9d50000000000000000000000000000000000000000000000000000000081526004016105af9190610c37565b60405180910390fd5b824210156105ff5742836040517f035fce5b0000000000000000000000000000000000000000000000000000000081526004016105f6929190610d68565b60405180910390fd5b6103e88361060d9190610d35565b42111561066057426103e8846106239190610d35565b6040517f92ae26d1000000000000000000000000000000000000000000000000000000008152600401610657929190610d68565b60405180910390fd5b5f60015f8381526020019081526020015f205f6101000a81548160ff02191690831515021790555060605f8888905011156106d75787876040516106a5929190610eeb565b604051809103902086866040516020016106c193929190610f4e565b604051602081830303815290604052905061071e565b85858080601f0160208091040260200160405190810160405280939291908181526020018383808284375f81840152601f19601f8201169050808301925050505050505090505b5f808b73ffffffffffffffffffffffffffffffffffffffff168b846040516107469190610fa7565b5f6040518083038185875af1925050503d805f8114610780576040519150601f19603f3d011682016040523d82523d5f602084013e610785565b606091505b5091509150816107c1576040517fd9b4f81e00000000000000000000000000000000000000000000000000000000815260040160405180910390fd5b8b73ffffffffffffffffffffffffffffffffffffffff16847fd1d5c3c892c18716bd88852091d1b63dc6849e9d7c37f69d566884bf954d4bd98d8d8d8d8d8d60405161081296959493929190610e05565b60405180910390a380945050505050979650505050505050565b6103e881565b5f8054906101000a900473ffffffffffffffffffffffffffffffffffffffff1673ffffffffffffffffffffffffffffffffffffffff163373ffffffffffffffffffffffffffffffffffffffff16146108b6576040517f74a2152700000000000000000000000000000000000000000000000000000000815260040160405180910390fd5b60015f8281526020019081526020015f205f9054906101000a900460ff1661091557806040517f0995c9d500000000000000000000000000000000000000000000000000000000815260040161090c9190610c37565b60405180910390fd5b5f60015f8381526020019081526020015f205f6101000a81548160ff021916908315150217905550807fe8d9861dbc9c663ed3accd261bbe2fe01e0d3d9e5f51fa38523b265c7757a93a60405160405180910390a250565b5f80fd5b5f80fd5b5f819050919050565b61098781610975565b8114610991575f80fd5b50565b5f813590506109a28161097e565b92915050565b5f602082840312156109bd576109bc61096d565b5b5f6109ca84828501610994565b91505092915050565b5f8115159050919050565b6109e7816109d3565b82525050565b5f602082019050610a005f8301846109de565b92915050565b5f819050919050565b610a1881610a06565b82525050565b5f602082019050610a315f830184610a0f565b92915050565b5f73ffffffffffffffffffffffffffffffffffffffff82169050919050565b5f610a6082610a37565b9050919050565b610a7081610a56565b8114610a7a575f80fd5b50565b5f81359050610a8b81610a67565b92915050565b610a9a81610a06565b8114610aa4575f80fd5b50565b5f81359050610ab581610a91565b92915050565b5f80fd5b5f80fd5b5f80fd5b5f8083601f840112610adc57610adb610abb565b5b8235905067ffffffffffffffff811115610af957610af8610abf565b5b602083019150836001820283011115610b1557610b14610ac3565b5b9250929050565b5f8083601f840112610b3157610b30610abb565b5b8235905067ffffffffffffffff811115610b4e57610b4d610abf565b5b602083019150836001820283011115610b6a57610b69610ac3565b5b9250929050565b5f805f805f805f60a0888a031215610b8c57610b8b61096d565b5b5f610b998a828b01610a7d565b9750506020610baa8a828b01610aa7565b965050604088013567ffffffffffffffff811115610bcb57610bca610971565b5b610bd78a828b01610ac7565b9550955050606088013567ffffffffffffffff811115610bfa57610bf9610971565b5b610c068a828b01610b1c565b93509350506080610c198a828b01610aa7565b91505092959891949750929550565b610c3181610975565b82525050565b5f602082019050610c4a5f830184610c28565b92915050565b610c5981610a56565b82525050565b5f602082019050610c725f830184610c50565b92915050565b5f81519050919050565b5f82825260208201905092915050565b8281835e5f83830152505050565b5f601f19601f8301169050919050565b5f610cba82610c78565b610cc48185610c82565b9350610cd4818560208601610c92565b610cdd81610ca0565b840191505092915050565b5f6020820190508181035f830152610d008184610cb0565b905092915050565b7f4e487b71000000000000000000000000000000000000000000000000000000005f52601160045260245ffd5b5f610d3f82610a06565b9150610d4a83610a06565b9250828201905080821115610d6257610d61610d08565b5b92915050565b5f604082019050610d7b5f830185610a0f565b610d886020830184610a0f565b9392505050565b5f82825260208201905092915050565b828183375f83830152505050565b5f610db88385610d8f565b9350610dc5838584610d9f565b610dce83610ca0565b840190509392505050565b5f610de48385610c82565b9350610df1838584610d9f565b610dfa83610ca0565b840190509392505050565b5f608082019050610e185f830189610a0f565b8181036020830152610e2b818789610dad565b90508181036040830152610e40818587610dd9565b9050610e4f6060830184610a0f565b979650505050505050565b5f60a082019050610e6d5f83018a610c50565b610e7a6020830189610a0f565b8181036040830152610e8d818789610dad565b90508181036060830152610ea2818587610dd9565b9050610eb16080830184610a0f565b98975050505050505050565b5f81905092915050565b5f610ed28385610ebd565b9350610edf838584610d9f565b82840190509392505050565b5f610ef7828486610ec7565b91508190509392505050565b5f7fffffffff0000000000000000000000000000000000000000000000000000000082169050919050565b5f819050919050565b610f48610f4382610f03565b610f2e565b82525050565b5f610f598286610f37565b600482019150610f6a828486610ec7565b9150819050949350505050565b5f610f8182610c78565b610f8b8185610ebd565b9350610f9b818560208601610c92565b80840191505092915050565b5f610fb28284610f77565b91508190509291505056fea26469706673582212208ea104b2f503a669df1b0fee4a0bb6cfd708cfdf9f96ff1474c540b8607e159364736f6c634300081a0033",
					"opcodes": "PUSH1 0x80 PUSH1 0x40 MSTORE CALLVALUE DUP1 ISZERO PUSH1 0xE JUMPI PUSH0 DUP1 REVERT JUMPDEST POP CALLER PUSH0 DUP1 PUSH2 0x100 EXP DUP2 SLOAD DUP2 PUSH20 0xFFFFFFFFFFFFFFFFFFFFFFFFFFFFFFFFFFFFFFFF MUL NOT AND SWAP1 DUP4 PUSH20 0xFFFFFFFFFFFFFFFFFFFFFFFFFFFFFFFFFFFFFFFF AND MUL OR SWAP1 SSTORE POP PUSH2 0xFF3 DUP1 PUSH2 0x5B PUSH0 CODECOPY PUSH0 RETURN INVALID PUSH1 0x80 PUSH1 0x40 MSTORE PUSH1 0x4 CALLDATASIZE LT PUSH2 0x89 JUMPI PUSH0 CALLDATALOAD PUSH1 0xE0 SHR DUP1 PUSH4 0x8DA5CB5B GT PUSH2 0x58 JUMPI DUP1 PUSH4 0x8DA5CB5B EQ PUSH2 0x172 JUMPI DUP1 PUSH4 0x9F81AED7 EQ PUSH2 0x19C JUMPI DUP1 PUSH4 0xB0F8B142 EQ PUSH2 0x1C6 JUMPI DUP1 PUSH4 0xC1A287E2 EQ PUSH2 0x1F6 JUMPI DUP1 PUSH4 0xC4D252F5 EQ PUSH2 0x220 JUMPI PUSH2 0x90 JUMP JUMPDEST DUP1 PUSH4 0x228250C9 EQ PUSH2 0x94 JUMPI DUP1 PUSH4 0x4125FF90 EQ PUSH2 0xD0 JUMPI DUP1 PUSH4 0x4B9915A5 EQ PUSH2 0xFA JUMPI DUP1 PUSH4 0x8A1CE0B6 EQ PUSH2 0x136 JUMPI PUSH2 0x90 JUMP JUMPDEST CALLDATASIZE PUSH2 0x90 JUMPI STOP JUMPDEST PUSH0 DUP1 REVERT JUMPDEST CALLVALUE DUP1 ISZERO PUSH2 0x9F JUMPI PUSH0 DUP1 REVERT JUMPDEST POP PUSH2 0xBA PUSH1 0x4 DUP1 CALLDATASIZE SUB DUP2 ADD SWAP1 PUSH2 0xB5 SWAP2 SWAP1 PUSH2 0x9A8 JUMP JUMPDEST PUSH2 0x248 JUMP JUMPDEST PUSH1 0x40 MLOAD PUSH2 0xC7 SWAP2 SWAP1 PUSH2 0x9ED JUMP JUMPDEST PUSH1 0x40 MLOAD DUP1 SWAP2 SUB SWAP1 RETURN JUMPDEST CALLVALUE DUP1 ISZERO PUSH2 0xDB JUMPI PUSH0 DUP1 REVERT JUMPDEST POP PUSH2 0xE4 PUSH2 0x265 JUMP JUMPDEST PUSH1 0x40 MLOAD PUSH2 0xF1 SWAP2 SWAP1 PUSH2 0xA1E JUMP JUMPDEST PUSH1 0x40 MLOAD DUP1 SWAP2 SUB SWAP1 RETURN JUMPDEST CALLVALUE DUP1 ISZERO PUSH2 0x105 JUMPI PUSH0 DUP1 REVERT JUMPDEST POP PUSH2 0x120 PUSH1 0x4 DUP1 CALLDATASIZE SUB DUP2 ADD SWAP1 PUSH2 0x11B SWAP2 SWAP1 PUSH2 0xB71 JUMP JUMPDEST PUSH2 0x26B JUMP JUMPDEST PUSH1 0x40 MLOAD PUSH2 0x12D SWAP2 SWAP1 PUSH2 0xC37 JUMP JUMPDEST PUSH1 0x40 MLOAD DUP1 SWAP2 SUB SWAP1 RETURN JUMPDEST CALLVALUE DUP1 ISZERO PUSH2 0x141 JUMPI PUSH0 DUP1 REVERT JUMPDEST POP PUSH2 0x15C PUSH1 0x4 DUP1 CALLDATASIZE SUB DUP2 ADD SWAP1 PUSH2 0x157 SWAP2 SWAP1 PUSH2 0xB71 JUMP JUMPDEST PUSH2 0x458 JUMP JUMPDEST PUSH1 0x40 MLOAD PUSH2 0x169 SWAP2 SWAP1 PUSH2 0xC37 JUMP JUMPDEST PUSH1 0x40 MLOAD DUP1 SWAP2 SUB SWAP1 RETURN JUMPDEST CALLVALUE DUP1 ISZERO PUSH2 0x17D JUMPI PUSH0 DUP1 REVERT JUMPDEST POP PUSH2 0x186 PUSH2 0x499 JUMP JUMPDEST PUSH1 0x40 MLOAD PUSH2 0x193 SWAP2 SWAP1 PUSH2 0xC5F JUMP JUMPDEST PUSH1 0x40 MLOAD DUP1 SWAP2 SUB SWAP1 RETURN JUMPDEST CALLVALUE DUP1 ISZERO PUSH2 0x1A7 JUMPI PUSH0 DUP1 REVERT JUMPDEST POP PUSH2 0x1B0 PUSH2 0x4BC JUMP JUMPDEST PUSH1 0x40 MLOAD PUSH2 0x1BD SWAP2 SWAP1 PUSH2 0xA1E JUMP JUMPDEST PUSH1 0x40 MLOAD DUP1 SWAP2 SUB SWAP1 RETURN JUMPDEST PUSH2 0x1E0 PUSH1 0x4 DUP1 CALLDATASIZE SUB DUP2 ADD SWAP1 PUSH2 0x1DB SWAP2 SWAP1 PUSH2 0xB71 JUMP JUMPDEST PUSH2 0x4C1 JUMP JUMPDEST PUSH1 0x40 MLOAD PUSH2 0x1ED SWAP2 SWAP1 PUSH2 0xCE8 JUMP JUMPDEST PUSH1 0x40 MLOAD DUP1 SWAP2 SUB SWAP1 RETURN JUMPDEST CALLVALUE DUP1 ISZERO PUSH2 0x201 JUMPI PUSH0 DUP1 REVERT JUMPDEST POP PUSH2 0x20A PUSH2 0x82C JUMP JUMPDEST PUSH1 0x40 MLOAD PUSH2 0x217 SWAP2 SWAP1 PUSH2 0xA1E JUMP JUMPDEST PUSH1 0x40 MLOAD DUP1 SWAP2 SUB SWAP1 RETURN JUMPDEST CALLVALUE DUP1 ISZERO PUSH2 0x22B JUMPI PUSH0 DUP1 REVERT JUMPDEST POP PUSH2 0x246 PUSH1 0x4 DUP1 CALLDATASIZE SUB DUP2 ADD SWAP1 PUSH2 0x241 SWAP2 SWAP1 PUSH2 0x9A8 JUMP JUMPDEST PUSH2 0x832 JUMP JUMPDEST STOP JUMPDEST PUSH1 0x1 PUSH1 0x20 MSTORE DUP1 PUSH0 MSTORE PUSH1 0x40 PUSH0 KECCAK256 PUSH0 SWAP2 POP SLOAD SWAP1 PUSH2 0x100 EXP SWAP1 DIV PUSH1 0xFF AND DUP2 JUMP JUMPDEST PUSH2 0x3E8 DUP2 JUMP JUMPDEST PUSH0 DUP1 PUSH0 SWAP1 SLOAD SWAP1 PUSH2 0x100 EXP SWAP1 DIV PUSH20 0xFFFFFFFFFFFFFFFFFFFFFFFFFFFFFFFFFFFFFFFF AND PUSH20 0xFFFFFFFFFFFFFFFFFFFFFFFFFFFFFFFFFFFFFFFF AND CALLER PUSH20 0xFFFFFFFFFFFFFFFFFFFFFFFFFFFFFFFFFFFFFFFF AND EQ PUSH2 0x2F1 JUMPI PUSH1 0x40 MLOAD PUSH32 0x74A2152700000000000000000000000000000000000000000000000000000000 DUP2 MSTORE PUSH1 0x4 ADD PUSH1 0x40 MLOAD DUP1 SWAP2 SUB SWAP1 REVERT JUMPDEST PUSH2 0x300 DUP9 DUP9 DUP9 DUP9 DUP9 DUP9 DUP9 PUSH2 0x458 JUMP JUMPDEST SWAP1 POP PUSH1 0x1 PUSH0 DUP3 DUP2 MSTORE PUSH1 0x20 ADD SWAP1 DUP2 MSTORE PUSH1 0x20 ADD PUSH0 KECCAK256 PUSH0 SWAP1 SLOAD SWAP1 PUSH2 0x100 EXP SWAP1 DIV PUSH1 0xFF AND ISZERO PUSH2 0x362 JUMPI DUP1 PUSH1 0x40 MLOAD PUSH32 0x995042BE00000000000000000000000000000000000000000000000000000000 DUP2 MSTORE PUSH1 0x4 ADD PUSH2 0x359 SWAP2 SWAP1 PUSH2 0xC37 JUMP JUMPDEST PUSH1 0x40 MLOAD DUP1 SWAP2 SUB SWAP1 REVERT JUMPDEST PUSH1 0xA TIMESTAMP PUSH2 0x36F SWAP2 SWAP1 PUSH2 0xD35 JUMP JUMPDEST DUP3 LT DUP1 PUSH2 0x388 JUMPI POP PUSH2 0x3E8 TIMESTAMP PUSH2 0x385 SWAP2 SWAP1 PUSH2 0xD35 JUMP JUMPDEST DUP3 GT JUMPDEST ISZERO PUSH2 0x3CC JUMPI TIMESTAMP DUP3 PUSH1 0x40 MLOAD PUSH32 0x1A9616C200000000000000000000000000000000000000000000000000000000 DUP2 MSTORE PUSH1 0x4 ADD PUSH2 0x3C3 SWAP3 SWAP2 SWAP1 PUSH2 0xD68 JUMP JUMPDEST PUSH1 0x40 MLOAD DUP1 SWAP2 SUB SWAP1 REVERT JUMPDEST PUSH1 0x1 DUP1 PUSH0 DUP4 DUP2 MSTORE PUSH1 0x20 ADD SWAP1 DUP2 MSTORE PUSH1 0x20 ADD PUSH0 KECCAK256 PUSH0 PUSH2 0x100 EXP DUP2 SLOAD DUP2 PUSH1 0xFF MUL NOT AND SWAP1 DUP4 ISZERO ISZERO MUL OR SWAP1 SSTORE POP DUP8 PUSH20 0xFFFFFFFFFFFFFFFFFFFFFFFFFFFFFFFFFFFFFFFF AND DUP2 PUSH32 0x3C22F47140594040D205A5533CFEDD86C9AB8622C39EAD03AFFB2D97052C794C DUP10 DUP10 DUP10 DUP10 DUP10 DUP10 PUSH1 0x40 MLOAD PUSH2 0x445 SWAP7 SWAP6 SWAP5 SWAP4 SWAP3 SWAP2 SWAP1 PUSH2 0xE05 JUMP JUMPDEST PUSH1 0x40 MLOAD DUP1 SWAP2 SUB SWAP1 LOG3 SWAP8 SWAP7 POP POP POP POP POP POP POP JUMP JUMPDEST PUSH0 DUP8 DUP8 DUP8 DUP8 DUP8 DUP8 DUP8 PUSH1 0x40 MLOAD PUSH1 0x20 ADD PUSH2 0x476 SWAP8 SWAP7 SWAP6 SWAP5 SWAP4 SWAP3 SWAP2 SWAP1 PUSH2 0xE5A JUMP JUMPDEST PUSH1 0x40 MLOAD PUSH1 0x20 DUP2 DUP4 SUB SUB DUP2 MSTORE SWAP1 PUSH1 0x40 MSTORE DUP1 MLOAD SWAP1 PUSH1 0x20 ADD KECCAK256 SWAP1 POP SWAP8 SWAP7 POP POP POP POP POP POP POP JUMP JUMPDEST PUSH0 DUP1 SLOAD SWAP1 PUSH2 0x100 EXP SWAP1 DIV PUSH20 0xFFFFFFFFFFFFFFFFFFFFFFFFFFFFFFFFFFFFFFFF AND DUP2 JUMP JUMPDEST PUSH1 0xA DUP2 JUMP JUMPDEST PUSH1 0x60 PUSH0 DUP1 SLOAD SWAP1 PUSH2 0x100 EXP SWAP1 DIV PUSH20 0xFFFFFFFFFFFFFFFFFFFFFFFFFFFFFFFFFFFFFFFF AND PUSH20 0xFFFFFFFFFFFFFFFFFFFFFFFFFFFFFFFFFFFFFFFF AND CALLER PUSH20 0xFFFFFFFFFFFFFFFFFFFFFFFFFFFFFFFFFFFFFFFF AND EQ PUSH2 0x547 JUMPI PUSH1 0x40 MLOAD PUSH32 0x74A2152700000000000000000000000000000000000000000000000000000000 DUP2 MSTORE PUSH1 0x4 ADD PUSH1 0x40 MLOAD DUP1 SWAP2 SUB SWAP1 REVERT JUMPDEST PUSH0 PUSH2 0x557 DUP10 DUP10 DUP10 DUP10 DUP10 DUP10 DUP10 PUSH2 0x458 JUMP JUMPDEST SWAP1 POP PUSH1 0x1 PUSH0 DUP3 DUP2 MSTORE PUSH1 0x20 ADD SWAP1 DUP2 MSTORE PUSH1 0x20 ADD PUSH0 KECCAK256 PUSH0 SWAP1 SLOAD SWAP1 PUSH2 0x100 EXP SWAP1 DIV PUSH1 0xFF AND PUSH2 0x5B8 JUMPI DUP1 PUSH1 0x40 MLOAD PUSH32 0x995C9D500000000000000000000000000000000000000000000000000000000 DUP2 MSTORE PUSH1 0x4 ADD PUSH2 0x5AF SWAP2 SWAP1 PUSH2 0xC37 JUMP JUMPDEST PUSH1 0x40 MLOAD DUP1 SWAP2 SUB SWAP1 REVERT JUMPDEST DUP3 TIMESTAMP LT ISZERO PUSH2 0x5FF JUMPI TIMESTAMP DUP4 PUSH1 0x40 MLOAD PUSH32 0x35FCE5B00000000000000000000000000000000000000000000000000000000 DUP2 MSTORE PUSH1 0x4 ADD PUSH2 0x5F6 SWAP3 SWAP2 SWAP1 PUSH2 0xD68 JUMP JUMPDEST PUSH1 0x40 MLOAD DUP1 SWAP2 SUB SWAP1 REVERT JUMPDEST PUSH2 0x3E8 DUP4 PUSH2 0x60D SWAP2 SWAP1 PUSH2 0xD35 JUMP JUMPDEST TIMESTAMP GT ISZERO PUSH2 0x660 JUMPI TIMESTAMP PUSH2 0x3E8 DUP5 PUSH2 0x623 SWAP2 SWAP1 PUSH2 0xD35 JUMP JUMPDEST PUSH1 0x40 MLOAD PUSH32 0x92AE26D100000000000000000000000000000000000000000000000000000000 DUP2 MSTORE PUSH1 0x4 ADD PUSH2 0x657 SWAP3 SWAP2 SWAP1 PUSH2 0xD68 JUMP JUMPDEST PUSH1 0x40 MLOAD DUP1 SWAP2 SUB SWAP1 REVERT JUMPDEST PUSH0 PUSH1 0x1 PUSH0 DUP4 DUP2 MSTORE PUSH1 0x20 ADD SWAP1 DUP2 MSTORE PUSH1 0x20 ADD PUSH0 KECCAK256 PUSH0 PUSH2 0x100 EXP DUP2 SLOAD DUP2 PUSH1 0xFF MUL NOT AND SWAP1 DUP4 ISZERO ISZERO MUL OR SWAP1 SSTORE POP PUSH1 0x60 PUSH0 DUP9 DUP9 SWAP1 POP GT ISZERO PUSH2 0x6D7 JUMPI DUP8 DUP8 PUSH1 0x40 MLOAD PUSH2 0x6A5 SWAP3 SWAP2 SWAP1 PUSH2 0xEEB JUMP JUMPDEST PUSH1 0x40 MLOAD DUP1 SWAP2 SUB SWAP1 KECCAK256 DUP7 DUP7 PUSH1 0x40 MLOAD PUSH1 0x20 ADD PUSH2 0x6C1 SWAP4 SWAP3 SWAP2 SWAP1 PUSH2 0xF4E JUMP JUMPDEST PUSH1 0x40 MLOAD PUSH1 0x20 DUP2 DUP4 SUB SUB DUP2 MSTORE SWAP1 PUSH1 0x40 MSTORE SWAP1 POP PUSH2 0x71E JUMP JUMPDEST DUP6 DUP6 DUP1 DUP1 PUSH1 0x1F ADD PUSH1 0x20 DUP1 SWAP2 DIV MUL PUSH1 0x20 ADD PUSH1 0x40 MLOAD SWAP1 DUP2 ADD PUSH1 0x40 MSTORE DUP1 SWAP4 SWAP3 SWAP2 SWAP1 DUP2 DUP2 MSTORE PUSH1 0x20 ADD DUP4 DUP4 DUP1 DUP3 DUP5 CALLDATACOPY PUSH0 DUP2 DUP5 ADD MSTORE PUSH1 0x1F NOT PUSH1 0x1F DUP3 ADD AND SWAP1 POP DUP1 DUP4 ADD SWAP3 POP POP POP POP POP POP POP SWAP1 POP JUMPDEST PUSH0 DUP1 DUP12 PUSH20 0xFFFFFFFFFFFFFFFFFFFFFFFFFFFFFFFFFFFFFFFF AND DUP12 DUP5 PUSH1 0x40 MLOAD PUSH2 0x746 SWAP2 SWAP1 PUSH2 0xFA7 JUMP JUMPDEST PUSH0 PUSH1 0x40 MLOAD DUP1 DUP4 SUB DUP2 DUP6 DUP8 GAS CALL SWAP3 POP POP POP RETURNDATASIZE DUP1 PUSH0 DUP2 EQ PUSH2 0x780 JUMPI PUSH1 0x40 MLOAD SWAP2 POP PUSH1 0x1F NOT PUSH1 0x3F RETURNDATASIZE ADD AND DUP3 ADD PUSH1 0x40 MSTORE RETURNDATASIZE DUP3 MSTORE RETURNDATASIZE PUSH0 PUSH1 0x20 DUP5 ADD RETURNDATACOPY PUSH2 0x785 JUMP JUMPDEST PUSH1 0x60 SWAP2 POP JUMPDEST POP SWAP2 POP SWAP2 POP DUP2 PUSH2 0x7C1 JUMPI PUSH1 0x40 MLOAD PUSH32 0xD9B4F81E00000000000000000000000000000000000000000000000000000000 DUP2 MSTORE PUSH1 0x4 ADD PUSH1 0x40 MLOAD DUP1 SWAP2 SUB SWAP1 REVERT JUMPDEST DUP12 PUSH20 0xFFFFFFFFFFFFFFFFFFFFFFFFFFFFFFFFFFFFFFFF AND DUP5 PUSH32 0xD1D5C3C892C18716BD88852091D1B63DC6849E9D7C37F69D566884BF954D4BD9 DUP14 DUP14 DUP14 DUP14 DUP14 DUP14 PUSH1 0x40 MLOAD PUSH2 0x812 SWAP7 SWAP6 SWAP5 SWAP4 SWAP3 SWAP2 SWAP1 PUSH2 0xE05 JUMP JUMPDEST PUSH1 0x40 MLOAD DUP1 SWAP2 SUB SWAP1 LOG3 DUP1 SWAP5 POP POP POP POP POP SWAP8 SWAP7 POP POP POP POP POP POP POP JUMP JUMPDEST PUSH2 0x3E8 DUP2 JUMP JUMPDEST PUSH0 DUP1 SLOAD SWAP1 PUSH2 0x100 EXP SWAP1 DIV PUSH20 0xFFFFFFFFFFFFFFFFFFFFFFFFFFFFFFFFFFFFFFFF AND PUSH20 0xFFFFFFFFFFFFFFFFFFFFFFFFFFFFFFFFFFFFFFFF AND CALLER PUSH20 0xFFFFFFFFFFFFFFFFFFFFFFFFFFFFFFFFFFFFFFFF AND EQ PUSH2 0x8B6 JUMPI PUSH1 0x40 MLOAD PUSH32 0x74A2152700000000000000000000000000000000000000000000000000000000 DUP2 MSTORE PUSH1 0x4 ADD PUSH1 0x40 MLOAD DUP1 SWAP2 SUB SWAP1 REVERT JUMPDEST PUSH1 0x1 PUSH0 DUP3 DUP2 MSTORE PUSH1 0x20 ADD SWAP1 DUP2 MSTORE PUSH1 0x20 ADD PUSH0 KECCAK256 PUSH0 SWAP1 SLOAD SWAP1 PUSH2 0x100 EXP SWAP1 DIV PUSH1 0xFF AND PUSH2 0x915 JUMPI DUP1 PUSH1 0x40 MLOAD PUSH32 0x995C9D500000000000000000000000000000000000000000000000000000000 DUP2 MSTORE PUSH1 0x4 ADD PUSH2 0x90C SWAP2 SWAP1 PUSH2 0xC37 JUMP JUMPDEST PUSH1 0x40 MLOAD DUP1 SWAP2 SUB SWAP1 REVERT JUMPDEST PUSH0 PUSH1 0x1 PUSH0 DUP4 DUP2 MSTORE PUSH1 0x20 ADD SWAP1 DUP2 MSTORE PUSH1 0x20 ADD PUSH0 KECCAK256 PUSH0 PUSH2 0x100 EXP DUP2 SLOAD DUP2 PUSH1 0xFF MUL NOT AND SWAP1 DUP4 ISZERO ISZERO MUL OR SWAP1 SSTORE POP DUP1 PUSH32 0xE8D9861DBC9C663ED3ACCD261BBE2FE01E0D3D9E5F51FA38523B265C7757A93A PUSH1 0x40 MLOAD PUSH1 0x40 MLOAD DUP1 SWAP2 SUB SWAP1 LOG2 POP JUMP JUMPDEST PUSH0 DUP1 REVERT JUMPDEST PUSH0 DUP1 REVERT JUMPDEST PUSH0 DUP2 SWAP1 POP SWAP2 SWAP1 POP JUMP JUMPDEST PUSH2 0x987 DUP2 PUSH2 0x975 JUMP JUMPDEST DUP2 EQ PUSH2 0x991 JUMPI PUSH0 DUP1 REVERT JUMPDEST POP JUMP JUMPDEST PUSH0 DUP2 CALLDATALOAD SWAP1 POP PUSH2 0x9A2 DUP2 PUSH2 0x97E JUMP JUMPDEST SWAP3 SWAP2 POP POP JUMP JUMPDEST PUSH0 PUSH1 0x20 DUP3 DUP5 SUB SLT ISZERO PUSH2 0x9BD JUMPI PUSH2 0x9BC PUSH2 0x96D JUMP JUMPDEST JUMPDEST PUSH0 PUSH2 0x9CA DUP5 DUP3 DUP6 ADD PUSH2 0x994 JUMP JUMPDEST SWAP2 POP POP SWAP3 SWAP2 POP POP JUMP JUMPDEST PUSH0 DUP2 ISZERO ISZERO SWAP1 POP SWAP2 SWAP1 POP JUMP JUMPDEST PUSH2 0x9E7 DUP2 PUSH2 0x9D3 JUMP JUMPDEST DUP3 MSTORE POP POP JUMP JUMPDEST PUSH0 PUSH1 0x20 DUP3 ADD SWAP1 POP PUSH2 0xA00 PUSH0 DUP4 ADD DUP5 PUSH2 0x9DE JUMP JUMPDEST SWAP3 SWAP2 POP POP JUMP JUMPDEST PUSH0 DUP2 SWAP1 POP SWAP2 SWAP1 POP JUMP JUMPDEST PUSH2 0xA18 DUP2 PUSH2 0xA06 JUMP JUMPDEST DUP3 MSTORE POP POP JUMP JUMPDEST PUSH0 PUSH1 0x20 DUP3 ADD SWAP1 POP PUSH2 0xA31 PUSH0 DUP4 ADD DUP5 PUSH2 0xA0F JUMP JUMPDEST SWAP3 SWAP2 POP POP JUMP JUMPDEST PUSH0 PUSH20 0xFFFFFFFFFFFFFFFFFFFFFFFFFFFFFFFFFFFFFFFF DUP3 AND SWAP1 POP SWAP2 SWAP1 POP JUMP JUMPDEST PUSH0 PUSH2 0xA60 DUP3 PUSH2 0xA37 JUMP JUMPDEST SWAP1 POP SWAP2 SWAP1 POP JUMP JUMPDEST PUSH2 0xA70 DUP2 PUSH2 0xA56 JUMP JUMPDEST DUP2 EQ PUSH2 0xA7A JUMPI PUSH0 DUP1 REVERT JUMPDEST POP JUMP JUMPDEST PUSH0 DUP2 CALLDATALOAD SWAP1 POP PUSH2 0xA8B DUP2 PUSH2 0xA67 JUMP JUMPDEST SWAP3 SWAP2 POP POP JUMP JUMPDEST PUSH2 0xA9A DUP2 PUSH2 0xA06 JUMP JUMPDEST DUP2 EQ PUSH2 0xAA4 JUMPI PUSH0 DUP1 REVERT JUMPDEST POP JUMP JUMPDEST PUSH0 DUP2 CALLDATALOAD SWAP1 POP PUSH2 0xAB5 DUP2 PUSH2 0xA91 JUMP JUMPDEST SWAP3 SWAP2 POP POP JUMP JUMPDEST PUSH0 DUP1 REVERT JUMPDEST PUSH0 DUP1 REVERT JUMPDEST PUSH0 DUP1 REVERT JUMPDEST PUSH0 DUP1 DUP4 PUSH1 0x1F DUP5 ADD SLT PUSH2 0xADC JUMPI PUSH2 0xADB PUSH2 0xABB JUMP JUMPDEST JUMPDEST DUP3 CALLDATALOAD SWAP1 POP PUSH8 0xFFFFFFFFFFFFFFFF DUP2 GT ISZERO PUSH2 0xAF9 JUMPI PUSH2 0xAF8 PUSH2 0xABF JUMP JUMPDEST JUMPDEST PUSH1 0x20 DUP4 ADD SWAP2 POP DUP4 PUSH1 0x1 DUP3 MUL DUP4 ADD GT ISZERO PUSH2 0xB15 JUMPI PUSH2 0xB14 PUSH2 0xAC3 JUMP JUMPDEST JUMPDEST SWAP3 POP SWAP3 SWAP1 POP JUMP JUMPDEST PUSH0 DUP1 DUP4 PUSH1 0x1F DUP5 ADD SLT PUSH2 0xB31 JUMPI PUSH2 0xB30 PUSH2 0xABB JUMP JUMPDEST JUMPDEST DUP3 CALLDATALOAD SWAP1 POP PUSH8 0xFFFFFFFFFFFFFFFF DUP2 GT ISZERO PUSH2 0xB4E JUMPI PUSH2 0xB4D PUSH2 0xABF JUMP JUMPDEST JUMPDEST PUSH1 0x20 DUP4 ADD SWAP2 POP DUP4 PUSH1 0x1 DUP3 MUL DUP4 ADD GT ISZERO PUSH2 0xB6A JUMPI PUSH2 0xB69 PUSH2 0xAC3 JUMP JUMPDEST JUMPDEST SWAP3 POP SWAP3 SWAP1 POP JUMP JUMPDEST PUSH0 DUP1 PUSH0 DUP1 PUSH0 DUP1 PUSH0 PUSH1 0xA0 DUP9 DUP11 SUB SLT ISZERO PUSH2 0xB8C JUMPI PUSH2 0xB8B PUSH2 0x96D JUMP JUMPDEST JUMPDEST PUSH0 PUSH2 0xB99 DUP11 DUP3 DUP12 ADD PUSH2 0xA7D JUMP JUMPDEST SWAP8 POP POP PUSH1 0x20 PUSH2 0xBAA DUP11 DUP3 DUP12 ADD PUSH2 0xAA7 JUMP JUMPDEST SWAP7 POP POP PUSH1 0x40 DUP9 ADD CALLDATALOAD PUSH8 0xFFFFFFFFFFFFFFFF DUP2 GT ISZERO PUSH2 0xBCB JUMPI PUSH2 0xBCA PUSH2 0x971 JUMP JUMPDEST JUMPDEST PUSH2 0xBD7 DUP11 DUP3 DUP12 ADD PUSH2 0xAC7 JUMP JUMPDEST SWAP6 POP SWAP6 POP POP PUSH1 0x60 DUP9 ADD CALLDATALOAD PUSH8 0xFFFFFFFFFFFFFFFF DUP2 GT ISZERO PUSH2 0xBFA JUMPI PUSH2 0xBF9 PUSH2 0x971 JUMP JUMPDEST JUMPDEST PUSH2 0xC06 DUP11 DUP3 DUP12 ADD PUSH2 0xB1C JUMP JUMPDEST SWAP4 POP SWAP4 POP POP PUSH1 0x80 PUSH2 0xC19 DUP11 DUP3 DUP12 ADD PUSH2 0xAA7 JUMP JUMPDEST SWAP2 POP POP SWAP3 SWAP6 SWAP9 SWAP2 SWAP5 SWAP8 POP SWAP3 SWAP6 POP JUMP JUMPDEST PUSH2 0xC31 DUP2 PUSH2 0x975 JUMP JUMPDEST DUP3 MSTORE POP POP JUMP JUMPDEST PUSH0 PUSH1 0x20 DUP3 ADD SWAP1 POP PUSH2 0xC4A PUSH0 DUP4 ADD DUP5 PUSH2 0xC28 JUMP JUMPDEST SWAP3 SWAP2 POP POP JUMP JUMPDEST PUSH2 0xC59 DUP2 PUSH2 0xA56 JUMP JUMPDEST DUP3 MSTORE POP POP JUMP JUMPDEST PUSH0 PUSH1 0x20 DUP3 ADD SWAP1 POP PUSH2 0xC72 PUSH0 DUP4 ADD DUP5 PUSH2 0xC50 JUMP JUMPDEST SWAP3 SWAP2 POP POP JUMP JUMPDEST PUSH0 DUP2 MLOAD SWAP1 POP SWAP2 SWAP1 POP JUMP JUMPDEST PUSH0 DUP3 DUP3 MSTORE PUSH1 0x20 DUP3 ADD SWAP1 POP SWAP3 SWAP2 POP POP JUMP JUMPDEST DUP3 DUP2 DUP4 MCOPY PUSH0 DUP4 DUP4 ADD MSTORE POP POP POP JUMP JUMPDEST PUSH0 PUSH1 0x1F NOT PUSH1 0x1F DUP4 ADD AND SWAP1 POP SWAP2 SWAP1 POP JUMP JUMPDEST PUSH0 PUSH2 0xCBA DUP3 PUSH2 0xC78 JUMP JUMPDEST PUSH2 0xCC4 DUP2 DUP6 PUSH2 0xC82 JUMP JUMPDEST SWAP4 POP PUSH2 0xCD4 DUP2 DUP6 PUSH1 0x20 DUP7 ADD PUSH2 0xC92 JUMP JUMPDEST PUSH2 0xCDD DUP2 PUSH2 0xCA0 JUMP JUMPDEST DUP5 ADD SWAP2 POP POP SWAP3 SWAP2 POP POP JUMP JUMPDEST PUSH0 PUSH1 0x20 DUP3 ADD SWAP1 POP DUP2 DUP2 SUB PUSH0 DUP4 ADD MSTORE PUSH2 0xD00 DUP2 DUP5 PUSH2 0xCB0 JUMP JUMPDEST SWAP1 POP SWAP3 SWAP2 POP POP JUMP JUMPDEST PUSH32 0x4E487B7100000000000000000000000000000000000000000000000000000000 PUSH0 MSTORE PUSH1 0x11 PUSH1 0x4 MSTORE PUSH1 0x24 PUSH0 REVERT JUMPDEST PUSH0 PUSH2 0xD3F DUP3 PUSH2 0xA06 JUMP JUMPDEST SWAP2 POP PUSH2 0xD4A DUP4 PUSH2 0xA06 JUMP JUMPDEST SWAP3 POP DUP3 DUP3 ADD SWAP1 POP DUP1 DUP3 GT ISZERO PUSH2 0xD62 JUMPI PUSH2 0xD61 PUSH2 0xD08 JUMP JUMPDEST JUMPDEST SWAP3 SWAP2 POP POP JUMP JUMPDEST PUSH0 PUSH1 0x40 DUP3 ADD SWAP1 POP PUSH2 0xD7B PUSH0 DUP4 ADD DUP6 PUSH2 0xA0F JUMP JUMPDEST PUSH2 0xD88 PUSH1 0x20 DUP4 ADD DUP5 PUSH2 0xA0F JUMP JUMPDEST SWAP4 SWAP3 POP POP POP JUMP JUMPDEST PUSH0 DUP3 DUP3 MSTORE PUSH1 0x20 DUP3 ADD SWAP1 POP SWAP3 SWAP2 POP POP JUMP JUMPDEST DUP3 DUP2 DUP4 CALLDATACOPY PUSH0 DUP4 DUP4 ADD MSTORE POP POP POP JUMP JUMPDEST PUSH0 PUSH2 0xDB8 DUP4 DUP6 PUSH2 0xD8F JUMP JUMPDEST SWAP4 POP PUSH2 0xDC5 DUP4 DUP6 DUP5 PUSH2 0xD9F JUMP JUMPDEST PUSH2 0xDCE DUP4 PUSH2 0xCA0 JUMP JUMPDEST DUP5 ADD SWAP1 POP SWAP4 SWAP3 POP POP POP JUMP JUMPDEST PUSH0 PUSH2 0xDE4 DUP4 DUP6 PUSH2 0xC82 JUMP JUMPDEST SWAP4 POP PUSH2 0xDF1 DUP4 DUP6 DUP5 PUSH2 0xD9F JUMP JUMPDEST PUSH2 0xDFA DUP4 PUSH2 0xCA0 JUMP JUMPDEST DUP5 ADD SWAP1 POP SWAP4 SWAP3 POP POP POP JUMP JUMPDEST PUSH0 PUSH1 0x80 DUP3 ADD SWAP1 POP PUSH2 0xE18 PUSH0 DUP4 ADD DUP10 PUSH2 0xA0F JUMP JUMPDEST DUP2 DUP2 SUB PUSH1 0x20 DUP4 ADD MSTORE PUSH2 0xE2B DUP2 DUP8 DUP10 PUSH2 0xDAD JUMP JUMPDEST SWAP1 POP DUP2 DUP2 SUB PUSH1 0x40 DUP4 ADD MSTORE PUSH2 0xE40 DUP2 DUP6 DUP8 PUSH2 0xDD9 JUMP JUMPDEST SWAP1 POP PUSH2 0xE4F PUSH1 0x60 DUP4 ADD DUP5 PUSH2 0xA0F JUMP JUMPDEST SWAP8 SWAP7 POP POP POP POP POP POP POP JUMP JUMPDEST PUSH0 PUSH1 0xA0 DUP3 ADD SWAP1 POP PUSH2 0xE6D PUSH0 DUP4 ADD DUP11 PUSH2 0xC50 JUMP JUMPDEST PUSH2 0xE7A PUSH1 0x20 DUP4 ADD DUP10 PUSH2 0xA0F JUMP JUMPDEST DUP2 DUP2 SUB PUSH1 0x40 DUP4 ADD MSTORE PUSH2 0xE8D DUP2 DUP8 DUP10 PUSH2 0xDAD JUMP JUMPDEST SWAP1 POP DUP2 DUP2 SUB PUSH1 0x60 DUP4 ADD MSTORE PUSH2 0xEA2 DUP2 DUP6 DUP8 PUSH2 0xDD9 JUMP JUMPDEST SWAP1 POP PUSH2 0xEB1 PUSH1 0x80 DUP4 ADD DUP5 PUSH2 0xA0F JUMP JUMPDEST SWAP9 SWAP8 POP POP POP POP POP POP POP POP JUMP JUMPDEST PUSH0 DUP2 SWAP1 POP SWAP3 SWAP2 POP POP JUMP JUMPDEST PUSH0 PUSH2 0xED2 DUP4 DUP6 PUSH2 0xEBD JUMP JUMPDEST SWAP4 POP PUSH2 0xEDF DUP4 DUP6 DUP5 PUSH2 0xD9F JUMP JUMPDEST DUP3 DUP5 ADD SWAP1 POP SWAP4 SWAP3 POP POP POP JUMP JUMPDEST PUSH0 PUSH2 0xEF7 DUP3 DUP5 DUP7 PUSH2 0xEC7 JUMP JUMPDEST SWAP2 POP DUP2 SWAP1 POP SWAP4 SWAP3 POP POP POP JUMP JUMPDEST PUSH0 PUSH32 0xFFFFFFFF00000000000000000000000000000000000000000000000000000000 DUP3 AND SWAP1 POP SWAP2 SWAP1 POP JUMP JUMPDEST PUSH0 DUP2 SWAP1 POP SWAP2 SWAP1 POP JUMP JUMPDEST PUSH2 0xF48 PUSH2 0xF43 DUP3 PUSH2 0xF03 JUMP JUMPDEST PUSH2 0xF2E JUMP JUMPDEST DUP3 MSTORE POP POP JUMP JUMPDEST PUSH0 PUSH2 0xF59 DUP3 DUP7 PUSH2 0xF37 JUMP JUMPDEST PUSH1 0x4 DUP3 ADD SWAP2 POP PUSH2 0xF6A DUP3 DUP5 DUP7 PUSH2 0xEC7 JUMP JUMPDEST SWAP2 POP DUP2 SWAP1 POP SWAP5 SWAP4 POP POP POP POP JUMP JUMPDEST PUSH0 PUSH2 0xF81 DUP3 PUSH2 0xC78 JUMP JUMPDEST PUSH2 0xF8B DUP2 DUP6 PUSH2 0xEBD JUMP JUMPDEST SWAP4 POP PUSH2 0xF9B DUP2 DUP6 PUSH1 0x20 DUP7 ADD PUSH2 0xC92 JUMP JUMPDEST DUP1 DUP5 ADD SWAP2 POP POP SWAP3 SWAP2 POP POP JUMP JUMPDEST PUSH0 PUSH2 0xFB2 DUP3 DUP5 PUSH2 0xF77 JUMP JUMPDEST SWAP2 POP DUP2 SWAP1 POP SWAP3 SWAP2 POP POP JUMP INVALID LOG2 PUSH5 0x6970667358 0x22 SLT KECCAK256 DUP15 LOG1 DIV 0xB2 CREATE2 SUB 0xA6 PUSH10 0xDF1B0FEE4A0BB6CFD708 0xCF 0xDF SWAP16 SWAP7 SELFDESTRUCT EQ PUSH21 0xC540B8607E159364736F6C634300081A0033000000 "
				},
				"gasEstimates": {
					"creation": {
						"codeDepositCost": "816600",
						"executionCost": "25114",
						"totalCost": "841714"
					},
					"external": {
						"GRACE_PERIOD()": "391",
						"MAX_DELAY()": "348",
						"MIN_DELAY()": "347",
						"cancel(bytes32)": "infinite",
						"execute(address,uint256,string,bytes,uint256)": "infinite",
						"getTxId(address,uint256,string,bytes,uint256)": "infinite",
						"owner()": "2505",
						"queue(address,uint256,string,bytes,uint256)": "infinite",
						"queued(bytes32)": "2786"
					}
				},
				"methodIdentifiers": {
					"GRACE_PERIOD()": "c1a287e2",
					"MAX_DELAY()": "4125ff90",
					"MIN_DELAY()": "9f81aed7",
					"cancel(bytes32)": "c4d252f5",
					"execute(address,uint256,string,bytes,uint256)": "b0f8b142",
					"getTxId(address,uint256,string,bytes,uint256)": "8a1ce0b6",
					"owner()": "8da5cb5b",
					"queue(address,uint256,string,bytes,uint256)": "4b9915a5",
					"queued(bytes32)": "228250c9"
				}
			},
			"storageLayout": {
				"storage": [
					{
						"astId": 74,
						"contract": "contracts/TimeLock.sol:TimeLock",
						"label": "owner",
						"offset": 0,
						"slot": "0",
						"type": "t_address"
					},
					{
						"astId": 78,
						"contract": "contracts/TimeLock.sol:TimeLock",
						"label": "queued",
						"offset": 0,
						"slot": "1",
						"type": "t_mapping(t_bytes32,t_bool)"
					}
				],
				"types": {
					"t_address": {
						"encoding": "inplace",
						"label": "address",
						"numberOfBytes": "20"
					},
					"t_bool": {
						"encoding": "inplace",
						"label": "bool",
						"numberOfBytes": "1"
					},
					"t_bytes32": {
						"encoding": "inplace",
						"label": "bytes32",
						"numberOfBytes": "32"
					},
					"t_mapping(t_bytes32,t_bool)": {
						"encoding": "mapping",
						"key": "t_bytes32",
						"label": "mapping(bytes32 => bool)",
						"numberOfBytes": "32",
						"value": "t_bool"
					}
				}
			},
			"userdoc": {
				"kind": "user",
				"methods": {},
				"version": 1
			}
		}
	}
}