{
	"contracts/ABI_Encode_Decode.sol": {
		"AbiEncode": {
			"abi": [
				{
					"inputs": [
						{
							"internalType": "address",
							"name": "to",
							"type": "address"
						},
						{
							"internalType": "uint256",
							"name": "amount",
							"type": "uint256"
						}
					],
					"name": "encodeCall",
					"outputs": [
						{
							"internalType": "bytes",
							"name": "",
							"type": "bytes"
						}
					],
					"stateMutability": "pure",
					"type": "function"
				},
				{
					"inputs": [
						{
							"internalType": "address",
							"name": "to",
							"type": "address"
						},
						{
							"internalType": "uint256",
							"name": "amount",
							"type": "uint256"
						}
					],
					"name": "encodeWithSelector",
					"outputs": [
						{
							"internalType": "bytes",
							"name": "",
							"type": "bytes"
						}
					],
					"stateMutability": "pure",
					"type": "function"
				},
				{
					"inputs": [
						{
							"internalType": "address",
							"name": "to",
							"type": "address"
						},
						{
							"internalType": "uint256",
							"name": "amount",
							"type": "uint256"
						}
					],
					"name": "encodeWithSignature",
					"outputs": [
						{
							"internalType": "bytes",
							"name": "",
							"type": "bytes"
						}
					],
					"stateMutability": "pure",
					"type": "function"
				},
				{
					"inputs": [
						{
							"internalType": "address",
							"name": "_contract",
							"type": "address"
						},
						{
							"internalType": "bytes",
							"name": "data",
							"type": "bytes"
						}
					],
					"name": "test",
					"outputs": [],
					"stateMutability": "nonpayable",
					"type": "function"
				}
			],
			"devdoc": {
				"kind": "dev",
				"methods": {},
				"version": 1
			},
			"evm": {
				"assembly": "    /* \"contracts/ABI_Encode_Decode.sol\":230:996  contract AbiEncode {... */\n  mstore(0x40, 0x80)\n  callvalue\n  dup1\n  iszero\n  tag_1\n  jumpi\n  0x00\n  dup1\n  revert\ntag_1:\n  pop\n  dataSize(sub_0)\n  dup1\n  dataOffset(sub_0)\n  0x00\n  codecopy\n  0x00\n  return\nstop\n\nsub_0: assembly {\n        /* \"contracts/ABI_Encode_Decode.sol\":230:996  contract AbiEncode {... */\n      mstore(0x40, 0x80)\n      callvalue\n      dup1\n      iszero\n      tag_1\n      jumpi\n      0x00\n      dup1\n      revert\n    tag_1:\n      pop\n      jumpi(tag_2, lt(calldatasize, 0x04))\n      shr(0xe0, calldataload(0x00))\n      dup1\n      0x25adff1c\n      eq\n      tag_3\n      jumpi\n      dup1\n      0x5fc6ac0e\n      eq\n      tag_4\n      jumpi\n      dup1\n      0x7e3b06fb\n      eq\n      tag_5\n      jumpi\n      dup1\n      0x93e01418\n      eq\n      tag_6\n      jumpi\n    tag_2:\n      0x00\n      dup1\n      revert\n        /* \"contracts/ABI_Encode_Decode.sol\":840:993  function encodeCall(address to, uint amount) external pure returns (bytes memory) {... */\n    tag_3:\n      tag_7\n      0x04\n      dup1\n      calldatasize\n      sub\n      dup2\n      add\n      swap1\n      tag_8\n      swap2\n      swap1\n      tag_9\n      jump\t// in\n    tag_8:\n      tag_10\n      jump\t// in\n    tag_7:\n      mload(0x40)\n      tag_11\n      swap2\n      swap1\n      tag_12\n      jump\t// in\n    tag_11:\n      mload(0x40)\n      dup1\n      swap2\n      sub\n      swap1\n      return\n        /* \"contracts/ABI_Encode_Decode.sol\":631:832  function encodeWithSelector(... */\n    tag_4:\n      tag_13\n      0x04\n      dup1\n      calldatasize\n      sub\n      dup2\n      add\n      swap1\n      tag_14\n      swap2\n      swap1\n      tag_9\n      jump\t// in\n    tag_14:\n      tag_15\n      jump\t// in\n    tag_13:\n      mload(0x40)\n      tag_16\n      swap2\n      swap1\n      tag_12\n      jump\t// in\n    tag_16:\n      mload(0x40)\n      dup1\n      swap2\n      sub\n      swap1\n      return\n        /* \"contracts/ABI_Encode_Decode.sol\":417:623  function encodeWithSignature(... */\n    tag_5:\n      tag_17\n      0x04\n      dup1\n      calldatasize\n      sub\n      dup2\n      add\n      swap1\n      tag_18\n      swap2\n      swap1\n      tag_9\n      jump\t// in\n    tag_18:\n      tag_19\n      jump\t// in\n    tag_17:\n      mload(0x40)\n      tag_20\n      swap2\n      swap1\n      tag_12\n      jump\t// in\n    tag_20:\n      mload(0x40)\n      dup1\n      swap2\n      sub\n      swap1\n      return\n        /* \"contracts/ABI_Encode_Decode.sol\":256:409  function test(address _contract, bytes calldata data) external {... */\n    tag_6:\n      tag_21\n      0x04\n      dup1\n      calldatasize\n      sub\n      dup2\n      add\n      swap1\n      tag_22\n      swap2\n      swap1\n      tag_23\n      jump\t// in\n    tag_22:\n      tag_24\n      jump\t// in\n    tag_21:\n      stop\n        /* \"contracts/ABI_Encode_Decode.sol\":840:993  function encodeCall(address to, uint amount) external pure returns (bytes memory) {... */\n    tag_10:\n        /* \"contracts/ABI_Encode_Decode.sol\":908:920  bytes memory */\n      0x60\n        /* \"contracts/ABI_Encode_Decode.sol\":973:975  to */\n      dup3\n        /* \"contracts/ABI_Encode_Decode.sol\":977:983  amount */\n      dup3\n        /* \"contracts/ABI_Encode_Decode.sol\":940:985  abi.encodeCall(IERC20.transfer, (to, amount)) */\n      add(0x24, mload(0x40))\n      tag_26\n      swap3\n      swap2\n      swap1\n      tag_27\n      jump\t// in\n    tag_26:\n      mload(0x40)\n      0x20\n      dup2\n      dup4\n      sub\n      sub\n      dup2\n      mstore\n      swap1\n      0x40\n      mstore\n      shl(0xe0, 0xa9059cbb)\n      0x20\n      dup3\n      add\n      dup1\n      mload\n      0xffffffffffffffffffffffffffffffffffffffffffffffffffffffff\n      dup4\n      dup2\n      dup4\n      and\n      or\n      dup4\n      mstore\n      pop\n      pop\n      pop\n      pop\n        /* \"contracts/ABI_Encode_Decode.sol\":933:985  return abi.encodeCall(IERC20.transfer, (to, amount)) */\n      swap1\n      pop\n        /* \"contracts/ABI_Encode_Decode.sol\":840:993  function encodeCall(address to, uint amount) external pure returns (bytes memory) {... */\n      swap3\n      swap2\n      pop\n      pop\n      jump\t// out\n        /* \"contracts/ABI_Encode_Decode.sol\":631:832  function encodeWithSelector(... */\n    tag_15:\n        /* \"contracts/ABI_Encode_Decode.sol\":732:744  bytes memory */\n      0x60\n        /* \"contracts/ABI_Encode_Decode.sol\":787:811  IERC20.transfer.selector */\n      shl(0xe0, 0xa9059cbb)\n        /* \"contracts/ABI_Encode_Decode.sol\":813:815  to */\n      dup4\n        /* \"contracts/ABI_Encode_Decode.sol\":817:823  amount */\n      dup4\n        /* \"contracts/ABI_Encode_Decode.sol\":764:824  abi.encodeWithSelector(IERC20.transfer.selector, to, amount) */\n      add(0x24, mload(0x40))\n      tag_29\n      swap3\n      swap2\n      swap1\n      tag_27\n      jump\t// in\n    tag_29:\n      mload(0x40)\n      0x20\n      dup2\n      dup4\n      sub\n      sub\n      dup2\n      mstore\n      swap1\n      0x40\n      mstore\n      swap1\n      not(0xffffffffffffffffffffffffffffffffffffffffffffffffffffffff)\n      and\n      0x20\n      dup3\n      add\n      dup1\n      mload\n      0xffffffffffffffffffffffffffffffffffffffffffffffffffffffff\n      dup4\n      dup2\n      dup4\n      and\n      or\n      dup4\n      mstore\n      pop\n      pop\n      pop\n      pop\n        /* \"contracts/ABI_Encode_Decode.sol\":757:824  return abi.encodeWithSelector(IERC20.transfer.selector, to, amount) */\n      swap1\n      pop\n        /* \"contracts/ABI_Encode_Decode.sol\":631:832  function encodeWithSelector(... */\n      swap3\n      swap2\n      pop\n      pop\n      jump\t// out\n        /* \"contracts/ABI_Encode_Decode.sol\":417:623  function encodeWithSignature(... */\n    tag_19:\n        /* \"contracts/ABI_Encode_Decode.sol\":519:531  bytes memory */\n      0x60\n        /* \"contracts/ABI_Encode_Decode.sol\":604:606  to */\n      dup3\n        /* \"contracts/ABI_Encode_Decode.sol\":608:614  amount */\n      dup3\n        /* \"contracts/ABI_Encode_Decode.sol\":551:615  abi.encodeWithSignature(\"transfer(address,uint256)\", to, amount) */\n      add(0x24, mload(0x40))\n      tag_31\n      swap3\n      swap2\n      swap1\n      tag_27\n      jump\t// in\n    tag_31:\n      mload(0x40)\n      0x20\n      dup2\n      dup4\n      sub\n      sub\n      dup2\n      mstore\n      swap1\n      0x40\n      mstore\n      and(not(0xffffffffffffffffffffffffffffffffffffffffffffffffffffffff), 0xa9059cbb00000000000000000000000000000000000000000000000000000000)\n      0x20\n      dup3\n      add\n      dup1\n      mload\n      0xffffffffffffffffffffffffffffffffffffffffffffffffffffffff\n      dup4\n      dup2\n      dup4\n      and\n      or\n      dup4\n      mstore\n      pop\n      pop\n      pop\n      pop\n        /* \"contracts/ABI_Encode_Decode.sol\":544:615  return abi.encodeWithSignature(\"transfer(address,uint256)\", to, amount) */\n      swap1\n      pop\n        /* \"contracts/ABI_Encode_Decode.sol\":417:623  function encodeWithSignature(... */\n      swap3\n      swap2\n      pop\n      pop\n      jump\t// out\n        /* \"contracts/ABI_Encode_Decode.sol\":256:409  function test(address _contract, bytes calldata data) external {... */\n    tag_24:\n        /* \"contracts/ABI_Encode_Decode.sol\":331:338  bool ok */\n      0x00\n        /* \"contracts/ABI_Encode_Decode.sol\":344:353  _contract */\n      dup4\n        /* \"contracts/ABI_Encode_Decode.sol\":344:358  _contract.call */\n      0xffffffffffffffffffffffffffffffffffffffff\n      and\n        /* \"contracts/ABI_Encode_Decode.sol\":359:363  data */\n      dup4\n      dup4\n        /* \"contracts/ABI_Encode_Decode.sol\":344:364  _contract.call(data) */\n      mload(0x40)\n      tag_33\n      swap3\n      swap2\n      swap1\n      tag_34\n      jump\t// in\n    tag_33:\n      0x00\n      mload(0x40)\n      dup1\n      dup4\n      sub\n      dup2\n      0x00\n      dup7\n      gas\n      call\n      swap2\n      pop\n      pop\n      returndatasize\n      dup1\n      0x00\n      dup2\n      eq\n      tag_37\n      jumpi\n      mload(0x40)\n      swap2\n      pop\n      and(add(returndatasize, 0x3f), not(0x1f))\n      dup3\n      add\n      0x40\n      mstore\n      returndatasize\n      dup3\n      mstore\n      returndatasize\n      0x00\n      0x20\n      dup5\n      add\n      returndatacopy\n      jump(tag_36)\n    tag_37:\n      0x60\n      swap2\n      pop\n    tag_36:\n      pop\n        /* \"contracts/ABI_Encode_Decode.sol\":330:364  (bool ok, ) = _contract.call(data) */\n      pop\n      swap1\n      pop\n        /* \"contracts/ABI_Encode_Decode.sol\":383:385  ok */\n      dup1\n        /* \"contracts/ABI_Encode_Decode.sol\":375:401  require(ok, \"call failed\") */\n      tag_38\n      jumpi\n      mload(0x40)\n      0x08c379a000000000000000000000000000000000000000000000000000000000\n      dup2\n      mstore\n      0x04\n      add\n      tag_39\n      swap1\n      tag_40\n      jump\t// in\n    tag_39:\n      mload(0x40)\n      dup1\n      swap2\n      sub\n      swap1\n      revert\n    tag_38:\n        /* \"contracts/ABI_Encode_Decode.sol\":319:409  {... */\n      pop\n        /* \"contracts/ABI_Encode_Decode.sol\":256:409  function test(address _contract, bytes calldata data) external {... */\n      pop\n      pop\n      pop\n      jump\t// out\n        /* \"#utility.yul\":88:205   */\n    tag_42:\n        /* \"#utility.yul\":197:198   */\n      0x00\n        /* \"#utility.yul\":194:195   */\n      dup1\n        /* \"#utility.yul\":187:199   */\n      revert\n        /* \"#utility.yul\":211:328   */\n    tag_43:\n        /* \"#utility.yul\":320:321   */\n      0x00\n        /* \"#utility.yul\":317:318   */\n      dup1\n        /* \"#utility.yul\":310:322   */\n      revert\n        /* \"#utility.yul\":334:460   */\n    tag_44:\n        /* \"#utility.yul\":371:378   */\n      0x00\n        /* \"#utility.yul\":411:453   */\n      0xffffffffffffffffffffffffffffffffffffffff\n        /* \"#utility.yul\":404:409   */\n      dup3\n        /* \"#utility.yul\":400:454   */\n      and\n        /* \"#utility.yul\":389:454   */\n      swap1\n      pop\n        /* \"#utility.yul\":334:460   */\n      swap2\n      swap1\n      pop\n      jump\t// out\n        /* \"#utility.yul\":466:562   */\n    tag_45:\n        /* \"#utility.yul\":503:510   */\n      0x00\n        /* \"#utility.yul\":532:556   */\n      tag_74\n        /* \"#utility.yul\":550:555   */\n      dup3\n        /* \"#utility.yul\":532:556   */\n      tag_44\n      jump\t// in\n    tag_74:\n        /* \"#utility.yul\":521:556   */\n      swap1\n      pop\n        /* \"#utility.yul\":466:562   */\n      swap2\n      swap1\n      pop\n      jump\t// out\n        /* \"#utility.yul\":568:690   */\n    tag_46:\n        /* \"#utility.yul\":641:665   */\n      tag_76\n        /* \"#utility.yul\":659:664   */\n      dup2\n        /* \"#utility.yul\":641:665   */\n      tag_45\n      jump\t// in\n    tag_76:\n        /* \"#utility.yul\":634:639   */\n      dup2\n        /* \"#utility.yul\":631:666   */\n      eq\n        /* \"#utility.yul\":621:684   */\n      tag_77\n      jumpi\n        /* \"#utility.yul\":680:681   */\n      0x00\n        /* \"#utility.yul\":677:678   */\n      dup1\n        /* \"#utility.yul\":670:682   */\n      revert\n        /* \"#utility.yul\":621:684   */\n    tag_77:\n        /* \"#utility.yul\":568:690   */\n      pop\n      jump\t// out\n        /* \"#utility.yul\":696:835   */\n    tag_47:\n        /* \"#utility.yul\":742:747   */\n      0x00\n        /* \"#utility.yul\":780:786   */\n      dup2\n        /* \"#utility.yul\":767:787   */\n      calldataload\n        /* \"#utility.yul\":758:787   */\n      swap1\n      pop\n        /* \"#utility.yul\":796:829   */\n      tag_79\n        /* \"#utility.yul\":823:828   */\n      dup2\n        /* \"#utility.yul\":796:829   */\n      tag_46\n      jump\t// in\n    tag_79:\n        /* \"#utility.yul\":696:835   */\n      swap3\n      swap2\n      pop\n      pop\n      jump\t// out\n        /* \"#utility.yul\":841:918   */\n    tag_48:\n        /* \"#utility.yul\":878:885   */\n      0x00\n        /* \"#utility.yul\":907:912   */\n      dup2\n        /* \"#utility.yul\":896:912   */\n      swap1\n      pop\n        /* \"#utility.yul\":841:918   */\n      swap2\n      swap1\n      pop\n      jump\t// out\n        /* \"#utility.yul\":924:1046   */\n    tag_49:\n        /* \"#utility.yul\":997:1021   */\n      tag_82\n        /* \"#utility.yul\":1015:1020   */\n      dup2\n        /* \"#utility.yul\":997:1021   */\n      tag_48\n      jump\t// in\n    tag_82:\n        /* \"#utility.yul\":990:995   */\n      dup2\n        /* \"#utility.yul\":987:1022   */\n      eq\n        /* \"#utility.yul\":977:1040   */\n      tag_83\n      jumpi\n        /* \"#utility.yul\":1036:1037   */\n      0x00\n        /* \"#utility.yul\":1033:1034   */\n      dup1\n        /* \"#utility.yul\":1026:1038   */\n      revert\n        /* \"#utility.yul\":977:1040   */\n    tag_83:\n        /* \"#utility.yul\":924:1046   */\n      pop\n      jump\t// out\n        /* \"#utility.yul\":1052:1191   */\n    tag_50:\n        /* \"#utility.yul\":1098:1103   */\n      0x00\n        /* \"#utility.yul\":1136:1142   */\n      dup2\n        /* \"#utility.yul\":1123:1143   */\n      calldataload\n        /* \"#utility.yul\":1114:1143   */\n      swap1\n      pop\n        /* \"#utility.yul\":1152:1185   */\n      tag_85\n        /* \"#utility.yul\":1179:1184   */\n      dup2\n        /* \"#utility.yul\":1152:1185   */\n      tag_49\n      jump\t// in\n    tag_85:\n        /* \"#utility.yul\":1052:1191   */\n      swap3\n      swap2\n      pop\n      pop\n      jump\t// out\n        /* \"#utility.yul\":1197:1671   */\n    tag_9:\n        /* \"#utility.yul\":1265:1271   */\n      0x00\n        /* \"#utility.yul\":1273:1279   */\n      dup1\n        /* \"#utility.yul\":1322:1324   */\n      0x40\n        /* \"#utility.yul\":1310:1319   */\n      dup4\n        /* \"#utility.yul\":1301:1308   */\n      dup6\n        /* \"#utility.yul\":1297:1320   */\n      sub\n        /* \"#utility.yul\":1293:1325   */\n      slt\n        /* \"#utility.yul\":1290:1409   */\n      iszero\n      tag_87\n      jumpi\n        /* \"#utility.yul\":1328:1407   */\n      tag_88\n      tag_42\n      jump\t// in\n    tag_88:\n        /* \"#utility.yul\":1290:1409   */\n    tag_87:\n        /* \"#utility.yul\":1448:1449   */\n      0x00\n        /* \"#utility.yul\":1473:1526   */\n      tag_89\n        /* \"#utility.yul\":1518:1525   */\n      dup6\n        /* \"#utility.yul\":1509:1515   */\n      dup3\n        /* \"#utility.yul\":1498:1507   */\n      dup7\n        /* \"#utility.yul\":1494:1516   */\n      add\n        /* \"#utility.yul\":1473:1526   */\n      tag_47\n      jump\t// in\n    tag_89:\n        /* \"#utility.yul\":1463:1526   */\n      swap3\n      pop\n        /* \"#utility.yul\":1419:1536   */\n      pop\n        /* \"#utility.yul\":1575:1577   */\n      0x20\n        /* \"#utility.yul\":1601:1654   */\n      tag_90\n        /* \"#utility.yul\":1646:1653   */\n      dup6\n        /* \"#utility.yul\":1637:1643   */\n      dup3\n        /* \"#utility.yul\":1626:1635   */\n      dup7\n        /* \"#utility.yul\":1622:1644   */\n      add\n        /* \"#utility.yul\":1601:1654   */\n      tag_50\n      jump\t// in\n    tag_90:\n        /* \"#utility.yul\":1591:1654   */\n      swap2\n      pop\n        /* \"#utility.yul\":1546:1664   */\n      pop\n        /* \"#utility.yul\":1197:1671   */\n      swap3\n      pop\n      swap3\n      swap1\n      pop\n      jump\t// out\n        /* \"#utility.yul\":1677:1775   */\n    tag_51:\n        /* \"#utility.yul\":1728:1734   */\n      0x00\n        /* \"#utility.yul\":1762:1767   */\n      dup2\n        /* \"#utility.yul\":1756:1768   */\n      mload\n        /* \"#utility.yul\":1746:1768   */\n      swap1\n      pop\n        /* \"#utility.yul\":1677:1775   */\n      swap2\n      swap1\n      pop\n      jump\t// out\n        /* \"#utility.yul\":1781:1949   */\n    tag_52:\n        /* \"#utility.yul\":1864:1875   */\n      0x00\n        /* \"#utility.yul\":1898:1904   */\n      dup3\n        /* \"#utility.yul\":1893:1896   */\n      dup3\n        /* \"#utility.yul\":1886:1905   */\n      mstore\n        /* \"#utility.yul\":1938:1942   */\n      0x20\n        /* \"#utility.yul\":1933:1936   */\n      dup3\n        /* \"#utility.yul\":1929:1943   */\n      add\n        /* \"#utility.yul\":1914:1943   */\n      swap1\n      pop\n        /* \"#utility.yul\":1781:1949   */\n      swap3\n      swap2\n      pop\n      pop\n      jump\t// out\n        /* \"#utility.yul\":1955:2094   */\n    tag_53:\n        /* \"#utility.yul\":2044:2050   */\n      dup3\n        /* \"#utility.yul\":2039:2042   */\n      dup2\n        /* \"#utility.yul\":2034:2037   */\n      dup4\n        /* \"#utility.yul\":2028:2051   */\n      mcopy\n        /* \"#utility.yul\":2085:2086   */\n      0x00\n        /* \"#utility.yul\":2076:2082   */\n      dup4\n        /* \"#utility.yul\":2071:2074   */\n      dup4\n        /* \"#utility.yul\":2067:2083   */\n      add\n        /* \"#utility.yul\":2060:2087   */\n      mstore\n        /* \"#utility.yul\":1955:2094   */\n      pop\n      pop\n      pop\n      jump\t// out\n        /* \"#utility.yul\":2100:2202   */\n    tag_54:\n        /* \"#utility.yul\":2141:2147   */\n      0x00\n        /* \"#utility.yul\":2192:2194   */\n      0x1f\n        /* \"#utility.yul\":2188:2195   */\n      not\n        /* \"#utility.yul\":2183:2185   */\n      0x1f\n        /* \"#utility.yul\":2176:2181   */\n      dup4\n        /* \"#utility.yul\":2172:2186   */\n      add\n        /* \"#utility.yul\":2168:2196   */\n      and\n        /* \"#utility.yul\":2158:2196   */\n      swap1\n      pop\n        /* \"#utility.yul\":2100:2202   */\n      swap2\n      swap1\n      pop\n      jump\t// out\n        /* \"#utility.yul\":2208:2581   */\n    tag_55:\n        /* \"#utility.yul\":2294:2297   */\n      0x00\n        /* \"#utility.yul\":2322:2360   */\n      tag_96\n        /* \"#utility.yul\":2354:2359   */\n      dup3\n        /* \"#utility.yul\":2322:2360   */\n      tag_51\n      jump\t// in\n    tag_96:\n        /* \"#utility.yul\":2376:2446   */\n      tag_97\n        /* \"#utility.yul\":2439:2445   */\n      dup2\n        /* \"#utility.yul\":2434:2437   */\n      dup6\n        /* \"#utility.yul\":2376:2446   */\n      tag_52\n      jump\t// in\n    tag_97:\n        /* \"#utility.yul\":2369:2446   */\n      swap4\n      pop\n        /* \"#utility.yul\":2455:2520   */\n      tag_98\n        /* \"#utility.yul\":2513:2519   */\n      dup2\n        /* \"#utility.yul\":2508:2511   */\n      dup6\n        /* \"#utility.yul\":2501:2505   */\n      0x20\n        /* \"#utility.yul\":2494:2499   */\n      dup7\n        /* \"#utility.yul\":2490:2506   */\n      add\n        /* \"#utility.yul\":2455:2520   */\n      tag_53\n      jump\t// in\n    tag_98:\n        /* \"#utility.yul\":2545:2574   */\n      tag_99\n        /* \"#utility.yul\":2567:2573   */\n      dup2\n        /* \"#utility.yul\":2545:2574   */\n      tag_54\n      jump\t// in\n    tag_99:\n        /* \"#utility.yul\":2540:2543   */\n      dup5\n        /* \"#utility.yul\":2536:2575   */\n      add\n        /* \"#utility.yul\":2529:2575   */\n      swap2\n      pop\n        /* \"#utility.yul\":2298:2581   */\n      pop\n        /* \"#utility.yul\":2208:2581   */\n      swap3\n      swap2\n      pop\n      pop\n      jump\t// out\n        /* \"#utility.yul\":2587:2896   */\n    tag_12:\n        /* \"#utility.yul\":2698:2702   */\n      0x00\n        /* \"#utility.yul\":2736:2738   */\n      0x20\n        /* \"#utility.yul\":2725:2734   */\n      dup3\n        /* \"#utility.yul\":2721:2739   */\n      add\n        /* \"#utility.yul\":2713:2739   */\n      swap1\n      pop\n        /* \"#utility.yul\":2785:2794   */\n      dup2\n        /* \"#utility.yul\":2779:2783   */\n      dup2\n        /* \"#utility.yul\":2775:2795   */\n      sub\n        /* \"#utility.yul\":2771:2772   */\n      0x00\n        /* \"#utility.yul\":2760:2769   */\n      dup4\n        /* \"#utility.yul\":2756:2773   */\n      add\n        /* \"#utility.yul\":2749:2796   */\n      mstore\n        /* \"#utility.yul\":2813:2889   */\n      tag_101\n        /* \"#utility.yul\":2884:2888   */\n      dup2\n        /* \"#utility.yul\":2875:2881   */\n      dup5\n        /* \"#utility.yul\":2813:2889   */\n      tag_55\n      jump\t// in\n    tag_101:\n        /* \"#utility.yul\":2805:2889   */\n      swap1\n      pop\n        /* \"#utility.yul\":2587:2896   */\n      swap3\n      swap2\n      pop\n      pop\n      jump\t// out\n        /* \"#utility.yul\":2902:3019   */\n    tag_56:\n        /* \"#utility.yul\":3011:3012   */\n      0x00\n        /* \"#utility.yul\":3008:3009   */\n      dup1\n        /* \"#utility.yul\":3001:3013   */\n      revert\n        /* \"#utility.yul\":3025:3142   */\n    tag_57:\n        /* \"#utility.yul\":3134:3135   */\n      0x00\n        /* \"#utility.yul\":3131:3132   */\n      dup1\n        /* \"#utility.yul\":3124:3136   */\n      revert\n        /* \"#utility.yul\":3148:3265   */\n    tag_58:\n        /* \"#utility.yul\":3257:3258   */\n      0x00\n        /* \"#utility.yul\":3254:3255   */\n      dup1\n        /* \"#utility.yul\":3247:3259   */\n      revert\n        /* \"#utility.yul\":3284:3836   */\n    tag_59:\n        /* \"#utility.yul\":3341:3349   */\n      0x00\n        /* \"#utility.yul\":3351:3357   */\n      dup1\n        /* \"#utility.yul\":3401:3404   */\n      dup4\n        /* \"#utility.yul\":3394:3398   */\n      0x1f\n        /* \"#utility.yul\":3386:3392   */\n      dup5\n        /* \"#utility.yul\":3382:3399   */\n      add\n        /* \"#utility.yul\":3378:3405   */\n      slt\n        /* \"#utility.yul\":3368:3490   */\n      tag_106\n      jumpi\n        /* \"#utility.yul\":3409:3488   */\n      tag_107\n      tag_56\n      jump\t// in\n    tag_107:\n        /* \"#utility.yul\":3368:3490   */\n    tag_106:\n        /* \"#utility.yul\":3522:3528   */\n      dup3\n        /* \"#utility.yul\":3509:3529   */\n      calldataload\n        /* \"#utility.yul\":3499:3529   */\n      swap1\n      pop\n        /* \"#utility.yul\":3552:3570   */\n      0xffffffffffffffff\n        /* \"#utility.yul\":3544:3550   */\n      dup2\n        /* \"#utility.yul\":3541:3571   */\n      gt\n        /* \"#utility.yul\":3538:3655   */\n      iszero\n      tag_108\n      jumpi\n        /* \"#utility.yul\":3574:3653   */\n      tag_109\n      tag_57\n      jump\t// in\n    tag_109:\n        /* \"#utility.yul\":3538:3655   */\n    tag_108:\n        /* \"#utility.yul\":3688:3692   */\n      0x20\n        /* \"#utility.yul\":3680:3686   */\n      dup4\n        /* \"#utility.yul\":3676:3693   */\n      add\n        /* \"#utility.yul\":3664:3693   */\n      swap2\n      pop\n        /* \"#utility.yul\":3742:3745   */\n      dup4\n        /* \"#utility.yul\":3734:3738   */\n      0x01\n        /* \"#utility.yul\":3726:3732   */\n      dup3\n        /* \"#utility.yul\":3722:3739   */\n      mul\n        /* \"#utility.yul\":3712:3720   */\n      dup4\n        /* \"#utility.yul\":3708:3740   */\n      add\n        /* \"#utility.yul\":3705:3746   */\n      gt\n        /* \"#utility.yul\":3702:3830   */\n      iszero\n      tag_110\n      jumpi\n        /* \"#utility.yul\":3749:3828   */\n      tag_111\n      tag_58\n      jump\t// in\n    tag_111:\n        /* \"#utility.yul\":3702:3830   */\n    tag_110:\n        /* \"#utility.yul\":3284:3836   */\n      swap3\n      pop\n      swap3\n      swap1\n      pop\n      jump\t// out\n        /* \"#utility.yul\":3842:4514   */\n    tag_23:\n        /* \"#utility.yul\":3921:3927   */\n      0x00\n        /* \"#utility.yul\":3929:3935   */\n      dup1\n        /* \"#utility.yul\":3937:3943   */\n      0x00\n        /* \"#utility.yul\":3986:3988   */\n      0x40\n        /* \"#utility.yul\":3974:3983   */\n      dup5\n        /* \"#utility.yul\":3965:3972   */\n      dup7\n        /* \"#utility.yul\":3961:3984   */\n      sub\n        /* \"#utility.yul\":3957:3989   */\n      slt\n        /* \"#utility.yul\":3954:4073   */\n      iszero\n      tag_113\n      jumpi\n        /* \"#utility.yul\":3992:4071   */\n      tag_114\n      tag_42\n      jump\t// in\n    tag_114:\n        /* \"#utility.yul\":3954:4073   */\n    tag_113:\n        /* \"#utility.yul\":4112:4113   */\n      0x00\n        /* \"#utility.yul\":4137:4190   */\n      tag_115\n        /* \"#utility.yul\":4182:4189   */\n      dup7\n        /* \"#utility.yul\":4173:4179   */\n      dup3\n        /* \"#utility.yul\":4162:4171   */\n      dup8\n        /* \"#utility.yul\":4158:4180   */\n      add\n        /* \"#utility.yul\":4137:4190   */\n      tag_47\n      jump\t// in\n    tag_115:\n        /* \"#utility.yul\":4127:4190   */\n      swap4\n      pop\n        /* \"#utility.yul\":4083:4200   */\n      pop\n        /* \"#utility.yul\":4267:4269   */\n      0x20\n        /* \"#utility.yul\":4256:4265   */\n      dup5\n        /* \"#utility.yul\":4252:4270   */\n      add\n        /* \"#utility.yul\":4239:4271   */\n      calldataload\n        /* \"#utility.yul\":4298:4316   */\n      0xffffffffffffffff\n        /* \"#utility.yul\":4290:4296   */\n      dup2\n        /* \"#utility.yul\":4287:4317   */\n      gt\n        /* \"#utility.yul\":4284:4401   */\n      iszero\n      tag_116\n      jumpi\n        /* \"#utility.yul\":4320:4399   */\n      tag_117\n      tag_43\n      jump\t// in\n    tag_117:\n        /* \"#utility.yul\":4284:4401   */\n    tag_116:\n        /* \"#utility.yul\":4433:4497   */\n      tag_118\n        /* \"#utility.yul\":4489:4496   */\n      dup7\n        /* \"#utility.yul\":4480:4486   */\n      dup3\n        /* \"#utility.yul\":4469:4478   */\n      dup8\n        /* \"#utility.yul\":4465:4487   */\n      add\n        /* \"#utility.yul\":4433:4497   */\n      tag_59\n      jump\t// in\n    tag_118:\n        /* \"#utility.yul\":4415:4497   */\n      swap3\n      pop\n      swap3\n      pop\n        /* \"#utility.yul\":4210:4507   */\n      pop\n        /* \"#utility.yul\":3842:4514   */\n      swap3\n      pop\n      swap3\n      pop\n      swap3\n      jump\t// out\n        /* \"#utility.yul\":4520:4638   */\n    tag_60:\n        /* \"#utility.yul\":4607:4631   */\n      tag_120\n        /* \"#utility.yul\":4625:4630   */\n      dup2\n        /* \"#utility.yul\":4607:4631   */\n      tag_45\n      jump\t// in\n    tag_120:\n        /* \"#utility.yul\":4602:4605   */\n      dup3\n        /* \"#utility.yul\":4595:4632   */\n      mstore\n        /* \"#utility.yul\":4520:4638   */\n      pop\n      pop\n      jump\t// out\n        /* \"#utility.yul\":4644:4762   */\n    tag_61:\n        /* \"#utility.yul\":4731:4755   */\n      tag_122\n        /* \"#utility.yul\":4749:4754   */\n      dup2\n        /* \"#utility.yul\":4731:4755   */\n      tag_48\n      jump\t// in\n    tag_122:\n        /* \"#utility.yul\":4726:4729   */\n      dup3\n        /* \"#utility.yul\":4719:4756   */\n      mstore\n        /* \"#utility.yul\":4644:4762   */\n      pop\n      pop\n      jump\t// out\n        /* \"#utility.yul\":4768:5100   */\n    tag_27:\n        /* \"#utility.yul\":4889:4893   */\n      0x00\n        /* \"#utility.yul\":4927:4929   */\n      0x40\n        /* \"#utility.yul\":4916:4925   */\n      dup3\n        /* \"#utility.yul\":4912:4930   */\n      add\n        /* \"#utility.yul\":4904:4930   */\n      swap1\n      pop\n        /* \"#utility.yul\":4940:5011   */\n      tag_124\n        /* \"#utility.yul\":5008:5009   */\n      0x00\n        /* \"#utility.yul\":4997:5006   */\n      dup4\n        /* \"#utility.yul\":4993:5010   */\n      add\n        /* \"#utility.yul\":4984:4990   */\n      dup6\n        /* \"#utility.yul\":4940:5011   */\n      tag_60\n      jump\t// in\n    tag_124:\n        /* \"#utility.yul\":5021:5093   */\n      tag_125\n        /* \"#utility.yul\":5089:5091   */\n      0x20\n        /* \"#utility.yul\":5078:5087   */\n      dup4\n        /* \"#utility.yul\":5074:5092   */\n      add\n        /* \"#utility.yul\":5065:5071   */\n      dup5\n        /* \"#utility.yul\":5021:5093   */\n      tag_61\n      jump\t// in\n    tag_125:\n        /* \"#utility.yul\":4768:5100   */\n      swap4\n      swap3\n      pop\n      pop\n      pop\n      jump\t// out\n        /* \"#utility.yul\":5106:5253   */\n    tag_62:\n        /* \"#utility.yul\":5207:5218   */\n      0x00\n        /* \"#utility.yul\":5244:5247   */\n      dup2\n        /* \"#utility.yul\":5229:5247   */\n      swap1\n      pop\n        /* \"#utility.yul\":5106:5253   */\n      swap3\n      swap2\n      pop\n      pop\n      jump\t// out\n        /* \"#utility.yul\":5259:5407   */\n    tag_63:\n        /* \"#utility.yul\":5357:5363   */\n      dup3\n        /* \"#utility.yul\":5352:5355   */\n      dup2\n        /* \"#utility.yul\":5347:5350   */\n      dup4\n        /* \"#utility.yul\":5334:5364   */\n      calldatacopy\n        /* \"#utility.yul\":5398:5399   */\n      0x00\n        /* \"#utility.yul\":5389:5395   */\n      dup4\n        /* \"#utility.yul\":5384:5387   */\n      dup4\n        /* \"#utility.yul\":5380:5396   */\n      add\n        /* \"#utility.yul\":5373:5400   */\n      mstore\n        /* \"#utility.yul\":5259:5407   */\n      pop\n      pop\n      pop\n      jump\t// out\n        /* \"#utility.yul\":5435:5762   */\n    tag_64:\n        /* \"#utility.yul\":5549:5552   */\n      0x00\n        /* \"#utility.yul\":5570:5658   */\n      tag_129\n        /* \"#utility.yul\":5651:5657   */\n      dup4\n        /* \"#utility.yul\":5646:5649   */\n      dup6\n        /* \"#utility.yul\":5570:5658   */\n      tag_62\n      jump\t// in\n    tag_129:\n        /* \"#utility.yul\":5563:5658   */\n      swap4\n      pop\n        /* \"#utility.yul\":5668:5724   */\n      tag_130\n        /* \"#utility.yul\":5717:5723   */\n      dup4\n        /* \"#utility.yul\":5712:5715   */\n      dup6\n        /* \"#utility.yul\":5705:5710   */\n      dup5\n        /* \"#utility.yul\":5668:5724   */\n      tag_63\n      jump\t// in\n    tag_130:\n        /* \"#utility.yul\":5749:5755   */\n      dup3\n        /* \"#utility.yul\":5744:5747   */\n      dup5\n        /* \"#utility.yul\":5740:5756   */\n      add\n        /* \"#utility.yul\":5733:5756   */\n      swap1\n      pop\n        /* \"#utility.yul\":5435:5762   */\n      swap4\n      swap3\n      pop\n      pop\n      pop\n      jump\t// out\n        /* \"#utility.yul\":5768:6059   */\n    tag_34:\n        /* \"#utility.yul\":5908:5911   */\n      0x00\n        /* \"#utility.yul\":5930:6033   */\n      tag_132\n        /* \"#utility.yul\":6029:6032   */\n      dup3\n        /* \"#utility.yul\":6020:6026   */\n      dup5\n        /* \"#utility.yul\":6012:6018   */\n      dup7\n        /* \"#utility.yul\":5930:6033   */\n      tag_64\n      jump\t// in\n    tag_132:\n        /* \"#utility.yul\":5923:6033   */\n      swap2\n      pop\n        /* \"#utility.yul\":6050:6053   */\n      dup2\n        /* \"#utility.yul\":6043:6053   */\n      swap1\n      pop\n        /* \"#utility.yul\":5768:6059   */\n      swap4\n      swap3\n      pop\n      pop\n      pop\n      jump\t// out\n        /* \"#utility.yul\":6065:6234   */\n    tag_65:\n        /* \"#utility.yul\":6149:6160   */\n      0x00\n        /* \"#utility.yul\":6183:6189   */\n      dup3\n        /* \"#utility.yul\":6178:6181   */\n      dup3\n        /* \"#utility.yul\":6171:6190   */\n      mstore\n        /* \"#utility.yul\":6223:6227   */\n      0x20\n        /* \"#utility.yul\":6218:6221   */\n      dup3\n        /* \"#utility.yul\":6214:6228   */\n      add\n        /* \"#utility.yul\":6199:6228   */\n      swap1\n      pop\n        /* \"#utility.yul\":6065:6234   */\n      swap3\n      swap2\n      pop\n      pop\n      jump\t// out\n        /* \"#utility.yul\":6240:6401   */\n    tag_66:\n        /* \"#utility.yul\":6380:6393   */\n      0x63616c6c206661696c6564000000000000000000000000000000000000000000\n        /* \"#utility.yul\":6376:6377   */\n      0x00\n        /* \"#utility.yul\":6368:6374   */\n      dup3\n        /* \"#utility.yul\":6364:6378   */\n      add\n        /* \"#utility.yul\":6357:6394   */\n      mstore\n        /* \"#utility.yul\":6240:6401   */\n      pop\n      jump\t// out\n        /* \"#utility.yul\":6407:6773   */\n    tag_67:\n        /* \"#utility.yul\":6549:6552   */\n      0x00\n        /* \"#utility.yul\":6570:6637   */\n      tag_136\n        /* \"#utility.yul\":6634:6636   */\n      0x0b\n        /* \"#utility.yul\":6629:6632   */\n      dup4\n        /* \"#utility.yul\":6570:6637   */\n      tag_65\n      jump\t// in\n    tag_136:\n        /* \"#utility.yul\":6563:6637   */\n      swap2\n      pop\n        /* \"#utility.yul\":6646:6739   */\n      tag_137\n        /* \"#utility.yul\":6735:6738   */\n      dup3\n        /* \"#utility.yul\":6646:6739   */\n      tag_66\n      jump\t// in\n    tag_137:\n        /* \"#utility.yul\":6764:6766   */\n      0x20\n        /* \"#utility.yul\":6759:6762   */\n      dup3\n        /* \"#utility.yul\":6755:6767   */\n      add\n        /* \"#utility.yul\":6748:6767   */\n      swap1\n      pop\n        /* \"#utility.yul\":6407:6773   */\n      swap2\n      swap1\n      pop\n      jump\t// out\n        /* \"#utility.yul\":6779:7198   */\n    tag_40:\n        /* \"#utility.yul\":6945:6949   */\n      0x00\n        /* \"#utility.yul\":6983:6985   */\n      0x20\n        /* \"#utility.yul\":6972:6981   */\n      dup3\n        /* \"#utility.yul\":6968:6986   */\n      add\n        /* \"#utility.yul\":6960:6986   */\n      swap1\n      pop\n        /* \"#utility.yul\":7032:7041   */\n      dup2\n        /* \"#utility.yul\":7026:7030   */\n      dup2\n        /* \"#utility.yul\":7022:7042   */\n      sub\n        /* \"#utility.yul\":7018:7019   */\n      0x00\n        /* \"#utility.yul\":7007:7016   */\n      dup4\n        /* \"#utility.yul\":7003:7020   */\n      add\n        /* \"#utility.yul\":6996:7043   */\n      mstore\n        /* \"#utility.yul\":7060:7191   */\n      tag_139\n        /* \"#utility.yul\":7186:7190   */\n      dup2\n        /* \"#utility.yul\":7060:7191   */\n      tag_67\n      jump\t// in\n    tag_139:\n        /* \"#utility.yul\":7052:7191   */\n      swap1\n      pop\n        /* \"#utility.yul\":6779:7198   */\n      swap2\n      swap1\n      pop\n      jump\t// out\n\n    auxdata: 0xa26469706673582212205d0fe33ea1d88139ad99c3270c68f1bc196fb137919a1d402ad945a5bf6c6efc64736f6c634300081a0033\n}\n",
				"bytecode": {
					"linkReferences": {},
					"object": "6080604052348015600e575f80fd5b506106908061001c5f395ff3fe608060405234801561000f575f80fd5b506004361061004a575f3560e01c806325adff1c1461004e5780635fc6ac0e1461007e5780637e3b06fb146100ae57806393e01418146100de575b5f80fd5b610068600480360381019061006391906103bd565b6100fa565b604051610075919061046b565b60405180910390f35b610098600480360381019061009391906103bd565b61015c565b6040516100a5919061046b565b60405180910390f35b6100c860048036038101906100c391906103bd565b6101de565b6040516100d5919061046b565b60405180910390f35b6100f860048036038101906100f391906104ec565b610278565b005b6060828260405160240161010f929190610567565b60405160208183030381529060405263a9059cbb60e01b6020820180517bffffffffffffffffffffffffffffffffffffffffffffffffffffffff8381831617835250505050905092915050565b606063a9059cbb60e01b8383604051602401610179929190610567565b604051602081830303815290604052907bffffffffffffffffffffffffffffffffffffffffffffffffffffffff19166020820180517bffffffffffffffffffffffffffffffffffffffffffffffffffffffff8381831617835250505050905092915050565b606082826040516024016101f3929190610567565b6040516020818303038152906040527fa9059cbb000000000000000000000000000000000000000000000000000000007bffffffffffffffffffffffffffffffffffffffffffffffffffffffff19166020820180517bffffffffffffffffffffffffffffffffffffffffffffffffffffffff8381831617835250505050905092915050565b5f8373ffffffffffffffffffffffffffffffffffffffff1683836040516102a09291906105ca565b5f604051808303815f865af19150503d805f81146102d9576040519150601f19603f3d011682016040523d82523d5f602084013e6102de565b606091505b5050905080610322576040517f08c379a00000000000000000000000000000000000000000000000000000000081526004016103199061063c565b60405180910390fd5b50505050565b5f80fd5b5f80fd5b5f73ffffffffffffffffffffffffffffffffffffffff82169050919050565b5f61035982610330565b9050919050565b6103698161034f565b8114610373575f80fd5b50565b5f8135905061038481610360565b92915050565b5f819050919050565b61039c8161038a565b81146103a6575f80fd5b50565b5f813590506103b781610393565b92915050565b5f80604083850312156103d3576103d2610328565b5b5f6103e085828601610376565b92505060206103f1858286016103a9565b9150509250929050565b5f81519050919050565b5f82825260208201905092915050565b8281835e5f83830152505050565b5f601f19601f8301169050919050565b5f61043d826103fb565b6104478185610405565b9350610457818560208601610415565b61046081610423565b840191505092915050565b5f6020820190508181035f8301526104838184610433565b905092915050565b5f80fd5b5f80fd5b5f80fd5b5f8083601f8401126104ac576104ab61048b565b5b8235905067ffffffffffffffff8111156104c9576104c861048f565b5b6020830191508360018202830111156104e5576104e4610493565b5b9250929050565b5f805f6040848603121561050357610502610328565b5b5f61051086828701610376565b935050602084013567ffffffffffffffff8111156105315761053061032c565b5b61053d86828701610497565b92509250509250925092565b6105528161034f565b82525050565b6105618161038a565b82525050565b5f60408201905061057a5f830185610549565b6105876020830184610558565b9392505050565b5f81905092915050565b828183375f83830152505050565b5f6105b1838561058e565b93506105be838584610598565b82840190509392505050565b5f6105d68284866105a6565b91508190509392505050565b5f82825260208201905092915050565b7f63616c6c206661696c65640000000000000000000000000000000000000000005f82015250565b5f610626600b836105e2565b9150610631826105f2565b602082019050919050565b5f6020820190508181035f8301526106538161061a565b905091905056fea26469706673582212205d0fe33ea1d88139ad99c3270c68f1bc196fb137919a1d402ad945a5bf6c6efc64736f6c634300081a0033",
					"opcodes": "PUSH1 0x80 PUSH1 0x40 MSTORE CALLVALUE DUP1 ISZERO PUSH1 0xE JUMPI PUSH0 DUP1 REVERT JUMPDEST POP PUSH2 0x690 DUP1 PUSH2 0x1C PUSH0 CODECOPY PUSH0 RETURN INVALID PUSH1 0x80 PUSH1 0x40 MSTORE CALLVALUE DUP1 ISZERO PUSH2 0xF JUMPI PUSH0 DUP1 REVERT JUMPDEST POP PUSH1 0x4 CALLDATASIZE LT PUSH2 0x4A JUMPI PUSH0 CALLDATALOAD PUSH1 0xE0 SHR DUP1 PUSH4 0x25ADFF1C EQ PUSH2 0x4E JUMPI DUP1 PUSH4 0x5FC6AC0E EQ PUSH2 0x7E JUMPI DUP1 PUSH4 0x7E3B06FB EQ PUSH2 0xAE JUMPI DUP1 PUSH4 0x93E01418 EQ PUSH2 0xDE JUMPI JUMPDEST PUSH0 DUP1 REVERT JUMPDEST PUSH2 0x68 PUSH1 0x4 DUP1 CALLDATASIZE SUB DUP2 ADD SWAP1 PUSH2 0x63 SWAP2 SWAP1 PUSH2 0x3BD JUMP JUMPDEST PUSH2 0xFA JUMP JUMPDEST PUSH1 0x40 MLOAD PUSH2 0x75 SWAP2 SWAP1 PUSH2 0x46B JUMP JUMPDEST PUSH1 0x40 MLOAD DUP1 SWAP2 SUB SWAP1 RETURN JUMPDEST PUSH2 0x98 PUSH1 0x4 DUP1 CALLDATASIZE SUB DUP2 ADD SWAP1 PUSH2 0x93 SWAP2 SWAP1 PUSH2 0x3BD JUMP JUMPDEST PUSH2 0x15C JUMP JUMPDEST PUSH1 0x40 MLOAD PUSH2 0xA5 SWAP2 SWAP1 PUSH2 0x46B JUMP JUMPDEST PUSH1 0x40 MLOAD DUP1 SWAP2 SUB SWAP1 RETURN JUMPDEST PUSH2 0xC8 PUSH1 0x4 DUP1 CALLDATASIZE SUB DUP2 ADD SWAP1 PUSH2 0xC3 SWAP2 SWAP1 PUSH2 0x3BD JUMP JUMPDEST PUSH2 0x1DE JUMP JUMPDEST PUSH1 0x40 MLOAD PUSH2 0xD5 SWAP2 SWAP1 PUSH2 0x46B JUMP JUMPDEST PUSH1 0x40 MLOAD DUP1 SWAP2 SUB SWAP1 RETURN JUMPDEST PUSH2 0xF8 PUSH1 0x4 DUP1 CALLDATASIZE SUB DUP2 ADD SWAP1 PUSH2 0xF3 SWAP2 SWAP1 PUSH2 0x4EC JUMP JUMPDEST PUSH2 0x278 JUMP JUMPDEST STOP JUMPDEST PUSH1 0x60 DUP3 DUP3 PUSH1 0x40 MLOAD PUSH1 0x24 ADD PUSH2 0x10F SWAP3 SWAP2 SWAP1 PUSH2 0x567 JUMP JUMPDEST PUSH1 0x40 MLOAD PUSH1 0x20 DUP2 DUP4 SUB SUB DUP2 MSTORE SWAP1 PUSH1 0x40 MSTORE PUSH4 0xA9059CBB PUSH1 0xE0 SHL PUSH1 0x20 DUP3 ADD DUP1 MLOAD PUSH28 0xFFFFFFFFFFFFFFFFFFFFFFFFFFFFFFFFFFFFFFFFFFFFFFFFFFFFFFFF DUP4 DUP2 DUP4 AND OR DUP4 MSTORE POP POP POP POP SWAP1 POP SWAP3 SWAP2 POP POP JUMP JUMPDEST PUSH1 0x60 PUSH4 0xA9059CBB PUSH1 0xE0 SHL DUP4 DUP4 PUSH1 0x40 MLOAD PUSH1 0x24 ADD PUSH2 0x179 SWAP3 SWAP2 SWAP1 PUSH2 0x567 JUMP JUMPDEST PUSH1 0x40 MLOAD PUSH1 0x20 DUP2 DUP4 SUB SUB DUP2 MSTORE SWAP1 PUSH1 0x40 MSTORE SWAP1 PUSH28 0xFFFFFFFFFFFFFFFFFFFFFFFFFFFFFFFFFFFFFFFFFFFFFFFFFFFFFFFF NOT AND PUSH1 0x20 DUP3 ADD DUP1 MLOAD PUSH28 0xFFFFFFFFFFFFFFFFFFFFFFFFFFFFFFFFFFFFFFFFFFFFFFFFFFFFFFFF DUP4 DUP2 DUP4 AND OR DUP4 MSTORE POP POP POP POP SWAP1 POP SWAP3 SWAP2 POP POP JUMP JUMPDEST PUSH1 0x60 DUP3 DUP3 PUSH1 0x40 MLOAD PUSH1 0x24 ADD PUSH2 0x1F3 SWAP3 SWAP2 SWAP1 PUSH2 0x567 JUMP JUMPDEST PUSH1 0x40 MLOAD PUSH1 0x20 DUP2 DUP4 SUB SUB DUP2 MSTORE SWAP1 PUSH1 0x40 MSTORE PUSH32 0xA9059CBB00000000000000000000000000000000000000000000000000000000 PUSH28 0xFFFFFFFFFFFFFFFFFFFFFFFFFFFFFFFFFFFFFFFFFFFFFFFFFFFFFFFF NOT AND PUSH1 0x20 DUP3 ADD DUP1 MLOAD PUSH28 0xFFFFFFFFFFFFFFFFFFFFFFFFFFFFFFFFFFFFFFFFFFFFFFFFFFFFFFFF DUP4 DUP2 DUP4 AND OR DUP4 MSTORE POP POP POP POP SWAP1 POP SWAP3 SWAP2 POP POP JUMP JUMPDEST PUSH0 DUP4 PUSH20 0xFFFFFFFFFFFFFFFFFFFFFFFFFFFFFFFFFFFFFFFF AND DUP4 DUP4 PUSH1 0x40 MLOAD PUSH2 0x2A0 SWAP3 SWAP2 SWAP1 PUSH2 0x5CA JUMP JUMPDEST PUSH0 PUSH1 0x40 MLOAD DUP1 DUP4 SUB DUP2 PUSH0 DUP7 GAS CALL SWAP2 POP POP RETURNDATASIZE DUP1 PUSH0 DUP2 EQ PUSH2 0x2D9 JUMPI PUSH1 0x40 MLOAD SWAP2 POP PUSH1 0x1F NOT PUSH1 0x3F RETURNDATASIZE ADD AND DUP3 ADD PUSH1 0x40 MSTORE RETURNDATASIZE DUP3 MSTORE RETURNDATASIZE PUSH0 PUSH1 0x20 DUP5 ADD RETURNDATACOPY PUSH2 0x2DE JUMP JUMPDEST PUSH1 0x60 SWAP2 POP JUMPDEST POP POP SWAP1 POP DUP1 PUSH2 0x322 JUMPI PUSH1 0x40 MLOAD PUSH32 0x8C379A000000000000000000000000000000000000000000000000000000000 DUP2 MSTORE PUSH1 0x4 ADD PUSH2 0x319 SWAP1 PUSH2 0x63C JUMP JUMPDEST PUSH1 0x40 MLOAD DUP1 SWAP2 SUB SWAP1 REVERT JUMPDEST POP POP POP POP JUMP JUMPDEST PUSH0 DUP1 REVERT JUMPDEST PUSH0 DUP1 REVERT JUMPDEST PUSH0 PUSH20 0xFFFFFFFFFFFFFFFFFFFFFFFFFFFFFFFFFFFFFFFF DUP3 AND SWAP1 POP SWAP2 SWAP1 POP JUMP JUMPDEST PUSH0 PUSH2 0x359 DUP3 PUSH2 0x330 JUMP JUMPDEST SWAP1 POP SWAP2 SWAP1 POP JUMP JUMPDEST PUSH2 0x369 DUP2 PUSH2 0x34F JUMP JUMPDEST DUP2 EQ PUSH2 0x373 JUMPI PUSH0 DUP1 REVERT JUMPDEST POP JUMP JUMPDEST PUSH0 DUP2 CALLDATALOAD SWAP1 POP PUSH2 0x384 DUP2 PUSH2 0x360 JUMP JUMPDEST SWAP3 SWAP2 POP POP JUMP JUMPDEST PUSH0 DUP2 SWAP1 POP SWAP2 SWAP1 POP JUMP JUMPDEST PUSH2 0x39C DUP2 PUSH2 0x38A JUMP JUMPDEST DUP2 EQ PUSH2 0x3A6 JUMPI PUSH0 DUP1 REVERT JUMPDEST POP JUMP JUMPDEST PUSH0 DUP2 CALLDATALOAD SWAP1 POP PUSH2 0x3B7 DUP2 PUSH2 0x393 JUMP JUMPDEST SWAP3 SWAP2 POP POP JUMP JUMPDEST PUSH0 DUP1 PUSH1 0x40 DUP4 DUP6 SUB SLT ISZERO PUSH2 0x3D3 JUMPI PUSH2 0x3D2 PUSH2 0x328 JUMP JUMPDEST JUMPDEST PUSH0 PUSH2 0x3E0 DUP6 DUP3 DUP7 ADD PUSH2 0x376 JUMP JUMPDEST SWAP3 POP POP PUSH1 0x20 PUSH2 0x3F1 DUP6 DUP3 DUP7 ADD PUSH2 0x3A9 JUMP JUMPDEST SWAP2 POP POP SWAP3 POP SWAP3 SWAP1 POP JUMP JUMPDEST PUSH0 DUP2 MLOAD SWAP1 POP SWAP2 SWAP1 POP JUMP JUMPDEST PUSH0 DUP3 DUP3 MSTORE PUSH1 0x20 DUP3 ADD SWAP1 POP SWAP3 SWAP2 POP POP JUMP JUMPDEST DUP3 DUP2 DUP4 MCOPY PUSH0 DUP4 DUP4 ADD MSTORE POP POP POP JUMP JUMPDEST PUSH0 PUSH1 0x1F NOT PUSH1 0x1F DUP4 ADD AND SWAP1 POP SWAP2 SWAP1 POP JUMP JUMPDEST PUSH0 PUSH2 0x43D DUP3 PUSH2 0x3FB JUMP JUMPDEST PUSH2 0x447 DUP2 DUP6 PUSH2 0x405 JUMP JUMPDEST SWAP4 POP PUSH2 0x457 DUP2 DUP6 PUSH1 0x20 DUP7 ADD PUSH2 0x415 JUMP JUMPDEST PUSH2 0x460 DUP2 PUSH2 0x423 JUMP JUMPDEST DUP5 ADD SWAP2 POP POP SWAP3 SWAP2 POP POP JUMP JUMPDEST PUSH0 PUSH1 0x20 DUP3 ADD SWAP1 POP DUP2 DUP2 SUB PUSH0 DUP4 ADD MSTORE PUSH2 0x483 DUP2 DUP5 PUSH2 0x433 JUMP JUMPDEST SWAP1 POP SWAP3 SWAP2 POP POP JUMP JUMPDEST PUSH0 DUP1 REVERT JUMPDEST PUSH0 DUP1 REVERT JUMPDEST PUSH0 DUP1 REVERT JUMPDEST PUSH0 DUP1 DUP4 PUSH1 0x1F DUP5 ADD SLT PUSH2 0x4AC JUMPI PUSH2 0x4AB PUSH2 0x48B JUMP JUMPDEST JUMPDEST DUP3 CALLDATALOAD SWAP1 POP PUSH8 0xFFFFFFFFFFFFFFFF DUP2 GT ISZERO PUSH2 0x4C9 JUMPI PUSH2 0x4C8 PUSH2 0x48F JUMP JUMPDEST JUMPDEST PUSH1 0x20 DUP4 ADD SWAP2 POP DUP4 PUSH1 0x1 DUP3 MUL DUP4 ADD GT ISZERO PUSH2 0x4E5 JUMPI PUSH2 0x4E4 PUSH2 0x493 JUMP JUMPDEST JUMPDEST SWAP3 POP SWAP3 SWAP1 POP JUMP JUMPDEST PUSH0 DUP1 PUSH0 PUSH1 0x40 DUP5 DUP7 SUB SLT ISZERO PUSH2 0x503 JUMPI PUSH2 0x502 PUSH2 0x328 JUMP JUMPDEST JUMPDEST PUSH0 PUSH2 0x510 DUP7 DUP3 DUP8 ADD PUSH2 0x376 JUMP JUMPDEST SWAP4 POP POP PUSH1 0x20 DUP5 ADD CALLDATALOAD PUSH8 0xFFFFFFFFFFFFFFFF DUP2 GT ISZERO PUSH2 0x531 JUMPI PUSH2 0x530 PUSH2 0x32C JUMP JUMPDEST JUMPDEST PUSH2 0x53D DUP7 DUP3 DUP8 ADD PUSH2 0x497 JUMP JUMPDEST SWAP3 POP SWAP3 POP POP SWAP3 POP SWAP3 POP SWAP3 JUMP JUMPDEST PUSH2 0x552 DUP2 PUSH2 0x34F JUMP JUMPDEST DUP3 MSTORE POP POP JUMP JUMPDEST PUSH2 0x561 DUP2 PUSH2 0x38A JUMP JUMPDEST DUP3 MSTORE POP POP JUMP JUMPDEST PUSH0 PUSH1 0x40 DUP3 ADD SWAP1 POP PUSH2 0x57A PUSH0 DUP4 ADD DUP6 PUSH2 0x549 JUMP JUMPDEST PUSH2 0x587 PUSH1 0x20 DUP4 ADD DUP5 PUSH2 0x558 JUMP JUMPDEST SWAP4 SWAP3 POP POP POP JUMP JUMPDEST PUSH0 DUP2 SWAP1 POP SWAP3 SWAP2 POP POP JUMP JUMPDEST DUP3 DUP2 DUP4 CALLDATACOPY PUSH0 DUP4 DUP4 ADD MSTORE POP POP POP JUMP JUMPDEST PUSH0 PUSH2 0x5B1 DUP4 DUP6 PUSH2 0x58E JUMP JUMPDEST SWAP4 POP PUSH2 0x5BE DUP4 DUP6 DUP5 PUSH2 0x598 JUMP JUMPDEST DUP3 DUP5 ADD SWAP1 POP SWAP4 SWAP3 POP POP POP JUMP JUMPDEST PUSH0 PUSH2 0x5D6 DUP3 DUP5 DUP7 PUSH2 0x5A6 JUMP JUMPDEST SWAP2 POP DUP2 SWAP1 POP SWAP4 SWAP3 POP POP POP JUMP JUMPDEST PUSH0 DUP3 DUP3 MSTORE PUSH1 0x20 DUP3 ADD SWAP1 POP SWAP3 SWAP2 POP POP JUMP JUMPDEST PUSH32 0x63616C6C206661696C6564000000000000000000000000000000000000000000 PUSH0 DUP3 ADD MSTORE POP JUMP JUMPDEST PUSH0 PUSH2 0x626 PUSH1 0xB DUP4 PUSH2 0x5E2 JUMP JUMPDEST SWAP2 POP PUSH2 0x631 DUP3 PUSH2 0x5F2 JUMP JUMPDEST PUSH1 0x20 DUP3 ADD SWAP1 POP SWAP2 SWAP1 POP JUMP JUMPDEST PUSH0 PUSH1 0x20 DUP3 ADD SWAP1 POP DUP2 DUP2 SUB PUSH0 DUP4 ADD MSTORE PUSH2 0x653 DUP2 PUSH2 0x61A JUMP JUMPDEST SWAP1 POP SWAP2 SWAP1 POP JUMP INVALID LOG2 PUSH5 0x6970667358 0x22 SLT KECCAK256 TSTORE 0xF 0xE3 RETURNDATACOPY LOG1 0xD8 DUP2 CODECOPY 0xAD SWAP10 0xC3 0x27 0xC PUSH9 0xF1BC196FB137919A1D BLOCKHASH 0x2A 0xD9 GASLIMIT 0xA5 0xBF PUSH13 0x6EFC64736F6C634300081A0033 "
				},
				"gasEstimates": {
					"creation": {
						"codeDepositCost": "336000",
						"executionCost": "372",
						"totalCost": "336372"
					},
					"external": {
						"encodeCall(address,uint256)": "infinite",
						"encodeWithSelector(address,uint256)": "infinite",
						"encodeWithSignature(address,uint256)": "infinite",
						"test(address,bytes)": "infinite"
					}
				},
				"methodIdentifiers": {
					"encodeCall(address,uint256)": "25adff1c",
					"encodeWithSelector(address,uint256)": "5fc6ac0e",
					"encodeWithSignature(address,uint256)": "7e3b06fb",
					"test(address,bytes)": "93e01418"
				}
			},
			"storageLayout": {
				"storage": [],
				"types": null
			},
			"userdoc": {
				"kind": "user",
				"methods": {},
				"version": 1
			}
		}
	}
}