{
	"contracts/ContractThatCreatesContract.sol": {
		"CarFactory": {
			"abi": [
				{
					"inputs": [
						{
							"internalType": "uint256",
							"name": "",
							"type": "uint256"
						}
					],
					"name": "cars",
					"outputs": [
						{
							"internalType": "contract Car",
							"name": "",
							"type": "address"
						}
					],
					"stateMutability": "view",
					"type": "function"
				},
				{
					"inputs": [
						{
							"internalType": "address",
							"name": "_owner",
							"type": "address"
						},
						{
							"internalType": "string",
							"name": "_model",
							"type": "string"
						}
					],
					"name": "create",
					"outputs": [],
					"stateMutability": "nonpayable",
					"type": "function"
				},
				{
					"inputs": [
						{
							"internalType": "address",
							"name": "_owner",
							"type": "address"
						},
						{
							"internalType": "string",
							"name": "_model",
							"type": "string"
						}
					],
					"name": "createAndSendEther",
					"outputs": [],
					"stateMutability": "payable",
					"type": "function"
				},
				{
					"inputs": [
						{
							"internalType": "uint256",
							"name": "_index",
							"type": "uint256"
						}
					],
					"name": "getCar",
					"outputs": [
						{
							"internalType": "address",
							"name": "owner",
							"type": "address"
						},
						{
							"internalType": "string",
							"name": "model",
							"type": "string"
						},
						{
							"internalType": "address",
							"name": "carAddr",
							"type": "address"
						},
						{
							"internalType": "uint256",
							"name": "balance",
							"type": "uint256"
						}
					],
					"stateMutability": "view",
					"type": "function"
				}
			],
			"devdoc": {
				"kind": "dev",
				"methods": {},
				"version": 1
			},
			"evm": {
				"assembly": "    /* \"contracts/ContractThatCreatesContract.sol\":324:1077  contract CarFactory {... */\n  mstore(0x40, 0x80)\n  callvalue\n  dup1\n  iszero\n  tag_1\n  jumpi\n  0x00\n  dup1\n  revert\ntag_1:\n  pop\n  dataSize(sub_0)\n  dup1\n  dataOffset(sub_0)\n  0x00\n  codecopy\n  0x00\n  return\nstop\n\nsub_0: assembly {\n        /* \"contracts/ContractThatCreatesContract.sol\":324:1077  contract CarFactory {... */\n      mstore(0x40, 0x80)\n      jumpi(tag_1, lt(calldatasize, 0x04))\n      shr(0xe0, calldataload(0x00))\n      dup1\n      0x5e8be190\n      eq\n      tag_2\n      jumpi\n      dup1\n      0xa15ab08d\n      eq\n      tag_3\n      jumpi\n      dup1\n      0xc33cd615\n      eq\n      tag_4\n      jumpi\n      dup1\n      0xf7746e36\n      eq\n      tag_5\n      jumpi\n    tag_1:\n      0x00\n      dup1\n      revert\n        /* \"contracts/ContractThatCreatesContract.sol\":732:1074  function getCar(uint256 _index)... */\n    tag_2:\n      callvalue\n      dup1\n      iszero\n      tag_6\n      jumpi\n      0x00\n      dup1\n      revert\n    tag_6:\n      pop\n      tag_7\n      0x04\n      dup1\n      calldatasize\n      sub\n      dup2\n      add\n      swap1\n      tag_8\n      swap2\n      swap1\n      tag_9\n      jump\t// in\n    tag_8:\n      tag_10\n      jump\t// in\n    tag_7:\n      mload(0x40)\n      tag_11\n      swap5\n      swap4\n      swap3\n      swap2\n      swap1\n      tag_12\n      jump\t// in\n    tag_11:\n      mload(0x40)\n      dup1\n      swap2\n      sub\n      swap1\n      return\n        /* \"contracts/ContractThatCreatesContract.sol\":377:515  function create(address _owner, string memory _model) public {... */\n    tag_3:\n      callvalue\n      dup1\n      iszero\n      tag_13\n      jumpi\n      0x00\n      dup1\n      revert\n    tag_13:\n      pop\n      tag_14\n      0x04\n      dup1\n      calldatasize\n      sub\n      dup2\n      add\n      swap1\n      tag_15\n      swap2\n      swap1\n      tag_16\n      jump\t// in\n    tag_15:\n      tag_17\n      jump\t// in\n    tag_14:\n      stop\n        /* \"contracts/ContractThatCreatesContract.sol\":523:724  function createAndSendEther(address _owner, string memory _model)... */\n    tag_4:\n      tag_18\n      0x04\n      dup1\n      calldatasize\n      sub\n      dup2\n      add\n      swap1\n      tag_19\n      swap2\n      swap1\n      tag_16\n      jump\t// in\n    tag_19:\n      tag_20\n      jump\t// in\n    tag_18:\n      stop\n        /* \"contracts/ContractThatCreatesContract.sol\":351:368  Car[] public cars */\n    tag_5:\n      callvalue\n      dup1\n      iszero\n      tag_21\n      jumpi\n      0x00\n      dup1\n      revert\n    tag_21:\n      pop\n      tag_22\n      0x04\n      dup1\n      calldatasize\n      sub\n      dup2\n      add\n      swap1\n      tag_23\n      swap2\n      swap1\n      tag_9\n      jump\t// in\n    tag_23:\n      tag_24\n      jump\t// in\n    tag_22:\n      mload(0x40)\n      tag_25\n      swap2\n      swap1\n      tag_26\n      jump\t// in\n    tag_25:\n      mload(0x40)\n      dup1\n      swap2\n      sub\n      swap1\n      return\n        /* \"contracts/ContractThatCreatesContract.sol\":732:1074  function getCar(uint256 _index)... */\n    tag_10:\n        /* \"contracts/ContractThatCreatesContract.sol\":826:839  address owner */\n      0x00\n        /* \"contracts/ContractThatCreatesContract.sol\":854:873  string memory model */\n      0x60\n        /* \"contracts/ContractThatCreatesContract.sol\":888:903  address carAddr */\n      0x00\n        /* \"contracts/ContractThatCreatesContract.sol\":918:933  uint256 balance */\n      dup1\n        /* \"contracts/ContractThatCreatesContract.sol\":961:968  Car car */\n      0x00\n        /* \"contracts/ContractThatCreatesContract.sol\":971:975  cars */\n      dup1\n        /* \"contracts/ContractThatCreatesContract.sol\":976:982  _index */\n      dup7\n        /* \"contracts/ContractThatCreatesContract.sol\":971:983  cars[_index] */\n      dup2\n      sload\n      dup2\n      lt\n      tag_28\n      jumpi\n      tag_29\n      tag_30\n      jump\t// in\n    tag_29:\n    tag_28:\n      swap1\n      0x00\n      mstore\n      keccak256(0x00, 0x20)\n      add\n      0x00\n      swap1\n      sload\n      swap1\n      0x0100\n      exp\n      swap1\n      div\n      0xffffffffffffffffffffffffffffffffffffffff\n      and\n        /* \"contracts/ContractThatCreatesContract.sol\":961:983  Car car = cars[_index] */\n      swap1\n      pop\n        /* \"contracts/ContractThatCreatesContract.sol\":1004:1007  car */\n      dup1\n        /* \"contracts/ContractThatCreatesContract.sol\":1004:1013  car.owner */\n      0xffffffffffffffffffffffffffffffffffffffff\n      and\n      0x8da5cb5b\n        /* \"contracts/ContractThatCreatesContract.sol\":1004:1015  car.owner() */\n      mload(0x40)\n      dup2\n      0xffffffff\n      and\n      0xe0\n      shl\n      dup2\n      mstore\n      0x04\n      add\n      0x20\n      mload(0x40)\n      dup1\n      dup4\n      sub\n      dup2\n      dup7\n      gas\n      staticcall\n      iszero\n      dup1\n      iszero\n      tag_33\n      jumpi\n      returndatasize\n      0x00\n      dup1\n      returndatacopy\n      revert(0x00, returndatasize)\n    tag_33:\n      pop\n      pop\n      pop\n      pop\n      mload(0x40)\n      returndatasize\n      not(0x1f)\n      0x1f\n      dup3\n      add\n      and\n      dup3\n      add\n      dup1\n      0x40\n      mstore\n      pop\n      dup2\n      add\n      swap1\n      tag_34\n      swap2\n      swap1\n      tag_35\n      jump\t// in\n    tag_34:\n        /* \"contracts/ContractThatCreatesContract.sol\":1017:1020  car */\n      dup2\n        /* \"contracts/ContractThatCreatesContract.sol\":1017:1026  car.model */\n      0xffffffffffffffffffffffffffffffffffffffff\n      and\n      0x0ad9d052\n        /* \"contracts/ContractThatCreatesContract.sol\":1017:1028  car.model() */\n      mload(0x40)\n      dup2\n      0xffffffff\n      and\n      0xe0\n      shl\n      dup2\n      mstore\n      0x04\n      add\n      0x00\n      mload(0x40)\n      dup1\n      dup4\n      sub\n      dup2\n      dup7\n      gas\n      staticcall\n      iszero\n      dup1\n      iszero\n      tag_37\n      jumpi\n      returndatasize\n      0x00\n      dup1\n      returndatacopy\n      revert(0x00, returndatasize)\n    tag_37:\n      pop\n      pop\n      pop\n      pop\n      mload(0x40)\n      returndatasize\n      0x00\n      dup3\n      returndatacopy\n      returndatasize\n      not(0x1f)\n      0x1f\n      dup3\n      add\n      and\n      dup3\n      add\n      dup1\n      0x40\n      mstore\n      pop\n      dup2\n      add\n      swap1\n      tag_38\n      swap2\n      swap1\n      tag_39\n      jump\t// in\n    tag_38:\n        /* \"contracts/ContractThatCreatesContract.sol\":1030:1033  car */\n      dup3\n        /* \"contracts/ContractThatCreatesContract.sol\":1030:1041  car.carAddr */\n      0xffffffffffffffffffffffffffffffffffffffff\n      and\n      0x514fa676\n        /* \"contracts/ContractThatCreatesContract.sol\":1030:1043  car.carAddr() */\n      mload(0x40)\n      dup2\n      0xffffffff\n      and\n      0xe0\n      shl\n      dup2\n      mstore\n      0x04\n      add\n      0x20\n      mload(0x40)\n      dup1\n      dup4\n      sub\n      dup2\n      dup7\n      gas\n      staticcall\n      iszero\n      dup1\n      iszero\n      tag_41\n      jumpi\n      returndatasize\n      0x00\n      dup1\n      returndatacopy\n      revert(0x00, returndatasize)\n    tag_41:\n      pop\n      pop\n      pop\n      pop\n      mload(0x40)\n      returndatasize\n      not(0x1f)\n      0x1f\n      dup3\n      add\n      and\n      dup3\n      add\n      dup1\n      0x40\n      mstore\n      pop\n      dup2\n      add\n      swap1\n      tag_42\n      swap2\n      swap1\n      tag_35\n      jump\t// in\n    tag_42:\n        /* \"contracts/ContractThatCreatesContract.sol\":1053:1056  car */\n      dup4\n        /* \"contracts/ContractThatCreatesContract.sol\":1045:1065  address(car).balance */\n      0xffffffffffffffffffffffffffffffffffffffff\n      and\n      balance\n        /* \"contracts/ContractThatCreatesContract.sol\":996:1066  return (car.owner(), car.model(), car.carAddr(), address(car).balance) */\n      swap5\n      pop\n      swap5\n      pop\n      swap5\n      pop\n      swap5\n      pop\n      pop\n        /* \"contracts/ContractThatCreatesContract.sol\":732:1074  function getCar(uint256 _index)... */\n      swap2\n      swap4\n      pop\n      swap2\n      swap4\n      jump\t// out\n        /* \"contracts/ContractThatCreatesContract.sol\":377:515  function create(address _owner, string memory _model) public {... */\n    tag_17:\n        /* \"contracts/ContractThatCreatesContract.sol\":449:456  Car car */\n      0x00\n        /* \"contracts/ContractThatCreatesContract.sol\":467:473  _owner */\n      dup3\n        /* \"contracts/ContractThatCreatesContract.sol\":475:481  _model */\n      dup3\n        /* \"contracts/ContractThatCreatesContract.sol\":459:482  new Car(_owner, _model) */\n      mload(0x40)\n      tag_44\n      swap1\n      tag_45\n      jump\t// in\n    tag_44:\n      tag_46\n      swap3\n      swap2\n      swap1\n      tag_47\n      jump\t// in\n    tag_46:\n      mload(0x40)\n      dup1\n      swap2\n      sub\n      swap1\n      0x00\n      create\n      dup1\n      iszero\n      dup1\n      iszero\n      tag_48\n      jumpi\n      returndatasize\n      0x00\n      dup1\n      returndatacopy\n      revert(0x00, returndatasize)\n    tag_48:\n      pop\n        /* \"contracts/ContractThatCreatesContract.sol\":449:482  Car car = new Car(_owner, _model) */\n      swap1\n      pop\n        /* \"contracts/ContractThatCreatesContract.sol\":493:497  cars */\n      0x00\n        /* \"contracts/ContractThatCreatesContract.sol\":503:506  car */\n      dup2\n        /* \"contracts/ContractThatCreatesContract.sol\":493:507  cars.push(car) */\n      swap1\n      dup1\n      0x01\n      dup2\n      sload\n      add\n      dup1\n      dup3\n      sstore\n      dup1\n      swap2\n      pop\n      pop\n      0x01\n      swap1\n      sub\n      swap1\n      0x00\n      mstore\n      keccak256(0x00, 0x20)\n      add\n      0x00\n      swap1\n      swap2\n      swap1\n      swap2\n      swap1\n      swap2\n      0x0100\n      exp\n      dup2\n      sload\n      dup2\n      0xffffffffffffffffffffffffffffffffffffffff\n      mul\n      not\n      and\n      swap1\n      dup4\n      0xffffffffffffffffffffffffffffffffffffffff\n      and\n      mul\n      or\n      swap1\n      sstore\n      pop\n        /* \"contracts/ContractThatCreatesContract.sol\":438:515  {... */\n      pop\n        /* \"contracts/ContractThatCreatesContract.sol\":377:515  function create(address _owner, string memory _model) public {... */\n      pop\n      pop\n      jump\t// out\n        /* \"contracts/ContractThatCreatesContract.sol\":523:724  function createAndSendEther(address _owner, string memory _model)... */\n    tag_20:\n        /* \"contracts/ContractThatCreatesContract.sol\":638:645  Car car */\n      0x00\n        /* \"contracts/ContractThatCreatesContract.sol\":665:674  msg.value */\n      callvalue\n        /* \"contracts/ContractThatCreatesContract.sol\":676:682  _owner */\n      dup4\n        /* \"contracts/ContractThatCreatesContract.sol\":684:690  _model */\n      dup4\n        /* \"contracts/ContractThatCreatesContract.sol\":648:691  (new Car){value: msg.value}(_owner, _model) */\n      mload(0x40)\n      tag_51\n      swap1\n      tag_45\n      jump\t// in\n    tag_51:\n      tag_52\n      swap3\n      swap2\n      swap1\n      tag_47\n      jump\t// in\n    tag_52:\n      mload(0x40)\n      dup1\n      swap2\n      sub\n      swap1\n      dup3\n      create\n      swap1\n      pop\n      dup1\n      iszero\n      dup1\n      iszero\n      tag_53\n      jumpi\n      returndatasize\n      0x00\n      dup1\n      returndatacopy\n      revert(0x00, returndatasize)\n    tag_53:\n      pop\n        /* \"contracts/ContractThatCreatesContract.sol\":638:691  Car car = (new Car){value: msg.value}(_owner, _model) */\n      swap1\n      pop\n        /* \"contracts/ContractThatCreatesContract.sol\":702:706  cars */\n      0x00\n        /* \"contracts/ContractThatCreatesContract.sol\":712:715  car */\n      dup2\n        /* \"contracts/ContractThatCreatesContract.sol\":702:716  cars.push(car) */\n      swap1\n      dup1\n      0x01\n      dup2\n      sload\n      add\n      dup1\n      dup3\n      sstore\n      dup1\n      swap2\n      pop\n      pop\n      0x01\n      swap1\n      sub\n      swap1\n      0x00\n      mstore\n      keccak256(0x00, 0x20)\n      add\n      0x00\n      swap1\n      swap2\n      swap1\n      swap2\n      swap1\n      swap2\n      0x0100\n      exp\n      dup2\n      sload\n      dup2\n      0xffffffffffffffffffffffffffffffffffffffff\n      mul\n      not\n      and\n      swap1\n      dup4\n      0xffffffffffffffffffffffffffffffffffffffff\n      and\n      mul\n      or\n      swap1\n      sstore\n      pop\n        /* \"contracts/ContractThatCreatesContract.sol\":627:724  {... */\n      pop\n        /* \"contracts/ContractThatCreatesContract.sol\":523:724  function createAndSendEther(address _owner, string memory _model)... */\n      pop\n      pop\n      jump\t// out\n        /* \"contracts/ContractThatCreatesContract.sol\":351:368  Car[] public cars */\n    tag_24:\n      0x00\n      dup2\n      dup2\n      sload\n      dup2\n      lt\n      tag_55\n      jumpi\n      0x00\n      dup1\n      revert\n    tag_55:\n      swap1\n      0x00\n      mstore\n      keccak256(0x00, 0x20)\n      add\n      0x00\n      swap2\n      pop\n      sload\n      swap1\n      0x0100\n      exp\n      swap1\n      div\n      0xffffffffffffffffffffffffffffffffffffffff\n      and\n      dup2\n      jump\t// out\n    tag_45:\n      dataSize(sub_0)\n      dup1\n      dataOffset(sub_0)\n      dup4\n      codecopy\n      add\n      swap1\n      jump\t// out\n        /* \"#utility.yul\":7:82   */\n    tag_57:\n        /* \"#utility.yul\":40:46   */\n      0x00\n        /* \"#utility.yul\":73:75   */\n      0x40\n        /* \"#utility.yul\":67:76   */\n      mload\n        /* \"#utility.yul\":57:76   */\n      swap1\n      pop\n        /* \"#utility.yul\":7:82   */\n      swap1\n      jump\t// out\n        /* \"#utility.yul\":88:205   */\n    tag_58:\n        /* \"#utility.yul\":197:198   */\n      0x00\n        /* \"#utility.yul\":194:195   */\n      dup1\n        /* \"#utility.yul\":187:199   */\n      revert\n        /* \"#utility.yul\":211:328   */\n    tag_59:\n        /* \"#utility.yul\":320:321   */\n      0x00\n        /* \"#utility.yul\":317:318   */\n      dup1\n        /* \"#utility.yul\":310:322   */\n      revert\n        /* \"#utility.yul\":334:411   */\n    tag_60:\n        /* \"#utility.yul\":371:378   */\n      0x00\n        /* \"#utility.yul\":400:405   */\n      dup2\n        /* \"#utility.yul\":389:405   */\n      swap1\n      pop\n        /* \"#utility.yul\":334:411   */\n      swap2\n      swap1\n      pop\n      jump\t// out\n        /* \"#utility.yul\":417:539   */\n    tag_61:\n        /* \"#utility.yul\":490:514   */\n      tag_97\n        /* \"#utility.yul\":508:513   */\n      dup2\n        /* \"#utility.yul\":490:514   */\n      tag_60\n      jump\t// in\n    tag_97:\n        /* \"#utility.yul\":483:488   */\n      dup2\n        /* \"#utility.yul\":480:515   */\n      eq\n        /* \"#utility.yul\":470:533   */\n      tag_98\n      jumpi\n        /* \"#utility.yul\":529:530   */\n      0x00\n        /* \"#utility.yul\":526:527   */\n      dup1\n        /* \"#utility.yul\":519:531   */\n      revert\n        /* \"#utility.yul\":470:533   */\n    tag_98:\n        /* \"#utility.yul\":417:539   */\n      pop\n      jump\t// out\n        /* \"#utility.yul\":545:684   */\n    tag_62:\n        /* \"#utility.yul\":591:596   */\n      0x00\n        /* \"#utility.yul\":629:635   */\n      dup2\n        /* \"#utility.yul\":616:636   */\n      calldataload\n        /* \"#utility.yul\":607:636   */\n      swap1\n      pop\n        /* \"#utility.yul\":645:678   */\n      tag_100\n        /* \"#utility.yul\":672:677   */\n      dup2\n        /* \"#utility.yul\":645:678   */\n      tag_61\n      jump\t// in\n    tag_100:\n        /* \"#utility.yul\":545:684   */\n      swap3\n      swap2\n      pop\n      pop\n      jump\t// out\n        /* \"#utility.yul\":690:1019   */\n    tag_9:\n        /* \"#utility.yul\":749:755   */\n      0x00\n        /* \"#utility.yul\":798:800   */\n      0x20\n        /* \"#utility.yul\":786:795   */\n      dup3\n        /* \"#utility.yul\":777:784   */\n      dup5\n        /* \"#utility.yul\":773:796   */\n      sub\n        /* \"#utility.yul\":769:801   */\n      slt\n        /* \"#utility.yul\":766:885   */\n      iszero\n      tag_102\n      jumpi\n        /* \"#utility.yul\":804:883   */\n      tag_103\n      tag_58\n      jump\t// in\n    tag_103:\n        /* \"#utility.yul\":766:885   */\n    tag_102:\n        /* \"#utility.yul\":924:925   */\n      0x00\n        /* \"#utility.yul\":949:1002   */\n      tag_104\n        /* \"#utility.yul\":994:1001   */\n      dup5\n        /* \"#utility.yul\":985:991   */\n      dup3\n        /* \"#utility.yul\":974:983   */\n      dup6\n        /* \"#utility.yul\":970:992   */\n      add\n        /* \"#utility.yul\":949:1002   */\n      tag_62\n      jump\t// in\n    tag_104:\n        /* \"#utility.yul\":939:1002   */\n      swap2\n      pop\n        /* \"#utility.yul\":895:1012   */\n      pop\n        /* \"#utility.yul\":690:1019   */\n      swap3\n      swap2\n      pop\n      pop\n      jump\t// out\n        /* \"#utility.yul\":1025:1151   */\n    tag_63:\n        /* \"#utility.yul\":1062:1069   */\n      0x00\n        /* \"#utility.yul\":1102:1144   */\n      0xffffffffffffffffffffffffffffffffffffffff\n        /* \"#utility.yul\":1095:1100   */\n      dup3\n        /* \"#utility.yul\":1091:1145   */\n      and\n        /* \"#utility.yul\":1080:1145   */\n      swap1\n      pop\n        /* \"#utility.yul\":1025:1151   */\n      swap2\n      swap1\n      pop\n      jump\t// out\n        /* \"#utility.yul\":1157:1253   */\n    tag_64:\n        /* \"#utility.yul\":1194:1201   */\n      0x00\n        /* \"#utility.yul\":1223:1247   */\n      tag_107\n        /* \"#utility.yul\":1241:1246   */\n      dup3\n        /* \"#utility.yul\":1223:1247   */\n      tag_63\n      jump\t// in\n    tag_107:\n        /* \"#utility.yul\":1212:1247   */\n      swap1\n      pop\n        /* \"#utility.yul\":1157:1253   */\n      swap2\n      swap1\n      pop\n      jump\t// out\n        /* \"#utility.yul\":1259:1377   */\n    tag_65:\n        /* \"#utility.yul\":1346:1370   */\n      tag_109\n        /* \"#utility.yul\":1364:1369   */\n      dup2\n        /* \"#utility.yul\":1346:1370   */\n      tag_64\n      jump\t// in\n    tag_109:\n        /* \"#utility.yul\":1341:1344   */\n      dup3\n        /* \"#utility.yul\":1334:1371   */\n      mstore\n        /* \"#utility.yul\":1259:1377   */\n      pop\n      pop\n      jump\t// out\n        /* \"#utility.yul\":1383:1482   */\n    tag_66:\n        /* \"#utility.yul\":1435:1441   */\n      0x00\n        /* \"#utility.yul\":1469:1474   */\n      dup2\n        /* \"#utility.yul\":1463:1475   */\n      mload\n        /* \"#utility.yul\":1453:1475   */\n      swap1\n      pop\n        /* \"#utility.yul\":1383:1482   */\n      swap2\n      swap1\n      pop\n      jump\t// out\n        /* \"#utility.yul\":1488:1657   */\n    tag_67:\n        /* \"#utility.yul\":1572:1583   */\n      0x00\n        /* \"#utility.yul\":1606:1612   */\n      dup3\n        /* \"#utility.yul\":1601:1604   */\n      dup3\n        /* \"#utility.yul\":1594:1613   */\n      mstore\n        /* \"#utility.yul\":1646:1650   */\n      0x20\n        /* \"#utility.yul\":1641:1644   */\n      dup3\n        /* \"#utility.yul\":1637:1651   */\n      add\n        /* \"#utility.yul\":1622:1651   */\n      swap1\n      pop\n        /* \"#utility.yul\":1488:1657   */\n      swap3\n      swap2\n      pop\n      pop\n      jump\t// out\n        /* \"#utility.yul\":1663:1802   */\n    tag_68:\n        /* \"#utility.yul\":1752:1758   */\n      dup3\n        /* \"#utility.yul\":1747:1750   */\n      dup2\n        /* \"#utility.yul\":1742:1745   */\n      dup4\n        /* \"#utility.yul\":1736:1759   */\n      mcopy\n        /* \"#utility.yul\":1793:1794   */\n      0x00\n        /* \"#utility.yul\":1784:1790   */\n      dup4\n        /* \"#utility.yul\":1779:1782   */\n      dup4\n        /* \"#utility.yul\":1775:1791   */\n      add\n        /* \"#utility.yul\":1768:1795   */\n      mstore\n        /* \"#utility.yul\":1663:1802   */\n      pop\n      pop\n      pop\n      jump\t// out\n        /* \"#utility.yul\":1808:1910   */\n    tag_69:\n        /* \"#utility.yul\":1849:1855   */\n      0x00\n        /* \"#utility.yul\":1900:1902   */\n      0x1f\n        /* \"#utility.yul\":1896:1903   */\n      not\n        /* \"#utility.yul\":1891:1893   */\n      0x1f\n        /* \"#utility.yul\":1884:1889   */\n      dup4\n        /* \"#utility.yul\":1880:1894   */\n      add\n        /* \"#utility.yul\":1876:1904   */\n      and\n        /* \"#utility.yul\":1866:1904   */\n      swap1\n      pop\n        /* \"#utility.yul\":1808:1910   */\n      swap2\n      swap1\n      pop\n      jump\t// out\n        /* \"#utility.yul\":1916:2293   */\n    tag_70:\n        /* \"#utility.yul\":2004:2007   */\n      0x00\n        /* \"#utility.yul\":2032:2071   */\n      tag_115\n        /* \"#utility.yul\":2065:2070   */\n      dup3\n        /* \"#utility.yul\":2032:2071   */\n      tag_66\n      jump\t// in\n    tag_115:\n        /* \"#utility.yul\":2087:2158   */\n      tag_116\n        /* \"#utility.yul\":2151:2157   */\n      dup2\n        /* \"#utility.yul\":2146:2149   */\n      dup6\n        /* \"#utility.yul\":2087:2158   */\n      tag_67\n      jump\t// in\n    tag_116:\n        /* \"#utility.yul\":2080:2158   */\n      swap4\n      pop\n        /* \"#utility.yul\":2167:2232   */\n      tag_117\n        /* \"#utility.yul\":2225:2231   */\n      dup2\n        /* \"#utility.yul\":2220:2223   */\n      dup6\n        /* \"#utility.yul\":2213:2217   */\n      0x20\n        /* \"#utility.yul\":2206:2211   */\n      dup7\n        /* \"#utility.yul\":2202:2218   */\n      add\n        /* \"#utility.yul\":2167:2232   */\n      tag_68\n      jump\t// in\n    tag_117:\n        /* \"#utility.yul\":2257:2286   */\n      tag_118\n        /* \"#utility.yul\":2279:2285   */\n      dup2\n        /* \"#utility.yul\":2257:2286   */\n      tag_69\n      jump\t// in\n    tag_118:\n        /* \"#utility.yul\":2252:2255   */\n      dup5\n        /* \"#utility.yul\":2248:2287   */\n      add\n        /* \"#utility.yul\":2241:2287   */\n      swap2\n      pop\n        /* \"#utility.yul\":2008:2293   */\n      pop\n        /* \"#utility.yul\":1916:2293   */\n      swap3\n      swap2\n      pop\n      pop\n      jump\t// out\n        /* \"#utility.yul\":2299:2417   */\n    tag_71:\n        /* \"#utility.yul\":2386:2410   */\n      tag_120\n        /* \"#utility.yul\":2404:2409   */\n      dup2\n        /* \"#utility.yul\":2386:2410   */\n      tag_60\n      jump\t// in\n    tag_120:\n        /* \"#utility.yul\":2381:2384   */\n      dup3\n        /* \"#utility.yul\":2374:2411   */\n      mstore\n        /* \"#utility.yul\":2299:2417   */\n      pop\n      pop\n      jump\t// out\n        /* \"#utility.yul\":2423:3067   */\n    tag_12:\n        /* \"#utility.yul\":2620:2624   */\n      0x00\n        /* \"#utility.yul\":2658:2661   */\n      0x80\n        /* \"#utility.yul\":2647:2656   */\n      dup3\n        /* \"#utility.yul\":2643:2662   */\n      add\n        /* \"#utility.yul\":2635:2662   */\n      swap1\n      pop\n        /* \"#utility.yul\":2672:2743   */\n      tag_122\n        /* \"#utility.yul\":2740:2741   */\n      0x00\n        /* \"#utility.yul\":2729:2738   */\n      dup4\n        /* \"#utility.yul\":2725:2742   */\n      add\n        /* \"#utility.yul\":2716:2722   */\n      dup8\n        /* \"#utility.yul\":2672:2743   */\n      tag_65\n      jump\t// in\n    tag_122:\n        /* \"#utility.yul\":2790:2799   */\n      dup2\n        /* \"#utility.yul\":2784:2788   */\n      dup2\n        /* \"#utility.yul\":2780:2800   */\n      sub\n        /* \"#utility.yul\":2775:2777   */\n      0x20\n        /* \"#utility.yul\":2764:2773   */\n      dup4\n        /* \"#utility.yul\":2760:2778   */\n      add\n        /* \"#utility.yul\":2753:2801   */\n      mstore\n        /* \"#utility.yul\":2818:2896   */\n      tag_123\n        /* \"#utility.yul\":2891:2895   */\n      dup2\n        /* \"#utility.yul\":2882:2888   */\n      dup7\n        /* \"#utility.yul\":2818:2896   */\n      tag_70\n      jump\t// in\n    tag_123:\n        /* \"#utility.yul\":2810:2896   */\n      swap1\n      pop\n        /* \"#utility.yul\":2906:2978   */\n      tag_124\n        /* \"#utility.yul\":2974:2976   */\n      0x40\n        /* \"#utility.yul\":2963:2972   */\n      dup4\n        /* \"#utility.yul\":2959:2977   */\n      add\n        /* \"#utility.yul\":2950:2956   */\n      dup6\n        /* \"#utility.yul\":2906:2978   */\n      tag_65\n      jump\t// in\n    tag_124:\n        /* \"#utility.yul\":2988:3060   */\n      tag_125\n        /* \"#utility.yul\":3056:3058   */\n      0x60\n        /* \"#utility.yul\":3045:3054   */\n      dup4\n        /* \"#utility.yul\":3041:3059   */\n      add\n        /* \"#utility.yul\":3032:3038   */\n      dup5\n        /* \"#utility.yul\":2988:3060   */\n      tag_71\n      jump\t// in\n    tag_125:\n        /* \"#utility.yul\":2423:3067   */\n      swap6\n      swap5\n      pop\n      pop\n      pop\n      pop\n      pop\n      jump\t// out\n        /* \"#utility.yul\":3073:3195   */\n    tag_72:\n        /* \"#utility.yul\":3146:3170   */\n      tag_127\n        /* \"#utility.yul\":3164:3169   */\n      dup2\n        /* \"#utility.yul\":3146:3170   */\n      tag_64\n      jump\t// in\n    tag_127:\n        /* \"#utility.yul\":3139:3144   */\n      dup2\n        /* \"#utility.yul\":3136:3171   */\n      eq\n        /* \"#utility.yul\":3126:3189   */\n      tag_128\n      jumpi\n        /* \"#utility.yul\":3185:3186   */\n      0x00\n        /* \"#utility.yul\":3182:3183   */\n      dup1\n        /* \"#utility.yul\":3175:3187   */\n      revert\n        /* \"#utility.yul\":3126:3189   */\n    tag_128:\n        /* \"#utility.yul\":3073:3195   */\n      pop\n      jump\t// out\n        /* \"#utility.yul\":3201:3340   */\n    tag_73:\n        /* \"#utility.yul\":3247:3252   */\n      0x00\n        /* \"#utility.yul\":3285:3291   */\n      dup2\n        /* \"#utility.yul\":3272:3292   */\n      calldataload\n        /* \"#utility.yul\":3263:3292   */\n      swap1\n      pop\n        /* \"#utility.yul\":3301:3334   */\n      tag_130\n        /* \"#utility.yul\":3328:3333   */\n      dup2\n        /* \"#utility.yul\":3301:3334   */\n      tag_72\n      jump\t// in\n    tag_130:\n        /* \"#utility.yul\":3201:3340   */\n      swap3\n      swap2\n      pop\n      pop\n      jump\t// out\n        /* \"#utility.yul\":3346:3463   */\n    tag_74:\n        /* \"#utility.yul\":3455:3456   */\n      0x00\n        /* \"#utility.yul\":3452:3453   */\n      dup1\n        /* \"#utility.yul\":3445:3457   */\n      revert\n        /* \"#utility.yul\":3469:3586   */\n    tag_75:\n        /* \"#utility.yul\":3578:3579   */\n      0x00\n        /* \"#utility.yul\":3575:3576   */\n      dup1\n        /* \"#utility.yul\":3568:3580   */\n      revert\n        /* \"#utility.yul\":3592:3772   */\n    tag_76:\n        /* \"#utility.yul\":3640:3717   */\n      0x4e487b7100000000000000000000000000000000000000000000000000000000\n        /* \"#utility.yul\":3637:3638   */\n      0x00\n        /* \"#utility.yul\":3630:3718   */\n      mstore\n        /* \"#utility.yul\":3737:3741   */\n      0x41\n        /* \"#utility.yul\":3734:3735   */\n      0x04\n        /* \"#utility.yul\":3727:3742   */\n      mstore\n        /* \"#utility.yul\":3761:3765   */\n      0x24\n        /* \"#utility.yul\":3758:3759   */\n      0x00\n        /* \"#utility.yul\":3751:3766   */\n      revert\n        /* \"#utility.yul\":3778:4059   */\n    tag_77:\n        /* \"#utility.yul\":3861:3888   */\n      tag_135\n        /* \"#utility.yul\":3883:3887   */\n      dup3\n        /* \"#utility.yul\":3861:3888   */\n      tag_69\n      jump\t// in\n    tag_135:\n        /* \"#utility.yul\":3853:3859   */\n      dup2\n        /* \"#utility.yul\":3849:3889   */\n      add\n        /* \"#utility.yul\":3991:3997   */\n      dup2\n        /* \"#utility.yul\":3979:3989   */\n      dup2\n        /* \"#utility.yul\":3976:3998   */\n      lt\n        /* \"#utility.yul\":3955:3973   */\n      0xffffffffffffffff\n        /* \"#utility.yul\":3943:3953   */\n      dup3\n        /* \"#utility.yul\":3940:3974   */\n      gt\n        /* \"#utility.yul\":3937:3999   */\n      or\n        /* \"#utility.yul\":3934:4022   */\n      iszero\n      tag_136\n      jumpi\n        /* \"#utility.yul\":4002:4020   */\n      tag_137\n      tag_76\n      jump\t// in\n    tag_137:\n        /* \"#utility.yul\":3934:4022   */\n    tag_136:\n        /* \"#utility.yul\":4042:4052   */\n      dup1\n        /* \"#utility.yul\":4038:4040   */\n      0x40\n        /* \"#utility.yul\":4031:4053   */\n      mstore\n        /* \"#utility.yul\":3821:4059   */\n      pop\n        /* \"#utility.yul\":3778:4059   */\n      pop\n      pop\n      jump\t// out\n        /* \"#utility.yul\":4065:4194   */\n    tag_78:\n        /* \"#utility.yul\":4099:4105   */\n      0x00\n        /* \"#utility.yul\":4126:4146   */\n      tag_139\n      tag_57\n      jump\t// in\n    tag_139:\n        /* \"#utility.yul\":4116:4146   */\n      swap1\n      pop\n        /* \"#utility.yul\":4155:4188   */\n      tag_140\n        /* \"#utility.yul\":4183:4187   */\n      dup3\n        /* \"#utility.yul\":4175:4181   */\n      dup3\n        /* \"#utility.yul\":4155:4188   */\n      tag_77\n      jump\t// in\n    tag_140:\n        /* \"#utility.yul\":4065:4194   */\n      swap2\n      swap1\n      pop\n      jump\t// out\n        /* \"#utility.yul\":4200:4508   */\n    tag_79:\n        /* \"#utility.yul\":4262:4266   */\n      0x00\n        /* \"#utility.yul\":4352:4370   */\n      0xffffffffffffffff\n        /* \"#utility.yul\":4344:4350   */\n      dup3\n        /* \"#utility.yul\":4341:4371   */\n      gt\n        /* \"#utility.yul\":4338:4394   */\n      iszero\n      tag_142\n      jumpi\n        /* \"#utility.yul\":4374:4392   */\n      tag_143\n      tag_76\n      jump\t// in\n    tag_143:\n        /* \"#utility.yul\":4338:4394   */\n    tag_142:\n        /* \"#utility.yul\":4412:4441   */\n      tag_144\n        /* \"#utility.yul\":4434:4440   */\n      dup3\n        /* \"#utility.yul\":4412:4441   */\n      tag_69\n      jump\t// in\n    tag_144:\n        /* \"#utility.yul\":4404:4441   */\n      swap1\n      pop\n        /* \"#utility.yul\":4496:4500   */\n      0x20\n        /* \"#utility.yul\":4490:4494   */\n      dup2\n        /* \"#utility.yul\":4486:4501   */\n      add\n        /* \"#utility.yul\":4478:4501   */\n      swap1\n      pop\n        /* \"#utility.yul\":4200:4508   */\n      swap2\n      swap1\n      pop\n      jump\t// out\n        /* \"#utility.yul\":4514:4662   */\n    tag_80:\n        /* \"#utility.yul\":4612:4618   */\n      dup3\n        /* \"#utility.yul\":4607:4610   */\n      dup2\n        /* \"#utility.yul\":4602:4605   */\n      dup4\n        /* \"#utility.yul\":4589:4619   */\n      calldatacopy\n        /* \"#utility.yul\":4653:4654   */\n      0x00\n        /* \"#utility.yul\":4644:4650   */\n      dup4\n        /* \"#utility.yul\":4639:4642   */\n      dup4\n        /* \"#utility.yul\":4635:4651   */\n      add\n        /* \"#utility.yul\":4628:4655   */\n      mstore\n        /* \"#utility.yul\":4514:4662   */\n      pop\n      pop\n      pop\n      jump\t// out\n        /* \"#utility.yul\":4668:5093   */\n    tag_81:\n        /* \"#utility.yul\":4746:4751   */\n      0x00\n        /* \"#utility.yul\":4771:4837   */\n      tag_147\n        /* \"#utility.yul\":4787:4836   */\n      tag_148\n        /* \"#utility.yul\":4829:4835   */\n      dup5\n        /* \"#utility.yul\":4787:4836   */\n      tag_79\n      jump\t// in\n    tag_148:\n        /* \"#utility.yul\":4771:4837   */\n      tag_78\n      jump\t// in\n    tag_147:\n        /* \"#utility.yul\":4762:4837   */\n      swap1\n      pop\n        /* \"#utility.yul\":4860:4866   */\n      dup3\n        /* \"#utility.yul\":4853:4858   */\n      dup2\n        /* \"#utility.yul\":4846:4867   */\n      mstore\n        /* \"#utility.yul\":4898:4902   */\n      0x20\n        /* \"#utility.yul\":4891:4896   */\n      dup2\n        /* \"#utility.yul\":4887:4903   */\n      add\n        /* \"#utility.yul\":4936:4939   */\n      dup5\n        /* \"#utility.yul\":4927:4933   */\n      dup5\n        /* \"#utility.yul\":4922:4925   */\n      dup5\n        /* \"#utility.yul\":4918:4934   */\n      add\n        /* \"#utility.yul\":4915:4940   */\n      gt\n        /* \"#utility.yul\":4912:5024   */\n      iszero\n      tag_149\n      jumpi\n        /* \"#utility.yul\":4943:5022   */\n      tag_150\n      tag_75\n      jump\t// in\n    tag_150:\n        /* \"#utility.yul\":4912:5024   */\n    tag_149:\n        /* \"#utility.yul\":5033:5087   */\n      tag_151\n        /* \"#utility.yul\":5080:5086   */\n      dup5\n        /* \"#utility.yul\":5075:5078   */\n      dup3\n        /* \"#utility.yul\":5070:5073   */\n      dup6\n        /* \"#utility.yul\":5033:5087   */\n      tag_80\n      jump\t// in\n    tag_151:\n        /* \"#utility.yul\":4752:5093   */\n      pop\n        /* \"#utility.yul\":4668:5093   */\n      swap4\n      swap3\n      pop\n      pop\n      pop\n      jump\t// out\n        /* \"#utility.yul\":5113:5453   */\n    tag_82:\n        /* \"#utility.yul\":5169:5174   */\n      0x00\n        /* \"#utility.yul\":5218:5221   */\n      dup3\n        /* \"#utility.yul\":5211:5215   */\n      0x1f\n        /* \"#utility.yul\":5203:5209   */\n      dup4\n        /* \"#utility.yul\":5199:5216   */\n      add\n        /* \"#utility.yul\":5195:5222   */\n      slt\n        /* \"#utility.yul\":5185:5307   */\n      tag_153\n      jumpi\n        /* \"#utility.yul\":5226:5305   */\n      tag_154\n      tag_74\n      jump\t// in\n    tag_154:\n        /* \"#utility.yul\":5185:5307   */\n    tag_153:\n        /* \"#utility.yul\":5343:5349   */\n      dup2\n        /* \"#utility.yul\":5330:5350   */\n      calldataload\n        /* \"#utility.yul\":5368:5447   */\n      tag_155\n        /* \"#utility.yul\":5443:5446   */\n      dup5\n        /* \"#utility.yul\":5435:5441   */\n      dup3\n        /* \"#utility.yul\":5428:5432   */\n      0x20\n        /* \"#utility.yul\":5420:5426   */\n      dup7\n        /* \"#utility.yul\":5416:5433   */\n      add\n        /* \"#utility.yul\":5368:5447   */\n      tag_81\n      jump\t// in\n    tag_155:\n        /* \"#utility.yul\":5359:5447   */\n      swap2\n      pop\n        /* \"#utility.yul\":5175:5453   */\n      pop\n        /* \"#utility.yul\":5113:5453   */\n      swap3\n      swap2\n      pop\n      pop\n      jump\t// out\n        /* \"#utility.yul\":5459:6113   */\n    tag_16:\n        /* \"#utility.yul\":5537:5543   */\n      0x00\n        /* \"#utility.yul\":5545:5551   */\n      dup1\n        /* \"#utility.yul\":5594:5596   */\n      0x40\n        /* \"#utility.yul\":5582:5591   */\n      dup4\n        /* \"#utility.yul\":5573:5580   */\n      dup6\n        /* \"#utility.yul\":5569:5592   */\n      sub\n        /* \"#utility.yul\":5565:5597   */\n      slt\n        /* \"#utility.yul\":5562:5681   */\n      iszero\n      tag_157\n      jumpi\n        /* \"#utility.yul\":5600:5679   */\n      tag_158\n      tag_58\n      jump\t// in\n    tag_158:\n        /* \"#utility.yul\":5562:5681   */\n    tag_157:\n        /* \"#utility.yul\":5720:5721   */\n      0x00\n        /* \"#utility.yul\":5745:5798   */\n      tag_159\n        /* \"#utility.yul\":5790:5797   */\n      dup6\n        /* \"#utility.yul\":5781:5787   */\n      dup3\n        /* \"#utility.yul\":5770:5779   */\n      dup7\n        /* \"#utility.yul\":5766:5788   */\n      add\n        /* \"#utility.yul\":5745:5798   */\n      tag_73\n      jump\t// in\n    tag_159:\n        /* \"#utility.yul\":5735:5798   */\n      swap3\n      pop\n        /* \"#utility.yul\":5691:5808   */\n      pop\n        /* \"#utility.yul\":5875:5877   */\n      0x20\n        /* \"#utility.yul\":5864:5873   */\n      dup4\n        /* \"#utility.yul\":5860:5878   */\n      add\n        /* \"#utility.yul\":5847:5879   */\n      calldataload\n        /* \"#utility.yul\":5906:5924   */\n      0xffffffffffffffff\n        /* \"#utility.yul\":5898:5904   */\n      dup2\n        /* \"#utility.yul\":5895:5925   */\n      gt\n        /* \"#utility.yul\":5892:6009   */\n      iszero\n      tag_160\n      jumpi\n        /* \"#utility.yul\":5928:6007   */\n      tag_161\n      tag_59\n      jump\t// in\n    tag_161:\n        /* \"#utility.yul\":5892:6009   */\n    tag_160:\n        /* \"#utility.yul\":6033:6096   */\n      tag_162\n        /* \"#utility.yul\":6088:6095   */\n      dup6\n        /* \"#utility.yul\":6079:6085   */\n      dup3\n        /* \"#utility.yul\":6068:6077   */\n      dup7\n        /* \"#utility.yul\":6064:6086   */\n      add\n        /* \"#utility.yul\":6033:6096   */\n      tag_82\n      jump\t// in\n    tag_162:\n        /* \"#utility.yul\":6023:6096   */\n      swap2\n      pop\n        /* \"#utility.yul\":5818:6106   */\n      pop\n        /* \"#utility.yul\":5459:6113   */\n      swap3\n      pop\n      swap3\n      swap1\n      pop\n      jump\t// out\n        /* \"#utility.yul\":6119:6179   */\n    tag_83:\n        /* \"#utility.yul\":6147:6150   */\n      0x00\n        /* \"#utility.yul\":6168:6173   */\n      dup2\n        /* \"#utility.yul\":6161:6173   */\n      swap1\n      pop\n        /* \"#utility.yul\":6119:6179   */\n      swap2\n      swap1\n      pop\n      jump\t// out\n        /* \"#utility.yul\":6185:6327   */\n    tag_84:\n        /* \"#utility.yul\":6235:6244   */\n      0x00\n        /* \"#utility.yul\":6268:6321   */\n      tag_165\n        /* \"#utility.yul\":6286:6320   */\n      tag_166\n        /* \"#utility.yul\":6295:6319   */\n      tag_167\n        /* \"#utility.yul\":6313:6318   */\n      dup5\n        /* \"#utility.yul\":6295:6319   */\n      tag_63\n      jump\t// in\n    tag_167:\n        /* \"#utility.yul\":6286:6320   */\n      tag_83\n      jump\t// in\n    tag_166:\n        /* \"#utility.yul\":6268:6321   */\n      tag_63\n      jump\t// in\n    tag_165:\n        /* \"#utility.yul\":6255:6321   */\n      swap1\n      pop\n        /* \"#utility.yul\":6185:6327   */\n      swap2\n      swap1\n      pop\n      jump\t// out\n        /* \"#utility.yul\":6333:6459   */\n    tag_85:\n        /* \"#utility.yul\":6383:6392   */\n      0x00\n        /* \"#utility.yul\":6416:6453   */\n      tag_169\n        /* \"#utility.yul\":6447:6452   */\n      dup3\n        /* \"#utility.yul\":6416:6453   */\n      tag_84\n      jump\t// in\n    tag_169:\n        /* \"#utility.yul\":6403:6453   */\n      swap1\n      pop\n        /* \"#utility.yul\":6333:6459   */\n      swap2\n      swap1\n      pop\n      jump\t// out\n        /* \"#utility.yul\":6465:6601   */\n    tag_86:\n        /* \"#utility.yul\":6525:6534   */\n      0x00\n        /* \"#utility.yul\":6558:6595   */\n      tag_171\n        /* \"#utility.yul\":6589:6594   */\n      dup3\n        /* \"#utility.yul\":6558:6595   */\n      tag_85\n      jump\t// in\n    tag_171:\n        /* \"#utility.yul\":6545:6595   */\n      swap1\n      pop\n        /* \"#utility.yul\":6465:6601   */\n      swap2\n      swap1\n      pop\n      jump\t// out\n        /* \"#utility.yul\":6607:6758   */\n    tag_87:\n        /* \"#utility.yul\":6704:6751   */\n      tag_173\n        /* \"#utility.yul\":6745:6750   */\n      dup2\n        /* \"#utility.yul\":6704:6751   */\n      tag_86\n      jump\t// in\n    tag_173:\n        /* \"#utility.yul\":6699:6702   */\n      dup3\n        /* \"#utility.yul\":6692:6752   */\n      mstore\n        /* \"#utility.yul\":6607:6758   */\n      pop\n      pop\n      jump\t// out\n        /* \"#utility.yul\":6764:7006   */\n    tag_26:\n        /* \"#utility.yul\":6867:6871   */\n      0x00\n        /* \"#utility.yul\":6905:6907   */\n      0x20\n        /* \"#utility.yul\":6894:6903   */\n      dup3\n        /* \"#utility.yul\":6890:6908   */\n      add\n        /* \"#utility.yul\":6882:6908   */\n      swap1\n      pop\n        /* \"#utility.yul\":6918:6999   */\n      tag_175\n        /* \"#utility.yul\":6996:6997   */\n      0x00\n        /* \"#utility.yul\":6985:6994   */\n      dup4\n        /* \"#utility.yul\":6981:6998   */\n      add\n        /* \"#utility.yul\":6972:6978   */\n      dup5\n        /* \"#utility.yul\":6918:6999   */\n      tag_87\n      jump\t// in\n    tag_175:\n        /* \"#utility.yul\":6764:7006   */\n      swap3\n      swap2\n      pop\n      pop\n      jump\t// out\n        /* \"#utility.yul\":7012:7192   */\n    tag_30:\n        /* \"#utility.yul\":7060:7137   */\n      0x4e487b7100000000000000000000000000000000000000000000000000000000\n        /* \"#utility.yul\":7057:7058   */\n      0x00\n        /* \"#utility.yul\":7050:7138   */\n      mstore\n        /* \"#utility.yul\":7157:7161   */\n      0x32\n        /* \"#utility.yul\":7154:7155   */\n      0x04\n        /* \"#utility.yul\":7147:7162   */\n      mstore\n        /* \"#utility.yul\":7181:7185   */\n      0x24\n        /* \"#utility.yul\":7178:7179   */\n      0x00\n        /* \"#utility.yul\":7171:7186   */\n      revert\n        /* \"#utility.yul\":7198:7341   */\n    tag_88:\n        /* \"#utility.yul\":7255:7260   */\n      0x00\n        /* \"#utility.yul\":7286:7292   */\n      dup2\n        /* \"#utility.yul\":7280:7293   */\n      mload\n        /* \"#utility.yul\":7271:7293   */\n      swap1\n      pop\n        /* \"#utility.yul\":7302:7335   */\n      tag_178\n        /* \"#utility.yul\":7329:7334   */\n      dup2\n        /* \"#utility.yul\":7302:7335   */\n      tag_72\n      jump\t// in\n    tag_178:\n        /* \"#utility.yul\":7198:7341   */\n      swap3\n      swap2\n      pop\n      pop\n      jump\t// out\n        /* \"#utility.yul\":7347:7698   */\n    tag_35:\n        /* \"#utility.yul\":7417:7423   */\n      0x00\n        /* \"#utility.yul\":7466:7468   */\n      0x20\n        /* \"#utility.yul\":7454:7463   */\n      dup3\n        /* \"#utility.yul\":7445:7452   */\n      dup5\n        /* \"#utility.yul\":7441:7464   */\n      sub\n        /* \"#utility.yul\":7437:7469   */\n      slt\n        /* \"#utility.yul\":7434:7553   */\n      iszero\n      tag_180\n      jumpi\n        /* \"#utility.yul\":7472:7551   */\n      tag_181\n      tag_58\n      jump\t// in\n    tag_181:\n        /* \"#utility.yul\":7434:7553   */\n    tag_180:\n        /* \"#utility.yul\":7592:7593   */\n      0x00\n        /* \"#utility.yul\":7617:7681   */\n      tag_182\n        /* \"#utility.yul\":7673:7680   */\n      dup5\n        /* \"#utility.yul\":7664:7670   */\n      dup3\n        /* \"#utility.yul\":7653:7662   */\n      dup6\n        /* \"#utility.yul\":7649:7671   */\n      add\n        /* \"#utility.yul\":7617:7681   */\n      tag_88\n      jump\t// in\n    tag_182:\n        /* \"#utility.yul\":7607:7681   */\n      swap2\n      pop\n        /* \"#utility.yul\":7563:7691   */\n      pop\n        /* \"#utility.yul\":7347:7698   */\n      swap3\n      swap2\n      pop\n      pop\n      jump\t// out\n        /* \"#utility.yul\":7704:8138   */\n    tag_89:\n        /* \"#utility.yul\":7793:7798   */\n      0x00\n        /* \"#utility.yul\":7818:7884   */\n      tag_184\n        /* \"#utility.yul\":7834:7883   */\n      tag_185\n        /* \"#utility.yul\":7876:7882   */\n      dup5\n        /* \"#utility.yul\":7834:7883   */\n      tag_79\n      jump\t// in\n    tag_185:\n        /* \"#utility.yul\":7818:7884   */\n      tag_78\n      jump\t// in\n    tag_184:\n        /* \"#utility.yul\":7809:7884   */\n      swap1\n      pop\n        /* \"#utility.yul\":7907:7913   */\n      dup3\n        /* \"#utility.yul\":7900:7905   */\n      dup2\n        /* \"#utility.yul\":7893:7914   */\n      mstore\n        /* \"#utility.yul\":7945:7949   */\n      0x20\n        /* \"#utility.yul\":7938:7943   */\n      dup2\n        /* \"#utility.yul\":7934:7950   */\n      add\n        /* \"#utility.yul\":7983:7986   */\n      dup5\n        /* \"#utility.yul\":7974:7980   */\n      dup5\n        /* \"#utility.yul\":7969:7972   */\n      dup5\n        /* \"#utility.yul\":7965:7981   */\n      add\n        /* \"#utility.yul\":7962:7987   */\n      gt\n        /* \"#utility.yul\":7959:8071   */\n      iszero\n      tag_186\n      jumpi\n        /* \"#utility.yul\":7990:8069   */\n      tag_187\n      tag_75\n      jump\t// in\n    tag_187:\n        /* \"#utility.yul\":7959:8071   */\n    tag_186:\n        /* \"#utility.yul\":8080:8132   */\n      tag_188\n        /* \"#utility.yul\":8125:8131   */\n      dup5\n        /* \"#utility.yul\":8120:8123   */\n      dup3\n        /* \"#utility.yul\":8115:8118   */\n      dup6\n        /* \"#utility.yul\":8080:8132   */\n      tag_68\n      jump\t// in\n    tag_188:\n        /* \"#utility.yul\":7799:8138   */\n      pop\n        /* \"#utility.yul\":7704:8138   */\n      swap4\n      swap3\n      pop\n      pop\n      pop\n      jump\t// out\n        /* \"#utility.yul\":8158:8513   */\n    tag_90:\n        /* \"#utility.yul\":8225:8230   */\n      0x00\n        /* \"#utility.yul\":8274:8277   */\n      dup3\n        /* \"#utility.yul\":8267:8271   */\n      0x1f\n        /* \"#utility.yul\":8259:8265   */\n      dup4\n        /* \"#utility.yul\":8255:8272   */\n      add\n        /* \"#utility.yul\":8251:8278   */\n      slt\n        /* \"#utility.yul\":8241:8363   */\n      tag_190\n      jumpi\n        /* \"#utility.yul\":8282:8361   */\n      tag_191\n      tag_74\n      jump\t// in\n    tag_191:\n        /* \"#utility.yul\":8241:8363   */\n    tag_190:\n        /* \"#utility.yul\":8392:8398   */\n      dup2\n        /* \"#utility.yul\":8386:8399   */\n      mload\n        /* \"#utility.yul\":8417:8507   */\n      tag_192\n        /* \"#utility.yul\":8503:8506   */\n      dup5\n        /* \"#utility.yul\":8495:8501   */\n      dup3\n        /* \"#utility.yul\":8488:8492   */\n      0x20\n        /* \"#utility.yul\":8480:8486   */\n      dup7\n        /* \"#utility.yul\":8476:8493   */\n      add\n        /* \"#utility.yul\":8417:8507   */\n      tag_89\n      jump\t// in\n    tag_192:\n        /* \"#utility.yul\":8408:8507   */\n      swap2\n      pop\n        /* \"#utility.yul\":8231:8513   */\n      pop\n        /* \"#utility.yul\":8158:8513   */\n      swap3\n      swap2\n      pop\n      pop\n      jump\t// out\n        /* \"#utility.yul\":8519:9043   */\n    tag_39:\n        /* \"#utility.yul\":8599:8605   */\n      0x00\n        /* \"#utility.yul\":8648:8650   */\n      0x20\n        /* \"#utility.yul\":8636:8645   */\n      dup3\n        /* \"#utility.yul\":8627:8634   */\n      dup5\n        /* \"#utility.yul\":8623:8646   */\n      sub\n        /* \"#utility.yul\":8619:8651   */\n      slt\n        /* \"#utility.yul\":8616:8735   */\n      iszero\n      tag_194\n      jumpi\n        /* \"#utility.yul\":8654:8733   */\n      tag_195\n      tag_58\n      jump\t// in\n    tag_195:\n        /* \"#utility.yul\":8616:8735   */\n    tag_194:\n        /* \"#utility.yul\":8795:8796   */\n      0x00\n        /* \"#utility.yul\":8784:8793   */\n      dup3\n        /* \"#utility.yul\":8780:8797   */\n      add\n        /* \"#utility.yul\":8774:8798   */\n      mload\n        /* \"#utility.yul\":8825:8843   */\n      0xffffffffffffffff\n        /* \"#utility.yul\":8817:8823   */\n      dup2\n        /* \"#utility.yul\":8814:8844   */\n      gt\n        /* \"#utility.yul\":8811:8928   */\n      iszero\n      tag_196\n      jumpi\n        /* \"#utility.yul\":8847:8926   */\n      tag_197\n      tag_59\n      jump\t// in\n    tag_197:\n        /* \"#utility.yul\":8811:8928   */\n    tag_196:\n        /* \"#utility.yul\":8952:9026   */\n      tag_198\n        /* \"#utility.yul\":9018:9025   */\n      dup5\n        /* \"#utility.yul\":9009:9015   */\n      dup3\n        /* \"#utility.yul\":8998:9007   */\n      dup6\n        /* \"#utility.yul\":8994:9016   */\n      add\n        /* \"#utility.yul\":8952:9026   */\n      tag_90\n      jump\t// in\n    tag_198:\n        /* \"#utility.yul\":8942:9026   */\n      swap2\n      pop\n        /* \"#utility.yul\":8745:9036   */\n      pop\n        /* \"#utility.yul\":8519:9043   */\n      swap3\n      swap2\n      pop\n      pop\n      jump\t// out\n        /* \"#utility.yul\":9049:9472   */\n    tag_47:\n        /* \"#utility.yul\":9190:9194   */\n      0x00\n        /* \"#utility.yul\":9228:9230   */\n      0x40\n        /* \"#utility.yul\":9217:9226   */\n      dup3\n        /* \"#utility.yul\":9213:9231   */\n      add\n        /* \"#utility.yul\":9205:9231   */\n      swap1\n      pop\n        /* \"#utility.yul\":9241:9312   */\n      tag_200\n        /* \"#utility.yul\":9309:9310   */\n      0x00\n        /* \"#utility.yul\":9298:9307   */\n      dup4\n        /* \"#utility.yul\":9294:9311   */\n      add\n        /* \"#utility.yul\":9285:9291   */\n      dup6\n        /* \"#utility.yul\":9241:9312   */\n      tag_65\n      jump\t// in\n    tag_200:\n        /* \"#utility.yul\":9359:9368   */\n      dup2\n        /* \"#utility.yul\":9353:9357   */\n      dup2\n        /* \"#utility.yul\":9349:9369   */\n      sub\n        /* \"#utility.yul\":9344:9346   */\n      0x20\n        /* \"#utility.yul\":9333:9342   */\n      dup4\n        /* \"#utility.yul\":9329:9347   */\n      add\n        /* \"#utility.yul\":9322:9370   */\n      mstore\n        /* \"#utility.yul\":9387:9465   */\n      tag_201\n        /* \"#utility.yul\":9460:9464   */\n      dup2\n        /* \"#utility.yul\":9451:9457   */\n      dup5\n        /* \"#utility.yul\":9387:9465   */\n      tag_70\n      jump\t// in\n    tag_201:\n        /* \"#utility.yul\":9379:9465   */\n      swap1\n      pop\n        /* \"#utility.yul\":9049:9472   */\n      swap4\n      swap3\n      pop\n      pop\n      pop\n      jump\t// out\n    stop\n\n    sub_0: assembly {\n            /* \"contracts/ContractThatCreatesContract.sol\":63:320  contract Car {... */\n          mstore(0x40, 0x80)\n            /* \"contracts/ContractThatCreatesContract.sol\":167:317  constructor(address _owner, string memory _model) payable {... */\n          mload(0x40)\n          sub(codesize, bytecodeSize)\n          dup1\n          bytecodeSize\n          dup4\n          codecopy\n          dup2\n          dup2\n          add\n          0x40\n          mstore\n          dup2\n          add\n          swap1\n          tag_1\n          swap2\n          swap1\n          tag_2\n          jump\t// in\n        tag_1:\n            /* \"contracts/ContractThatCreatesContract.sol\":244:250  _owner */\n          dup2\n            /* \"contracts/ContractThatCreatesContract.sol\":236:241  owner */\n          0x00\n          dup1\n            /* \"contracts/ContractThatCreatesContract.sol\":236:250  owner = _owner */\n          0x0100\n          exp\n          dup2\n          sload\n          dup2\n          0xffffffffffffffffffffffffffffffffffffffff\n          mul\n          not\n          and\n          swap1\n          dup4\n          0xffffffffffffffffffffffffffffffffffffffff\n          and\n          mul\n          or\n          swap1\n          sstore\n          pop\n            /* \"contracts/ContractThatCreatesContract.sol\":269:275  _model */\n          dup1\n            /* \"contracts/ContractThatCreatesContract.sol\":261:266  model */\n          0x01\n            /* \"contracts/ContractThatCreatesContract.sol\":261:275  model = _model */\n          swap1\n          dup2\n          tag_5\n          swap2\n          swap1\n          tag_6\n          jump\t// in\n        tag_5:\n          pop\n            /* \"contracts/ContractThatCreatesContract.sol\":304:308  this */\n          address\n            /* \"contracts/ContractThatCreatesContract.sol\":286:293  carAddr */\n          0x02\n          0x00\n            /* \"contracts/ContractThatCreatesContract.sol\":286:309  carAddr = address(this) */\n          0x0100\n          exp\n          dup2\n          sload\n          dup2\n          0xffffffffffffffffffffffffffffffffffffffff\n          mul\n          not\n          and\n          swap1\n          dup4\n          0xffffffffffffffffffffffffffffffffffffffff\n          and\n          mul\n          or\n          swap1\n          sstore\n          pop\n            /* \"contracts/ContractThatCreatesContract.sol\":167:317  constructor(address _owner, string memory _model) payable {... */\n          pop\n          pop\n            /* \"contracts/ContractThatCreatesContract.sol\":63:320  contract Car {... */\n          jump(tag_7)\n            /* \"#utility.yul\":7:82   */\n        tag_8:\n            /* \"#utility.yul\":40:46   */\n          0x00\n            /* \"#utility.yul\":73:75   */\n          0x40\n            /* \"#utility.yul\":67:76   */\n          mload\n            /* \"#utility.yul\":57:76   */\n          swap1\n          pop\n            /* \"#utility.yul\":7:82   */\n          swap1\n          jump\t// out\n            /* \"#utility.yul\":88:205   */\n        tag_9:\n            /* \"#utility.yul\":197:198   */\n          0x00\n            /* \"#utility.yul\":194:195   */\n          dup1\n            /* \"#utility.yul\":187:199   */\n          revert\n            /* \"#utility.yul\":211:328   */\n        tag_10:\n            /* \"#utility.yul\":320:321   */\n          0x00\n            /* \"#utility.yul\":317:318   */\n          dup1\n            /* \"#utility.yul\":310:322   */\n          revert\n            /* \"#utility.yul\":334:460   */\n        tag_11:\n            /* \"#utility.yul\":371:378   */\n          0x00\n            /* \"#utility.yul\":411:453   */\n          0xffffffffffffffffffffffffffffffffffffffff\n            /* \"#utility.yul\":404:409   */\n          dup3\n            /* \"#utility.yul\":400:454   */\n          and\n            /* \"#utility.yul\":389:454   */\n          swap1\n          pop\n            /* \"#utility.yul\":334:460   */\n          swap2\n          swap1\n          pop\n          jump\t// out\n            /* \"#utility.yul\":466:562   */\n        tag_12:\n            /* \"#utility.yul\":503:510   */\n          0x00\n            /* \"#utility.yul\":532:556   */\n          tag_50\n            /* \"#utility.yul\":550:555   */\n          dup3\n            /* \"#utility.yul\":532:556   */\n          tag_11\n          jump\t// in\n        tag_50:\n            /* \"#utility.yul\":521:556   */\n          swap1\n          pop\n            /* \"#utility.yul\":466:562   */\n          swap2\n          swap1\n          pop\n          jump\t// out\n            /* \"#utility.yul\":568:690   */\n        tag_13:\n            /* \"#utility.yul\":641:665   */\n          tag_52\n            /* \"#utility.yul\":659:664   */\n          dup2\n            /* \"#utility.yul\":641:665   */\n          tag_12\n          jump\t// in\n        tag_52:\n            /* \"#utility.yul\":634:639   */\n          dup2\n            /* \"#utility.yul\":631:666   */\n          eq\n            /* \"#utility.yul\":621:684   */\n          tag_53\n          jumpi\n            /* \"#utility.yul\":680:681   */\n          0x00\n            /* \"#utility.yul\":677:678   */\n          dup1\n            /* \"#utility.yul\":670:682   */\n          revert\n            /* \"#utility.yul\":621:684   */\n        tag_53:\n            /* \"#utility.yul\":568:690   */\n          pop\n          jump\t// out\n            /* \"#utility.yul\":696:839   */\n        tag_14:\n            /* \"#utility.yul\":753:758   */\n          0x00\n            /* \"#utility.yul\":784:790   */\n          dup2\n            /* \"#utility.yul\":778:791   */\n          mload\n            /* \"#utility.yul\":769:791   */\n          swap1\n          pop\n            /* \"#utility.yul\":800:833   */\n          tag_55\n            /* \"#utility.yul\":827:832   */\n          dup2\n            /* \"#utility.yul\":800:833   */\n          tag_13\n          jump\t// in\n        tag_55:\n            /* \"#utility.yul\":696:839   */\n          swap3\n          swap2\n          pop\n          pop\n          jump\t// out\n            /* \"#utility.yul\":845:962   */\n        tag_15:\n            /* \"#utility.yul\":954:955   */\n          0x00\n            /* \"#utility.yul\":951:952   */\n          dup1\n            /* \"#utility.yul\":944:956   */\n          revert\n            /* \"#utility.yul\":968:1085   */\n        tag_16:\n            /* \"#utility.yul\":1077:1078   */\n          0x00\n            /* \"#utility.yul\":1074:1075   */\n          dup1\n            /* \"#utility.yul\":1067:1079   */\n          revert\n            /* \"#utility.yul\":1091:1193   */\n        tag_17:\n            /* \"#utility.yul\":1132:1138   */\n          0x00\n            /* \"#utility.yul\":1183:1185   */\n          0x1f\n            /* \"#utility.yul\":1179:1186   */\n          not\n            /* \"#utility.yul\":1174:1176   */\n          0x1f\n            /* \"#utility.yul\":1167:1172   */\n          dup4\n            /* \"#utility.yul\":1163:1177   */\n          add\n            /* \"#utility.yul\":1159:1187   */\n          and\n            /* \"#utility.yul\":1149:1187   */\n          swap1\n          pop\n            /* \"#utility.yul\":1091:1193   */\n          swap2\n          swap1\n          pop\n          jump\t// out\n            /* \"#utility.yul\":1199:1379   */\n        tag_18:\n            /* \"#utility.yul\":1247:1324   */\n          0x4e487b7100000000000000000000000000000000000000000000000000000000\n            /* \"#utility.yul\":1244:1245   */\n          0x00\n            /* \"#utility.yul\":1237:1325   */\n          mstore\n            /* \"#utility.yul\":1344:1348   */\n          0x41\n            /* \"#utility.yul\":1341:1342   */\n          0x04\n            /* \"#utility.yul\":1334:1349   */\n          mstore\n            /* \"#utility.yul\":1368:1372   */\n          0x24\n            /* \"#utility.yul\":1365:1366   */\n          0x00\n            /* \"#utility.yul\":1358:1373   */\n          revert\n            /* \"#utility.yul\":1385:1666   */\n        tag_19:\n            /* \"#utility.yul\":1468:1495   */\n          tag_61\n            /* \"#utility.yul\":1490:1494   */\n          dup3\n            /* \"#utility.yul\":1468:1495   */\n          tag_17\n          jump\t// in\n        tag_61:\n            /* \"#utility.yul\":1460:1466   */\n          dup2\n            /* \"#utility.yul\":1456:1496   */\n          add\n            /* \"#utility.yul\":1598:1604   */\n          dup2\n            /* \"#utility.yul\":1586:1596   */\n          dup2\n            /* \"#utility.yul\":1583:1605   */\n          lt\n            /* \"#utility.yul\":1562:1580   */\n          0xffffffffffffffff\n            /* \"#utility.yul\":1550:1560   */\n          dup3\n            /* \"#utility.yul\":1547:1581   */\n          gt\n            /* \"#utility.yul\":1544:1606   */\n          or\n            /* \"#utility.yul\":1541:1629   */\n          iszero\n          tag_62\n          jumpi\n            /* \"#utility.yul\":1609:1627   */\n          tag_63\n          tag_18\n          jump\t// in\n        tag_63:\n            /* \"#utility.yul\":1541:1629   */\n        tag_62:\n            /* \"#utility.yul\":1649:1659   */\n          dup1\n            /* \"#utility.yul\":1645:1647   */\n          0x40\n            /* \"#utility.yul\":1638:1660   */\n          mstore\n            /* \"#utility.yul\":1428:1666   */\n          pop\n            /* \"#utility.yul\":1385:1666   */\n          pop\n          pop\n          jump\t// out\n            /* \"#utility.yul\":1672:1801   */\n        tag_20:\n            /* \"#utility.yul\":1706:1712   */\n          0x00\n            /* \"#utility.yul\":1733:1753   */\n          tag_65\n          tag_8\n          jump\t// in\n        tag_65:\n            /* \"#utility.yul\":1723:1753   */\n          swap1\n          pop\n            /* \"#utility.yul\":1762:1795   */\n          tag_66\n            /* \"#utility.yul\":1790:1794   */\n          dup3\n            /* \"#utility.yul\":1782:1788   */\n          dup3\n            /* \"#utility.yul\":1762:1795   */\n          tag_19\n          jump\t// in\n        tag_66:\n            /* \"#utility.yul\":1672:1801   */\n          swap2\n          swap1\n          pop\n          jump\t// out\n            /* \"#utility.yul\":1807:2115   */\n        tag_21:\n            /* \"#utility.yul\":1869:1873   */\n          0x00\n            /* \"#utility.yul\":1959:1977   */\n          0xffffffffffffffff\n            /* \"#utility.yul\":1951:1957   */\n          dup3\n            /* \"#utility.yul\":1948:1978   */\n          gt\n            /* \"#utility.yul\":1945:2001   */\n          iszero\n          tag_68\n          jumpi\n            /* \"#utility.yul\":1981:1999   */\n          tag_69\n          tag_18\n          jump\t// in\n        tag_69:\n            /* \"#utility.yul\":1945:2001   */\n        tag_68:\n            /* \"#utility.yul\":2019:2048   */\n          tag_70\n            /* \"#utility.yul\":2041:2047   */\n          dup3\n            /* \"#utility.yul\":2019:2048   */\n          tag_17\n          jump\t// in\n        tag_70:\n            /* \"#utility.yul\":2011:2048   */\n          swap1\n          pop\n            /* \"#utility.yul\":2103:2107   */\n          0x20\n            /* \"#utility.yul\":2097:2101   */\n          dup2\n            /* \"#utility.yul\":2093:2108   */\n          add\n            /* \"#utility.yul\":2085:2108   */\n          swap1\n          pop\n            /* \"#utility.yul\":1807:2115   */\n          swap2\n          swap1\n          pop\n          jump\t// out\n            /* \"#utility.yul\":2121:2260   */\n        tag_22:\n            /* \"#utility.yul\":2210:2216   */\n          dup3\n            /* \"#utility.yul\":2205:2208   */\n          dup2\n            /* \"#utility.yul\":2200:2203   */\n          dup4\n            /* \"#utility.yul\":2194:2217   */\n          mcopy\n            /* \"#utility.yul\":2251:2252   */\n          0x00\n            /* \"#utility.yul\":2242:2248   */\n          dup4\n            /* \"#utility.yul\":2237:2240   */\n          dup4\n            /* \"#utility.yul\":2233:2249   */\n          add\n            /* \"#utility.yul\":2226:2253   */\n          mstore\n            /* \"#utility.yul\":2121:2260   */\n          pop\n          pop\n          pop\n          jump\t// out\n            /* \"#utility.yul\":2266:2700   */\n        tag_23:\n            /* \"#utility.yul\":2355:2360   */\n          0x00\n            /* \"#utility.yul\":2380:2446   */\n          tag_73\n            /* \"#utility.yul\":2396:2445   */\n          tag_74\n            /* \"#utility.yul\":2438:2444   */\n          dup5\n            /* \"#utility.yul\":2396:2445   */\n          tag_21\n          jump\t// in\n        tag_74:\n            /* \"#utility.yul\":2380:2446   */\n          tag_20\n          jump\t// in\n        tag_73:\n            /* \"#utility.yul\":2371:2446   */\n          swap1\n          pop\n            /* \"#utility.yul\":2469:2475   */\n          dup3\n            /* \"#utility.yul\":2462:2467   */\n          dup2\n            /* \"#utility.yul\":2455:2476   */\n          mstore\n            /* \"#utility.yul\":2507:2511   */\n          0x20\n            /* \"#utility.yul\":2500:2505   */\n          dup2\n            /* \"#utility.yul\":2496:2512   */\n          add\n            /* \"#utility.yul\":2545:2548   */\n          dup5\n            /* \"#utility.yul\":2536:2542   */\n          dup5\n            /* \"#utility.yul\":2531:2534   */\n          dup5\n            /* \"#utility.yul\":2527:2543   */\n          add\n            /* \"#utility.yul\":2524:2549   */\n          gt\n            /* \"#utility.yul\":2521:2633   */\n          iszero\n          tag_75\n          jumpi\n            /* \"#utility.yul\":2552:2631   */\n          tag_76\n          tag_16\n          jump\t// in\n        tag_76:\n            /* \"#utility.yul\":2521:2633   */\n        tag_75:\n            /* \"#utility.yul\":2642:2694   */\n          tag_77\n            /* \"#utility.yul\":2687:2693   */\n          dup5\n            /* \"#utility.yul\":2682:2685   */\n          dup3\n            /* \"#utility.yul\":2677:2680   */\n          dup6\n            /* \"#utility.yul\":2642:2694   */\n          tag_22\n          jump\t// in\n        tag_77:\n            /* \"#utility.yul\":2361:2700   */\n          pop\n            /* \"#utility.yul\":2266:2700   */\n          swap4\n          swap3\n          pop\n          pop\n          pop\n          jump\t// out\n            /* \"#utility.yul\":2720:3075   */\n        tag_24:\n            /* \"#utility.yul\":2787:2792   */\n          0x00\n            /* \"#utility.yul\":2836:2839   */\n          dup3\n            /* \"#utility.yul\":2829:2833   */\n          0x1f\n            /* \"#utility.yul\":2821:2827   */\n          dup4\n            /* \"#utility.yul\":2817:2834   */\n          add\n            /* \"#utility.yul\":2813:2840   */\n          slt\n            /* \"#utility.yul\":2803:2925   */\n          tag_79\n          jumpi\n            /* \"#utility.yul\":2844:2923   */\n          tag_80\n          tag_15\n          jump\t// in\n        tag_80:\n            /* \"#utility.yul\":2803:2925   */\n        tag_79:\n            /* \"#utility.yul\":2954:2960   */\n          dup2\n            /* \"#utility.yul\":2948:2961   */\n          mload\n            /* \"#utility.yul\":2979:3069   */\n          tag_81\n            /* \"#utility.yul\":3065:3068   */\n          dup5\n            /* \"#utility.yul\":3057:3063   */\n          dup3\n            /* \"#utility.yul\":3050:3054   */\n          0x20\n            /* \"#utility.yul\":3042:3048   */\n          dup7\n            /* \"#utility.yul\":3038:3055   */\n          add\n            /* \"#utility.yul\":2979:3069   */\n          tag_23\n          jump\t// in\n        tag_81:\n            /* \"#utility.yul\":2970:3069   */\n          swap2\n          pop\n            /* \"#utility.yul\":2793:3075   */\n          pop\n            /* \"#utility.yul\":2720:3075   */\n          swap3\n          swap2\n          pop\n          pop\n          jump\t// out\n            /* \"#utility.yul\":3081:3761   */\n        tag_2:\n            /* \"#utility.yul\":3170:3176   */\n          0x00\n            /* \"#utility.yul\":3178:3184   */\n          dup1\n            /* \"#utility.yul\":3227:3229   */\n          0x40\n            /* \"#utility.yul\":3215:3224   */\n          dup4\n            /* \"#utility.yul\":3206:3213   */\n          dup6\n            /* \"#utility.yul\":3202:3225   */\n          sub\n            /* \"#utility.yul\":3198:3230   */\n          slt\n            /* \"#utility.yul\":3195:3314   */\n          iszero\n          tag_83\n          jumpi\n            /* \"#utility.yul\":3233:3312   */\n          tag_84\n          tag_9\n          jump\t// in\n        tag_84:\n            /* \"#utility.yul\":3195:3314   */\n        tag_83:\n            /* \"#utility.yul\":3353:3354   */\n          0x00\n            /* \"#utility.yul\":3378:3442   */\n          tag_85\n            /* \"#utility.yul\":3434:3441   */\n          dup6\n            /* \"#utility.yul\":3425:3431   */\n          dup3\n            /* \"#utility.yul\":3414:3423   */\n          dup7\n            /* \"#utility.yul\":3410:3432   */\n          add\n            /* \"#utility.yul\":3378:3442   */\n          tag_14\n          jump\t// in\n        tag_85:\n            /* \"#utility.yul\":3368:3442   */\n          swap3\n          pop\n            /* \"#utility.yul\":3324:3452   */\n          pop\n            /* \"#utility.yul\":3512:3514   */\n          0x20\n            /* \"#utility.yul\":3501:3510   */\n          dup4\n            /* \"#utility.yul\":3497:3515   */\n          add\n            /* \"#utility.yul\":3491:3516   */\n          mload\n            /* \"#utility.yul\":3543:3561   */\n          0xffffffffffffffff\n            /* \"#utility.yul\":3535:3541   */\n          dup2\n            /* \"#utility.yul\":3532:3562   */\n          gt\n            /* \"#utility.yul\":3529:3646   */\n          iszero\n          tag_86\n          jumpi\n            /* \"#utility.yul\":3565:3644   */\n          tag_87\n          tag_10\n          jump\t// in\n        tag_87:\n            /* \"#utility.yul\":3529:3646   */\n        tag_86:\n            /* \"#utility.yul\":3670:3744   */\n          tag_88\n            /* \"#utility.yul\":3736:3743   */\n          dup6\n            /* \"#utility.yul\":3727:3733   */\n          dup3\n            /* \"#utility.yul\":3716:3725   */\n          dup7\n            /* \"#utility.yul\":3712:3734   */\n          add\n            /* \"#utility.yul\":3670:3744   */\n          tag_24\n          jump\t// in\n        tag_88:\n            /* \"#utility.yul\":3660:3744   */\n          swap2\n          pop\n            /* \"#utility.yul\":3462:3754   */\n          pop\n            /* \"#utility.yul\":3081:3761   */\n          swap3\n          pop\n          swap3\n          swap1\n          pop\n          jump\t// out\n            /* \"#utility.yul\":3767:3866   */\n        tag_25:\n            /* \"#utility.yul\":3819:3825   */\n          0x00\n            /* \"#utility.yul\":3853:3858   */\n          dup2\n            /* \"#utility.yul\":3847:3859   */\n          mload\n            /* \"#utility.yul\":3837:3859   */\n          swap1\n          pop\n            /* \"#utility.yul\":3767:3866   */\n          swap2\n          swap1\n          pop\n          jump\t// out\n            /* \"#utility.yul\":3872:4052   */\n        tag_26:\n            /* \"#utility.yul\":3920:3997   */\n          0x4e487b7100000000000000000000000000000000000000000000000000000000\n            /* \"#utility.yul\":3917:3918   */\n          0x00\n            /* \"#utility.yul\":3910:3998   */\n          mstore\n            /* \"#utility.yul\":4017:4021   */\n          0x22\n            /* \"#utility.yul\":4014:4015   */\n          0x04\n            /* \"#utility.yul\":4007:4022   */\n          mstore\n            /* \"#utility.yul\":4041:4045   */\n          0x24\n            /* \"#utility.yul\":4038:4039   */\n          0x00\n            /* \"#utility.yul\":4031:4046   */\n          revert\n            /* \"#utility.yul\":4058:4378   */\n        tag_27:\n            /* \"#utility.yul\":4102:4108   */\n          0x00\n            /* \"#utility.yul\":4139:4140   */\n          0x02\n            /* \"#utility.yul\":4133:4137   */\n          dup3\n            /* \"#utility.yul\":4129:4141   */\n          div\n            /* \"#utility.yul\":4119:4141   */\n          swap1\n          pop\n            /* \"#utility.yul\":4186:4187   */\n          0x01\n            /* \"#utility.yul\":4180:4184   */\n          dup3\n            /* \"#utility.yul\":4176:4188   */\n          and\n            /* \"#utility.yul\":4207:4225   */\n          dup1\n            /* \"#utility.yul\":4197:4278   */\n          tag_92\n          jumpi\n            /* \"#utility.yul\":4263:4267   */\n          0x7f\n            /* \"#utility.yul\":4255:4261   */\n          dup3\n            /* \"#utility.yul\":4251:4268   */\n          and\n            /* \"#utility.yul\":4241:4268   */\n          swap2\n          pop\n            /* \"#utility.yul\":4197:4278   */\n        tag_92:\n            /* \"#utility.yul\":4325:4327   */\n          0x20\n            /* \"#utility.yul\":4317:4323   */\n          dup3\n            /* \"#utility.yul\":4314:4328   */\n          lt\n            /* \"#utility.yul\":4294:4312   */\n          dup2\n            /* \"#utility.yul\":4291:4329   */\n          sub\n            /* \"#utility.yul\":4288:4372   */\n          tag_93\n          jumpi\n            /* \"#utility.yul\":4344:4362   */\n          tag_94\n          tag_26\n          jump\t// in\n        tag_94:\n            /* \"#utility.yul\":4288:4372   */\n        tag_93:\n            /* \"#utility.yul\":4109:4378   */\n          pop\n            /* \"#utility.yul\":4058:4378   */\n          swap2\n          swap1\n          pop\n          jump\t// out\n            /* \"#utility.yul\":4384:4525   */\n        tag_28:\n            /* \"#utility.yul\":4433:4437   */\n          0x00\n            /* \"#utility.yul\":4456:4459   */\n          dup2\n            /* \"#utility.yul\":4448:4459   */\n          swap1\n          pop\n            /* \"#utility.yul\":4479:4482   */\n          dup2\n            /* \"#utility.yul\":4476:4477   */\n          0x00\n            /* \"#utility.yul\":4469:4483   */\n          mstore\n            /* \"#utility.yul\":4513:4517   */\n          0x20\n            /* \"#utility.yul\":4510:4511   */\n          0x00\n            /* \"#utility.yul\":4500:4518   */\n          keccak256\n            /* \"#utility.yul\":4492:4518   */\n          swap1\n          pop\n            /* \"#utility.yul\":4384:4525   */\n          swap2\n          swap1\n          pop\n          jump\t// out\n            /* \"#utility.yul\":4531:4624   */\n        tag_29:\n            /* \"#utility.yul\":4568:4574   */\n          0x00\n            /* \"#utility.yul\":4615:4617   */\n          0x20\n            /* \"#utility.yul\":4610:4612   */\n          0x1f\n            /* \"#utility.yul\":4603:4608   */\n          dup4\n            /* \"#utility.yul\":4599:4613   */\n          add\n            /* \"#utility.yul\":4595:4618   */\n          div\n            /* \"#utility.yul\":4585:4618   */\n          swap1\n          pop\n            /* \"#utility.yul\":4531:4624   */\n          swap2\n          swap1\n          pop\n          jump\t// out\n            /* \"#utility.yul\":4630:4737   */\n        tag_30:\n            /* \"#utility.yul\":4674:4682   */\n          0x00\n            /* \"#utility.yul\":4724:4729   */\n          dup3\n            /* \"#utility.yul\":4718:4722   */\n          dup3\n            /* \"#utility.yul\":4714:4730   */\n          shl\n            /* \"#utility.yul\":4693:4730   */\n          swap1\n          pop\n            /* \"#utility.yul\":4630:4737   */\n          swap3\n          swap2\n          pop\n          pop\n          jump\t// out\n            /* \"#utility.yul\":4743:5136   */\n        tag_31:\n            /* \"#utility.yul\":4812:4818   */\n          0x00\n            /* \"#utility.yul\":4862:4863   */\n          0x08\n            /* \"#utility.yul\":4850:4860   */\n          dup4\n            /* \"#utility.yul\":4846:4864   */\n          mul\n            /* \"#utility.yul\":4885:4982   */\n          tag_99\n            /* \"#utility.yul\":4915:4981   */\n          0xffffffffffffffffffffffffffffffffffffffffffffffffffffffffffffffff\n            /* \"#utility.yul\":4904:4913   */\n          dup3\n            /* \"#utility.yul\":4885:4982   */\n          tag_30\n          jump\t// in\n        tag_99:\n            /* \"#utility.yul\":5003:5042   */\n          tag_100\n            /* \"#utility.yul\":5033:5041   */\n          dup7\n            /* \"#utility.yul\":5022:5031   */\n          dup4\n            /* \"#utility.yul\":5003:5042   */\n          tag_30\n          jump\t// in\n        tag_100:\n            /* \"#utility.yul\":4991:5042   */\n          swap6\n          pop\n            /* \"#utility.yul\":5075:5079   */\n          dup1\n            /* \"#utility.yul\":5071:5080   */\n          not\n            /* \"#utility.yul\":5064:5069   */\n          dup5\n            /* \"#utility.yul\":5060:5081   */\n          and\n            /* \"#utility.yul\":5051:5081   */\n          swap4\n          pop\n            /* \"#utility.yul\":5124:5128   */\n          dup1\n            /* \"#utility.yul\":5114:5122   */\n          dup7\n            /* \"#utility.yul\":5110:5129   */\n          and\n            /* \"#utility.yul\":5103:5108   */\n          dup5\n            /* \"#utility.yul\":5100:5130   */\n          or\n            /* \"#utility.yul\":5090:5130   */\n          swap3\n          pop\n            /* \"#utility.yul\":4819:5136   */\n          pop\n          pop\n            /* \"#utility.yul\":4743:5136   */\n          swap4\n          swap3\n          pop\n          pop\n          pop\n          jump\t// out\n            /* \"#utility.yul\":5142:5219   */\n        tag_32:\n            /* \"#utility.yul\":5179:5186   */\n          0x00\n            /* \"#utility.yul\":5208:5213   */\n          dup2\n            /* \"#utility.yul\":5197:5213   */\n          swap1\n          pop\n            /* \"#utility.yul\":5142:5219   */\n          swap2\n          swap1\n          pop\n          jump\t// out\n            /* \"#utility.yul\":5225:5285   */\n        tag_33:\n            /* \"#utility.yul\":5253:5256   */\n          0x00\n            /* \"#utility.yul\":5274:5279   */\n          dup2\n            /* \"#utility.yul\":5267:5279   */\n          swap1\n          pop\n            /* \"#utility.yul\":5225:5285   */\n          swap2\n          swap1\n          pop\n          jump\t// out\n            /* \"#utility.yul\":5291:5433   */\n        tag_34:\n            /* \"#utility.yul\":5341:5350   */\n          0x00\n            /* \"#utility.yul\":5374:5427   */\n          tag_104\n            /* \"#utility.yul\":5392:5426   */\n          tag_105\n            /* \"#utility.yul\":5401:5425   */\n          tag_106\n            /* \"#utility.yul\":5419:5424   */\n          dup5\n            /* \"#utility.yul\":5401:5425   */\n          tag_32\n          jump\t// in\n        tag_106:\n            /* \"#utility.yul\":5392:5426   */\n          tag_33\n          jump\t// in\n        tag_105:\n            /* \"#utility.yul\":5374:5427   */\n          tag_32\n          jump\t// in\n        tag_104:\n            /* \"#utility.yul\":5361:5427   */\n          swap1\n          pop\n            /* \"#utility.yul\":5291:5433   */\n          swap2\n          swap1\n          pop\n          jump\t// out\n            /* \"#utility.yul\":5439:5514   */\n        tag_35:\n            /* \"#utility.yul\":5482:5485   */\n          0x00\n            /* \"#utility.yul\":5503:5508   */\n          dup2\n            /* \"#utility.yul\":5496:5508   */\n          swap1\n          pop\n            /* \"#utility.yul\":5439:5514   */\n          swap2\n          swap1\n          pop\n          jump\t// out\n            /* \"#utility.yul\":5520:5789   */\n        tag_36:\n            /* \"#utility.yul\":5630:5669   */\n          tag_109\n            /* \"#utility.yul\":5661:5668   */\n          dup4\n            /* \"#utility.yul\":5630:5669   */\n          tag_34\n          jump\t// in\n        tag_109:\n            /* \"#utility.yul\":5691:5782   */\n          tag_110\n            /* \"#utility.yul\":5740:5781   */\n          tag_111\n            /* \"#utility.yul\":5764:5780   */\n          dup3\n            /* \"#utility.yul\":5740:5781   */\n          tag_35\n          jump\t// in\n        tag_111:\n            /* \"#utility.yul\":5732:5738   */\n          dup5\n            /* \"#utility.yul\":5725:5729   */\n          dup5\n            /* \"#utility.yul\":5719:5730   */\n          sload\n            /* \"#utility.yul\":5691:5782   */\n          tag_31\n          jump\t// in\n        tag_110:\n            /* \"#utility.yul\":5685:5689   */\n          dup3\n            /* \"#utility.yul\":5678:5783   */\n          sstore\n            /* \"#utility.yul\":5596:5789   */\n          pop\n            /* \"#utility.yul\":5520:5789   */\n          pop\n          pop\n          pop\n          jump\t// out\n            /* \"#utility.yul\":5795:5868   */\n        tag_37:\n            /* \"#utility.yul\":5840:5843   */\n          0x00\n            /* \"#utility.yul\":5795:5868   */\n          swap1\n          jump\t// out\n            /* \"#utility.yul\":5874:6063   */\n        tag_38:\n            /* \"#utility.yul\":5951:5983   */\n          tag_114\n          tag_37\n          jump\t// in\n        tag_114:\n            /* \"#utility.yul\":5992:6057   */\n          tag_115\n            /* \"#utility.yul\":6050:6056   */\n          dup2\n            /* \"#utility.yul\":6042:6048   */\n          dup5\n            /* \"#utility.yul\":6036:6040   */\n          dup5\n            /* \"#utility.yul\":5992:6057   */\n          tag_36\n          jump\t// in\n        tag_115:\n            /* \"#utility.yul\":5927:6063   */\n          pop\n            /* \"#utility.yul\":5874:6063   */\n          pop\n          pop\n          jump\t// out\n            /* \"#utility.yul\":6069:6255   */\n        tag_39:\n            /* \"#utility.yul\":6129:6249   */\n        tag_117:\n            /* \"#utility.yul\":6146:6149   */\n          dup2\n            /* \"#utility.yul\":6139:6144   */\n          dup2\n            /* \"#utility.yul\":6136:6150   */\n          lt\n            /* \"#utility.yul\":6129:6249   */\n          iszero\n          tag_119\n          jumpi\n            /* \"#utility.yul\":6200:6239   */\n          tag_120\n            /* \"#utility.yul\":6237:6238   */\n          0x00\n            /* \"#utility.yul\":6230:6235   */\n          dup3\n            /* \"#utility.yul\":6200:6239   */\n          tag_38\n          jump\t// in\n        tag_120:\n            /* \"#utility.yul\":6173:6174   */\n          0x01\n            /* \"#utility.yul\":6166:6171   */\n          dup2\n            /* \"#utility.yul\":6162:6175   */\n          add\n            /* \"#utility.yul\":6153:6175   */\n          swap1\n          pop\n            /* \"#utility.yul\":6129:6249   */\n          jump(tag_117)\n        tag_119:\n            /* \"#utility.yul\":6069:6255   */\n          pop\n          pop\n          jump\t// out\n            /* \"#utility.yul\":6261:6804   */\n        tag_40:\n            /* \"#utility.yul\":6362:6364   */\n          0x1f\n            /* \"#utility.yul\":6357:6360   */\n          dup3\n            /* \"#utility.yul\":6354:6365   */\n          gt\n            /* \"#utility.yul\":6351:6797   */\n          iszero\n          tag_122\n          jumpi\n            /* \"#utility.yul\":6396:6434   */\n          tag_123\n            /* \"#utility.yul\":6428:6433   */\n          dup2\n            /* \"#utility.yul\":6396:6434   */\n          tag_28\n          jump\t// in\n        tag_123:\n            /* \"#utility.yul\":6480:6509   */\n          tag_124\n            /* \"#utility.yul\":6498:6508   */\n          dup5\n            /* \"#utility.yul\":6480:6509   */\n          tag_29\n          jump\t// in\n        tag_124:\n            /* \"#utility.yul\":6470:6478   */\n          dup2\n            /* \"#utility.yul\":6466:6510   */\n          add\n            /* \"#utility.yul\":6663:6665   */\n          0x20\n            /* \"#utility.yul\":6651:6661   */\n          dup6\n            /* \"#utility.yul\":6648:6666   */\n          lt\n            /* \"#utility.yul\":6645:6694   */\n          iszero\n          tag_125\n          jumpi\n            /* \"#utility.yul\":6684:6692   */\n          dup2\n            /* \"#utility.yul\":6669:6692   */\n          swap1\n          pop\n            /* \"#utility.yul\":6645:6694   */\n        tag_125:\n            /* \"#utility.yul\":6707:6787   */\n          tag_126\n            /* \"#utility.yul\":6763:6785   */\n          tag_127\n            /* \"#utility.yul\":6781:6784   */\n          dup6\n            /* \"#utility.yul\":6763:6785   */\n          tag_29\n          jump\t// in\n        tag_127:\n            /* \"#utility.yul\":6753:6761   */\n          dup4\n            /* \"#utility.yul\":6749:6786   */\n          add\n            /* \"#utility.yul\":6736:6747   */\n          dup3\n            /* \"#utility.yul\":6707:6787   */\n          tag_39\n          jump\t// in\n        tag_126:\n            /* \"#utility.yul\":6366:6797   */\n          pop\n          pop\n            /* \"#utility.yul\":6351:6797   */\n        tag_122:\n            /* \"#utility.yul\":6261:6804   */\n          pop\n          pop\n          pop\n          jump\t// out\n            /* \"#utility.yul\":6810:6927   */\n        tag_41:\n            /* \"#utility.yul\":6864:6872   */\n          0x00\n            /* \"#utility.yul\":6914:6919   */\n          dup3\n            /* \"#utility.yul\":6908:6912   */\n          dup3\n            /* \"#utility.yul\":6904:6920   */\n          shr\n            /* \"#utility.yul\":6883:6920   */\n          swap1\n          pop\n            /* \"#utility.yul\":6810:6927   */\n          swap3\n          swap2\n          pop\n          pop\n          jump\t// out\n            /* \"#utility.yul\":6933:7102   */\n        tag_42:\n            /* \"#utility.yul\":6977:6983   */\n          0x00\n            /* \"#utility.yul\":7010:7061   */\n          tag_130\n            /* \"#utility.yul\":7058:7059   */\n          0x00\n            /* \"#utility.yul\":7054:7060   */\n          not\n            /* \"#utility.yul\":7046:7051   */\n          dup5\n            /* \"#utility.yul\":7043:7044   */\n          0x08\n            /* \"#utility.yul\":7039:7052   */\n          mul\n            /* \"#utility.yul\":7010:7061   */\n          tag_41\n          jump\t// in\n        tag_130:\n            /* \"#utility.yul\":7006:7062   */\n          not\n            /* \"#utility.yul\":7091:7095   */\n          dup1\n            /* \"#utility.yul\":7085:7089   */\n          dup4\n            /* \"#utility.yul\":7081:7096   */\n          and\n            /* \"#utility.yul\":7071:7096   */\n          swap2\n          pop\n            /* \"#utility.yul\":6984:7102   */\n          pop\n            /* \"#utility.yul\":6933:7102   */\n          swap3\n          swap2\n          pop\n          pop\n          jump\t// out\n            /* \"#utility.yul\":7107:7402   */\n        tag_43:\n            /* \"#utility.yul\":7183:7187   */\n          0x00\n            /* \"#utility.yul\":7329:7358   */\n          tag_132\n            /* \"#utility.yul\":7354:7357   */\n          dup4\n            /* \"#utility.yul\":7348:7352   */\n          dup4\n            /* \"#utility.yul\":7329:7358   */\n          tag_42\n          jump\t// in\n        tag_132:\n            /* \"#utility.yul\":7321:7358   */\n          swap2\n          pop\n            /* \"#utility.yul\":7391:7394   */\n          dup3\n            /* \"#utility.yul\":7388:7389   */\n          0x02\n            /* \"#utility.yul\":7384:7395   */\n          mul\n            /* \"#utility.yul\":7378:7382   */\n          dup3\n            /* \"#utility.yul\":7375:7396   */\n          or\n            /* \"#utility.yul\":7367:7396   */\n          swap1\n          pop\n            /* \"#utility.yul\":7107:7402   */\n          swap3\n          swap2\n          pop\n          pop\n          jump\t// out\n            /* \"#utility.yul\":7407:8802   */\n        tag_6:\n            /* \"#utility.yul\":7524:7561   */\n          tag_134\n            /* \"#utility.yul\":7557:7560   */\n          dup3\n            /* \"#utility.yul\":7524:7561   */\n          tag_25\n          jump\t// in\n        tag_134:\n            /* \"#utility.yul\":7626:7644   */\n          0xffffffffffffffff\n            /* \"#utility.yul\":7618:7624   */\n          dup2\n            /* \"#utility.yul\":7615:7645   */\n          gt\n            /* \"#utility.yul\":7612:7668   */\n          iszero\n          tag_135\n          jumpi\n            /* \"#utility.yul\":7648:7666   */\n          tag_136\n          tag_18\n          jump\t// in\n        tag_136:\n            /* \"#utility.yul\":7612:7668   */\n        tag_135:\n            /* \"#utility.yul\":7692:7730   */\n          tag_137\n            /* \"#utility.yul\":7724:7728   */\n          dup3\n            /* \"#utility.yul\":7718:7729   */\n          sload\n            /* \"#utility.yul\":7692:7730   */\n          tag_27\n          jump\t// in\n        tag_137:\n            /* \"#utility.yul\":7777:7844   */\n          tag_138\n            /* \"#utility.yul\":7837:7843   */\n          dup3\n            /* \"#utility.yul\":7829:7835   */\n          dup3\n            /* \"#utility.yul\":7823:7827   */\n          dup6\n            /* \"#utility.yul\":7777:7844   */\n          tag_40\n          jump\t// in\n        tag_138:\n            /* \"#utility.yul\":7871:7872   */\n          0x00\n            /* \"#utility.yul\":7895:7899   */\n          0x20\n            /* \"#utility.yul\":7882:7899   */\n          swap1\n          pop\n            /* \"#utility.yul\":7927:7929   */\n          0x1f\n            /* \"#utility.yul\":7919:7925   */\n          dup4\n            /* \"#utility.yul\":7916:7930   */\n          gt\n            /* \"#utility.yul\":7944:7945   */\n          0x01\n            /* \"#utility.yul\":7939:8557   */\n          dup2\n          eq\n          tag_140\n          jumpi\n            /* \"#utility.yul\":8601:8602   */\n          0x00\n            /* \"#utility.yul\":8618:8624   */\n          dup5\n            /* \"#utility.yul\":8615:8692   */\n          iszero\n          tag_141\n          jumpi\n            /* \"#utility.yul\":8667:8676   */\n          dup3\n            /* \"#utility.yul\":8662:8665   */\n          dup8\n            /* \"#utility.yul\":8658:8677   */\n          add\n            /* \"#utility.yul\":8652:8678   */\n          mload\n            /* \"#utility.yul\":8643:8678   */\n          swap1\n          pop\n            /* \"#utility.yul\":8615:8692   */\n        tag_141:\n            /* \"#utility.yul\":8718:8785   */\n          tag_142\n            /* \"#utility.yul\":8778:8784   */\n          dup6\n            /* \"#utility.yul\":8771:8776   */\n          dup3\n            /* \"#utility.yul\":8718:8785   */\n          tag_43\n          jump\t// in\n        tag_142:\n            /* \"#utility.yul\":8712:8716   */\n          dup7\n            /* \"#utility.yul\":8705:8786   */\n          sstore\n            /* \"#utility.yul\":8574:8796   */\n          pop\n            /* \"#utility.yul\":7909:8796   */\n          jump(tag_139)\n            /* \"#utility.yul\":7939:8557   */\n        tag_140:\n            /* \"#utility.yul\":7991:7995   */\n          0x1f\n            /* \"#utility.yul\":7987:7996   */\n          not\n            /* \"#utility.yul\":7979:7985   */\n          dup5\n            /* \"#utility.yul\":7975:7997   */\n          and\n            /* \"#utility.yul\":8025:8062   */\n          tag_143\n            /* \"#utility.yul\":8057:8061   */\n          dup7\n            /* \"#utility.yul\":8025:8062   */\n          tag_28\n          jump\t// in\n        tag_143:\n            /* \"#utility.yul\":8084:8085   */\n          0x00\n            /* \"#utility.yul\":8098:8306   */\n        tag_144:\n            /* \"#utility.yul\":8112:8119   */\n          dup3\n            /* \"#utility.yul\":8109:8110   */\n          dup2\n            /* \"#utility.yul\":8106:8120   */\n          lt\n            /* \"#utility.yul\":8098:8306   */\n          iszero\n          tag_146\n          jumpi\n            /* \"#utility.yul\":8191:8200   */\n          dup5\n            /* \"#utility.yul\":8186:8189   */\n          dup10\n            /* \"#utility.yul\":8182:8201   */\n          add\n            /* \"#utility.yul\":8176:8202   */\n          mload\n            /* \"#utility.yul\":8168:8174   */\n          dup3\n            /* \"#utility.yul\":8161:8203   */\n          sstore\n            /* \"#utility.yul\":8242:8243   */\n          0x01\n            /* \"#utility.yul\":8234:8240   */\n          dup3\n            /* \"#utility.yul\":8230:8244   */\n          add\n            /* \"#utility.yul\":8220:8244   */\n          swap2\n          pop\n            /* \"#utility.yul\":8289:8291   */\n          0x20\n            /* \"#utility.yul\":8278:8287   */\n          dup6\n            /* \"#utility.yul\":8274:8292   */\n          add\n            /* \"#utility.yul\":8261:8292   */\n          swap5\n          pop\n            /* \"#utility.yul\":8135:8139   */\n          0x20\n            /* \"#utility.yul\":8132:8133   */\n          dup2\n            /* \"#utility.yul\":8128:8140   */\n          add\n            /* \"#utility.yul\":8123:8140   */\n          swap1\n          pop\n            /* \"#utility.yul\":8098:8306   */\n          jump(tag_144)\n        tag_146:\n            /* \"#utility.yul\":8334:8340   */\n          dup7\n            /* \"#utility.yul\":8325:8332   */\n          dup4\n            /* \"#utility.yul\":8322:8341   */\n          lt\n            /* \"#utility.yul\":8319:8498   */\n          iszero\n          tag_147\n          jumpi\n            /* \"#utility.yul\":8392:8401   */\n          dup5\n            /* \"#utility.yul\":8387:8390   */\n          dup10\n            /* \"#utility.yul\":8383:8402   */\n          add\n            /* \"#utility.yul\":8377:8403   */\n          mload\n            /* \"#utility.yul\":8435:8483   */\n          tag_148\n            /* \"#utility.yul\":8477:8481   */\n          0x1f\n            /* \"#utility.yul\":8469:8475   */\n          dup10\n            /* \"#utility.yul\":8465:8482   */\n          and\n            /* \"#utility.yul\":8454:8463   */\n          dup3\n            /* \"#utility.yul\":8435:8483   */\n          tag_42\n          jump\t// in\n        tag_148:\n            /* \"#utility.yul\":8427:8433   */\n          dup4\n            /* \"#utility.yul\":8420:8484   */\n          sstore\n            /* \"#utility.yul\":8342:8498   */\n          pop\n            /* \"#utility.yul\":8319:8498   */\n        tag_147:\n            /* \"#utility.yul\":8544:8545   */\n          0x01\n            /* \"#utility.yul\":8540:8541   */\n          0x02\n            /* \"#utility.yul\":8532:8538   */\n          dup9\n            /* \"#utility.yul\":8528:8542   */\n          mul\n            /* \"#utility.yul\":8524:8546   */\n          add\n            /* \"#utility.yul\":8518:8522   */\n          dup9\n            /* \"#utility.yul\":8511:8547   */\n          sstore\n            /* \"#utility.yul\":7946:8557   */\n          pop\n          pop\n          pop\n            /* \"#utility.yul\":7909:8796   */\n        tag_139:\n          pop\n            /* \"#utility.yul\":7499:8802   */\n          pop\n          pop\n          pop\n            /* \"#utility.yul\":7407:8802   */\n          pop\n          pop\n          jump\t// out\n            /* \"contracts/ContractThatCreatesContract.sol\":63:320  contract Car {... */\n        tag_7:\n          dataSize(sub_0)\n          dup1\n          dataOffset(sub_0)\n          0x00\n          codecopy\n          0x00\n          return\n        stop\n\n        sub_0: assembly {\n                /* \"contracts/ContractThatCreatesContract.sol\":63:320  contract Car {... */\n              mstore(0x40, 0x80)\n              callvalue\n              dup1\n              iszero\n              tag_1\n              jumpi\n              0x00\n              dup1\n              revert\n            tag_1:\n              pop\n              jumpi(tag_2, lt(calldatasize, 0x04))\n              shr(0xe0, calldataload(0x00))\n              dup1\n              0x0ad9d052\n              eq\n              tag_3\n              jumpi\n              dup1\n              0x514fa676\n              eq\n              tag_4\n              jumpi\n              dup1\n              0x8da5cb5b\n              eq\n              tag_5\n              jumpi\n            tag_2:\n              0x00\n              dup1\n              revert\n                /* \"contracts/ContractThatCreatesContract.sol\":110:129  string public model */\n            tag_3:\n              tag_6\n              tag_7\n              jump\t// in\n            tag_6:\n              mload(0x40)\n              tag_8\n              swap2\n              swap1\n              tag_9\n              jump\t// in\n            tag_8:\n              mload(0x40)\n              dup1\n              swap2\n              sub\n              swap1\n              return\n                /* \"contracts/ContractThatCreatesContract.sol\":136:158  address public carAddr */\n            tag_4:\n              tag_10\n              tag_11\n              jump\t// in\n            tag_10:\n              mload(0x40)\n              tag_12\n              swap2\n              swap1\n              tag_13\n              jump\t// in\n            tag_12:\n              mload(0x40)\n              dup1\n              swap2\n              sub\n              swap1\n              return\n                /* \"contracts/ContractThatCreatesContract.sol\":83:103  address public owner */\n            tag_5:\n              tag_14\n              tag_15\n              jump\t// in\n            tag_14:\n              mload(0x40)\n              tag_16\n              swap2\n              swap1\n              tag_13\n              jump\t// in\n            tag_16:\n              mload(0x40)\n              dup1\n              swap2\n              sub\n              swap1\n              return\n                /* \"contracts/ContractThatCreatesContract.sol\":110:129  string public model */\n            tag_7:\n              0x01\n              dup1\n              sload\n              tag_17\n              swap1\n              tag_18\n              jump\t// in\n            tag_17:\n              dup1\n              0x1f\n              add\n              0x20\n              dup1\n              swap2\n              div\n              mul\n              0x20\n              add\n              mload(0x40)\n              swap1\n              dup2\n              add\n              0x40\n              mstore\n              dup1\n              swap3\n              swap2\n              swap1\n              dup2\n              dup2\n              mstore\n              0x20\n              add\n              dup3\n              dup1\n              sload\n              tag_19\n              swap1\n              tag_18\n              jump\t// in\n            tag_19:\n              dup1\n              iszero\n              tag_20\n              jumpi\n              dup1\n              0x1f\n              lt\n              tag_21\n              jumpi\n              0x0100\n              dup1\n              dup4\n              sload\n              div\n              mul\n              dup4\n              mstore\n              swap2\n              0x20\n              add\n              swap2\n              jump(tag_20)\n            tag_21:\n              dup3\n              add\n              swap2\n              swap1\n              0x00\n              mstore\n              keccak256(0x00, 0x20)\n              swap1\n            tag_22:\n              dup2\n              sload\n              dup2\n              mstore\n              swap1\n              0x01\n              add\n              swap1\n              0x20\n              add\n              dup1\n              dup4\n              gt\n              tag_22\n              jumpi\n              dup3\n              swap1\n              sub\n              0x1f\n              and\n              dup3\n              add\n              swap2\n            tag_20:\n              pop\n              pop\n              pop\n              pop\n              pop\n              dup2\n              jump\t// out\n                /* \"contracts/ContractThatCreatesContract.sol\":136:158  address public carAddr */\n            tag_11:\n              0x02\n              0x00\n              swap1\n              sload\n              swap1\n              0x0100\n              exp\n              swap1\n              div\n              0xffffffffffffffffffffffffffffffffffffffff\n              and\n              dup2\n              jump\t// out\n                /* \"contracts/ContractThatCreatesContract.sol\":83:103  address public owner */\n            tag_15:\n              0x00\n              dup1\n              sload\n              swap1\n              0x0100\n              exp\n              swap1\n              div\n              0xffffffffffffffffffffffffffffffffffffffff\n              and\n              dup2\n              jump\t// out\n                /* \"#utility.yul\":7:106   */\n            tag_23:\n                /* \"#utility.yul\":59:65   */\n              0x00\n                /* \"#utility.yul\":93:98   */\n              dup2\n                /* \"#utility.yul\":87:99   */\n              mload\n                /* \"#utility.yul\":77:99   */\n              swap1\n              pop\n                /* \"#utility.yul\":7:106   */\n              swap2\n              swap1\n              pop\n              jump\t// out\n                /* \"#utility.yul\":112:281   */\n            tag_24:\n                /* \"#utility.yul\":196:207   */\n              0x00\n                /* \"#utility.yul\":230:236   */\n              dup3\n                /* \"#utility.yul\":225:228   */\n              dup3\n                /* \"#utility.yul\":218:237   */\n              mstore\n                /* \"#utility.yul\":270:274   */\n              0x20\n                /* \"#utility.yul\":265:268   */\n              dup3\n                /* \"#utility.yul\":261:275   */\n              add\n                /* \"#utility.yul\":246:275   */\n              swap1\n              pop\n                /* \"#utility.yul\":112:281   */\n              swap3\n              swap2\n              pop\n              pop\n              jump\t// out\n                /* \"#utility.yul\":287:426   */\n            tag_25:\n                /* \"#utility.yul\":376:382   */\n              dup3\n                /* \"#utility.yul\":371:374   */\n              dup2\n                /* \"#utility.yul\":366:369   */\n              dup4\n                /* \"#utility.yul\":360:383   */\n              mcopy\n                /* \"#utility.yul\":417:418   */\n              0x00\n                /* \"#utility.yul\":408:414   */\n              dup4\n                /* \"#utility.yul\":403:406   */\n              dup4\n                /* \"#utility.yul\":399:415   */\n              add\n                /* \"#utility.yul\":392:419   */\n              mstore\n                /* \"#utility.yul\":287:426   */\n              pop\n              pop\n              pop\n              jump\t// out\n                /* \"#utility.yul\":432:534   */\n            tag_26:\n                /* \"#utility.yul\":473:479   */\n              0x00\n                /* \"#utility.yul\":524:526   */\n              0x1f\n                /* \"#utility.yul\":520:527   */\n              not\n                /* \"#utility.yul\":515:517   */\n              0x1f\n                /* \"#utility.yul\":508:513   */\n              dup4\n                /* \"#utility.yul\":504:518   */\n              add\n                /* \"#utility.yul\":500:528   */\n              and\n                /* \"#utility.yul\":490:528   */\n              swap1\n              pop\n                /* \"#utility.yul\":432:534   */\n              swap2\n              swap1\n              pop\n              jump\t// out\n                /* \"#utility.yul\":540:917   */\n            tag_27:\n                /* \"#utility.yul\":628:631   */\n              0x00\n                /* \"#utility.yul\":656:695   */\n              tag_38\n                /* \"#utility.yul\":689:694   */\n              dup3\n                /* \"#utility.yul\":656:695   */\n              tag_23\n              jump\t// in\n            tag_38:\n                /* \"#utility.yul\":711:782   */\n              tag_39\n                /* \"#utility.yul\":775:781   */\n              dup2\n                /* \"#utility.yul\":770:773   */\n              dup6\n                /* \"#utility.yul\":711:782   */\n              tag_24\n              jump\t// in\n            tag_39:\n                /* \"#utility.yul\":704:782   */\n              swap4\n              pop\n                /* \"#utility.yul\":791:856   */\n              tag_40\n                /* \"#utility.yul\":849:855   */\n              dup2\n                /* \"#utility.yul\":844:847   */\n              dup6\n                /* \"#utility.yul\":837:841   */\n              0x20\n                /* \"#utility.yul\":830:835   */\n              dup7\n                /* \"#utility.yul\":826:842   */\n              add\n                /* \"#utility.yul\":791:856   */\n              tag_25\n              jump\t// in\n            tag_40:\n                /* \"#utility.yul\":881:910   */\n              tag_41\n                /* \"#utility.yul\":903:909   */\n              dup2\n                /* \"#utility.yul\":881:910   */\n              tag_26\n              jump\t// in\n            tag_41:\n                /* \"#utility.yul\":876:879   */\n              dup5\n                /* \"#utility.yul\":872:911   */\n              add\n                /* \"#utility.yul\":865:911   */\n              swap2\n              pop\n                /* \"#utility.yul\":632:917   */\n              pop\n                /* \"#utility.yul\":540:917   */\n              swap3\n              swap2\n              pop\n              pop\n              jump\t// out\n                /* \"#utility.yul\":923:1236   */\n            tag_9:\n                /* \"#utility.yul\":1036:1040   */\n              0x00\n                /* \"#utility.yul\":1074:1076   */\n              0x20\n                /* \"#utility.yul\":1063:1072   */\n              dup3\n                /* \"#utility.yul\":1059:1077   */\n              add\n                /* \"#utility.yul\":1051:1077   */\n              swap1\n              pop\n                /* \"#utility.yul\":1123:1132   */\n              dup2\n                /* \"#utility.yul\":1117:1121   */\n              dup2\n                /* \"#utility.yul\":1113:1133   */\n              sub\n                /* \"#utility.yul\":1109:1110   */\n              0x00\n                /* \"#utility.yul\":1098:1107   */\n              dup4\n                /* \"#utility.yul\":1094:1111   */\n              add\n                /* \"#utility.yul\":1087:1134   */\n              mstore\n                /* \"#utility.yul\":1151:1229   */\n              tag_43\n                /* \"#utility.yul\":1224:1228   */\n              dup2\n                /* \"#utility.yul\":1215:1221   */\n              dup5\n                /* \"#utility.yul\":1151:1229   */\n              tag_27\n              jump\t// in\n            tag_43:\n                /* \"#utility.yul\":1143:1229   */\n              swap1\n              pop\n                /* \"#utility.yul\":923:1236   */\n              swap3\n              swap2\n              pop\n              pop\n              jump\t// out\n                /* \"#utility.yul\":1242:1368   */\n            tag_28:\n                /* \"#utility.yul\":1279:1286   */\n              0x00\n                /* \"#utility.yul\":1319:1361   */\n              0xffffffffffffffffffffffffffffffffffffffff\n                /* \"#utility.yul\":1312:1317   */\n              dup3\n                /* \"#utility.yul\":1308:1362   */\n              and\n                /* \"#utility.yul\":1297:1362   */\n              swap1\n              pop\n                /* \"#utility.yul\":1242:1368   */\n              swap2\n              swap1\n              pop\n              jump\t// out\n                /* \"#utility.yul\":1374:1470   */\n            tag_29:\n                /* \"#utility.yul\":1411:1418   */\n              0x00\n                /* \"#utility.yul\":1440:1464   */\n              tag_46\n                /* \"#utility.yul\":1458:1463   */\n              dup3\n                /* \"#utility.yul\":1440:1464   */\n              tag_28\n              jump\t// in\n            tag_46:\n                /* \"#utility.yul\":1429:1464   */\n              swap1\n              pop\n                /* \"#utility.yul\":1374:1470   */\n              swap2\n              swap1\n              pop\n              jump\t// out\n                /* \"#utility.yul\":1476:1594   */\n            tag_30:\n                /* \"#utility.yul\":1563:1587   */\n              tag_48\n                /* \"#utility.yul\":1581:1586   */\n              dup2\n                /* \"#utility.yul\":1563:1587   */\n              tag_29\n              jump\t// in\n            tag_48:\n                /* \"#utility.yul\":1558:1561   */\n              dup3\n                /* \"#utility.yul\":1551:1588   */\n              mstore\n                /* \"#utility.yul\":1476:1594   */\n              pop\n              pop\n              jump\t// out\n                /* \"#utility.yul\":1600:1822   */\n            tag_13:\n                /* \"#utility.yul\":1693:1697   */\n              0x00\n                /* \"#utility.yul\":1731:1733   */\n              0x20\n                /* \"#utility.yul\":1720:1729   */\n              dup3\n                /* \"#utility.yul\":1716:1734   */\n              add\n                /* \"#utility.yul\":1708:1734   */\n              swap1\n              pop\n                /* \"#utility.yul\":1744:1815   */\n              tag_50\n                /* \"#utility.yul\":1812:1813   */\n              0x00\n                /* \"#utility.yul\":1801:1810   */\n              dup4\n                /* \"#utility.yul\":1797:1814   */\n              add\n                /* \"#utility.yul\":1788:1794   */\n              dup5\n                /* \"#utility.yul\":1744:1815   */\n              tag_30\n              jump\t// in\n            tag_50:\n                /* \"#utility.yul\":1600:1822   */\n              swap3\n              swap2\n              pop\n              pop\n              jump\t// out\n                /* \"#utility.yul\":1828:2008   */\n            tag_31:\n                /* \"#utility.yul\":1876:1953   */\n              0x4e487b7100000000000000000000000000000000000000000000000000000000\n                /* \"#utility.yul\":1873:1874   */\n              0x00\n                /* \"#utility.yul\":1866:1954   */\n              mstore\n                /* \"#utility.yul\":1973:1977   */\n              0x22\n                /* \"#utility.yul\":1970:1971   */\n              0x04\n                /* \"#utility.yul\":1963:1978   */\n              mstore\n                /* \"#utility.yul\":1997:2001   */\n              0x24\n                /* \"#utility.yul\":1994:1995   */\n              0x00\n                /* \"#utility.yul\":1987:2002   */\n              revert\n                /* \"#utility.yul\":2014:2334   */\n            tag_18:\n                /* \"#utility.yul\":2058:2064   */\n              0x00\n                /* \"#utility.yul\":2095:2096   */\n              0x02\n                /* \"#utility.yul\":2089:2093   */\n              dup3\n                /* \"#utility.yul\":2085:2097   */\n              div\n                /* \"#utility.yul\":2075:2097   */\n              swap1\n              pop\n                /* \"#utility.yul\":2142:2143   */\n              0x01\n                /* \"#utility.yul\":2136:2140   */\n              dup3\n                /* \"#utility.yul\":2132:2144   */\n              and\n                /* \"#utility.yul\":2163:2181   */\n              dup1\n                /* \"#utility.yul\":2153:2234   */\n              tag_53\n              jumpi\n                /* \"#utility.yul\":2219:2223   */\n              0x7f\n                /* \"#utility.yul\":2211:2217   */\n              dup3\n                /* \"#utility.yul\":2207:2224   */\n              and\n                /* \"#utility.yul\":2197:2224   */\n              swap2\n              pop\n                /* \"#utility.yul\":2153:2234   */\n            tag_53:\n                /* \"#utility.yul\":2281:2283   */\n              0x20\n                /* \"#utility.yul\":2273:2279   */\n              dup3\n                /* \"#utility.yul\":2270:2284   */\n              lt\n                /* \"#utility.yul\":2250:2268   */\n              dup2\n                /* \"#utility.yul\":2247:2285   */\n              sub\n                /* \"#utility.yul\":2244:2328   */\n              tag_54\n              jumpi\n                /* \"#utility.yul\":2300:2318   */\n              tag_55\n              tag_31\n              jump\t// in\n            tag_55:\n                /* \"#utility.yul\":2244:2328   */\n            tag_54:\n                /* \"#utility.yul\":2065:2334   */\n              pop\n                /* \"#utility.yul\":2014:2334   */\n              swap2\n              swap1\n              pop\n              jump\t// out\n\n            auxdata: 0xa2646970667358221220e4c50872154c604fc8fde94320fb1dd0f90ef91a7bd635624bebcfe2382d8de664736f6c634300081a0033\n        }\n    }\n\n    auxdata: 0xa26469706673582212200049e69ba799aa9d7851513e4245154c1d1bd45a236eb9d210460d0020c960da64736f6c634300081a0033\n}\n",
				"bytecode": {
					"linkReferences": {},
					"object": "6080604052348015600e575f80fd5b506111e58061001c5f395ff3fe60806040526004361061003e575f3560e01c80635e8be19014610042578063a15ab08d14610081578063c33cd615146100a9578063f7746e36146100c5575b5f80fd5b34801561004d575f80fd5b5061006860048036038101906100639190610478565b610101565b6040516100789493929190610561565b60405180910390f35b34801561008c575f80fd5b506100a760048036038101906100a29190610701565b6102b6565b005b6100c360048036038101906100be9190610701565b610350565b005b3480156100d0575f80fd5b506100eb60048036038101906100e69190610478565b6103ed565b6040516100f891906107b6565b60405180910390f35b5f60605f805f80868154811061011a576101196107cf565b5b905f5260205f20015f9054906101000a900473ffffffffffffffffffffffffffffffffffffffff1690508073ffffffffffffffffffffffffffffffffffffffff16638da5cb5b6040518163ffffffff1660e01b8152600401602060405180830381865afa15801561018d573d5f803e3d5ffd5b505050506040513d601f19601f820116820180604052508101906101b19190610810565b8173ffffffffffffffffffffffffffffffffffffffff16630ad9d0526040518163ffffffff1660e01b81526004015f60405180830381865afa1580156101f9573d5f803e3d5ffd5b505050506040513d5f823e3d601f19601f8201168201806040525081019061022191906108a9565b8273ffffffffffffffffffffffffffffffffffffffff1663514fa6766040518163ffffffff1660e01b8152600401602060405180830381865afa15801561026a573d5f803e3d5ffd5b505050506040513d601f19601f8201168201806040525081019061028e9190610810565b8373ffffffffffffffffffffffffffffffffffffffff16319450945094509450509193509193565b5f82826040516102c590610427565b6102d09291906108f0565b604051809103905ff0801580156102e9573d5f803e3d5ffd5b5090505f81908060018154018082558091505060019003905f5260205f20015f9091909190916101000a81548173ffffffffffffffffffffffffffffffffffffffff021916908373ffffffffffffffffffffffffffffffffffffffff160217905550505050565b5f34838360405161036090610427565b61036b9291906108f0565b6040518091039082f0905080158015610386573d5f803e3d5ffd5b5090505f81908060018154018082558091505060019003905f5260205f20015f9091909190916101000a81548173ffffffffffffffffffffffffffffffffffffffff021916908373ffffffffffffffffffffffffffffffffffffffff160217905550505050565b5f81815481106103fb575f80fd5b905f5260205f20015f915054906101000a900473ffffffffffffffffffffffffffffffffffffffff1681565b6108918061091f83390190565b5f604051905090565b5f80fd5b5f80fd5b5f819050919050565b61045781610445565b8114610461575f80fd5b50565b5f813590506104728161044e565b92915050565b5f6020828403121561048d5761048c61043d565b5b5f61049a84828501610464565b91505092915050565b5f73ffffffffffffffffffffffffffffffffffffffff82169050919050565b5f6104cc826104a3565b9050919050565b6104dc816104c2565b82525050565b5f81519050919050565b5f82825260208201905092915050565b8281835e5f83830152505050565b5f601f19601f8301169050919050565b5f610524826104e2565b61052e81856104ec565b935061053e8185602086016104fc565b6105478161050a565b840191505092915050565b61055b81610445565b82525050565b5f6080820190506105745f8301876104d3565b8181036020830152610586818661051a565b905061059560408301856104d3565b6105a26060830184610552565b95945050505050565b6105b4816104c2565b81146105be575f80fd5b50565b5f813590506105cf816105ab565b92915050565b5f80fd5b5f80fd5b7f4e487b71000000000000000000000000000000000000000000000000000000005f52604160045260245ffd5b6106138261050a565b810181811067ffffffffffffffff82111715610632576106316105dd565b5b80604052505050565b5f610644610434565b9050610650828261060a565b919050565b5f67ffffffffffffffff82111561066f5761066e6105dd565b5b6106788261050a565b9050602081019050919050565b828183375f83830152505050565b5f6106a56106a084610655565b61063b565b9050828152602081018484840111156106c1576106c06105d9565b5b6106cc848285610685565b509392505050565b5f82601f8301126106e8576106e76105d5565b5b81356106f8848260208601610693565b91505092915050565b5f80604083850312156107175761071661043d565b5b5f610724858286016105c1565b925050602083013567ffffffffffffffff81111561074557610744610441565b5b610751858286016106d4565b9150509250929050565b5f819050919050565b5f61077e610779610774846104a3565b61075b565b6104a3565b9050919050565b5f61078f82610764565b9050919050565b5f6107a082610785565b9050919050565b6107b081610796565b82525050565b5f6020820190506107c95f8301846107a7565b92915050565b7f4e487b71000000000000000000000000000000000000000000000000000000005f52603260045260245ffd5b5f8151905061080a816105ab565b92915050565b5f602082840312156108255761082461043d565b5b5f610832848285016107fc565b91505092915050565b5f61084d61084884610655565b61063b565b905082815260208101848484011115610869576108686105d9565b5b6108748482856104fc565b509392505050565b5f82601f8301126108905761088f6105d5565b5b81516108a084826020860161083b565b91505092915050565b5f602082840312156108be576108bd61043d565b5b5f82015167ffffffffffffffff8111156108db576108da610441565b5b6108e78482850161087c565b91505092915050565b5f6040820190506109035f8301856104d3565b8181036020830152610915818461051a565b9050939250505056fe608060405260405161089138038061089183398181016040528101906100259190610262565b815f806101000a81548173ffffffffffffffffffffffffffffffffffffffff021916908373ffffffffffffffffffffffffffffffffffffffff160217905550806001908161007391906104c9565b503060025f6101000a81548173ffffffffffffffffffffffffffffffffffffffff021916908373ffffffffffffffffffffffffffffffffffffffff1602179055505050610598565b5f604051905090565b5f80fd5b5f80fd5b5f73ffffffffffffffffffffffffffffffffffffffff82169050919050565b5f6100f5826100cc565b9050919050565b610105816100eb565b811461010f575f80fd5b50565b5f81519050610120816100fc565b92915050565b5f80fd5b5f80fd5b5f601f19601f8301169050919050565b7f4e487b71000000000000000000000000000000000000000000000000000000005f52604160045260245ffd5b6101748261012e565b810181811067ffffffffffffffff821117156101935761019261013e565b5b80604052505050565b5f6101a56100bb565b90506101b1828261016b565b919050565b5f67ffffffffffffffff8211156101d0576101cf61013e565b5b6101d98261012e565b9050602081019050919050565b8281835e5f83830152505050565b5f610206610201846101b6565b61019c565b9050828152602081018484840111156102225761022161012a565b5b61022d8482856101e6565b509392505050565b5f82601f83011261024957610248610126565b5b81516102598482602086016101f4565b91505092915050565b5f8060408385031215610278576102776100c4565b5b5f61028585828601610112565b925050602083015167ffffffffffffffff8111156102a6576102a56100c8565b5b6102b285828601610235565b9150509250929050565b5f81519050919050565b7f4e487b71000000000000000000000000000000000000000000000000000000005f52602260045260245ffd5b5f600282049050600182168061030a57607f821691505b60208210810361031d5761031c6102c6565b5b50919050565b5f819050815f5260205f209050919050565b5f6020601f8301049050919050565b5f82821b905092915050565b5f6008830261037f7fffffffffffffffffffffffffffffffffffffffffffffffffffffffffffffffff82610344565b6103898683610344565b95508019841693508086168417925050509392505050565b5f819050919050565b5f819050919050565b5f6103cd6103c86103c3846103a1565b6103aa565b6103a1565b9050919050565b5f819050919050565b6103e6836103b3565b6103fa6103f2826103d4565b848454610350565b825550505050565b5f90565b61040e610402565b6104198184846103dd565b505050565b5b8181101561043c576104315f82610406565b60018101905061041f565b5050565b601f8211156104815761045281610323565b61045b84610335565b8101602085101561046a578190505b61047e61047685610335565b83018261041e565b50505b505050565b5f82821c905092915050565b5f6104a15f1984600802610486565b1980831691505092915050565b5f6104b98383610492565b9150826002028217905092915050565b6104d2826102bc565b67ffffffffffffffff8111156104eb576104ea61013e565b5b6104f582546102f3565b610500828285610440565b5f60209050601f831160018114610531575f841561051f578287015190505b61052985826104ae565b865550610590565b601f19841661053f86610323565b5f5b8281101561056657848901518255600182019150602085019450602081019050610541565b86831015610583578489015161057f601f891682610492565b8355505b6001600288020188555050505b505050505050565b6102ec806105a55f395ff3fe608060405234801561000f575f80fd5b506004361061003f575f3560e01c80630ad9d05214610043578063514fa676146100615780638da5cb5b1461007f575b5f80fd5b61004b61009d565b60405161005891906101e1565b60405180910390f35b610069610129565b6040516100769190610240565b60405180910390f35b61008761014e565b6040516100949190610240565b60405180910390f35b600180546100aa90610286565b80601f01602080910402602001604051908101604052809291908181526020018280546100d690610286565b80156101215780601f106100f857610100808354040283529160200191610121565b820191905f5260205f20905b81548152906001019060200180831161010457829003601f168201915b505050505081565b60025f9054906101000a900473ffffffffffffffffffffffffffffffffffffffff1681565b5f8054906101000a900473ffffffffffffffffffffffffffffffffffffffff1681565b5f81519050919050565b5f82825260208201905092915050565b8281835e5f83830152505050565b5f601f19601f8301169050919050565b5f6101b382610171565b6101bd818561017b565b93506101cd81856020860161018b565b6101d681610199565b840191505092915050565b5f6020820190508181035f8301526101f981846101a9565b905092915050565b5f73ffffffffffffffffffffffffffffffffffffffff82169050919050565b5f61022a82610201565b9050919050565b61023a81610220565b82525050565b5f6020820190506102535f830184610231565b92915050565b7f4e487b71000000000000000000000000000000000000000000000000000000005f52602260045260245ffd5b5f600282049050600182168061029d57607f821691505b6020821081036102b0576102af610259565b5b5091905056fea2646970667358221220e4c50872154c604fc8fde94320fb1dd0f90ef91a7bd635624bebcfe2382d8de664736f6c634300081a0033a26469706673582212200049e69ba799aa9d7851513e4245154c1d1bd45a236eb9d210460d0020c960da64736f6c634300081a0033",
					"opcodes": "PUSH1 0x80 PUSH1 0x40 MSTORE CALLVALUE DUP1 ISZERO PUSH1 0xE JUMPI PUSH0 DUP1 REVERT JUMPDEST POP PUSH2 0x11E5 DUP1 PUSH2 0x1C PUSH0 CODECOPY PUSH0 RETURN INVALID PUSH1 0x80 PUSH1 0x40 MSTORE PUSH1 0x4 CALLDATASIZE LT PUSH2 0x3E JUMPI PUSH0 CALLDATALOAD PUSH1 0xE0 SHR DUP1 PUSH4 0x5E8BE190 EQ PUSH2 0x42 JUMPI DUP1 PUSH4 0xA15AB08D EQ PUSH2 0x81 JUMPI DUP1 PUSH4 0xC33CD615 EQ PUSH2 0xA9 JUMPI DUP1 PUSH4 0xF7746E36 EQ PUSH2 0xC5 JUMPI JUMPDEST PUSH0 DUP1 REVERT JUMPDEST CALLVALUE DUP1 ISZERO PUSH2 0x4D JUMPI PUSH0 DUP1 REVERT JUMPDEST POP PUSH2 0x68 PUSH1 0x4 DUP1 CALLDATASIZE SUB DUP2 ADD SWAP1 PUSH2 0x63 SWAP2 SWAP1 PUSH2 0x478 JUMP JUMPDEST PUSH2 0x101 JUMP JUMPDEST PUSH1 0x40 MLOAD PUSH2 0x78 SWAP5 SWAP4 SWAP3 SWAP2 SWAP1 PUSH2 0x561 JUMP JUMPDEST PUSH1 0x40 MLOAD DUP1 SWAP2 SUB SWAP1 RETURN JUMPDEST CALLVALUE DUP1 ISZERO PUSH2 0x8C JUMPI PUSH0 DUP1 REVERT JUMPDEST POP PUSH2 0xA7 PUSH1 0x4 DUP1 CALLDATASIZE SUB DUP2 ADD SWAP1 PUSH2 0xA2 SWAP2 SWAP1 PUSH2 0x701 JUMP JUMPDEST PUSH2 0x2B6 JUMP JUMPDEST STOP JUMPDEST PUSH2 0xC3 PUSH1 0x4 DUP1 CALLDATASIZE SUB DUP2 ADD SWAP1 PUSH2 0xBE SWAP2 SWAP1 PUSH2 0x701 JUMP JUMPDEST PUSH2 0x350 JUMP JUMPDEST STOP JUMPDEST CALLVALUE DUP1 ISZERO PUSH2 0xD0 JUMPI PUSH0 DUP1 REVERT JUMPDEST POP PUSH2 0xEB PUSH1 0x4 DUP1 CALLDATASIZE SUB DUP2 ADD SWAP1 PUSH2 0xE6 SWAP2 SWAP1 PUSH2 0x478 JUMP JUMPDEST PUSH2 0x3ED JUMP JUMPDEST PUSH1 0x40 MLOAD PUSH2 0xF8 SWAP2 SWAP1 PUSH2 0x7B6 JUMP JUMPDEST PUSH1 0x40 MLOAD DUP1 SWAP2 SUB SWAP1 RETURN JUMPDEST PUSH0 PUSH1 0x60 PUSH0 DUP1 PUSH0 DUP1 DUP7 DUP2 SLOAD DUP2 LT PUSH2 0x11A JUMPI PUSH2 0x119 PUSH2 0x7CF JUMP JUMPDEST JUMPDEST SWAP1 PUSH0 MSTORE PUSH1 0x20 PUSH0 KECCAK256 ADD PUSH0 SWAP1 SLOAD SWAP1 PUSH2 0x100 EXP SWAP1 DIV PUSH20 0xFFFFFFFFFFFFFFFFFFFFFFFFFFFFFFFFFFFFFFFF AND SWAP1 POP DUP1 PUSH20 0xFFFFFFFFFFFFFFFFFFFFFFFFFFFFFFFFFFFFFFFF AND PUSH4 0x8DA5CB5B PUSH1 0x40 MLOAD DUP2 PUSH4 0xFFFFFFFF AND PUSH1 0xE0 SHL DUP2 MSTORE PUSH1 0x4 ADD PUSH1 0x20 PUSH1 0x40 MLOAD DUP1 DUP4 SUB DUP2 DUP7 GAS STATICCALL ISZERO DUP1 ISZERO PUSH2 0x18D JUMPI RETURNDATASIZE PUSH0 DUP1 RETURNDATACOPY RETURNDATASIZE PUSH0 REVERT JUMPDEST POP POP POP POP PUSH1 0x40 MLOAD RETURNDATASIZE PUSH1 0x1F NOT PUSH1 0x1F DUP3 ADD AND DUP3 ADD DUP1 PUSH1 0x40 MSTORE POP DUP2 ADD SWAP1 PUSH2 0x1B1 SWAP2 SWAP1 PUSH2 0x810 JUMP JUMPDEST DUP2 PUSH20 0xFFFFFFFFFFFFFFFFFFFFFFFFFFFFFFFFFFFFFFFF AND PUSH4 0xAD9D052 PUSH1 0x40 MLOAD DUP2 PUSH4 0xFFFFFFFF AND PUSH1 0xE0 SHL DUP2 MSTORE PUSH1 0x4 ADD PUSH0 PUSH1 0x40 MLOAD DUP1 DUP4 SUB DUP2 DUP7 GAS STATICCALL ISZERO DUP1 ISZERO PUSH2 0x1F9 JUMPI RETURNDATASIZE PUSH0 DUP1 RETURNDATACOPY RETURNDATASIZE PUSH0 REVERT JUMPDEST POP POP POP POP PUSH1 0x40 MLOAD RETURNDATASIZE PUSH0 DUP3 RETURNDATACOPY RETURNDATASIZE PUSH1 0x1F NOT PUSH1 0x1F DUP3 ADD AND DUP3 ADD DUP1 PUSH1 0x40 MSTORE POP DUP2 ADD SWAP1 PUSH2 0x221 SWAP2 SWAP1 PUSH2 0x8A9 JUMP JUMPDEST DUP3 PUSH20 0xFFFFFFFFFFFFFFFFFFFFFFFFFFFFFFFFFFFFFFFF AND PUSH4 0x514FA676 PUSH1 0x40 MLOAD DUP2 PUSH4 0xFFFFFFFF AND PUSH1 0xE0 SHL DUP2 MSTORE PUSH1 0x4 ADD PUSH1 0x20 PUSH1 0x40 MLOAD DUP1 DUP4 SUB DUP2 DUP7 GAS STATICCALL ISZERO DUP1 ISZERO PUSH2 0x26A JUMPI RETURNDATASIZE PUSH0 DUP1 RETURNDATACOPY RETURNDATASIZE PUSH0 REVERT JUMPDEST POP POP POP POP PUSH1 0x40 MLOAD RETURNDATASIZE PUSH1 0x1F NOT PUSH1 0x1F DUP3 ADD AND DUP3 ADD DUP1 PUSH1 0x40 MSTORE POP DUP2 ADD SWAP1 PUSH2 0x28E SWAP2 SWAP1 PUSH2 0x810 JUMP JUMPDEST DUP4 PUSH20 0xFFFFFFFFFFFFFFFFFFFFFFFFFFFFFFFFFFFFFFFF AND BALANCE SWAP5 POP SWAP5 POP SWAP5 POP SWAP5 POP POP SWAP2 SWAP4 POP SWAP2 SWAP4 JUMP JUMPDEST PUSH0 DUP3 DUP3 PUSH1 0x40 MLOAD PUSH2 0x2C5 SWAP1 PUSH2 0x427 JUMP JUMPDEST PUSH2 0x2D0 SWAP3 SWAP2 SWAP1 PUSH2 0x8F0 JUMP JUMPDEST PUSH1 0x40 MLOAD DUP1 SWAP2 SUB SWAP1 PUSH0 CREATE DUP1 ISZERO DUP1 ISZERO PUSH2 0x2E9 JUMPI RETURNDATASIZE PUSH0 DUP1 RETURNDATACOPY RETURNDATASIZE PUSH0 REVERT JUMPDEST POP SWAP1 POP PUSH0 DUP2 SWAP1 DUP1 PUSH1 0x1 DUP2 SLOAD ADD DUP1 DUP3 SSTORE DUP1 SWAP2 POP POP PUSH1 0x1 SWAP1 SUB SWAP1 PUSH0 MSTORE PUSH1 0x20 PUSH0 KECCAK256 ADD PUSH0 SWAP1 SWAP2 SWAP1 SWAP2 SWAP1 SWAP2 PUSH2 0x100 EXP DUP2 SLOAD DUP2 PUSH20 0xFFFFFFFFFFFFFFFFFFFFFFFFFFFFFFFFFFFFFFFF MUL NOT AND SWAP1 DUP4 PUSH20 0xFFFFFFFFFFFFFFFFFFFFFFFFFFFFFFFFFFFFFFFF AND MUL OR SWAP1 SSTORE POP POP POP POP JUMP JUMPDEST PUSH0 CALLVALUE DUP4 DUP4 PUSH1 0x40 MLOAD PUSH2 0x360 SWAP1 PUSH2 0x427 JUMP JUMPDEST PUSH2 0x36B SWAP3 SWAP2 SWAP1 PUSH2 0x8F0 JUMP JUMPDEST PUSH1 0x40 MLOAD DUP1 SWAP2 SUB SWAP1 DUP3 CREATE SWAP1 POP DUP1 ISZERO DUP1 ISZERO PUSH2 0x386 JUMPI RETURNDATASIZE PUSH0 DUP1 RETURNDATACOPY RETURNDATASIZE PUSH0 REVERT JUMPDEST POP SWAP1 POP PUSH0 DUP2 SWAP1 DUP1 PUSH1 0x1 DUP2 SLOAD ADD DUP1 DUP3 SSTORE DUP1 SWAP2 POP POP PUSH1 0x1 SWAP1 SUB SWAP1 PUSH0 MSTORE PUSH1 0x20 PUSH0 KECCAK256 ADD PUSH0 SWAP1 SWAP2 SWAP1 SWAP2 SWAP1 SWAP2 PUSH2 0x100 EXP DUP2 SLOAD DUP2 PUSH20 0xFFFFFFFFFFFFFFFFFFFFFFFFFFFFFFFFFFFFFFFF MUL NOT AND SWAP1 DUP4 PUSH20 0xFFFFFFFFFFFFFFFFFFFFFFFFFFFFFFFFFFFFFFFF AND MUL OR SWAP1 SSTORE POP POP POP POP JUMP JUMPDEST PUSH0 DUP2 DUP2 SLOAD DUP2 LT PUSH2 0x3FB JUMPI PUSH0 DUP1 REVERT JUMPDEST SWAP1 PUSH0 MSTORE PUSH1 0x20 PUSH0 KECCAK256 ADD PUSH0 SWAP2 POP SLOAD SWAP1 PUSH2 0x100 EXP SWAP1 DIV PUSH20 0xFFFFFFFFFFFFFFFFFFFFFFFFFFFFFFFFFFFFFFFF AND DUP2 JUMP JUMPDEST PUSH2 0x891 DUP1 PUSH2 0x91F DUP4 CODECOPY ADD SWAP1 JUMP JUMPDEST PUSH0 PUSH1 0x40 MLOAD SWAP1 POP SWAP1 JUMP JUMPDEST PUSH0 DUP1 REVERT JUMPDEST PUSH0 DUP1 REVERT JUMPDEST PUSH0 DUP2 SWAP1 POP SWAP2 SWAP1 POP JUMP JUMPDEST PUSH2 0x457 DUP2 PUSH2 0x445 JUMP JUMPDEST DUP2 EQ PUSH2 0x461 JUMPI PUSH0 DUP1 REVERT JUMPDEST POP JUMP JUMPDEST PUSH0 DUP2 CALLDATALOAD SWAP1 POP PUSH2 0x472 DUP2 PUSH2 0x44E JUMP JUMPDEST SWAP3 SWAP2 POP POP JUMP JUMPDEST PUSH0 PUSH1 0x20 DUP3 DUP5 SUB SLT ISZERO PUSH2 0x48D JUMPI PUSH2 0x48C PUSH2 0x43D JUMP JUMPDEST JUMPDEST PUSH0 PUSH2 0x49A DUP5 DUP3 DUP6 ADD PUSH2 0x464 JUMP JUMPDEST SWAP2 POP POP SWAP3 SWAP2 POP POP JUMP JUMPDEST PUSH0 PUSH20 0xFFFFFFFFFFFFFFFFFFFFFFFFFFFFFFFFFFFFFFFF DUP3 AND SWAP1 POP SWAP2 SWAP1 POP JUMP JUMPDEST PUSH0 PUSH2 0x4CC DUP3 PUSH2 0x4A3 JUMP JUMPDEST SWAP1 POP SWAP2 SWAP1 POP JUMP JUMPDEST PUSH2 0x4DC DUP2 PUSH2 0x4C2 JUMP JUMPDEST DUP3 MSTORE POP POP JUMP JUMPDEST PUSH0 DUP2 MLOAD SWAP1 POP SWAP2 SWAP1 POP JUMP JUMPDEST PUSH0 DUP3 DUP3 MSTORE PUSH1 0x20 DUP3 ADD SWAP1 POP SWAP3 SWAP2 POP POP JUMP JUMPDEST DUP3 DUP2 DUP4 MCOPY PUSH0 DUP4 DUP4 ADD MSTORE POP POP POP JUMP JUMPDEST PUSH0 PUSH1 0x1F NOT PUSH1 0x1F DUP4 ADD AND SWAP1 POP SWAP2 SWAP1 POP JUMP JUMPDEST PUSH0 PUSH2 0x524 DUP3 PUSH2 0x4E2 JUMP JUMPDEST PUSH2 0x52E DUP2 DUP6 PUSH2 0x4EC JUMP JUMPDEST SWAP4 POP PUSH2 0x53E DUP2 DUP6 PUSH1 0x20 DUP7 ADD PUSH2 0x4FC JUMP JUMPDEST PUSH2 0x547 DUP2 PUSH2 0x50A JUMP JUMPDEST DUP5 ADD SWAP2 POP POP SWAP3 SWAP2 POP POP JUMP JUMPDEST PUSH2 0x55B DUP2 PUSH2 0x445 JUMP JUMPDEST DUP3 MSTORE POP POP JUMP JUMPDEST PUSH0 PUSH1 0x80 DUP3 ADD SWAP1 POP PUSH2 0x574 PUSH0 DUP4 ADD DUP8 PUSH2 0x4D3 JUMP JUMPDEST DUP2 DUP2 SUB PUSH1 0x20 DUP4 ADD MSTORE PUSH2 0x586 DUP2 DUP7 PUSH2 0x51A JUMP JUMPDEST SWAP1 POP PUSH2 0x595 PUSH1 0x40 DUP4 ADD DUP6 PUSH2 0x4D3 JUMP JUMPDEST PUSH2 0x5A2 PUSH1 0x60 DUP4 ADD DUP5 PUSH2 0x552 JUMP JUMPDEST SWAP6 SWAP5 POP POP POP POP POP JUMP JUMPDEST PUSH2 0x5B4 DUP2 PUSH2 0x4C2 JUMP JUMPDEST DUP2 EQ PUSH2 0x5BE JUMPI PUSH0 DUP1 REVERT JUMPDEST POP JUMP JUMPDEST PUSH0 DUP2 CALLDATALOAD SWAP1 POP PUSH2 0x5CF DUP2 PUSH2 0x5AB JUMP JUMPDEST SWAP3 SWAP2 POP POP JUMP JUMPDEST PUSH0 DUP1 REVERT JUMPDEST PUSH0 DUP1 REVERT JUMPDEST PUSH32 0x4E487B7100000000000000000000000000000000000000000000000000000000 PUSH0 MSTORE PUSH1 0x41 PUSH1 0x4 MSTORE PUSH1 0x24 PUSH0 REVERT JUMPDEST PUSH2 0x613 DUP3 PUSH2 0x50A JUMP JUMPDEST DUP2 ADD DUP2 DUP2 LT PUSH8 0xFFFFFFFFFFFFFFFF DUP3 GT OR ISZERO PUSH2 0x632 JUMPI PUSH2 0x631 PUSH2 0x5DD JUMP JUMPDEST JUMPDEST DUP1 PUSH1 0x40 MSTORE POP POP POP JUMP JUMPDEST PUSH0 PUSH2 0x644 PUSH2 0x434 JUMP JUMPDEST SWAP1 POP PUSH2 0x650 DUP3 DUP3 PUSH2 0x60A JUMP JUMPDEST SWAP2 SWAP1 POP JUMP JUMPDEST PUSH0 PUSH8 0xFFFFFFFFFFFFFFFF DUP3 GT ISZERO PUSH2 0x66F JUMPI PUSH2 0x66E PUSH2 0x5DD JUMP JUMPDEST JUMPDEST PUSH2 0x678 DUP3 PUSH2 0x50A JUMP JUMPDEST SWAP1 POP PUSH1 0x20 DUP2 ADD SWAP1 POP SWAP2 SWAP1 POP JUMP JUMPDEST DUP3 DUP2 DUP4 CALLDATACOPY PUSH0 DUP4 DUP4 ADD MSTORE POP POP POP JUMP JUMPDEST PUSH0 PUSH2 0x6A5 PUSH2 0x6A0 DUP5 PUSH2 0x655 JUMP JUMPDEST PUSH2 0x63B JUMP JUMPDEST SWAP1 POP DUP3 DUP2 MSTORE PUSH1 0x20 DUP2 ADD DUP5 DUP5 DUP5 ADD GT ISZERO PUSH2 0x6C1 JUMPI PUSH2 0x6C0 PUSH2 0x5D9 JUMP JUMPDEST JUMPDEST PUSH2 0x6CC DUP5 DUP3 DUP6 PUSH2 0x685 JUMP JUMPDEST POP SWAP4 SWAP3 POP POP POP JUMP JUMPDEST PUSH0 DUP3 PUSH1 0x1F DUP4 ADD SLT PUSH2 0x6E8 JUMPI PUSH2 0x6E7 PUSH2 0x5D5 JUMP JUMPDEST JUMPDEST DUP2 CALLDATALOAD PUSH2 0x6F8 DUP5 DUP3 PUSH1 0x20 DUP7 ADD PUSH2 0x693 JUMP JUMPDEST SWAP2 POP POP SWAP3 SWAP2 POP POP JUMP JUMPDEST PUSH0 DUP1 PUSH1 0x40 DUP4 DUP6 SUB SLT ISZERO PUSH2 0x717 JUMPI PUSH2 0x716 PUSH2 0x43D JUMP JUMPDEST JUMPDEST PUSH0 PUSH2 0x724 DUP6 DUP3 DUP7 ADD PUSH2 0x5C1 JUMP JUMPDEST SWAP3 POP POP PUSH1 0x20 DUP4 ADD CALLDATALOAD PUSH8 0xFFFFFFFFFFFFFFFF DUP2 GT ISZERO PUSH2 0x745 JUMPI PUSH2 0x744 PUSH2 0x441 JUMP JUMPDEST JUMPDEST PUSH2 0x751 DUP6 DUP3 DUP7 ADD PUSH2 0x6D4 JUMP JUMPDEST SWAP2 POP POP SWAP3 POP SWAP3 SWAP1 POP JUMP JUMPDEST PUSH0 DUP2 SWAP1 POP SWAP2 SWAP1 POP JUMP JUMPDEST PUSH0 PUSH2 0x77E PUSH2 0x779 PUSH2 0x774 DUP5 PUSH2 0x4A3 JUMP JUMPDEST PUSH2 0x75B JUMP JUMPDEST PUSH2 0x4A3 JUMP JUMPDEST SWAP1 POP SWAP2 SWAP1 POP JUMP JUMPDEST PUSH0 PUSH2 0x78F DUP3 PUSH2 0x764 JUMP JUMPDEST SWAP1 POP SWAP2 SWAP1 POP JUMP JUMPDEST PUSH0 PUSH2 0x7A0 DUP3 PUSH2 0x785 JUMP JUMPDEST SWAP1 POP SWAP2 SWAP1 POP JUMP JUMPDEST PUSH2 0x7B0 DUP2 PUSH2 0x796 JUMP JUMPDEST DUP3 MSTORE POP POP JUMP JUMPDEST PUSH0 PUSH1 0x20 DUP3 ADD SWAP1 POP PUSH2 0x7C9 PUSH0 DUP4 ADD DUP5 PUSH2 0x7A7 JUMP JUMPDEST SWAP3 SWAP2 POP POP JUMP JUMPDEST PUSH32 0x4E487B7100000000000000000000000000000000000000000000000000000000 PUSH0 MSTORE PUSH1 0x32 PUSH1 0x4 MSTORE PUSH1 0x24 PUSH0 REVERT JUMPDEST PUSH0 DUP2 MLOAD SWAP1 POP PUSH2 0x80A DUP2 PUSH2 0x5AB JUMP JUMPDEST SWAP3 SWAP2 POP POP JUMP JUMPDEST PUSH0 PUSH1 0x20 DUP3 DUP5 SUB SLT ISZERO PUSH2 0x825 JUMPI PUSH2 0x824 PUSH2 0x43D JUMP JUMPDEST JUMPDEST PUSH0 PUSH2 0x832 DUP5 DUP3 DUP6 ADD PUSH2 0x7FC JUMP JUMPDEST SWAP2 POP POP SWAP3 SWAP2 POP POP JUMP JUMPDEST PUSH0 PUSH2 0x84D PUSH2 0x848 DUP5 PUSH2 0x655 JUMP JUMPDEST PUSH2 0x63B JUMP JUMPDEST SWAP1 POP DUP3 DUP2 MSTORE PUSH1 0x20 DUP2 ADD DUP5 DUP5 DUP5 ADD GT ISZERO PUSH2 0x869 JUMPI PUSH2 0x868 PUSH2 0x5D9 JUMP JUMPDEST JUMPDEST PUSH2 0x874 DUP5 DUP3 DUP6 PUSH2 0x4FC JUMP JUMPDEST POP SWAP4 SWAP3 POP POP POP JUMP JUMPDEST PUSH0 DUP3 PUSH1 0x1F DUP4 ADD SLT PUSH2 0x890 JUMPI PUSH2 0x88F PUSH2 0x5D5 JUMP JUMPDEST JUMPDEST DUP2 MLOAD PUSH2 0x8A0 DUP5 DUP3 PUSH1 0x20 DUP7 ADD PUSH2 0x83B JUMP JUMPDEST SWAP2 POP POP SWAP3 SWAP2 POP POP JUMP JUMPDEST PUSH0 PUSH1 0x20 DUP3 DUP5 SUB SLT ISZERO PUSH2 0x8BE JUMPI PUSH2 0x8BD PUSH2 0x43D JUMP JUMPDEST JUMPDEST PUSH0 DUP3 ADD MLOAD PUSH8 0xFFFFFFFFFFFFFFFF DUP2 GT ISZERO PUSH2 0x8DB JUMPI PUSH2 0x8DA PUSH2 0x441 JUMP JUMPDEST JUMPDEST PUSH2 0x8E7 DUP5 DUP3 DUP6 ADD PUSH2 0x87C JUMP JUMPDEST SWAP2 POP POP SWAP3 SWAP2 POP POP JUMP JUMPDEST PUSH0 PUSH1 0x40 DUP3 ADD SWAP1 POP PUSH2 0x903 PUSH0 DUP4 ADD DUP6 PUSH2 0x4D3 JUMP JUMPDEST DUP2 DUP2 SUB PUSH1 0x20 DUP4 ADD MSTORE PUSH2 0x915 DUP2 DUP5 PUSH2 0x51A JUMP JUMPDEST SWAP1 POP SWAP4 SWAP3 POP POP POP JUMP INVALID PUSH1 0x80 PUSH1 0x40 MSTORE PUSH1 0x40 MLOAD PUSH2 0x891 CODESIZE SUB DUP1 PUSH2 0x891 DUP4 CODECOPY DUP2 DUP2 ADD PUSH1 0x40 MSTORE DUP2 ADD SWAP1 PUSH2 0x25 SWAP2 SWAP1 PUSH2 0x262 JUMP JUMPDEST DUP2 PUSH0 DUP1 PUSH2 0x100 EXP DUP2 SLOAD DUP2 PUSH20 0xFFFFFFFFFFFFFFFFFFFFFFFFFFFFFFFFFFFFFFFF MUL NOT AND SWAP1 DUP4 PUSH20 0xFFFFFFFFFFFFFFFFFFFFFFFFFFFFFFFFFFFFFFFF AND MUL OR SWAP1 SSTORE POP DUP1 PUSH1 0x1 SWAP1 DUP2 PUSH2 0x73 SWAP2 SWAP1 PUSH2 0x4C9 JUMP JUMPDEST POP ADDRESS PUSH1 0x2 PUSH0 PUSH2 0x100 EXP DUP2 SLOAD DUP2 PUSH20 0xFFFFFFFFFFFFFFFFFFFFFFFFFFFFFFFFFFFFFFFF MUL NOT AND SWAP1 DUP4 PUSH20 0xFFFFFFFFFFFFFFFFFFFFFFFFFFFFFFFFFFFFFFFF AND MUL OR SWAP1 SSTORE POP POP POP PUSH2 0x598 JUMP JUMPDEST PUSH0 PUSH1 0x40 MLOAD SWAP1 POP SWAP1 JUMP JUMPDEST PUSH0 DUP1 REVERT JUMPDEST PUSH0 DUP1 REVERT JUMPDEST PUSH0 PUSH20 0xFFFFFFFFFFFFFFFFFFFFFFFFFFFFFFFFFFFFFFFF DUP3 AND SWAP1 POP SWAP2 SWAP1 POP JUMP JUMPDEST PUSH0 PUSH2 0xF5 DUP3 PUSH2 0xCC JUMP JUMPDEST SWAP1 POP SWAP2 SWAP1 POP JUMP JUMPDEST PUSH2 0x105 DUP2 PUSH2 0xEB JUMP JUMPDEST DUP2 EQ PUSH2 0x10F JUMPI PUSH0 DUP1 REVERT JUMPDEST POP JUMP JUMPDEST PUSH0 DUP2 MLOAD SWAP1 POP PUSH2 0x120 DUP2 PUSH2 0xFC JUMP JUMPDEST SWAP3 SWAP2 POP POP JUMP JUMPDEST PUSH0 DUP1 REVERT JUMPDEST PUSH0 DUP1 REVERT JUMPDEST PUSH0 PUSH1 0x1F NOT PUSH1 0x1F DUP4 ADD AND SWAP1 POP SWAP2 SWAP1 POP JUMP JUMPDEST PUSH32 0x4E487B7100000000000000000000000000000000000000000000000000000000 PUSH0 MSTORE PUSH1 0x41 PUSH1 0x4 MSTORE PUSH1 0x24 PUSH0 REVERT JUMPDEST PUSH2 0x174 DUP3 PUSH2 0x12E JUMP JUMPDEST DUP2 ADD DUP2 DUP2 LT PUSH8 0xFFFFFFFFFFFFFFFF DUP3 GT OR ISZERO PUSH2 0x193 JUMPI PUSH2 0x192 PUSH2 0x13E JUMP JUMPDEST JUMPDEST DUP1 PUSH1 0x40 MSTORE POP POP POP JUMP JUMPDEST PUSH0 PUSH2 0x1A5 PUSH2 0xBB JUMP JUMPDEST SWAP1 POP PUSH2 0x1B1 DUP3 DUP3 PUSH2 0x16B JUMP JUMPDEST SWAP2 SWAP1 POP JUMP JUMPDEST PUSH0 PUSH8 0xFFFFFFFFFFFFFFFF DUP3 GT ISZERO PUSH2 0x1D0 JUMPI PUSH2 0x1CF PUSH2 0x13E JUMP JUMPDEST JUMPDEST PUSH2 0x1D9 DUP3 PUSH2 0x12E JUMP JUMPDEST SWAP1 POP PUSH1 0x20 DUP2 ADD SWAP1 POP SWAP2 SWAP1 POP JUMP JUMPDEST DUP3 DUP2 DUP4 MCOPY PUSH0 DUP4 DUP4 ADD MSTORE POP POP POP JUMP JUMPDEST PUSH0 PUSH2 0x206 PUSH2 0x201 DUP5 PUSH2 0x1B6 JUMP JUMPDEST PUSH2 0x19C JUMP JUMPDEST SWAP1 POP DUP3 DUP2 MSTORE PUSH1 0x20 DUP2 ADD DUP5 DUP5 DUP5 ADD GT ISZERO PUSH2 0x222 JUMPI PUSH2 0x221 PUSH2 0x12A JUMP JUMPDEST JUMPDEST PUSH2 0x22D DUP5 DUP3 DUP6 PUSH2 0x1E6 JUMP JUMPDEST POP SWAP4 SWAP3 POP POP POP JUMP JUMPDEST PUSH0 DUP3 PUSH1 0x1F DUP4 ADD SLT PUSH2 0x249 JUMPI PUSH2 0x248 PUSH2 0x126 JUMP JUMPDEST JUMPDEST DUP2 MLOAD PUSH2 0x259 DUP5 DUP3 PUSH1 0x20 DUP7 ADD PUSH2 0x1F4 JUMP JUMPDEST SWAP2 POP POP SWAP3 SWAP2 POP POP JUMP JUMPDEST PUSH0 DUP1 PUSH1 0x40 DUP4 DUP6 SUB SLT ISZERO PUSH2 0x278 JUMPI PUSH2 0x277 PUSH2 0xC4 JUMP JUMPDEST JUMPDEST PUSH0 PUSH2 0x285 DUP6 DUP3 DUP7 ADD PUSH2 0x112 JUMP JUMPDEST SWAP3 POP POP PUSH1 0x20 DUP4 ADD MLOAD PUSH8 0xFFFFFFFFFFFFFFFF DUP2 GT ISZERO PUSH2 0x2A6 JUMPI PUSH2 0x2A5 PUSH2 0xC8 JUMP JUMPDEST JUMPDEST PUSH2 0x2B2 DUP6 DUP3 DUP7 ADD PUSH2 0x235 JUMP JUMPDEST SWAP2 POP POP SWAP3 POP SWAP3 SWAP1 POP JUMP JUMPDEST PUSH0 DUP2 MLOAD SWAP1 POP SWAP2 SWAP1 POP JUMP JUMPDEST PUSH32 0x4E487B7100000000000000000000000000000000000000000000000000000000 PUSH0 MSTORE PUSH1 0x22 PUSH1 0x4 MSTORE PUSH1 0x24 PUSH0 REVERT JUMPDEST PUSH0 PUSH1 0x2 DUP3 DIV SWAP1 POP PUSH1 0x1 DUP3 AND DUP1 PUSH2 0x30A JUMPI PUSH1 0x7F DUP3 AND SWAP2 POP JUMPDEST PUSH1 0x20 DUP3 LT DUP2 SUB PUSH2 0x31D JUMPI PUSH2 0x31C PUSH2 0x2C6 JUMP JUMPDEST JUMPDEST POP SWAP2 SWAP1 POP JUMP JUMPDEST PUSH0 DUP2 SWAP1 POP DUP2 PUSH0 MSTORE PUSH1 0x20 PUSH0 KECCAK256 SWAP1 POP SWAP2 SWAP1 POP JUMP JUMPDEST PUSH0 PUSH1 0x20 PUSH1 0x1F DUP4 ADD DIV SWAP1 POP SWAP2 SWAP1 POP JUMP JUMPDEST PUSH0 DUP3 DUP3 SHL SWAP1 POP SWAP3 SWAP2 POP POP JUMP JUMPDEST PUSH0 PUSH1 0x8 DUP4 MUL PUSH2 0x37F PUSH32 0xFFFFFFFFFFFFFFFFFFFFFFFFFFFFFFFFFFFFFFFFFFFFFFFFFFFFFFFFFFFFFFFF DUP3 PUSH2 0x344 JUMP JUMPDEST PUSH2 0x389 DUP7 DUP4 PUSH2 0x344 JUMP JUMPDEST SWAP6 POP DUP1 NOT DUP5 AND SWAP4 POP DUP1 DUP7 AND DUP5 OR SWAP3 POP POP POP SWAP4 SWAP3 POP POP POP JUMP JUMPDEST PUSH0 DUP2 SWAP1 POP SWAP2 SWAP1 POP JUMP JUMPDEST PUSH0 DUP2 SWAP1 POP SWAP2 SWAP1 POP JUMP JUMPDEST PUSH0 PUSH2 0x3CD PUSH2 0x3C8 PUSH2 0x3C3 DUP5 PUSH2 0x3A1 JUMP JUMPDEST PUSH2 0x3AA JUMP JUMPDEST PUSH2 0x3A1 JUMP JUMPDEST SWAP1 POP SWAP2 SWAP1 POP JUMP JUMPDEST PUSH0 DUP2 SWAP1 POP SWAP2 SWAP1 POP JUMP JUMPDEST PUSH2 0x3E6 DUP4 PUSH2 0x3B3 JUMP JUMPDEST PUSH2 0x3FA PUSH2 0x3F2 DUP3 PUSH2 0x3D4 JUMP JUMPDEST DUP5 DUP5 SLOAD PUSH2 0x350 JUMP JUMPDEST DUP3 SSTORE POP POP POP POP JUMP JUMPDEST PUSH0 SWAP1 JUMP JUMPDEST PUSH2 0x40E PUSH2 0x402 JUMP JUMPDEST PUSH2 0x419 DUP2 DUP5 DUP5 PUSH2 0x3DD JUMP JUMPDEST POP POP POP JUMP JUMPDEST JUMPDEST DUP2 DUP2 LT ISZERO PUSH2 0x43C JUMPI PUSH2 0x431 PUSH0 DUP3 PUSH2 0x406 JUMP JUMPDEST PUSH1 0x1 DUP2 ADD SWAP1 POP PUSH2 0x41F JUMP JUMPDEST POP POP JUMP JUMPDEST PUSH1 0x1F DUP3 GT ISZERO PUSH2 0x481 JUMPI PUSH2 0x452 DUP2 PUSH2 0x323 JUMP JUMPDEST PUSH2 0x45B DUP5 PUSH2 0x335 JUMP JUMPDEST DUP2 ADD PUSH1 0x20 DUP6 LT ISZERO PUSH2 0x46A JUMPI DUP2 SWAP1 POP JUMPDEST PUSH2 0x47E PUSH2 0x476 DUP6 PUSH2 0x335 JUMP JUMPDEST DUP4 ADD DUP3 PUSH2 0x41E JUMP JUMPDEST POP POP JUMPDEST POP POP POP JUMP JUMPDEST PUSH0 DUP3 DUP3 SHR SWAP1 POP SWAP3 SWAP2 POP POP JUMP JUMPDEST PUSH0 PUSH2 0x4A1 PUSH0 NOT DUP5 PUSH1 0x8 MUL PUSH2 0x486 JUMP JUMPDEST NOT DUP1 DUP4 AND SWAP2 POP POP SWAP3 SWAP2 POP POP JUMP JUMPDEST PUSH0 PUSH2 0x4B9 DUP4 DUP4 PUSH2 0x492 JUMP JUMPDEST SWAP2 POP DUP3 PUSH1 0x2 MUL DUP3 OR SWAP1 POP SWAP3 SWAP2 POP POP JUMP JUMPDEST PUSH2 0x4D2 DUP3 PUSH2 0x2BC JUMP JUMPDEST PUSH8 0xFFFFFFFFFFFFFFFF DUP2 GT ISZERO PUSH2 0x4EB JUMPI PUSH2 0x4EA PUSH2 0x13E JUMP JUMPDEST JUMPDEST PUSH2 0x4F5 DUP3 SLOAD PUSH2 0x2F3 JUMP JUMPDEST PUSH2 0x500 DUP3 DUP3 DUP6 PUSH2 0x440 JUMP JUMPDEST PUSH0 PUSH1 0x20 SWAP1 POP PUSH1 0x1F DUP4 GT PUSH1 0x1 DUP2 EQ PUSH2 0x531 JUMPI PUSH0 DUP5 ISZERO PUSH2 0x51F JUMPI DUP3 DUP8 ADD MLOAD SWAP1 POP JUMPDEST PUSH2 0x529 DUP6 DUP3 PUSH2 0x4AE JUMP JUMPDEST DUP7 SSTORE POP PUSH2 0x590 JUMP JUMPDEST PUSH1 0x1F NOT DUP5 AND PUSH2 0x53F DUP7 PUSH2 0x323 JUMP JUMPDEST PUSH0 JUMPDEST DUP3 DUP2 LT ISZERO PUSH2 0x566 JUMPI DUP5 DUP10 ADD MLOAD DUP3 SSTORE PUSH1 0x1 DUP3 ADD SWAP2 POP PUSH1 0x20 DUP6 ADD SWAP5 POP PUSH1 0x20 DUP2 ADD SWAP1 POP PUSH2 0x541 JUMP JUMPDEST DUP7 DUP4 LT ISZERO PUSH2 0x583 JUMPI DUP5 DUP10 ADD MLOAD PUSH2 0x57F PUSH1 0x1F DUP10 AND DUP3 PUSH2 0x492 JUMP JUMPDEST DUP4 SSTORE POP JUMPDEST PUSH1 0x1 PUSH1 0x2 DUP9 MUL ADD DUP9 SSTORE POP POP POP JUMPDEST POP POP POP POP POP POP JUMP JUMPDEST PUSH2 0x2EC DUP1 PUSH2 0x5A5 PUSH0 CODECOPY PUSH0 RETURN INVALID PUSH1 0x80 PUSH1 0x40 MSTORE CALLVALUE DUP1 ISZERO PUSH2 0xF JUMPI PUSH0 DUP1 REVERT JUMPDEST POP PUSH1 0x4 CALLDATASIZE LT PUSH2 0x3F JUMPI PUSH0 CALLDATALOAD PUSH1 0xE0 SHR DUP1 PUSH4 0xAD9D052 EQ PUSH2 0x43 JUMPI DUP1 PUSH4 0x514FA676 EQ PUSH2 0x61 JUMPI DUP1 PUSH4 0x8DA5CB5B EQ PUSH2 0x7F JUMPI JUMPDEST PUSH0 DUP1 REVERT JUMPDEST PUSH2 0x4B PUSH2 0x9D JUMP JUMPDEST PUSH1 0x40 MLOAD PUSH2 0x58 SWAP2 SWAP1 PUSH2 0x1E1 JUMP JUMPDEST PUSH1 0x40 MLOAD DUP1 SWAP2 SUB SWAP1 RETURN JUMPDEST PUSH2 0x69 PUSH2 0x129 JUMP JUMPDEST PUSH1 0x40 MLOAD PUSH2 0x76 SWAP2 SWAP1 PUSH2 0x240 JUMP JUMPDEST PUSH1 0x40 MLOAD DUP1 SWAP2 SUB SWAP1 RETURN JUMPDEST PUSH2 0x87 PUSH2 0x14E JUMP JUMPDEST PUSH1 0x40 MLOAD PUSH2 0x94 SWAP2 SWAP1 PUSH2 0x240 JUMP JUMPDEST PUSH1 0x40 MLOAD DUP1 SWAP2 SUB SWAP1 RETURN JUMPDEST PUSH1 0x1 DUP1 SLOAD PUSH2 0xAA SWAP1 PUSH2 0x286 JUMP JUMPDEST DUP1 PUSH1 0x1F ADD PUSH1 0x20 DUP1 SWAP2 DIV MUL PUSH1 0x20 ADD PUSH1 0x40 MLOAD SWAP1 DUP2 ADD PUSH1 0x40 MSTORE DUP1 SWAP3 SWAP2 SWAP1 DUP2 DUP2 MSTORE PUSH1 0x20 ADD DUP3 DUP1 SLOAD PUSH2 0xD6 SWAP1 PUSH2 0x286 JUMP JUMPDEST DUP1 ISZERO PUSH2 0x121 JUMPI DUP1 PUSH1 0x1F LT PUSH2 0xF8 JUMPI PUSH2 0x100 DUP1 DUP4 SLOAD DIV MUL DUP4 MSTORE SWAP2 PUSH1 0x20 ADD SWAP2 PUSH2 0x121 JUMP JUMPDEST DUP3 ADD SWAP2 SWAP1 PUSH0 MSTORE PUSH1 0x20 PUSH0 KECCAK256 SWAP1 JUMPDEST DUP2 SLOAD DUP2 MSTORE SWAP1 PUSH1 0x1 ADD SWAP1 PUSH1 0x20 ADD DUP1 DUP4 GT PUSH2 0x104 JUMPI DUP3 SWAP1 SUB PUSH1 0x1F AND DUP3 ADD SWAP2 JUMPDEST POP POP POP POP POP DUP2 JUMP JUMPDEST PUSH1 0x2 PUSH0 SWAP1 SLOAD SWAP1 PUSH2 0x100 EXP SWAP1 DIV PUSH20 0xFFFFFFFFFFFFFFFFFFFFFFFFFFFFFFFFFFFFFFFF AND DUP2 JUMP JUMPDEST PUSH0 DUP1 SLOAD SWAP1 PUSH2 0x100 EXP SWAP1 DIV PUSH20 0xFFFFFFFFFFFFFFFFFFFFFFFFFFFFFFFFFFFFFFFF AND DUP2 JUMP JUMPDEST PUSH0 DUP2 MLOAD SWAP1 POP SWAP2 SWAP1 POP JUMP JUMPDEST PUSH0 DUP3 DUP3 MSTORE PUSH1 0x20 DUP3 ADD SWAP1 POP SWAP3 SWAP2 POP POP JUMP JUMPDEST DUP3 DUP2 DUP4 MCOPY PUSH0 DUP4 DUP4 ADD MSTORE POP POP POP JUMP JUMPDEST PUSH0 PUSH1 0x1F NOT PUSH1 0x1F DUP4 ADD AND SWAP1 POP SWAP2 SWAP1 POP JUMP JUMPDEST PUSH0 PUSH2 0x1B3 DUP3 PUSH2 0x171 JUMP JUMPDEST PUSH2 0x1BD DUP2 DUP6 PUSH2 0x17B JUMP JUMPDEST SWAP4 POP PUSH2 0x1CD DUP2 DUP6 PUSH1 0x20 DUP7 ADD PUSH2 0x18B JUMP JUMPDEST PUSH2 0x1D6 DUP2 PUSH2 0x199 JUMP JUMPDEST DUP5 ADD SWAP2 POP POP SWAP3 SWAP2 POP POP JUMP JUMPDEST PUSH0 PUSH1 0x20 DUP3 ADD SWAP1 POP DUP2 DUP2 SUB PUSH0 DUP4 ADD MSTORE PUSH2 0x1F9 DUP2 DUP5 PUSH2 0x1A9 JUMP JUMPDEST SWAP1 POP SWAP3 SWAP2 POP POP JUMP JUMPDEST PUSH0 PUSH20 0xFFFFFFFFFFFFFFFFFFFFFFFFFFFFFFFFFFFFFFFF DUP3 AND SWAP1 POP SWAP2 SWAP1 POP JUMP JUMPDEST PUSH0 PUSH2 0x22A DUP3 PUSH2 0x201 JUMP JUMPDEST SWAP1 POP SWAP2 SWAP1 POP JUMP JUMPDEST PUSH2 0x23A DUP2 PUSH2 0x220 JUMP JUMPDEST DUP3 MSTORE POP POP JUMP JUMPDEST PUSH0 PUSH1 0x20 DUP3 ADD SWAP1 POP PUSH2 0x253 PUSH0 DUP4 ADD DUP5 PUSH2 0x231 JUMP JUMPDEST SWAP3 SWAP2 POP POP JUMP JUMPDEST PUSH32 0x4E487B7100000000000000000000000000000000000000000000000000000000 PUSH0 MSTORE PUSH1 0x22 PUSH1 0x4 MSTORE PUSH1 0x24 PUSH0 REVERT JUMPDEST PUSH0 PUSH1 0x2 DUP3 DIV SWAP1 POP PUSH1 0x1 DUP3 AND DUP1 PUSH2 0x29D JUMPI PUSH1 0x7F DUP3 AND SWAP2 POP JUMPDEST PUSH1 0x20 DUP3 LT DUP2 SUB PUSH2 0x2B0 JUMPI PUSH2 0x2AF PUSH2 0x259 JUMP JUMPDEST JUMPDEST POP SWAP2 SWAP1 POP JUMP INVALID LOG2 PUSH5 0x6970667358 0x22 SLT KECCAK256 0xE4 0xC5 ADDMOD PUSH19 0x154C604FC8FDE94320FB1DD0F90EF91A7BD635 PUSH3 0x4BEBCF 0xE2 CODESIZE 0x2D DUP14 0xE6 PUSH5 0x736F6C6343 STOP ADDMOD BYTE STOP CALLER LOG2 PUSH5 0x6970667358 0x22 SLT KECCAK256 STOP BLOBHASH 0xE6 SWAP12 0xA7 SWAP10 0xAA SWAP14 PUSH25 0x51513E4245154C1D1BD45A236EB9D210460D0020C960DA6473 PUSH16 0x6C634300081A00330000000000000000 "
				},
				"gasEstimates": {
					"creation": {
						"codeDepositCost": "916200",
						"executionCost": "953",
						"totalCost": "917153"
					},
					"external": {
						"cars(uint256)": "infinite",
						"create(address,string)": "infinite",
						"createAndSendEther(address,string)": "infinite",
						"getCar(uint256)": "infinite"
					}
				},
				"methodIdentifiers": {
					"cars(uint256)": "f7746e36",
					"create(address,string)": "a15ab08d",
					"createAndSendEther(address,string)": "c33cd615",
					"getCar(uint256)": "5e8be190"
				}
			},
			"storageLayout": {
				"storage": [
					{
						"astId": 35,
						"contract": "contracts/ContractThatCreatesContract.sol:CarFactory",
						"label": "cars",
						"offset": 0,
						"slot": "0",
						"type": "t_array(t_contract(Car)31)dyn_storage"
					}
				],
				"types": {
					"t_array(t_contract(Car)31)dyn_storage": {
						"base": "t_contract(Car)31",
						"encoding": "dynamic_array",
						"label": "contract Car[]",
						"numberOfBytes": "32"
					},
					"t_contract(Car)31": {
						"encoding": "inplace",
						"label": "contract Car",
						"numberOfBytes": "20"
					}
				}
			},
			"userdoc": {
				"kind": "user",
				"methods": {},
				"version": 1
			}
		}
	}
}