{
	"contracts/Fallback_ex2.sol": {
		"TestFallbackInputOutput": {
			"abi": [
				{
					"anonymous": false,
					"inputs": [
						{
							"indexed": false,
							"internalType": "bytes",
							"name": "res",
							"type": "bytes"
						}
					],
					"name": "Log",
					"type": "event"
				},
				{
					"inputs": [],
					"name": "getTestData",
					"outputs": [
						{
							"internalType": "bytes",
							"name": "",
							"type": "bytes"
						},
						{
							"internalType": "bytes",
							"name": "",
							"type": "bytes"
						}
					],
					"stateMutability": "pure",
					"type": "function"
				},
				{
					"inputs": [
						{
							"internalType": "address",
							"name": "_fallback",
							"type": "address"
						},
						{
							"internalType": "bytes",
							"name": "data",
							"type": "bytes"
						}
					],
					"name": "test",
					"outputs": [],
					"stateMutability": "nonpayable",
					"type": "function"
				}
			],
			"devdoc": {
				"kind": "dev",
				"methods": {},
				"version": 1
			},
			"evm": {
				"assembly": "    /* \"contracts/Fallback_ex2.sol\":723:1175  contract TestFallbackInputOutput {... */\n  mstore(0x40, 0x80)\n  callvalue\n  dup1\n  iszero\n  tag_1\n  jumpi\n  0x00\n  dup1\n  revert\ntag_1:\n  pop\n  dataSize(sub_0)\n  dup1\n  dataOffset(sub_0)\n  0x00\n  codecopy\n  0x00\n  return\nstop\n\nsub_0: assembly {\n        /* \"contracts/Fallback_ex2.sol\":723:1175  contract TestFallbackInputOutput {... */\n      mstore(0x40, 0x80)\n      callvalue\n      dup1\n      iszero\n      tag_1\n      jumpi\n      0x00\n      dup1\n      revert\n    tag_1:\n      pop\n      jumpi(tag_2, lt(calldatasize, 0x04))\n      shr(0xe0, calldataload(0x00))\n      dup1\n      0x6610f5ca\n      eq\n      tag_3\n      jumpi\n      dup1\n      0x93e01418\n      eq\n      tag_4\n      jumpi\n    tag_2:\n      0x00\n      dup1\n      revert\n        /* \"contracts/Fallback_ex2.sol\":993:1172  function getTestData() external pure returns (bytes memory, bytes memory) {... */\n    tag_3:\n      tag_5\n      tag_6\n      jump\t// in\n    tag_5:\n      mload(0x40)\n      tag_7\n      swap3\n      swap2\n      swap1\n      tag_8\n      jump\t// in\n    tag_7:\n      mload(0x40)\n      dup1\n      swap2\n      sub\n      swap1\n      return\n        /* \"contracts/Fallback_ex2.sol\":792:985  function test(address _fallback, bytes calldata data) external {... */\n    tag_4:\n      tag_9\n      0x04\n      dup1\n      calldatasize\n      sub\n      dup2\n      add\n      swap1\n      tag_10\n      swap2\n      swap1\n      tag_11\n      jump\t// in\n    tag_10:\n      tag_12\n      jump\t// in\n    tag_9:\n      stop\n        /* \"contracts/Fallback_ex2.sol\":993:1172  function getTestData() external pure returns (bytes memory, bytes memory) {... */\n    tag_6:\n        /* \"contracts/Fallback_ex2.sol\":1039:1051  bytes memory */\n      0x60\n        /* \"contracts/Fallback_ex2.sol\":1053:1065  bytes memory */\n      dup1\n        /* \"contracts/Fallback_ex2.sol\":1099:1130  abi.encodeCall(Counter.get, ()) */\n      add(0x24, mload(0x40))\n      mload(0x40)\n      0x20\n      dup2\n      dup4\n      sub\n      sub\n      dup2\n      mstore\n      swap1\n      0x40\n      mstore\n      shl(0xe0, 0x6d4ce63c)\n      0x20\n      dup3\n      add\n      dup1\n      mload\n      0xffffffffffffffffffffffffffffffffffffffffffffffffffffffff\n      dup4\n      dup2\n      dup4\n      and\n      or\n      dup4\n      mstore\n      pop\n      pop\n      pop\n      pop\n        /* \"contracts/Fallback_ex2.sol\":1132:1163  abi.encodeCall(Counter.inc, ()) */\n      add(0x24, mload(0x40))\n      mload(0x40)\n      0x20\n      dup2\n      dup4\n      sub\n      sub\n      dup2\n      mstore\n      swap1\n      0x40\n      mstore\n      shl(0xe0, 0x371303c0)\n      0x20\n      dup3\n      add\n      dup1\n      mload\n      0xffffffffffffffffffffffffffffffffffffffffffffffffffffffff\n      dup4\n      dup2\n      dup4\n      and\n      or\n      dup4\n      mstore\n      pop\n      pop\n      pop\n      pop\n        /* \"contracts/Fallback_ex2.sol\":1078:1164  return... */\n      swap2\n      pop\n      swap2\n      pop\n        /* \"contracts/Fallback_ex2.sol\":993:1172  function getTestData() external pure returns (bytes memory, bytes memory) {... */\n      swap1\n      swap2\n      jump\t// out\n        /* \"contracts/Fallback_ex2.sol\":792:985  function test(address _fallback, bytes calldata data) external {... */\n    tag_12:\n        /* \"contracts/Fallback_ex2.sol\":867:874  bool ok */\n      0x00\n        /* \"contracts/Fallback_ex2.sol\":876:892  bytes memory res */\n      dup1\n        /* \"contracts/Fallback_ex2.sol\":896:905  _fallback */\n      dup5\n        /* \"contracts/Fallback_ex2.sol\":896:910  _fallback.call */\n      0xffffffffffffffffffffffffffffffffffffffff\n      and\n        /* \"contracts/Fallback_ex2.sol\":911:915  data */\n      dup5\n      dup5\n        /* \"contracts/Fallback_ex2.sol\":896:916  _fallback.call(data) */\n      mload(0x40)\n      tag_15\n      swap3\n      swap2\n      swap1\n      tag_16\n      jump\t// in\n    tag_15:\n      0x00\n      mload(0x40)\n      dup1\n      dup4\n      sub\n      dup2\n      0x00\n      dup7\n      gas\n      call\n      swap2\n      pop\n      pop\n      returndatasize\n      dup1\n      0x00\n      dup2\n      eq\n      tag_19\n      jumpi\n      mload(0x40)\n      swap2\n      pop\n      and(add(returndatasize, 0x3f), not(0x1f))\n      dup3\n      add\n      0x40\n      mstore\n      returndatasize\n      dup3\n      mstore\n      returndatasize\n      0x00\n      0x20\n      dup5\n      add\n      returndatacopy\n      jump(tag_18)\n    tag_19:\n      0x60\n      swap2\n      pop\n    tag_18:\n      pop\n        /* \"contracts/Fallback_ex2.sol\":866:916  (bool ok, bytes memory res) = _fallback.call(data) */\n      swap2\n      pop\n      swap2\n      pop\n        /* \"contracts/Fallback_ex2.sol\":935:937  ok */\n      dup2\n        /* \"contracts/Fallback_ex2.sol\":927:953  require(ok, \"call failed\") */\n      tag_20\n      jumpi\n      mload(0x40)\n      0x08c379a000000000000000000000000000000000000000000000000000000000\n      dup2\n      mstore\n      0x04\n      add\n      tag_21\n      swap1\n      tag_22\n      jump\t// in\n    tag_21:\n      mload(0x40)\n      dup1\n      swap2\n      sub\n      swap1\n      revert\n    tag_20:\n        /* \"contracts/Fallback_ex2.sol\":969:977  Log(res) */\n      0xafabcf2dd47e06a477a89e49c03f8ebe8e0a7e94f775b25bbb24227c9d0110b2\n        /* \"contracts/Fallback_ex2.sol\":973:976  res */\n      dup2\n        /* \"contracts/Fallback_ex2.sol\":969:977  Log(res) */\n      mload(0x40)\n      tag_23\n      swap2\n      swap1\n      tag_24\n      jump\t// in\n    tag_23:\n      mload(0x40)\n      dup1\n      swap2\n      sub\n      swap1\n      log1\n        /* \"contracts/Fallback_ex2.sol\":855:985  {... */\n      pop\n      pop\n        /* \"contracts/Fallback_ex2.sol\":792:985  function test(address _fallback, bytes calldata data) external {... */\n      pop\n      pop\n      pop\n      jump\t// out\n        /* \"#utility.yul\":7:105   */\n    tag_25:\n        /* \"#utility.yul\":58:64   */\n      0x00\n        /* \"#utility.yul\":92:97   */\n      dup2\n        /* \"#utility.yul\":86:98   */\n      mload\n        /* \"#utility.yul\":76:98   */\n      swap1\n      pop\n        /* \"#utility.yul\":7:105   */\n      swap2\n      swap1\n      pop\n      jump\t// out\n        /* \"#utility.yul\":111:279   */\n    tag_26:\n        /* \"#utility.yul\":194:205   */\n      0x00\n        /* \"#utility.yul\":228:234   */\n      dup3\n        /* \"#utility.yul\":223:226   */\n      dup3\n        /* \"#utility.yul\":216:235   */\n      mstore\n        /* \"#utility.yul\":268:272   */\n      0x20\n        /* \"#utility.yul\":263:266   */\n      dup3\n        /* \"#utility.yul\":259:273   */\n      add\n        /* \"#utility.yul\":244:273   */\n      swap1\n      pop\n        /* \"#utility.yul\":111:279   */\n      swap3\n      swap2\n      pop\n      pop\n      jump\t// out\n        /* \"#utility.yul\":285:424   */\n    tag_27:\n        /* \"#utility.yul\":374:380   */\n      dup3\n        /* \"#utility.yul\":369:372   */\n      dup2\n        /* \"#utility.yul\":364:367   */\n      dup4\n        /* \"#utility.yul\":358:381   */\n      mcopy\n        /* \"#utility.yul\":415:416   */\n      0x00\n        /* \"#utility.yul\":406:412   */\n      dup4\n        /* \"#utility.yul\":401:404   */\n      dup4\n        /* \"#utility.yul\":397:413   */\n      add\n        /* \"#utility.yul\":390:417   */\n      mstore\n        /* \"#utility.yul\":285:424   */\n      pop\n      pop\n      pop\n      jump\t// out\n        /* \"#utility.yul\":430:532   */\n    tag_28:\n        /* \"#utility.yul\":471:477   */\n      0x00\n        /* \"#utility.yul\":522:524   */\n      0x1f\n        /* \"#utility.yul\":518:525   */\n      not\n        /* \"#utility.yul\":513:515   */\n      0x1f\n        /* \"#utility.yul\":506:511   */\n      dup4\n        /* \"#utility.yul\":502:516   */\n      add\n        /* \"#utility.yul\":498:526   */\n      and\n        /* \"#utility.yul\":488:526   */\n      swap1\n      pop\n        /* \"#utility.yul\":430:532   */\n      swap2\n      swap1\n      pop\n      jump\t// out\n        /* \"#utility.yul\":538:911   */\n    tag_29:\n        /* \"#utility.yul\":624:627   */\n      0x00\n        /* \"#utility.yul\":652:690   */\n      tag_53\n        /* \"#utility.yul\":684:689   */\n      dup3\n        /* \"#utility.yul\":652:690   */\n      tag_25\n      jump\t// in\n    tag_53:\n        /* \"#utility.yul\":706:776   */\n      tag_54\n        /* \"#utility.yul\":769:775   */\n      dup2\n        /* \"#utility.yul\":764:767   */\n      dup6\n        /* \"#utility.yul\":706:776   */\n      tag_26\n      jump\t// in\n    tag_54:\n        /* \"#utility.yul\":699:776   */\n      swap4\n      pop\n        /* \"#utility.yul\":785:850   */\n      tag_55\n        /* \"#utility.yul\":843:849   */\n      dup2\n        /* \"#utility.yul\":838:841   */\n      dup6\n        /* \"#utility.yul\":831:835   */\n      0x20\n        /* \"#utility.yul\":824:829   */\n      dup7\n        /* \"#utility.yul\":820:836   */\n      add\n        /* \"#utility.yul\":785:850   */\n      tag_27\n      jump\t// in\n    tag_55:\n        /* \"#utility.yul\":875:904   */\n      tag_56\n        /* \"#utility.yul\":897:903   */\n      dup2\n        /* \"#utility.yul\":875:904   */\n      tag_28\n      jump\t// in\n    tag_56:\n        /* \"#utility.yul\":870:873   */\n      dup5\n        /* \"#utility.yul\":866:905   */\n      add\n        /* \"#utility.yul\":859:905   */\n      swap2\n      pop\n        /* \"#utility.yul\":628:911   */\n      pop\n        /* \"#utility.yul\":538:911   */\n      swap3\n      swap2\n      pop\n      pop\n      jump\t// out\n        /* \"#utility.yul\":917:1423   */\n    tag_8:\n        /* \"#utility.yul\":1074:1078   */\n      0x00\n        /* \"#utility.yul\":1112:1114   */\n      0x40\n        /* \"#utility.yul\":1101:1110   */\n      dup3\n        /* \"#utility.yul\":1097:1115   */\n      add\n        /* \"#utility.yul\":1089:1115   */\n      swap1\n      pop\n        /* \"#utility.yul\":1161:1170   */\n      dup2\n        /* \"#utility.yul\":1155:1159   */\n      dup2\n        /* \"#utility.yul\":1151:1171   */\n      sub\n        /* \"#utility.yul\":1147:1148   */\n      0x00\n        /* \"#utility.yul\":1136:1145   */\n      dup4\n        /* \"#utility.yul\":1132:1149   */\n      add\n        /* \"#utility.yul\":1125:1172   */\n      mstore\n        /* \"#utility.yul\":1189:1265   */\n      tag_58\n        /* \"#utility.yul\":1260:1264   */\n      dup2\n        /* \"#utility.yul\":1251:1257   */\n      dup6\n        /* \"#utility.yul\":1189:1265   */\n      tag_29\n      jump\t// in\n    tag_58:\n        /* \"#utility.yul\":1181:1265   */\n      swap1\n      pop\n        /* \"#utility.yul\":1312:1321   */\n      dup2\n        /* \"#utility.yul\":1306:1310   */\n      dup2\n        /* \"#utility.yul\":1302:1322   */\n      sub\n        /* \"#utility.yul\":1297:1299   */\n      0x20\n        /* \"#utility.yul\":1286:1295   */\n      dup4\n        /* \"#utility.yul\":1282:1300   */\n      add\n        /* \"#utility.yul\":1275:1323   */\n      mstore\n        /* \"#utility.yul\":1340:1416   */\n      tag_59\n        /* \"#utility.yul\":1411:1415   */\n      dup2\n        /* \"#utility.yul\":1402:1408   */\n      dup5\n        /* \"#utility.yul\":1340:1416   */\n      tag_29\n      jump\t// in\n    tag_59:\n        /* \"#utility.yul\":1332:1416   */\n      swap1\n      pop\n        /* \"#utility.yul\":917:1423   */\n      swap4\n      swap3\n      pop\n      pop\n      pop\n      jump\t// out\n        /* \"#utility.yul\":1510:1627   */\n    tag_31:\n        /* \"#utility.yul\":1619:1620   */\n      0x00\n        /* \"#utility.yul\":1616:1617   */\n      dup1\n        /* \"#utility.yul\":1609:1621   */\n      revert\n        /* \"#utility.yul\":1633:1750   */\n    tag_32:\n        /* \"#utility.yul\":1742:1743   */\n      0x00\n        /* \"#utility.yul\":1739:1740   */\n      dup1\n        /* \"#utility.yul\":1732:1744   */\n      revert\n        /* \"#utility.yul\":1756:1882   */\n    tag_33:\n        /* \"#utility.yul\":1793:1800   */\n      0x00\n        /* \"#utility.yul\":1833:1875   */\n      0xffffffffffffffffffffffffffffffffffffffff\n        /* \"#utility.yul\":1826:1831   */\n      dup3\n        /* \"#utility.yul\":1822:1876   */\n      and\n        /* \"#utility.yul\":1811:1876   */\n      swap1\n      pop\n        /* \"#utility.yul\":1756:1882   */\n      swap2\n      swap1\n      pop\n      jump\t// out\n        /* \"#utility.yul\":1888:1984   */\n    tag_34:\n        /* \"#utility.yul\":1925:1932   */\n      0x00\n        /* \"#utility.yul\":1954:1978   */\n      tag_65\n        /* \"#utility.yul\":1972:1977   */\n      dup3\n        /* \"#utility.yul\":1954:1978   */\n      tag_33\n      jump\t// in\n    tag_65:\n        /* \"#utility.yul\":1943:1978   */\n      swap1\n      pop\n        /* \"#utility.yul\":1888:1984   */\n      swap2\n      swap1\n      pop\n      jump\t// out\n        /* \"#utility.yul\":1990:2112   */\n    tag_35:\n        /* \"#utility.yul\":2063:2087   */\n      tag_67\n        /* \"#utility.yul\":2081:2086   */\n      dup2\n        /* \"#utility.yul\":2063:2087   */\n      tag_34\n      jump\t// in\n    tag_67:\n        /* \"#utility.yul\":2056:2061   */\n      dup2\n        /* \"#utility.yul\":2053:2088   */\n      eq\n        /* \"#utility.yul\":2043:2106   */\n      tag_68\n      jumpi\n        /* \"#utility.yul\":2102:2103   */\n      0x00\n        /* \"#utility.yul\":2099:2100   */\n      dup1\n        /* \"#utility.yul\":2092:2104   */\n      revert\n        /* \"#utility.yul\":2043:2106   */\n    tag_68:\n        /* \"#utility.yul\":1990:2112   */\n      pop\n      jump\t// out\n        /* \"#utility.yul\":2118:2257   */\n    tag_36:\n        /* \"#utility.yul\":2164:2169   */\n      0x00\n        /* \"#utility.yul\":2202:2208   */\n      dup2\n        /* \"#utility.yul\":2189:2209   */\n      calldataload\n        /* \"#utility.yul\":2180:2209   */\n      swap1\n      pop\n        /* \"#utility.yul\":2218:2251   */\n      tag_70\n        /* \"#utility.yul\":2245:2250   */\n      dup2\n        /* \"#utility.yul\":2218:2251   */\n      tag_35\n      jump\t// in\n    tag_70:\n        /* \"#utility.yul\":2118:2257   */\n      swap3\n      swap2\n      pop\n      pop\n      jump\t// out\n        /* \"#utility.yul\":2263:2380   */\n    tag_37:\n        /* \"#utility.yul\":2372:2373   */\n      0x00\n        /* \"#utility.yul\":2369:2370   */\n      dup1\n        /* \"#utility.yul\":2362:2374   */\n      revert\n        /* \"#utility.yul\":2386:2503   */\n    tag_38:\n        /* \"#utility.yul\":2495:2496   */\n      0x00\n        /* \"#utility.yul\":2492:2493   */\n      dup1\n        /* \"#utility.yul\":2485:2497   */\n      revert\n        /* \"#utility.yul\":2509:2626   */\n    tag_39:\n        /* \"#utility.yul\":2618:2619   */\n      0x00\n        /* \"#utility.yul\":2615:2616   */\n      dup1\n        /* \"#utility.yul\":2608:2620   */\n      revert\n        /* \"#utility.yul\":2645:3197   */\n    tag_40:\n        /* \"#utility.yul\":2702:2710   */\n      0x00\n        /* \"#utility.yul\":2712:2718   */\n      dup1\n        /* \"#utility.yul\":2762:2765   */\n      dup4\n        /* \"#utility.yul\":2755:2759   */\n      0x1f\n        /* \"#utility.yul\":2747:2753   */\n      dup5\n        /* \"#utility.yul\":2743:2760   */\n      add\n        /* \"#utility.yul\":2739:2766   */\n      slt\n        /* \"#utility.yul\":2729:2851   */\n      tag_75\n      jumpi\n        /* \"#utility.yul\":2770:2849   */\n      tag_76\n      tag_37\n      jump\t// in\n    tag_76:\n        /* \"#utility.yul\":2729:2851   */\n    tag_75:\n        /* \"#utility.yul\":2883:2889   */\n      dup3\n        /* \"#utility.yul\":2870:2890   */\n      calldataload\n        /* \"#utility.yul\":2860:2890   */\n      swap1\n      pop\n        /* \"#utility.yul\":2913:2931   */\n      0xffffffffffffffff\n        /* \"#utility.yul\":2905:2911   */\n      dup2\n        /* \"#utility.yul\":2902:2932   */\n      gt\n        /* \"#utility.yul\":2899:3016   */\n      iszero\n      tag_77\n      jumpi\n        /* \"#utility.yul\":2935:3014   */\n      tag_78\n      tag_38\n      jump\t// in\n    tag_78:\n        /* \"#utility.yul\":2899:3016   */\n    tag_77:\n        /* \"#utility.yul\":3049:3053   */\n      0x20\n        /* \"#utility.yul\":3041:3047   */\n      dup4\n        /* \"#utility.yul\":3037:3054   */\n      add\n        /* \"#utility.yul\":3025:3054   */\n      swap2\n      pop\n        /* \"#utility.yul\":3103:3106   */\n      dup4\n        /* \"#utility.yul\":3095:3099   */\n      0x01\n        /* \"#utility.yul\":3087:3093   */\n      dup3\n        /* \"#utility.yul\":3083:3100   */\n      mul\n        /* \"#utility.yul\":3073:3081   */\n      dup4\n        /* \"#utility.yul\":3069:3101   */\n      add\n        /* \"#utility.yul\":3066:3107   */\n      gt\n        /* \"#utility.yul\":3063:3191   */\n      iszero\n      tag_79\n      jumpi\n        /* \"#utility.yul\":3110:3189   */\n      tag_80\n      tag_39\n      jump\t// in\n    tag_80:\n        /* \"#utility.yul\":3063:3191   */\n    tag_79:\n        /* \"#utility.yul\":2645:3197   */\n      swap3\n      pop\n      swap3\n      swap1\n      pop\n      jump\t// out\n        /* \"#utility.yul\":3203:3875   */\n    tag_11:\n        /* \"#utility.yul\":3282:3288   */\n      0x00\n        /* \"#utility.yul\":3290:3296   */\n      dup1\n        /* \"#utility.yul\":3298:3304   */\n      0x00\n        /* \"#utility.yul\":3347:3349   */\n      0x40\n        /* \"#utility.yul\":3335:3344   */\n      dup5\n        /* \"#utility.yul\":3326:3333   */\n      dup7\n        /* \"#utility.yul\":3322:3345   */\n      sub\n        /* \"#utility.yul\":3318:3350   */\n      slt\n        /* \"#utility.yul\":3315:3434   */\n      iszero\n      tag_82\n      jumpi\n        /* \"#utility.yul\":3353:3432   */\n      tag_83\n      tag_31\n      jump\t// in\n    tag_83:\n        /* \"#utility.yul\":3315:3434   */\n    tag_82:\n        /* \"#utility.yul\":3473:3474   */\n      0x00\n        /* \"#utility.yul\":3498:3551   */\n      tag_84\n        /* \"#utility.yul\":3543:3550   */\n      dup7\n        /* \"#utility.yul\":3534:3540   */\n      dup3\n        /* \"#utility.yul\":3523:3532   */\n      dup8\n        /* \"#utility.yul\":3519:3541   */\n      add\n        /* \"#utility.yul\":3498:3551   */\n      tag_36\n      jump\t// in\n    tag_84:\n        /* \"#utility.yul\":3488:3551   */\n      swap4\n      pop\n        /* \"#utility.yul\":3444:3561   */\n      pop\n        /* \"#utility.yul\":3628:3630   */\n      0x20\n        /* \"#utility.yul\":3617:3626   */\n      dup5\n        /* \"#utility.yul\":3613:3631   */\n      add\n        /* \"#utility.yul\":3600:3632   */\n      calldataload\n        /* \"#utility.yul\":3659:3677   */\n      0xffffffffffffffff\n        /* \"#utility.yul\":3651:3657   */\n      dup2\n        /* \"#utility.yul\":3648:3678   */\n      gt\n        /* \"#utility.yul\":3645:3762   */\n      iszero\n      tag_85\n      jumpi\n        /* \"#utility.yul\":3681:3760   */\n      tag_86\n      tag_32\n      jump\t// in\n    tag_86:\n        /* \"#utility.yul\":3645:3762   */\n    tag_85:\n        /* \"#utility.yul\":3794:3858   */\n      tag_87\n        /* \"#utility.yul\":3850:3857   */\n      dup7\n        /* \"#utility.yul\":3841:3847   */\n      dup3\n        /* \"#utility.yul\":3830:3839   */\n      dup8\n        /* \"#utility.yul\":3826:3848   */\n      add\n        /* \"#utility.yul\":3794:3858   */\n      tag_40\n      jump\t// in\n    tag_87:\n        /* \"#utility.yul\":3776:3858   */\n      swap3\n      pop\n      swap3\n      pop\n        /* \"#utility.yul\":3571:3868   */\n      pop\n        /* \"#utility.yul\":3203:3875   */\n      swap3\n      pop\n      swap3\n      pop\n      swap3\n      jump\t// out\n        /* \"#utility.yul\":3881:4028   */\n    tag_41:\n        /* \"#utility.yul\":3982:3993   */\n      0x00\n        /* \"#utility.yul\":4019:4022   */\n      dup2\n        /* \"#utility.yul\":4004:4022   */\n      swap1\n      pop\n        /* \"#utility.yul\":3881:4028   */\n      swap3\n      swap2\n      pop\n      pop\n      jump\t// out\n        /* \"#utility.yul\":4034:4182   */\n    tag_42:\n        /* \"#utility.yul\":4132:4138   */\n      dup3\n        /* \"#utility.yul\":4127:4130   */\n      dup2\n        /* \"#utility.yul\":4122:4125   */\n      dup4\n        /* \"#utility.yul\":4109:4139   */\n      calldatacopy\n        /* \"#utility.yul\":4173:4174   */\n      0x00\n        /* \"#utility.yul\":4164:4170   */\n      dup4\n        /* \"#utility.yul\":4159:4162   */\n      dup4\n        /* \"#utility.yul\":4155:4171   */\n      add\n        /* \"#utility.yul\":4148:4175   */\n      mstore\n        /* \"#utility.yul\":4034:4182   */\n      pop\n      pop\n      pop\n      jump\t// out\n        /* \"#utility.yul\":4210:4537   */\n    tag_43:\n        /* \"#utility.yul\":4324:4327   */\n      0x00\n        /* \"#utility.yul\":4345:4433   */\n      tag_91\n        /* \"#utility.yul\":4426:4432   */\n      dup4\n        /* \"#utility.yul\":4421:4424   */\n      dup6\n        /* \"#utility.yul\":4345:4433   */\n      tag_41\n      jump\t// in\n    tag_91:\n        /* \"#utility.yul\":4338:4433   */\n      swap4\n      pop\n        /* \"#utility.yul\":4443:4499   */\n      tag_92\n        /* \"#utility.yul\":4492:4498   */\n      dup4\n        /* \"#utility.yul\":4487:4490   */\n      dup6\n        /* \"#utility.yul\":4480:4485   */\n      dup5\n        /* \"#utility.yul\":4443:4499   */\n      tag_42\n      jump\t// in\n    tag_92:\n        /* \"#utility.yul\":4524:4530   */\n      dup3\n        /* \"#utility.yul\":4519:4522   */\n      dup5\n        /* \"#utility.yul\":4515:4531   */\n      add\n        /* \"#utility.yul\":4508:4531   */\n      swap1\n      pop\n        /* \"#utility.yul\":4210:4537   */\n      swap4\n      swap3\n      pop\n      pop\n      pop\n      jump\t// out\n        /* \"#utility.yul\":4543:4834   */\n    tag_16:\n        /* \"#utility.yul\":4683:4686   */\n      0x00\n        /* \"#utility.yul\":4705:4808   */\n      tag_94\n        /* \"#utility.yul\":4804:4807   */\n      dup3\n        /* \"#utility.yul\":4795:4801   */\n      dup5\n        /* \"#utility.yul\":4787:4793   */\n      dup7\n        /* \"#utility.yul\":4705:4808   */\n      tag_43\n      jump\t// in\n    tag_94:\n        /* \"#utility.yul\":4698:4808   */\n      swap2\n      pop\n        /* \"#utility.yul\":4825:4828   */\n      dup2\n        /* \"#utility.yul\":4818:4828   */\n      swap1\n      pop\n        /* \"#utility.yul\":4543:4834   */\n      swap4\n      swap3\n      pop\n      pop\n      pop\n      jump\t// out\n        /* \"#utility.yul\":4840:5009   */\n    tag_44:\n        /* \"#utility.yul\":4924:4935   */\n      0x00\n        /* \"#utility.yul\":4958:4964   */\n      dup3\n        /* \"#utility.yul\":4953:4956   */\n      dup3\n        /* \"#utility.yul\":4946:4965   */\n      mstore\n        /* \"#utility.yul\":4998:5002   */\n      0x20\n        /* \"#utility.yul\":4993:4996   */\n      dup3\n        /* \"#utility.yul\":4989:5003   */\n      add\n        /* \"#utility.yul\":4974:5003   */\n      swap1\n      pop\n        /* \"#utility.yul\":4840:5009   */\n      swap3\n      swap2\n      pop\n      pop\n      jump\t// out\n        /* \"#utility.yul\":5015:5176   */\n    tag_45:\n        /* \"#utility.yul\":5155:5168   */\n      0x63616c6c206661696c6564000000000000000000000000000000000000000000\n        /* \"#utility.yul\":5151:5152   */\n      0x00\n        /* \"#utility.yul\":5143:5149   */\n      dup3\n        /* \"#utility.yul\":5139:5153   */\n      add\n        /* \"#utility.yul\":5132:5169   */\n      mstore\n        /* \"#utility.yul\":5015:5176   */\n      pop\n      jump\t// out\n        /* \"#utility.yul\":5182:5548   */\n    tag_46:\n        /* \"#utility.yul\":5324:5327   */\n      0x00\n        /* \"#utility.yul\":5345:5412   */\n      tag_98\n        /* \"#utility.yul\":5409:5411   */\n      0x0b\n        /* \"#utility.yul\":5404:5407   */\n      dup4\n        /* \"#utility.yul\":5345:5412   */\n      tag_44\n      jump\t// in\n    tag_98:\n        /* \"#utility.yul\":5338:5412   */\n      swap2\n      pop\n        /* \"#utility.yul\":5421:5514   */\n      tag_99\n        /* \"#utility.yul\":5510:5513   */\n      dup3\n        /* \"#utility.yul\":5421:5514   */\n      tag_45\n      jump\t// in\n    tag_99:\n        /* \"#utility.yul\":5539:5541   */\n      0x20\n        /* \"#utility.yul\":5534:5537   */\n      dup3\n        /* \"#utility.yul\":5530:5542   */\n      add\n        /* \"#utility.yul\":5523:5542   */\n      swap1\n      pop\n        /* \"#utility.yul\":5182:5548   */\n      swap2\n      swap1\n      pop\n      jump\t// out\n        /* \"#utility.yul\":5554:5973   */\n    tag_22:\n        /* \"#utility.yul\":5720:5724   */\n      0x00\n        /* \"#utility.yul\":5758:5760   */\n      0x20\n        /* \"#utility.yul\":5747:5756   */\n      dup3\n        /* \"#utility.yul\":5743:5761   */\n      add\n        /* \"#utility.yul\":5735:5761   */\n      swap1\n      pop\n        /* \"#utility.yul\":5807:5816   */\n      dup2\n        /* \"#utility.yul\":5801:5805   */\n      dup2\n        /* \"#utility.yul\":5797:5817   */\n      sub\n        /* \"#utility.yul\":5793:5794   */\n      0x00\n        /* \"#utility.yul\":5782:5791   */\n      dup4\n        /* \"#utility.yul\":5778:5795   */\n      add\n        /* \"#utility.yul\":5771:5818   */\n      mstore\n        /* \"#utility.yul\":5835:5966   */\n      tag_101\n        /* \"#utility.yul\":5961:5965   */\n      dup2\n        /* \"#utility.yul\":5835:5966   */\n      tag_46\n      jump\t// in\n    tag_101:\n        /* \"#utility.yul\":5827:5966   */\n      swap1\n      pop\n        /* \"#utility.yul\":5554:5973   */\n      swap2\n      swap1\n      pop\n      jump\t// out\n        /* \"#utility.yul\":5979:6288   */\n    tag_24:\n        /* \"#utility.yul\":6090:6094   */\n      0x00\n        /* \"#utility.yul\":6128:6130   */\n      0x20\n        /* \"#utility.yul\":6117:6126   */\n      dup3\n        /* \"#utility.yul\":6113:6131   */\n      add\n        /* \"#utility.yul\":6105:6131   */\n      swap1\n      pop\n        /* \"#utility.yul\":6177:6186   */\n      dup2\n        /* \"#utility.yul\":6171:6175   */\n      dup2\n        /* \"#utility.yul\":6167:6187   */\n      sub\n        /* \"#utility.yul\":6163:6164   */\n      0x00\n        /* \"#utility.yul\":6152:6161   */\n      dup4\n        /* \"#utility.yul\":6148:6165   */\n      add\n        /* \"#utility.yul\":6141:6188   */\n      mstore\n        /* \"#utility.yul\":6205:6281   */\n      tag_103\n        /* \"#utility.yul\":6276:6280   */\n      dup2\n        /* \"#utility.yul\":6267:6273   */\n      dup5\n        /* \"#utility.yul\":6205:6281   */\n      tag_29\n      jump\t// in\n    tag_103:\n        /* \"#utility.yul\":6197:6281   */\n      swap1\n      pop\n        /* \"#utility.yul\":5979:6288   */\n      swap3\n      swap2\n      pop\n      pop\n      jump\t// out\n\n    auxdata: 0xa2646970667358221220be3f095ab4887836989d9667f815d5ceddd8d1923c6cdd38549ac04681ab88c864736f6c634300081a0033\n}\n",
				"bytecode": {
					"linkReferences": {},
					"object": "6080604052348015600e575f80fd5b506104e58061001c5f395ff3fe608060405234801561000f575f80fd5b5060043610610034575f3560e01c80636610f5ca1461003857806393e0141814610057575b5f80fd5b610040610073565b60405161004e92919061026e565b60405180910390f35b610071600480360381019061006c9190610366565b610114565b005b606080604051602401604051602081830303815290604052636d4ce63c60e01b6020820180517bffffffffffffffffffffffffffffffffffffffffffffffffffffffff838183161783525050505060405160240160405160208183030381529060405263371303c060e01b6020820180517bffffffffffffffffffffffffffffffffffffffffffffffffffffffff8381831617835250505050915091509091565b5f808473ffffffffffffffffffffffffffffffffffffffff16848460405161013d9291906103ff565b5f604051808303815f865af19150503d805f8114610176576040519150601f19603f3d011682016040523d82523d5f602084013e61017b565b606091505b5091509150816101c0576040517f08c379a00000000000000000000000000000000000000000000000000000000081526004016101b790610471565b60405180910390fd5b7fafabcf2dd47e06a477a89e49c03f8ebe8e0a7e94f775b25bbb24227c9d0110b2816040516101ef919061048f565b60405180910390a15050505050565b5f81519050919050565b5f82825260208201905092915050565b8281835e5f83830152505050565b5f601f19601f8301169050919050565b5f610240826101fe565b61024a8185610208565b935061025a818560208601610218565b61026381610226565b840191505092915050565b5f6040820190508181035f8301526102868185610236565b9050818103602083015261029a8184610236565b90509392505050565b5f80fd5b5f80fd5b5f73ffffffffffffffffffffffffffffffffffffffff82169050919050565b5f6102d4826102ab565b9050919050565b6102e4816102ca565b81146102ee575f80fd5b50565b5f813590506102ff816102db565b92915050565b5f80fd5b5f80fd5b5f80fd5b5f8083601f84011261032657610325610305565b5b8235905067ffffffffffffffff81111561034357610342610309565b5b60208301915083600182028301111561035f5761035e61030d565b5b9250929050565b5f805f6040848603121561037d5761037c6102a3565b5b5f61038a868287016102f1565b935050602084013567ffffffffffffffff8111156103ab576103aa6102a7565b5b6103b786828701610311565b92509250509250925092565b5f81905092915050565b828183375f83830152505050565b5f6103e683856103c3565b93506103f38385846103cd565b82840190509392505050565b5f61040b8284866103db565b91508190509392505050565b5f82825260208201905092915050565b7f63616c6c206661696c65640000000000000000000000000000000000000000005f82015250565b5f61045b600b83610417565b915061046682610427565b602082019050919050565b5f6020820190508181035f8301526104888161044f565b9050919050565b5f6020820190508181035f8301526104a78184610236565b90509291505056fea2646970667358221220be3f095ab4887836989d9667f815d5ceddd8d1923c6cdd38549ac04681ab88c864736f6c634300081a0033",
					"opcodes": "PUSH1 0x80 PUSH1 0x40 MSTORE CALLVALUE DUP1 ISZERO PUSH1 0xE JUMPI PUSH0 DUP1 REVERT JUMPDEST POP PUSH2 0x4E5 DUP1 PUSH2 0x1C PUSH0 CODECOPY PUSH0 RETURN INVALID PUSH1 0x80 PUSH1 0x40 MSTORE CALLVALUE DUP1 ISZERO PUSH2 0xF JUMPI PUSH0 DUP1 REVERT JUMPDEST POP PUSH1 0x4 CALLDATASIZE LT PUSH2 0x34 JUMPI PUSH0 CALLDATALOAD PUSH1 0xE0 SHR DUP1 PUSH4 0x6610F5CA EQ PUSH2 0x38 JUMPI DUP1 PUSH4 0x93E01418 EQ PUSH2 0x57 JUMPI JUMPDEST PUSH0 DUP1 REVERT JUMPDEST PUSH2 0x40 PUSH2 0x73 JUMP JUMPDEST PUSH1 0x40 MLOAD PUSH2 0x4E SWAP3 SWAP2 SWAP1 PUSH2 0x26E JUMP JUMPDEST PUSH1 0x40 MLOAD DUP1 SWAP2 SUB SWAP1 RETURN JUMPDEST PUSH2 0x71 PUSH1 0x4 DUP1 CALLDATASIZE SUB DUP2 ADD SWAP1 PUSH2 0x6C SWAP2 SWAP1 PUSH2 0x366 JUMP JUMPDEST PUSH2 0x114 JUMP JUMPDEST STOP JUMPDEST PUSH1 0x60 DUP1 PUSH1 0x40 MLOAD PUSH1 0x24 ADD PUSH1 0x40 MLOAD PUSH1 0x20 DUP2 DUP4 SUB SUB DUP2 MSTORE SWAP1 PUSH1 0x40 MSTORE PUSH4 0x6D4CE63C PUSH1 0xE0 SHL PUSH1 0x20 DUP3 ADD DUP1 MLOAD PUSH28 0xFFFFFFFFFFFFFFFFFFFFFFFFFFFFFFFFFFFFFFFFFFFFFFFFFFFFFFFF DUP4 DUP2 DUP4 AND OR DUP4 MSTORE POP POP POP POP PUSH1 0x40 MLOAD PUSH1 0x24 ADD PUSH1 0x40 MLOAD PUSH1 0x20 DUP2 DUP4 SUB SUB DUP2 MSTORE SWAP1 PUSH1 0x40 MSTORE PUSH4 0x371303C0 PUSH1 0xE0 SHL PUSH1 0x20 DUP3 ADD DUP1 MLOAD PUSH28 0xFFFFFFFFFFFFFFFFFFFFFFFFFFFFFFFFFFFFFFFFFFFFFFFFFFFFFFFF DUP4 DUP2 DUP4 AND OR DUP4 MSTORE POP POP POP POP SWAP2 POP SWAP2 POP SWAP1 SWAP2 JUMP JUMPDEST PUSH0 DUP1 DUP5 PUSH20 0xFFFFFFFFFFFFFFFFFFFFFFFFFFFFFFFFFFFFFFFF AND DUP5 DUP5 PUSH1 0x40 MLOAD PUSH2 0x13D SWAP3 SWAP2 SWAP1 PUSH2 0x3FF JUMP JUMPDEST PUSH0 PUSH1 0x40 MLOAD DUP1 DUP4 SUB DUP2 PUSH0 DUP7 GAS CALL SWAP2 POP POP RETURNDATASIZE DUP1 PUSH0 DUP2 EQ PUSH2 0x176 JUMPI PUSH1 0x40 MLOAD SWAP2 POP PUSH1 0x1F NOT PUSH1 0x3F RETURNDATASIZE ADD AND DUP3 ADD PUSH1 0x40 MSTORE RETURNDATASIZE DUP3 MSTORE RETURNDATASIZE PUSH0 PUSH1 0x20 DUP5 ADD RETURNDATACOPY PUSH2 0x17B JUMP JUMPDEST PUSH1 0x60 SWAP2 POP JUMPDEST POP SWAP2 POP SWAP2 POP DUP2 PUSH2 0x1C0 JUMPI PUSH1 0x40 MLOAD PUSH32 0x8C379A000000000000000000000000000000000000000000000000000000000 DUP2 MSTORE PUSH1 0x4 ADD PUSH2 0x1B7 SWAP1 PUSH2 0x471 JUMP JUMPDEST PUSH1 0x40 MLOAD DUP1 SWAP2 SUB SWAP1 REVERT JUMPDEST PUSH32 0xAFABCF2DD47E06A477A89E49C03F8EBE8E0A7E94F775B25BBB24227C9D0110B2 DUP2 PUSH1 0x40 MLOAD PUSH2 0x1EF SWAP2 SWAP1 PUSH2 0x48F JUMP JUMPDEST PUSH1 0x40 MLOAD DUP1 SWAP2 SUB SWAP1 LOG1 POP POP POP POP POP JUMP JUMPDEST PUSH0 DUP2 MLOAD SWAP1 POP SWAP2 SWAP1 POP JUMP JUMPDEST PUSH0 DUP3 DUP3 MSTORE PUSH1 0x20 DUP3 ADD SWAP1 POP SWAP3 SWAP2 POP POP JUMP JUMPDEST DUP3 DUP2 DUP4 MCOPY PUSH0 DUP4 DUP4 ADD MSTORE POP POP POP JUMP JUMPDEST PUSH0 PUSH1 0x1F NOT PUSH1 0x1F DUP4 ADD AND SWAP1 POP SWAP2 SWAP1 POP JUMP JUMPDEST PUSH0 PUSH2 0x240 DUP3 PUSH2 0x1FE JUMP JUMPDEST PUSH2 0x24A DUP2 DUP6 PUSH2 0x208 JUMP JUMPDEST SWAP4 POP PUSH2 0x25A DUP2 DUP6 PUSH1 0x20 DUP7 ADD PUSH2 0x218 JUMP JUMPDEST PUSH2 0x263 DUP2 PUSH2 0x226 JUMP JUMPDEST DUP5 ADD SWAP2 POP POP SWAP3 SWAP2 POP POP JUMP JUMPDEST PUSH0 PUSH1 0x40 DUP3 ADD SWAP1 POP DUP2 DUP2 SUB PUSH0 DUP4 ADD MSTORE PUSH2 0x286 DUP2 DUP6 PUSH2 0x236 JUMP JUMPDEST SWAP1 POP DUP2 DUP2 SUB PUSH1 0x20 DUP4 ADD MSTORE PUSH2 0x29A DUP2 DUP5 PUSH2 0x236 JUMP JUMPDEST SWAP1 POP SWAP4 SWAP3 POP POP POP JUMP JUMPDEST PUSH0 DUP1 REVERT JUMPDEST PUSH0 DUP1 REVERT JUMPDEST PUSH0 PUSH20 0xFFFFFFFFFFFFFFFFFFFFFFFFFFFFFFFFFFFFFFFF DUP3 AND SWAP1 POP SWAP2 SWAP1 POP JUMP JUMPDEST PUSH0 PUSH2 0x2D4 DUP3 PUSH2 0x2AB JUMP JUMPDEST SWAP1 POP SWAP2 SWAP1 POP JUMP JUMPDEST PUSH2 0x2E4 DUP2 PUSH2 0x2CA JUMP JUMPDEST DUP2 EQ PUSH2 0x2EE JUMPI PUSH0 DUP1 REVERT JUMPDEST POP JUMP JUMPDEST PUSH0 DUP2 CALLDATALOAD SWAP1 POP PUSH2 0x2FF DUP2 PUSH2 0x2DB JUMP JUMPDEST SWAP3 SWAP2 POP POP JUMP JUMPDEST PUSH0 DUP1 REVERT JUMPDEST PUSH0 DUP1 REVERT JUMPDEST PUSH0 DUP1 REVERT JUMPDEST PUSH0 DUP1 DUP4 PUSH1 0x1F DUP5 ADD SLT PUSH2 0x326 JUMPI PUSH2 0x325 PUSH2 0x305 JUMP JUMPDEST JUMPDEST DUP3 CALLDATALOAD SWAP1 POP PUSH8 0xFFFFFFFFFFFFFFFF DUP2 GT ISZERO PUSH2 0x343 JUMPI PUSH2 0x342 PUSH2 0x309 JUMP JUMPDEST JUMPDEST PUSH1 0x20 DUP4 ADD SWAP2 POP DUP4 PUSH1 0x1 DUP3 MUL DUP4 ADD GT ISZERO PUSH2 0x35F JUMPI PUSH2 0x35E PUSH2 0x30D JUMP JUMPDEST JUMPDEST SWAP3 POP SWAP3 SWAP1 POP JUMP JUMPDEST PUSH0 DUP1 PUSH0 PUSH1 0x40 DUP5 DUP7 SUB SLT ISZERO PUSH2 0x37D JUMPI PUSH2 0x37C PUSH2 0x2A3 JUMP JUMPDEST JUMPDEST PUSH0 PUSH2 0x38A DUP7 DUP3 DUP8 ADD PUSH2 0x2F1 JUMP JUMPDEST SWAP4 POP POP PUSH1 0x20 DUP5 ADD CALLDATALOAD PUSH8 0xFFFFFFFFFFFFFFFF DUP2 GT ISZERO PUSH2 0x3AB JUMPI PUSH2 0x3AA PUSH2 0x2A7 JUMP JUMPDEST JUMPDEST PUSH2 0x3B7 DUP7 DUP3 DUP8 ADD PUSH2 0x311 JUMP JUMPDEST SWAP3 POP SWAP3 POP POP SWAP3 POP SWAP3 POP SWAP3 JUMP JUMPDEST PUSH0 DUP2 SWAP1 POP SWAP3 SWAP2 POP POP JUMP JUMPDEST DUP3 DUP2 DUP4 CALLDATACOPY PUSH0 DUP4 DUP4 ADD MSTORE POP POP POP JUMP JUMPDEST PUSH0 PUSH2 0x3E6 DUP4 DUP6 PUSH2 0x3C3 JUMP JUMPDEST SWAP4 POP PUSH2 0x3F3 DUP4 DUP6 DUP5 PUSH2 0x3CD JUMP JUMPDEST DUP3 DUP5 ADD SWAP1 POP SWAP4 SWAP3 POP POP POP JUMP JUMPDEST PUSH0 PUSH2 0x40B DUP3 DUP5 DUP7 PUSH2 0x3DB JUMP JUMPDEST SWAP2 POP DUP2 SWAP1 POP SWAP4 SWAP3 POP POP POP JUMP JUMPDEST PUSH0 DUP3 DUP3 MSTORE PUSH1 0x20 DUP3 ADD SWAP1 POP SWAP3 SWAP2 POP POP JUMP JUMPDEST PUSH32 0x63616C6C206661696C6564000000000000000000000000000000000000000000 PUSH0 DUP3 ADD MSTORE POP JUMP JUMPDEST PUSH0 PUSH2 0x45B PUSH1 0xB DUP4 PUSH2 0x417 JUMP JUMPDEST SWAP2 POP PUSH2 0x466 DUP3 PUSH2 0x427 JUMP JUMPDEST PUSH1 0x20 DUP3 ADD SWAP1 POP SWAP2 SWAP1 POP JUMP JUMPDEST PUSH0 PUSH1 0x20 DUP3 ADD SWAP1 POP DUP2 DUP2 SUB PUSH0 DUP4 ADD MSTORE PUSH2 0x488 DUP2 PUSH2 0x44F JUMP JUMPDEST SWAP1 POP SWAP2 SWAP1 POP JUMP JUMPDEST PUSH0 PUSH1 0x20 DUP3 ADD SWAP1 POP DUP2 DUP2 SUB PUSH0 DUP4 ADD MSTORE PUSH2 0x4A7 DUP2 DUP5 PUSH2 0x236 JUMP JUMPDEST SWAP1 POP SWAP3 SWAP2 POP POP JUMP INVALID LOG2 PUSH5 0x6970667358 0x22 SLT KECCAK256 0xBE EXTCODEHASH MULMOD GAS 0xB4 DUP9 PUSH25 0x36989D9667F815D5CEDDD8D1923C6CDD38549AC04681AB88C8 PUSH5 0x736F6C6343 STOP ADDMOD BYTE STOP CALLER "
				},
				"gasEstimates": {
					"creation": {
						"codeDepositCost": "250600",
						"executionCost": "292",
						"totalCost": "250892"
					},
					"external": {
						"getTestData()": "infinite",
						"test(address,bytes)": "infinite"
					}
				},
				"methodIdentifiers": {
					"getTestData()": "6610f5ca",
					"test(address,bytes)": "93e01418"
				}
			},
			"storageLayout": {
				"storage": [],
				"types": null
			},
			"userdoc": {
				"kind": "user",
				"methods": {},
				"version": 1
			}
		}
	}
}