{
	"contracts/MyContract_FungibleToken.sol": {
		"ERC20": {
			"abi": [
				{
					"inputs": [
						{
							"internalType": "string",
							"name": "_name",
							"type": "string"
						},
						{
							"internalType": "string",
							"name": "_symbol",
							"type": "string"
						},
						{
							"internalType": "uint8",
							"name": "_decimals",
							"type": "uint8"
						}
					],
					"stateMutability": "nonpayable",
					"type": "constructor"
				},
				{
					"anonymous": false,
					"inputs": [
						{
							"indexed": true,
							"internalType": "address",
							"name": "owner",
							"type": "address"
						},
						{
							"indexed": true,
							"internalType": "address",
							"name": "spender",
							"type": "address"
						},
						{
							"indexed": false,
							"internalType": "uint256",
							"name": "value",
							"type": "uint256"
						}
					],
					"name": "Approval",
					"type": "event"
				},
				{
					"anonymous": false,
					"inputs": [
						{
							"indexed": true,
							"internalType": "address",
							"name": "from",
							"type": "address"
						},
						{
							"indexed": true,
							"internalType": "address",
							"name": "to",
							"type": "address"
						},
						{
							"indexed": false,
							"internalType": "uint256",
							"name": "value",
							"type": "uint256"
						}
					],
					"name": "Transfer",
					"type": "event"
				},
				{
					"inputs": [
						{
							"internalType": "address",
							"name": "",
							"type": "address"
						},
						{
							"internalType": "address",
							"name": "",
							"type": "address"
						}
					],
					"name": "allowance",
					"outputs": [
						{
							"internalType": "uint256",
							"name": "",
							"type": "uint256"
						}
					],
					"stateMutability": "view",
					"type": "function"
				},
				{
					"inputs": [
						{
							"internalType": "address",
							"name": "spender",
							"type": "address"
						},
						{
							"internalType": "uint256",
							"name": "amount",
							"type": "uint256"
						}
					],
					"name": "approve",
					"outputs": [
						{
							"internalType": "bool",
							"name": "",
							"type": "bool"
						}
					],
					"stateMutability": "nonpayable",
					"type": "function"
				},
				{
					"inputs": [
						{
							"internalType": "address",
							"name": "",
							"type": "address"
						}
					],
					"name": "balanceOf",
					"outputs": [
						{
							"internalType": "uint256",
							"name": "",
							"type": "uint256"
						}
					],
					"stateMutability": "view",
					"type": "function"
				},
				{
					"inputs": [
						{
							"internalType": "address",
							"name": "from",
							"type": "address"
						},
						{
							"internalType": "uint256",
							"name": "amount",
							"type": "uint256"
						}
					],
					"name": "burn",
					"outputs": [],
					"stateMutability": "nonpayable",
					"type": "function"
				},
				{
					"inputs": [],
					"name": "decimals",
					"outputs": [
						{
							"internalType": "uint8",
							"name": "",
							"type": "uint8"
						}
					],
					"stateMutability": "view",
					"type": "function"
				},
				{
					"inputs": [
						{
							"internalType": "address",
							"name": "to",
							"type": "address"
						},
						{
							"internalType": "uint256",
							"name": "amount",
							"type": "uint256"
						}
					],
					"name": "mint",
					"outputs": [],
					"stateMutability": "nonpayable",
					"type": "function"
				},
				{
					"inputs": [],
					"name": "name",
					"outputs": [
						{
							"internalType": "string",
							"name": "",
							"type": "string"
						}
					],
					"stateMutability": "view",
					"type": "function"
				},
				{
					"inputs": [],
					"name": "symbol",
					"outputs": [
						{
							"internalType": "string",
							"name": "",
							"type": "string"
						}
					],
					"stateMutability": "view",
					"type": "function"
				},
				{
					"inputs": [],
					"name": "totalSupply",
					"outputs": [
						{
							"internalType": "uint256",
							"name": "",
							"type": "uint256"
						}
					],
					"stateMutability": "view",
					"type": "function"
				},
				{
					"inputs": [
						{
							"internalType": "address",
							"name": "recipient",
							"type": "address"
						},
						{
							"internalType": "uint256",
							"name": "amount",
							"type": "uint256"
						}
					],
					"name": "transfer",
					"outputs": [
						{
							"internalType": "bool",
							"name": "",
							"type": "bool"
						}
					],
					"stateMutability": "nonpayable",
					"type": "function"
				},
				{
					"inputs": [
						{
							"internalType": "address",
							"name": "sender",
							"type": "address"
						},
						{
							"internalType": "address",
							"name": "recipient",
							"type": "address"
						},
						{
							"internalType": "uint256",
							"name": "amount",
							"type": "uint256"
						}
					],
					"name": "transferFrom",
					"outputs": [
						{
							"internalType": "bool",
							"name": "",
							"type": "bool"
						}
					],
					"stateMutability": "nonpayable",
					"type": "function"
				}
			],
			"devdoc": {
				"kind": "dev",
				"methods": {},
				"version": 1
			},
			"evm": {
				"assembly": "    /* \"contracts/MyContract_FungibleToken.sol\":740:2523  contract ERC20 is IERC20 {... */\n  mstore(0x40, 0x80)\n    /* \"contracts/MyContract_FungibleToken.sol\":1011:1173  constructor(string memory _name, string memory _symbol, uint8 _decimals) {... */\n  callvalue\n  dup1\n  iszero\n  tag_1\n  jumpi\n  0x00\n  dup1\n  revert\ntag_1:\n  pop\n  mload(0x40)\n  sub(codesize, bytecodeSize)\n  dup1\n  bytecodeSize\n  dup4\n  codecopy\n  dup2\n  dup2\n  add\n  0x40\n  mstore\n  dup2\n  add\n  swap1\n  tag_2\n  swap2\n  swap1\n  tag_3\n  jump\t// in\ntag_2:\n    /* \"contracts/MyContract_FungibleToken.sol\":1102:1107  _name */\n  dup3\n    /* \"contracts/MyContract_FungibleToken.sol\":1095:1099  name */\n  0x03\n    /* \"contracts/MyContract_FungibleToken.sol\":1095:1107  name = _name */\n  swap1\n  dup2\n  tag_6\n  swap2\n  swap1\n  tag_7\n  jump\t// in\ntag_6:\n  pop\n    /* \"contracts/MyContract_FungibleToken.sol\":1127:1134  _symbol */\n  dup2\n    /* \"contracts/MyContract_FungibleToken.sol\":1118:1124  symbol */\n  0x04\n    /* \"contracts/MyContract_FungibleToken.sol\":1118:1134  symbol = _symbol */\n  swap1\n  dup2\n  tag_8\n  swap2\n  swap1\n  tag_7\n  jump\t// in\ntag_8:\n  pop\n    /* \"contracts/MyContract_FungibleToken.sol\":1156:1165  _decimals */\n  dup1\n    /* \"contracts/MyContract_FungibleToken.sol\":1145:1153  decimals */\n  0x05\n  0x00\n    /* \"contracts/MyContract_FungibleToken.sol\":1145:1165  decimals = _decimals */\n  0x0100\n  exp\n  dup2\n  sload\n  dup2\n  0xff\n  mul\n  not\n  and\n  swap1\n  dup4\n  0xff\n  and\n  mul\n  or\n  swap1\n  sstore\n  pop\n    /* \"contracts/MyContract_FungibleToken.sol\":1011:1173  constructor(string memory _name, string memory _symbol, uint8 _decimals) {... */\n  pop\n  pop\n  pop\n    /* \"contracts/MyContract_FungibleToken.sol\":740:2523  contract ERC20 is IERC20 {... */\n  jump(tag_9)\n    /* \"#utility.yul\":7:82   */\ntag_10:\n    /* \"#utility.yul\":40:46   */\n  0x00\n    /* \"#utility.yul\":73:75   */\n  0x40\n    /* \"#utility.yul\":67:76   */\n  mload\n    /* \"#utility.yul\":57:76   */\n  swap1\n  pop\n    /* \"#utility.yul\":7:82   */\n  swap1\n  jump\t// out\n    /* \"#utility.yul\":88:205   */\ntag_11:\n    /* \"#utility.yul\":197:198   */\n  0x00\n    /* \"#utility.yul\":194:195   */\n  dup1\n    /* \"#utility.yul\":187:199   */\n  revert\n    /* \"#utility.yul\":211:328   */\ntag_12:\n    /* \"#utility.yul\":320:321   */\n  0x00\n    /* \"#utility.yul\":317:318   */\n  dup1\n    /* \"#utility.yul\":310:322   */\n  revert\n    /* \"#utility.yul\":334:451   */\ntag_13:\n    /* \"#utility.yul\":443:444   */\n  0x00\n    /* \"#utility.yul\":440:441   */\n  dup1\n    /* \"#utility.yul\":433:445   */\n  revert\n    /* \"#utility.yul\":457:574   */\ntag_14:\n    /* \"#utility.yul\":566:567   */\n  0x00\n    /* \"#utility.yul\":563:564   */\n  dup1\n    /* \"#utility.yul\":556:568   */\n  revert\n    /* \"#utility.yul\":580:682   */\ntag_15:\n    /* \"#utility.yul\":621:627   */\n  0x00\n    /* \"#utility.yul\":672:674   */\n  0x1f\n    /* \"#utility.yul\":668:675   */\n  not\n    /* \"#utility.yul\":663:665   */\n  0x1f\n    /* \"#utility.yul\":656:661   */\n  dup4\n    /* \"#utility.yul\":652:666   */\n  add\n    /* \"#utility.yul\":648:676   */\n  and\n    /* \"#utility.yul\":638:676   */\n  swap1\n  pop\n    /* \"#utility.yul\":580:682   */\n  swap2\n  swap1\n  pop\n  jump\t// out\n    /* \"#utility.yul\":688:868   */\ntag_16:\n    /* \"#utility.yul\":736:813   */\n  0x4e487b7100000000000000000000000000000000000000000000000000000000\n    /* \"#utility.yul\":733:734   */\n  0x00\n    /* \"#utility.yul\":726:814   */\n  mstore\n    /* \"#utility.yul\":833:837   */\n  0x41\n    /* \"#utility.yul\":830:831   */\n  0x04\n    /* \"#utility.yul\":823:838   */\n  mstore\n    /* \"#utility.yul\":857:861   */\n  0x24\n    /* \"#utility.yul\":854:855   */\n  0x00\n    /* \"#utility.yul\":847:862   */\n  revert\n    /* \"#utility.yul\":874:1155   */\ntag_17:\n    /* \"#utility.yul\":957:984   */\n  tag_54\n    /* \"#utility.yul\":979:983   */\n  dup3\n    /* \"#utility.yul\":957:984   */\n  tag_15\n  jump\t// in\ntag_54:\n    /* \"#utility.yul\":949:955   */\n  dup2\n    /* \"#utility.yul\":945:985   */\n  add\n    /* \"#utility.yul\":1087:1093   */\n  dup2\n    /* \"#utility.yul\":1075:1085   */\n  dup2\n    /* \"#utility.yul\":1072:1094   */\n  lt\n    /* \"#utility.yul\":1051:1069   */\n  0xffffffffffffffff\n    /* \"#utility.yul\":1039:1049   */\n  dup3\n    /* \"#utility.yul\":1036:1070   */\n  gt\n    /* \"#utility.yul\":1033:1095   */\n  or\n    /* \"#utility.yul\":1030:1118   */\n  iszero\n  tag_55\n  jumpi\n    /* \"#utility.yul\":1098:1116   */\n  tag_56\n  tag_16\n  jump\t// in\ntag_56:\n    /* \"#utility.yul\":1030:1118   */\ntag_55:\n    /* \"#utility.yul\":1138:1148   */\n  dup1\n    /* \"#utility.yul\":1134:1136   */\n  0x40\n    /* \"#utility.yul\":1127:1149   */\n  mstore\n    /* \"#utility.yul\":917:1155   */\n  pop\n    /* \"#utility.yul\":874:1155   */\n  pop\n  pop\n  jump\t// out\n    /* \"#utility.yul\":1161:1290   */\ntag_18:\n    /* \"#utility.yul\":1195:1201   */\n  0x00\n    /* \"#utility.yul\":1222:1242   */\n  tag_58\n  tag_10\n  jump\t// in\ntag_58:\n    /* \"#utility.yul\":1212:1242   */\n  swap1\n  pop\n    /* \"#utility.yul\":1251:1284   */\n  tag_59\n    /* \"#utility.yul\":1279:1283   */\n  dup3\n    /* \"#utility.yul\":1271:1277   */\n  dup3\n    /* \"#utility.yul\":1251:1284   */\n  tag_17\n  jump\t// in\ntag_59:\n    /* \"#utility.yul\":1161:1290   */\n  swap2\n  swap1\n  pop\n  jump\t// out\n    /* \"#utility.yul\":1296:1604   */\ntag_19:\n    /* \"#utility.yul\":1358:1362   */\n  0x00\n    /* \"#utility.yul\":1448:1466   */\n  0xffffffffffffffff\n    /* \"#utility.yul\":1440:1446   */\n  dup3\n    /* \"#utility.yul\":1437:1467   */\n  gt\n    /* \"#utility.yul\":1434:1490   */\n  iszero\n  tag_61\n  jumpi\n    /* \"#utility.yul\":1470:1488   */\n  tag_62\n  tag_16\n  jump\t// in\ntag_62:\n    /* \"#utility.yul\":1434:1490   */\ntag_61:\n    /* \"#utility.yul\":1508:1537   */\n  tag_63\n    /* \"#utility.yul\":1530:1536   */\n  dup3\n    /* \"#utility.yul\":1508:1537   */\n  tag_15\n  jump\t// in\ntag_63:\n    /* \"#utility.yul\":1500:1537   */\n  swap1\n  pop\n    /* \"#utility.yul\":1592:1596   */\n  0x20\n    /* \"#utility.yul\":1586:1590   */\n  dup2\n    /* \"#utility.yul\":1582:1597   */\n  add\n    /* \"#utility.yul\":1574:1597   */\n  swap1\n  pop\n    /* \"#utility.yul\":1296:1604   */\n  swap2\n  swap1\n  pop\n  jump\t// out\n    /* \"#utility.yul\":1610:1749   */\ntag_20:\n    /* \"#utility.yul\":1699:1705   */\n  dup3\n    /* \"#utility.yul\":1694:1697   */\n  dup2\n    /* \"#utility.yul\":1689:1692   */\n  dup4\n    /* \"#utility.yul\":1683:1706   */\n  mcopy\n    /* \"#utility.yul\":1740:1741   */\n  0x00\n    /* \"#utility.yul\":1731:1737   */\n  dup4\n    /* \"#utility.yul\":1726:1729   */\n  dup4\n    /* \"#utility.yul\":1722:1738   */\n  add\n    /* \"#utility.yul\":1715:1742   */\n  mstore\n    /* \"#utility.yul\":1610:1749   */\n  pop\n  pop\n  pop\n  jump\t// out\n    /* \"#utility.yul\":1755:2189   */\ntag_21:\n    /* \"#utility.yul\":1844:1849   */\n  0x00\n    /* \"#utility.yul\":1869:1935   */\n  tag_66\n    /* \"#utility.yul\":1885:1934   */\n  tag_67\n    /* \"#utility.yul\":1927:1933   */\n  dup5\n    /* \"#utility.yul\":1885:1934   */\n  tag_19\n  jump\t// in\ntag_67:\n    /* \"#utility.yul\":1869:1935   */\n  tag_18\n  jump\t// in\ntag_66:\n    /* \"#utility.yul\":1860:1935   */\n  swap1\n  pop\n    /* \"#utility.yul\":1958:1964   */\n  dup3\n    /* \"#utility.yul\":1951:1956   */\n  dup2\n    /* \"#utility.yul\":1944:1965   */\n  mstore\n    /* \"#utility.yul\":1996:2000   */\n  0x20\n    /* \"#utility.yul\":1989:1994   */\n  dup2\n    /* \"#utility.yul\":1985:2001   */\n  add\n    /* \"#utility.yul\":2034:2037   */\n  dup5\n    /* \"#utility.yul\":2025:2031   */\n  dup5\n    /* \"#utility.yul\":2020:2023   */\n  dup5\n    /* \"#utility.yul\":2016:2032   */\n  add\n    /* \"#utility.yul\":2013:2038   */\n  gt\n    /* \"#utility.yul\":2010:2122   */\n  iszero\n  tag_68\n  jumpi\n    /* \"#utility.yul\":2041:2120   */\n  tag_69\n  tag_14\n  jump\t// in\ntag_69:\n    /* \"#utility.yul\":2010:2122   */\ntag_68:\n    /* \"#utility.yul\":2131:2183   */\n  tag_70\n    /* \"#utility.yul\":2176:2182   */\n  dup5\n    /* \"#utility.yul\":2171:2174   */\n  dup3\n    /* \"#utility.yul\":2166:2169   */\n  dup6\n    /* \"#utility.yul\":2131:2183   */\n  tag_20\n  jump\t// in\ntag_70:\n    /* \"#utility.yul\":1850:2189   */\n  pop\n    /* \"#utility.yul\":1755:2189   */\n  swap4\n  swap3\n  pop\n  pop\n  pop\n  jump\t// out\n    /* \"#utility.yul\":2209:2564   */\ntag_22:\n    /* \"#utility.yul\":2276:2281   */\n  0x00\n    /* \"#utility.yul\":2325:2328   */\n  dup3\n    /* \"#utility.yul\":2318:2322   */\n  0x1f\n    /* \"#utility.yul\":2310:2316   */\n  dup4\n    /* \"#utility.yul\":2306:2323   */\n  add\n    /* \"#utility.yul\":2302:2329   */\n  slt\n    /* \"#utility.yul\":2292:2414   */\n  tag_72\n  jumpi\n    /* \"#utility.yul\":2333:2412   */\n  tag_73\n  tag_13\n  jump\t// in\ntag_73:\n    /* \"#utility.yul\":2292:2414   */\ntag_72:\n    /* \"#utility.yul\":2443:2449   */\n  dup2\n    /* \"#utility.yul\":2437:2450   */\n  mload\n    /* \"#utility.yul\":2468:2558   */\n  tag_74\n    /* \"#utility.yul\":2554:2557   */\n  dup5\n    /* \"#utility.yul\":2546:2552   */\n  dup3\n    /* \"#utility.yul\":2539:2543   */\n  0x20\n    /* \"#utility.yul\":2531:2537   */\n  dup7\n    /* \"#utility.yul\":2527:2544   */\n  add\n    /* \"#utility.yul\":2468:2558   */\n  tag_21\n  jump\t// in\ntag_74:\n    /* \"#utility.yul\":2459:2558   */\n  swap2\n  pop\n    /* \"#utility.yul\":2282:2564   */\n  pop\n    /* \"#utility.yul\":2209:2564   */\n  swap3\n  swap2\n  pop\n  pop\n  jump\t// out\n    /* \"#utility.yul\":2570:2656   */\ntag_23:\n    /* \"#utility.yul\":2605:2612   */\n  0x00\n    /* \"#utility.yul\":2645:2649   */\n  0xff\n    /* \"#utility.yul\":2638:2643   */\n  dup3\n    /* \"#utility.yul\":2634:2650   */\n  and\n    /* \"#utility.yul\":2623:2650   */\n  swap1\n  pop\n    /* \"#utility.yul\":2570:2656   */\n  swap2\n  swap1\n  pop\n  jump\t// out\n    /* \"#utility.yul\":2662:2780   */\ntag_24:\n    /* \"#utility.yul\":2733:2755   */\n  tag_77\n    /* \"#utility.yul\":2749:2754   */\n  dup2\n    /* \"#utility.yul\":2733:2755   */\n  tag_23\n  jump\t// in\ntag_77:\n    /* \"#utility.yul\":2726:2731   */\n  dup2\n    /* \"#utility.yul\":2723:2756   */\n  eq\n    /* \"#utility.yul\":2713:2774   */\n  tag_78\n  jumpi\n    /* \"#utility.yul\":2770:2771   */\n  0x00\n    /* \"#utility.yul\":2767:2768   */\n  dup1\n    /* \"#utility.yul\":2760:2772   */\n  revert\n    /* \"#utility.yul\":2713:2774   */\ntag_78:\n    /* \"#utility.yul\":2662:2780   */\n  pop\n  jump\t// out\n    /* \"#utility.yul\":2786:2925   */\ntag_25:\n    /* \"#utility.yul\":2841:2846   */\n  0x00\n    /* \"#utility.yul\":2872:2878   */\n  dup2\n    /* \"#utility.yul\":2866:2879   */\n  mload\n    /* \"#utility.yul\":2857:2879   */\n  swap1\n  pop\n    /* \"#utility.yul\":2888:2919   */\n  tag_80\n    /* \"#utility.yul\":2913:2918   */\n  dup2\n    /* \"#utility.yul\":2888:2919   */\n  tag_24\n  jump\t// in\ntag_80:\n    /* \"#utility.yul\":2786:2925   */\n  swap3\n  swap2\n  pop\n  pop\n  jump\t// out\n    /* \"#utility.yul\":2931:3936   */\ntag_3:\n    /* \"#utility.yul\":3037:3043   */\n  0x00\n    /* \"#utility.yul\":3045:3051   */\n  dup1\n    /* \"#utility.yul\":3053:3059   */\n  0x00\n    /* \"#utility.yul\":3102:3104   */\n  0x60\n    /* \"#utility.yul\":3090:3099   */\n  dup5\n    /* \"#utility.yul\":3081:3088   */\n  dup7\n    /* \"#utility.yul\":3077:3100   */\n  sub\n    /* \"#utility.yul\":3073:3105   */\n  slt\n    /* \"#utility.yul\":3070:3189   */\n  iszero\n  tag_82\n  jumpi\n    /* \"#utility.yul\":3108:3187   */\n  tag_83\n  tag_11\n  jump\t// in\ntag_83:\n    /* \"#utility.yul\":3070:3189   */\ntag_82:\n    /* \"#utility.yul\":3249:3250   */\n  0x00\n    /* \"#utility.yul\":3238:3247   */\n  dup5\n    /* \"#utility.yul\":3234:3251   */\n  add\n    /* \"#utility.yul\":3228:3252   */\n  mload\n    /* \"#utility.yul\":3279:3297   */\n  0xffffffffffffffff\n    /* \"#utility.yul\":3271:3277   */\n  dup2\n    /* \"#utility.yul\":3268:3298   */\n  gt\n    /* \"#utility.yul\":3265:3382   */\n  iszero\n  tag_84\n  jumpi\n    /* \"#utility.yul\":3301:3380   */\n  tag_85\n  tag_12\n  jump\t// in\ntag_85:\n    /* \"#utility.yul\":3265:3382   */\ntag_84:\n    /* \"#utility.yul\":3406:3480   */\n  tag_86\n    /* \"#utility.yul\":3472:3479   */\n  dup7\n    /* \"#utility.yul\":3463:3469   */\n  dup3\n    /* \"#utility.yul\":3452:3461   */\n  dup8\n    /* \"#utility.yul\":3448:3470   */\n  add\n    /* \"#utility.yul\":3406:3480   */\n  tag_22\n  jump\t// in\ntag_86:\n    /* \"#utility.yul\":3396:3480   */\n  swap4\n  pop\n    /* \"#utility.yul\":3199:3490   */\n  pop\n    /* \"#utility.yul\":3550:3552   */\n  0x20\n    /* \"#utility.yul\":3539:3548   */\n  dup5\n    /* \"#utility.yul\":3535:3553   */\n  add\n    /* \"#utility.yul\":3529:3554   */\n  mload\n    /* \"#utility.yul\":3581:3599   */\n  0xffffffffffffffff\n    /* \"#utility.yul\":3573:3579   */\n  dup2\n    /* \"#utility.yul\":3570:3600   */\n  gt\n    /* \"#utility.yul\":3567:3684   */\n  iszero\n  tag_87\n  jumpi\n    /* \"#utility.yul\":3603:3682   */\n  tag_88\n  tag_12\n  jump\t// in\ntag_88:\n    /* \"#utility.yul\":3567:3684   */\ntag_87:\n    /* \"#utility.yul\":3708:3782   */\n  tag_89\n    /* \"#utility.yul\":3774:3781   */\n  dup7\n    /* \"#utility.yul\":3765:3771   */\n  dup3\n    /* \"#utility.yul\":3754:3763   */\n  dup8\n    /* \"#utility.yul\":3750:3772   */\n  add\n    /* \"#utility.yul\":3708:3782   */\n  tag_22\n  jump\t// in\ntag_89:\n    /* \"#utility.yul\":3698:3782   */\n  swap3\n  pop\n    /* \"#utility.yul\":3500:3792   */\n  pop\n    /* \"#utility.yul\":3831:3833   */\n  0x40\n    /* \"#utility.yul\":3857:3919   */\n  tag_90\n    /* \"#utility.yul\":3911:3918   */\n  dup7\n    /* \"#utility.yul\":3902:3908   */\n  dup3\n    /* \"#utility.yul\":3891:3900   */\n  dup8\n    /* \"#utility.yul\":3887:3909   */\n  add\n    /* \"#utility.yul\":3857:3919   */\n  tag_25\n  jump\t// in\ntag_90:\n    /* \"#utility.yul\":3847:3919   */\n  swap2\n  pop\n    /* \"#utility.yul\":3802:3929   */\n  pop\n    /* \"#utility.yul\":2931:3936   */\n  swap3\n  pop\n  swap3\n  pop\n  swap3\n  jump\t// out\n    /* \"#utility.yul\":3942:4041   */\ntag_26:\n    /* \"#utility.yul\":3994:4000   */\n  0x00\n    /* \"#utility.yul\":4028:4033   */\n  dup2\n    /* \"#utility.yul\":4022:4034   */\n  mload\n    /* \"#utility.yul\":4012:4034   */\n  swap1\n  pop\n    /* \"#utility.yul\":3942:4041   */\n  swap2\n  swap1\n  pop\n  jump\t// out\n    /* \"#utility.yul\":4047:4227   */\ntag_27:\n    /* \"#utility.yul\":4095:4172   */\n  0x4e487b7100000000000000000000000000000000000000000000000000000000\n    /* \"#utility.yul\":4092:4093   */\n  0x00\n    /* \"#utility.yul\":4085:4173   */\n  mstore\n    /* \"#utility.yul\":4192:4196   */\n  0x22\n    /* \"#utility.yul\":4189:4190   */\n  0x04\n    /* \"#utility.yul\":4182:4197   */\n  mstore\n    /* \"#utility.yul\":4216:4220   */\n  0x24\n    /* \"#utility.yul\":4213:4214   */\n  0x00\n    /* \"#utility.yul\":4206:4221   */\n  revert\n    /* \"#utility.yul\":4233:4553   */\ntag_28:\n    /* \"#utility.yul\":4277:4283   */\n  0x00\n    /* \"#utility.yul\":4314:4315   */\n  0x02\n    /* \"#utility.yul\":4308:4312   */\n  dup3\n    /* \"#utility.yul\":4304:4316   */\n  div\n    /* \"#utility.yul\":4294:4316   */\n  swap1\n  pop\n    /* \"#utility.yul\":4361:4362   */\n  0x01\n    /* \"#utility.yul\":4355:4359   */\n  dup3\n    /* \"#utility.yul\":4351:4363   */\n  and\n    /* \"#utility.yul\":4382:4400   */\n  dup1\n    /* \"#utility.yul\":4372:4453   */\n  tag_94\n  jumpi\n    /* \"#utility.yul\":4438:4442   */\n  0x7f\n    /* \"#utility.yul\":4430:4436   */\n  dup3\n    /* \"#utility.yul\":4426:4443   */\n  and\n    /* \"#utility.yul\":4416:4443   */\n  swap2\n  pop\n    /* \"#utility.yul\":4372:4453   */\ntag_94:\n    /* \"#utility.yul\":4500:4502   */\n  0x20\n    /* \"#utility.yul\":4492:4498   */\n  dup3\n    /* \"#utility.yul\":4489:4503   */\n  lt\n    /* \"#utility.yul\":4469:4487   */\n  dup2\n    /* \"#utility.yul\":4466:4504   */\n  sub\n    /* \"#utility.yul\":4463:4547   */\n  tag_95\n  jumpi\n    /* \"#utility.yul\":4519:4537   */\n  tag_96\n  tag_27\n  jump\t// in\ntag_96:\n    /* \"#utility.yul\":4463:4547   */\ntag_95:\n    /* \"#utility.yul\":4284:4553   */\n  pop\n    /* \"#utility.yul\":4233:4553   */\n  swap2\n  swap1\n  pop\n  jump\t// out\n    /* \"#utility.yul\":4559:4700   */\ntag_29:\n    /* \"#utility.yul\":4608:4612   */\n  0x00\n    /* \"#utility.yul\":4631:4634   */\n  dup2\n    /* \"#utility.yul\":4623:4634   */\n  swap1\n  pop\n    /* \"#utility.yul\":4654:4657   */\n  dup2\n    /* \"#utility.yul\":4651:4652   */\n  0x00\n    /* \"#utility.yul\":4644:4658   */\n  mstore\n    /* \"#utility.yul\":4688:4692   */\n  0x20\n    /* \"#utility.yul\":4685:4686   */\n  0x00\n    /* \"#utility.yul\":4675:4693   */\n  keccak256\n    /* \"#utility.yul\":4667:4693   */\n  swap1\n  pop\n    /* \"#utility.yul\":4559:4700   */\n  swap2\n  swap1\n  pop\n  jump\t// out\n    /* \"#utility.yul\":4706:4799   */\ntag_30:\n    /* \"#utility.yul\":4743:4749   */\n  0x00\n    /* \"#utility.yul\":4790:4792   */\n  0x20\n    /* \"#utility.yul\":4785:4787   */\n  0x1f\n    /* \"#utility.yul\":4778:4783   */\n  dup4\n    /* \"#utility.yul\":4774:4788   */\n  add\n    /* \"#utility.yul\":4770:4793   */\n  div\n    /* \"#utility.yul\":4760:4793   */\n  swap1\n  pop\n    /* \"#utility.yul\":4706:4799   */\n  swap2\n  swap1\n  pop\n  jump\t// out\n    /* \"#utility.yul\":4805:4912   */\ntag_31:\n    /* \"#utility.yul\":4849:4857   */\n  0x00\n    /* \"#utility.yul\":4899:4904   */\n  dup3\n    /* \"#utility.yul\":4893:4897   */\n  dup3\n    /* \"#utility.yul\":4889:4905   */\n  shl\n    /* \"#utility.yul\":4868:4905   */\n  swap1\n  pop\n    /* \"#utility.yul\":4805:4912   */\n  swap3\n  swap2\n  pop\n  pop\n  jump\t// out\n    /* \"#utility.yul\":4918:5311   */\ntag_32:\n    /* \"#utility.yul\":4987:4993   */\n  0x00\n    /* \"#utility.yul\":5037:5038   */\n  0x08\n    /* \"#utility.yul\":5025:5035   */\n  dup4\n    /* \"#utility.yul\":5021:5039   */\n  mul\n    /* \"#utility.yul\":5060:5157   */\n  tag_101\n    /* \"#utility.yul\":5090:5156   */\n  0xffffffffffffffffffffffffffffffffffffffffffffffffffffffffffffffff\n    /* \"#utility.yul\":5079:5088   */\n  dup3\n    /* \"#utility.yul\":5060:5157   */\n  tag_31\n  jump\t// in\ntag_101:\n    /* \"#utility.yul\":5178:5217   */\n  tag_102\n    /* \"#utility.yul\":5208:5216   */\n  dup7\n    /* \"#utility.yul\":5197:5206   */\n  dup4\n    /* \"#utility.yul\":5178:5217   */\n  tag_31\n  jump\t// in\ntag_102:\n    /* \"#utility.yul\":5166:5217   */\n  swap6\n  pop\n    /* \"#utility.yul\":5250:5254   */\n  dup1\n    /* \"#utility.yul\":5246:5255   */\n  not\n    /* \"#utility.yul\":5239:5244   */\n  dup5\n    /* \"#utility.yul\":5235:5256   */\n  and\n    /* \"#utility.yul\":5226:5256   */\n  swap4\n  pop\n    /* \"#utility.yul\":5299:5303   */\n  dup1\n    /* \"#utility.yul\":5289:5297   */\n  dup7\n    /* \"#utility.yul\":5285:5304   */\n  and\n    /* \"#utility.yul\":5278:5283   */\n  dup5\n    /* \"#utility.yul\":5275:5305   */\n  or\n    /* \"#utility.yul\":5265:5305   */\n  swap3\n  pop\n    /* \"#utility.yul\":4994:5311   */\n  pop\n  pop\n    /* \"#utility.yul\":4918:5311   */\n  swap4\n  swap3\n  pop\n  pop\n  pop\n  jump\t// out\n    /* \"#utility.yul\":5317:5394   */\ntag_33:\n    /* \"#utility.yul\":5354:5361   */\n  0x00\n    /* \"#utility.yul\":5383:5388   */\n  dup2\n    /* \"#utility.yul\":5372:5388   */\n  swap1\n  pop\n    /* \"#utility.yul\":5317:5394   */\n  swap2\n  swap1\n  pop\n  jump\t// out\n    /* \"#utility.yul\":5400:5460   */\ntag_34:\n    /* \"#utility.yul\":5428:5431   */\n  0x00\n    /* \"#utility.yul\":5449:5454   */\n  dup2\n    /* \"#utility.yul\":5442:5454   */\n  swap1\n  pop\n    /* \"#utility.yul\":5400:5460   */\n  swap2\n  swap1\n  pop\n  jump\t// out\n    /* \"#utility.yul\":5466:5608   */\ntag_35:\n    /* \"#utility.yul\":5516:5525   */\n  0x00\n    /* \"#utility.yul\":5549:5602   */\n  tag_106\n    /* \"#utility.yul\":5567:5601   */\n  tag_107\n    /* \"#utility.yul\":5576:5600   */\n  tag_108\n    /* \"#utility.yul\":5594:5599   */\n  dup5\n    /* \"#utility.yul\":5576:5600   */\n  tag_33\n  jump\t// in\ntag_108:\n    /* \"#utility.yul\":5567:5601   */\n  tag_34\n  jump\t// in\ntag_107:\n    /* \"#utility.yul\":5549:5602   */\n  tag_33\n  jump\t// in\ntag_106:\n    /* \"#utility.yul\":5536:5602   */\n  swap1\n  pop\n    /* \"#utility.yul\":5466:5608   */\n  swap2\n  swap1\n  pop\n  jump\t// out\n    /* \"#utility.yul\":5614:5689   */\ntag_36:\n    /* \"#utility.yul\":5657:5660   */\n  0x00\n    /* \"#utility.yul\":5678:5683   */\n  dup2\n    /* \"#utility.yul\":5671:5683   */\n  swap1\n  pop\n    /* \"#utility.yul\":5614:5689   */\n  swap2\n  swap1\n  pop\n  jump\t// out\n    /* \"#utility.yul\":5695:5964   */\ntag_37:\n    /* \"#utility.yul\":5805:5844   */\n  tag_111\n    /* \"#utility.yul\":5836:5843   */\n  dup4\n    /* \"#utility.yul\":5805:5844   */\n  tag_35\n  jump\t// in\ntag_111:\n    /* \"#utility.yul\":5866:5957   */\n  tag_112\n    /* \"#utility.yul\":5915:5956   */\n  tag_113\n    /* \"#utility.yul\":5939:5955   */\n  dup3\n    /* \"#utility.yul\":5915:5956   */\n  tag_36\n  jump\t// in\ntag_113:\n    /* \"#utility.yul\":5907:5913   */\n  dup5\n    /* \"#utility.yul\":5900:5904   */\n  dup5\n    /* \"#utility.yul\":5894:5905   */\n  sload\n    /* \"#utility.yul\":5866:5957   */\n  tag_32\n  jump\t// in\ntag_112:\n    /* \"#utility.yul\":5860:5864   */\n  dup3\n    /* \"#utility.yul\":5853:5958   */\n  sstore\n    /* \"#utility.yul\":5771:5964   */\n  pop\n    /* \"#utility.yul\":5695:5964   */\n  pop\n  pop\n  pop\n  jump\t// out\n    /* \"#utility.yul\":5970:6043   */\ntag_38:\n    /* \"#utility.yul\":6015:6018   */\n  0x00\n    /* \"#utility.yul\":5970:6043   */\n  swap1\n  jump\t// out\n    /* \"#utility.yul\":6049:6238   */\ntag_39:\n    /* \"#utility.yul\":6126:6158   */\n  tag_116\n  tag_38\n  jump\t// in\ntag_116:\n    /* \"#utility.yul\":6167:6232   */\n  tag_117\n    /* \"#utility.yul\":6225:6231   */\n  dup2\n    /* \"#utility.yul\":6217:6223   */\n  dup5\n    /* \"#utility.yul\":6211:6215   */\n  dup5\n    /* \"#utility.yul\":6167:6232   */\n  tag_37\n  jump\t// in\ntag_117:\n    /* \"#utility.yul\":6102:6238   */\n  pop\n    /* \"#utility.yul\":6049:6238   */\n  pop\n  pop\n  jump\t// out\n    /* \"#utility.yul\":6244:6430   */\ntag_40:\n    /* \"#utility.yul\":6304:6424   */\ntag_119:\n    /* \"#utility.yul\":6321:6324   */\n  dup2\n    /* \"#utility.yul\":6314:6319   */\n  dup2\n    /* \"#utility.yul\":6311:6325   */\n  lt\n    /* \"#utility.yul\":6304:6424   */\n  iszero\n  tag_121\n  jumpi\n    /* \"#utility.yul\":6375:6414   */\n  tag_122\n    /* \"#utility.yul\":6412:6413   */\n  0x00\n    /* \"#utility.yul\":6405:6410   */\n  dup3\n    /* \"#utility.yul\":6375:6414   */\n  tag_39\n  jump\t// in\ntag_122:\n    /* \"#utility.yul\":6348:6349   */\n  0x01\n    /* \"#utility.yul\":6341:6346   */\n  dup2\n    /* \"#utility.yul\":6337:6350   */\n  add\n    /* \"#utility.yul\":6328:6350   */\n  swap1\n  pop\n    /* \"#utility.yul\":6304:6424   */\n  jump(tag_119)\ntag_121:\n    /* \"#utility.yul\":6244:6430   */\n  pop\n  pop\n  jump\t// out\n    /* \"#utility.yul\":6436:6979   */\ntag_41:\n    /* \"#utility.yul\":6537:6539   */\n  0x1f\n    /* \"#utility.yul\":6532:6535   */\n  dup3\n    /* \"#utility.yul\":6529:6540   */\n  gt\n    /* \"#utility.yul\":6526:6972   */\n  iszero\n  tag_124\n  jumpi\n    /* \"#utility.yul\":6571:6609   */\n  tag_125\n    /* \"#utility.yul\":6603:6608   */\n  dup2\n    /* \"#utility.yul\":6571:6609   */\n  tag_29\n  jump\t// in\ntag_125:\n    /* \"#utility.yul\":6655:6684   */\n  tag_126\n    /* \"#utility.yul\":6673:6683   */\n  dup5\n    /* \"#utility.yul\":6655:6684   */\n  tag_30\n  jump\t// in\ntag_126:\n    /* \"#utility.yul\":6645:6653   */\n  dup2\n    /* \"#utility.yul\":6641:6685   */\n  add\n    /* \"#utility.yul\":6838:6840   */\n  0x20\n    /* \"#utility.yul\":6826:6836   */\n  dup6\n    /* \"#utility.yul\":6823:6841   */\n  lt\n    /* \"#utility.yul\":6820:6869   */\n  iszero\n  tag_127\n  jumpi\n    /* \"#utility.yul\":6859:6867   */\n  dup2\n    /* \"#utility.yul\":6844:6867   */\n  swap1\n  pop\n    /* \"#utility.yul\":6820:6869   */\ntag_127:\n    /* \"#utility.yul\":6882:6962   */\n  tag_128\n    /* \"#utility.yul\":6938:6960   */\n  tag_129\n    /* \"#utility.yul\":6956:6959   */\n  dup6\n    /* \"#utility.yul\":6938:6960   */\n  tag_30\n  jump\t// in\ntag_129:\n    /* \"#utility.yul\":6928:6936   */\n  dup4\n    /* \"#utility.yul\":6924:6961   */\n  add\n    /* \"#utility.yul\":6911:6922   */\n  dup3\n    /* \"#utility.yul\":6882:6962   */\n  tag_40\n  jump\t// in\ntag_128:\n    /* \"#utility.yul\":6541:6972   */\n  pop\n  pop\n    /* \"#utility.yul\":6526:6972   */\ntag_124:\n    /* \"#utility.yul\":6436:6979   */\n  pop\n  pop\n  pop\n  jump\t// out\n    /* \"#utility.yul\":6985:7102   */\ntag_42:\n    /* \"#utility.yul\":7039:7047   */\n  0x00\n    /* \"#utility.yul\":7089:7094   */\n  dup3\n    /* \"#utility.yul\":7083:7087   */\n  dup3\n    /* \"#utility.yul\":7079:7095   */\n  shr\n    /* \"#utility.yul\":7058:7095   */\n  swap1\n  pop\n    /* \"#utility.yul\":6985:7102   */\n  swap3\n  swap2\n  pop\n  pop\n  jump\t// out\n    /* \"#utility.yul\":7108:7277   */\ntag_43:\n    /* \"#utility.yul\":7152:7158   */\n  0x00\n    /* \"#utility.yul\":7185:7236   */\n  tag_132\n    /* \"#utility.yul\":7233:7234   */\n  0x00\n    /* \"#utility.yul\":7229:7235   */\n  not\n    /* \"#utility.yul\":7221:7226   */\n  dup5\n    /* \"#utility.yul\":7218:7219   */\n  0x08\n    /* \"#utility.yul\":7214:7227   */\n  mul\n    /* \"#utility.yul\":7185:7236   */\n  tag_42\n  jump\t// in\ntag_132:\n    /* \"#utility.yul\":7181:7237   */\n  not\n    /* \"#utility.yul\":7266:7270   */\n  dup1\n    /* \"#utility.yul\":7260:7264   */\n  dup4\n    /* \"#utility.yul\":7256:7271   */\n  and\n    /* \"#utility.yul\":7246:7271   */\n  swap2\n  pop\n    /* \"#utility.yul\":7159:7277   */\n  pop\n    /* \"#utility.yul\":7108:7277   */\n  swap3\n  swap2\n  pop\n  pop\n  jump\t// out\n    /* \"#utility.yul\":7282:7577   */\ntag_44:\n    /* \"#utility.yul\":7358:7362   */\n  0x00\n    /* \"#utility.yul\":7504:7533   */\n  tag_134\n    /* \"#utility.yul\":7529:7532   */\n  dup4\n    /* \"#utility.yul\":7523:7527   */\n  dup4\n    /* \"#utility.yul\":7504:7533   */\n  tag_43\n  jump\t// in\ntag_134:\n    /* \"#utility.yul\":7496:7533   */\n  swap2\n  pop\n    /* \"#utility.yul\":7566:7569   */\n  dup3\n    /* \"#utility.yul\":7563:7564   */\n  0x02\n    /* \"#utility.yul\":7559:7570   */\n  mul\n    /* \"#utility.yul\":7553:7557   */\n  dup3\n    /* \"#utility.yul\":7550:7571   */\n  or\n    /* \"#utility.yul\":7542:7571   */\n  swap1\n  pop\n    /* \"#utility.yul\":7282:7577   */\n  swap3\n  swap2\n  pop\n  pop\n  jump\t// out\n    /* \"#utility.yul\":7582:8977   */\ntag_7:\n    /* \"#utility.yul\":7699:7736   */\n  tag_136\n    /* \"#utility.yul\":7732:7735   */\n  dup3\n    /* \"#utility.yul\":7699:7736   */\n  tag_26\n  jump\t// in\ntag_136:\n    /* \"#utility.yul\":7801:7819   */\n  0xffffffffffffffff\n    /* \"#utility.yul\":7793:7799   */\n  dup2\n    /* \"#utility.yul\":7790:7820   */\n  gt\n    /* \"#utility.yul\":7787:7843   */\n  iszero\n  tag_137\n  jumpi\n    /* \"#utility.yul\":7823:7841   */\n  tag_138\n  tag_16\n  jump\t// in\ntag_138:\n    /* \"#utility.yul\":7787:7843   */\ntag_137:\n    /* \"#utility.yul\":7867:7905   */\n  tag_139\n    /* \"#utility.yul\":7899:7903   */\n  dup3\n    /* \"#utility.yul\":7893:7904   */\n  sload\n    /* \"#utility.yul\":7867:7905   */\n  tag_28\n  jump\t// in\ntag_139:\n    /* \"#utility.yul\":7952:8019   */\n  tag_140\n    /* \"#utility.yul\":8012:8018   */\n  dup3\n    /* \"#utility.yul\":8004:8010   */\n  dup3\n    /* \"#utility.yul\":7998:8002   */\n  dup6\n    /* \"#utility.yul\":7952:8019   */\n  tag_41\n  jump\t// in\ntag_140:\n    /* \"#utility.yul\":8046:8047   */\n  0x00\n    /* \"#utility.yul\":8070:8074   */\n  0x20\n    /* \"#utility.yul\":8057:8074   */\n  swap1\n  pop\n    /* \"#utility.yul\":8102:8104   */\n  0x1f\n    /* \"#utility.yul\":8094:8100   */\n  dup4\n    /* \"#utility.yul\":8091:8105   */\n  gt\n    /* \"#utility.yul\":8119:8120   */\n  0x01\n    /* \"#utility.yul\":8114:8732   */\n  dup2\n  eq\n  tag_142\n  jumpi\n    /* \"#utility.yul\":8776:8777   */\n  0x00\n    /* \"#utility.yul\":8793:8799   */\n  dup5\n    /* \"#utility.yul\":8790:8867   */\n  iszero\n  tag_143\n  jumpi\n    /* \"#utility.yul\":8842:8851   */\n  dup3\n    /* \"#utility.yul\":8837:8840   */\n  dup8\n    /* \"#utility.yul\":8833:8852   */\n  add\n    /* \"#utility.yul\":8827:8853   */\n  mload\n    /* \"#utility.yul\":8818:8853   */\n  swap1\n  pop\n    /* \"#utility.yul\":8790:8867   */\ntag_143:\n    /* \"#utility.yul\":8893:8960   */\n  tag_144\n    /* \"#utility.yul\":8953:8959   */\n  dup6\n    /* \"#utility.yul\":8946:8951   */\n  dup3\n    /* \"#utility.yul\":8893:8960   */\n  tag_44\n  jump\t// in\ntag_144:\n    /* \"#utility.yul\":8887:8891   */\n  dup7\n    /* \"#utility.yul\":8880:8961   */\n  sstore\n    /* \"#utility.yul\":8749:8971   */\n  pop\n    /* \"#utility.yul\":8084:8971   */\n  jump(tag_141)\n    /* \"#utility.yul\":8114:8732   */\ntag_142:\n    /* \"#utility.yul\":8166:8170   */\n  0x1f\n    /* \"#utility.yul\":8162:8171   */\n  not\n    /* \"#utility.yul\":8154:8160   */\n  dup5\n    /* \"#utility.yul\":8150:8172   */\n  and\n    /* \"#utility.yul\":8200:8237   */\n  tag_145\n    /* \"#utility.yul\":8232:8236   */\n  dup7\n    /* \"#utility.yul\":8200:8237   */\n  tag_29\n  jump\t// in\ntag_145:\n    /* \"#utility.yul\":8259:8260   */\n  0x00\n    /* \"#utility.yul\":8273:8481   */\ntag_146:\n    /* \"#utility.yul\":8287:8294   */\n  dup3\n    /* \"#utility.yul\":8284:8285   */\n  dup2\n    /* \"#utility.yul\":8281:8295   */\n  lt\n    /* \"#utility.yul\":8273:8481   */\n  iszero\n  tag_148\n  jumpi\n    /* \"#utility.yul\":8366:8375   */\n  dup5\n    /* \"#utility.yul\":8361:8364   */\n  dup10\n    /* \"#utility.yul\":8357:8376   */\n  add\n    /* \"#utility.yul\":8351:8377   */\n  mload\n    /* \"#utility.yul\":8343:8349   */\n  dup3\n    /* \"#utility.yul\":8336:8378   */\n  sstore\n    /* \"#utility.yul\":8417:8418   */\n  0x01\n    /* \"#utility.yul\":8409:8415   */\n  dup3\n    /* \"#utility.yul\":8405:8419   */\n  add\n    /* \"#utility.yul\":8395:8419   */\n  swap2\n  pop\n    /* \"#utility.yul\":8464:8466   */\n  0x20\n    /* \"#utility.yul\":8453:8462   */\n  dup6\n    /* \"#utility.yul\":8449:8467   */\n  add\n    /* \"#utility.yul\":8436:8467   */\n  swap5\n  pop\n    /* \"#utility.yul\":8310:8314   */\n  0x20\n    /* \"#utility.yul\":8307:8308   */\n  dup2\n    /* \"#utility.yul\":8303:8315   */\n  add\n    /* \"#utility.yul\":8298:8315   */\n  swap1\n  pop\n    /* \"#utility.yul\":8273:8481   */\n  jump(tag_146)\ntag_148:\n    /* \"#utility.yul\":8509:8515   */\n  dup7\n    /* \"#utility.yul\":8500:8507   */\n  dup4\n    /* \"#utility.yul\":8497:8516   */\n  lt\n    /* \"#utility.yul\":8494:8673   */\n  iszero\n  tag_149\n  jumpi\n    /* \"#utility.yul\":8567:8576   */\n  dup5\n    /* \"#utility.yul\":8562:8565   */\n  dup10\n    /* \"#utility.yul\":8558:8577   */\n  add\n    /* \"#utility.yul\":8552:8578   */\n  mload\n    /* \"#utility.yul\":8610:8658   */\n  tag_150\n    /* \"#utility.yul\":8652:8656   */\n  0x1f\n    /* \"#utility.yul\":8644:8650   */\n  dup10\n    /* \"#utility.yul\":8640:8657   */\n  and\n    /* \"#utility.yul\":8629:8638   */\n  dup3\n    /* \"#utility.yul\":8610:8658   */\n  tag_43\n  jump\t// in\ntag_150:\n    /* \"#utility.yul\":8602:8608   */\n  dup4\n    /* \"#utility.yul\":8595:8659   */\n  sstore\n    /* \"#utility.yul\":8517:8673   */\n  pop\n    /* \"#utility.yul\":8494:8673   */\ntag_149:\n    /* \"#utility.yul\":8719:8720   */\n  0x01\n    /* \"#utility.yul\":8715:8716   */\n  0x02\n    /* \"#utility.yul\":8707:8713   */\n  dup9\n    /* \"#utility.yul\":8703:8717   */\n  mul\n    /* \"#utility.yul\":8699:8721   */\n  add\n    /* \"#utility.yul\":8693:8697   */\n  dup9\n    /* \"#utility.yul\":8686:8722   */\n  sstore\n    /* \"#utility.yul\":8121:8732   */\n  pop\n  pop\n  pop\n    /* \"#utility.yul\":8084:8971   */\ntag_141:\n  pop\n    /* \"#utility.yul\":7674:8977   */\n  pop\n  pop\n  pop\n    /* \"#utility.yul\":7582:8977   */\n  pop\n  pop\n  jump\t// out\n    /* \"contracts/MyContract_FungibleToken.sol\":740:2523  contract ERC20 is IERC20 {... */\ntag_9:\n  dataSize(sub_0)\n  dup1\n  dataOffset(sub_0)\n  0x00\n  codecopy\n  0x00\n  return\nstop\n\nsub_0: assembly {\n        /* \"contracts/MyContract_FungibleToken.sol\":740:2523  contract ERC20 is IERC20 {... */\n      mstore(0x40, 0x80)\n      callvalue\n      dup1\n      iszero\n      tag_1\n      jumpi\n      0x00\n      dup1\n      revert\n    tag_1:\n      pop\n      jumpi(tag_2, lt(calldatasize, 0x04))\n      shr(0xe0, calldataload(0x00))\n      dup1\n      0x40c10f19\n      gt\n      tag_14\n      jumpi\n      dup1\n      0x40c10f19\n      eq\n      tag_8\n      jumpi\n      dup1\n      0x70a08231\n      eq\n      tag_9\n      jumpi\n      dup1\n      0x95d89b41\n      eq\n      tag_10\n      jumpi\n      dup1\n      0x9dc29fac\n      eq\n      tag_11\n      jumpi\n      dup1\n      0xa9059cbb\n      eq\n      tag_12\n      jumpi\n      dup1\n      0xdd62ed3e\n      eq\n      tag_13\n      jumpi\n      jump(tag_2)\n    tag_14:\n      dup1\n      0x06fdde03\n      eq\n      tag_3\n      jumpi\n      dup1\n      0x095ea7b3\n      eq\n      tag_4\n      jumpi\n      dup1\n      0x18160ddd\n      eq\n      tag_5\n      jumpi\n      dup1\n      0x23b872dd\n      eq\n      tag_6\n      jumpi\n      dup1\n      0x313ce567\n      eq\n      tag_7\n      jumpi\n    tag_2:\n      0x00\n      dup1\n      revert\n        /* \"contracts/MyContract_FungibleToken.sol\":929:947  string public name */\n    tag_3:\n      tag_15\n      tag_16\n      jump\t// in\n    tag_15:\n      mload(0x40)\n      tag_17\n      swap2\n      swap1\n      tag_18\n      jump\t// in\n    tag_17:\n      mload(0x40)\n      dup1\n      swap2\n      sub\n      swap1\n      return\n        /* \"contracts/MyContract_FungibleToken.sol\":1434:1641  function approve(address spender, uint256 amount) external returns (bool) {... */\n    tag_4:\n      tag_19\n      0x04\n      dup1\n      calldatasize\n      sub\n      dup2\n      add\n      swap1\n      tag_20\n      swap2\n      swap1\n      tag_21\n      jump\t// in\n    tag_20:\n      tag_22\n      jump\t// in\n    tag_19:\n      mload(0x40)\n      tag_23\n      swap2\n      swap1\n      tag_24\n      jump\t// in\n    tag_23:\n      mload(0x40)\n      dup1\n      swap2\n      sub\n      swap1\n      return\n        /* \"contracts/MyContract_FungibleToken.sol\":774:800  uint256 public totalSupply */\n    tag_5:\n      tag_25\n      tag_26\n      jump\t// in\n    tag_25:\n      mload(0x40)\n      tag_27\n      swap2\n      swap1\n      tag_28\n      jump\t// in\n    tag_27:\n      mload(0x40)\n      dup1\n      swap2\n      sub\n      swap1\n      return\n        /* \"contracts/MyContract_FungibleToken.sol\":1649:1956  function transferFrom(address sender, address recipient, uint256 amount) external returns (bool) {... */\n    tag_6:\n      tag_29\n      0x04\n      dup1\n      calldatasize\n      sub\n      dup2\n      add\n      swap1\n      tag_30\n      swap2\n      swap1\n      tag_31\n      jump\t// in\n    tag_30:\n      tag_32\n      jump\t// in\n    tag_29:\n      mload(0x40)\n      tag_33\n      swap2\n      swap1\n      tag_24\n      jump\t// in\n    tag_33:\n      mload(0x40)\n      dup1\n      swap2\n      sub\n      swap1\n      return\n        /* \"contracts/MyContract_FungibleToken.sol\":981:1002  uint8 public decimals */\n    tag_7:\n      tag_34\n      tag_35\n      jump\t// in\n    tag_34:\n      mload(0x40)\n      tag_36\n      swap2\n      swap1\n      tag_37\n      jump\t// in\n    tag_36:\n      mload(0x40)\n      dup1\n      swap2\n      sub\n      swap1\n      return\n        /* \"contracts/MyContract_FungibleToken.sol\":2334:2421  function mint(address to, uint256 amount) external {... */\n    tag_8:\n      tag_38\n      0x04\n      dup1\n      calldatasize\n      sub\n      dup2\n      add\n      swap1\n      tag_39\n      swap2\n      swap1\n      tag_21\n      jump\t// in\n    tag_39:\n      tag_40\n      jump\t// in\n    tag_38:\n      stop\n        /* \"contracts/MyContract_FungibleToken.sol\":807:851  mapping(address => uint256) public balanceOf */\n    tag_9:\n      tag_41\n      0x04\n      dup1\n      calldatasize\n      sub\n      dup2\n      add\n      swap1\n      tag_42\n      swap2\n      swap1\n      tag_43\n      jump\t// in\n    tag_42:\n      tag_44\n      jump\t// in\n    tag_41:\n      mload(0x40)\n      tag_45\n      swap2\n      swap1\n      tag_28\n      jump\t// in\n    tag_45:\n      mload(0x40)\n      dup1\n      swap2\n      sub\n      swap1\n      return\n        /* \"contracts/MyContract_FungibleToken.sol\":954:974  string public symbol */\n    tag_10:\n      tag_46\n      tag_47\n      jump\t// in\n    tag_46:\n      mload(0x40)\n      tag_48\n      swap2\n      swap1\n      tag_18\n      jump\t// in\n    tag_48:\n      mload(0x40)\n      dup1\n      swap2\n      sub\n      swap1\n      return\n        /* \"contracts/MyContract_FungibleToken.sol\":2429:2520  function burn(address from, uint256 amount) external {... */\n    tag_11:\n      tag_49\n      0x04\n      dup1\n      calldatasize\n      sub\n      dup2\n      add\n      swap1\n      tag_50\n      swap2\n      swap1\n      tag_21\n      jump\t// in\n    tag_50:\n      tag_51\n      jump\t// in\n    tag_49:\n      stop\n        /* \"contracts/MyContract_FungibleToken.sol\":1181:1426  function transfer(address recipient, uint256 amount) external returns (bool) {... */\n    tag_12:\n      tag_52\n      0x04\n      dup1\n      calldatasize\n      sub\n      dup2\n      add\n      swap1\n      tag_53\n      swap2\n      swap1\n      tag_21\n      jump\t// in\n    tag_53:\n      tag_54\n      jump\t// in\n    tag_52:\n      mload(0x40)\n      tag_55\n      swap2\n      swap1\n      tag_24\n      jump\t// in\n    tag_55:\n      mload(0x40)\n      dup1\n      swap2\n      sub\n      swap1\n      return\n        /* \"contracts/MyContract_FungibleToken.sol\":858:922  mapping(address => mapping(address => uint256)) public allowance */\n    tag_13:\n      tag_56\n      0x04\n      dup1\n      calldatasize\n      sub\n      dup2\n      add\n      swap1\n      tag_57\n      swap2\n      swap1\n      tag_58\n      jump\t// in\n    tag_57:\n      tag_59\n      jump\t// in\n    tag_56:\n      mload(0x40)\n      tag_60\n      swap2\n      swap1\n      tag_28\n      jump\t// in\n    tag_60:\n      mload(0x40)\n      dup1\n      swap2\n      sub\n      swap1\n      return\n        /* \"contracts/MyContract_FungibleToken.sol\":929:947  string public name */\n    tag_16:\n      0x03\n      dup1\n      sload\n      tag_61\n      swap1\n      tag_62\n      jump\t// in\n    tag_61:\n      dup1\n      0x1f\n      add\n      0x20\n      dup1\n      swap2\n      div\n      mul\n      0x20\n      add\n      mload(0x40)\n      swap1\n      dup2\n      add\n      0x40\n      mstore\n      dup1\n      swap3\n      swap2\n      swap1\n      dup2\n      dup2\n      mstore\n      0x20\n      add\n      dup3\n      dup1\n      sload\n      tag_63\n      swap1\n      tag_62\n      jump\t// in\n    tag_63:\n      dup1\n      iszero\n      tag_64\n      jumpi\n      dup1\n      0x1f\n      lt\n      tag_65\n      jumpi\n      0x0100\n      dup1\n      dup4\n      sload\n      div\n      mul\n      dup4\n      mstore\n      swap2\n      0x20\n      add\n      swap2\n      jump(tag_64)\n    tag_65:\n      dup3\n      add\n      swap2\n      swap1\n      0x00\n      mstore\n      keccak256(0x00, 0x20)\n      swap1\n    tag_66:\n      dup2\n      sload\n      dup2\n      mstore\n      swap1\n      0x01\n      add\n      swap1\n      0x20\n      add\n      dup1\n      dup4\n      gt\n      tag_66\n      jumpi\n      dup3\n      swap1\n      sub\n      0x1f\n      and\n      dup3\n      add\n      swap2\n    tag_64:\n      pop\n      pop\n      pop\n      pop\n      pop\n      dup2\n      jump\t// out\n        /* \"contracts/MyContract_FungibleToken.sol\":1434:1641  function approve(address spender, uint256 amount) external returns (bool) {... */\n    tag_22:\n        /* \"contracts/MyContract_FungibleToken.sol\":1502:1506  bool */\n      0x00\n        /* \"contracts/MyContract_FungibleToken.sol\":1552:1558  amount */\n      dup2\n        /* \"contracts/MyContract_FungibleToken.sol\":1519:1528  allowance */\n      0x02\n        /* \"contracts/MyContract_FungibleToken.sol\":1519:1540  allowance[msg.sender] */\n      0x00\n        /* \"contracts/MyContract_FungibleToken.sol\":1529:1539  msg.sender */\n      caller\n        /* \"contracts/MyContract_FungibleToken.sol\":1519:1540  allowance[msg.sender] */\n      0xffffffffffffffffffffffffffffffffffffffff\n      and\n      0xffffffffffffffffffffffffffffffffffffffff\n      and\n      dup2\n      mstore\n      0x20\n      add\n      swap1\n      dup2\n      mstore\n      0x20\n      add\n      0x00\n      keccak256\n        /* \"contracts/MyContract_FungibleToken.sol\":1519:1549  allowance[msg.sender][spender] */\n      0x00\n        /* \"contracts/MyContract_FungibleToken.sol\":1541:1548  spender */\n      dup6\n        /* \"contracts/MyContract_FungibleToken.sol\":1519:1549  allowance[msg.sender][spender] */\n      0xffffffffffffffffffffffffffffffffffffffff\n      and\n      0xffffffffffffffffffffffffffffffffffffffff\n      and\n      dup2\n      mstore\n      0x20\n      add\n      swap1\n      dup2\n      mstore\n      0x20\n      add\n      0x00\n      keccak256\n        /* \"contracts/MyContract_FungibleToken.sol\":1519:1558  allowance[msg.sender][spender] = amount */\n      dup2\n      swap1\n      sstore\n      pop\n        /* \"contracts/MyContract_FungibleToken.sol\":1595:1602  spender */\n      dup3\n        /* \"contracts/MyContract_FungibleToken.sol\":1574:1611  Approval(msg.sender, spender, amount) */\n      0xffffffffffffffffffffffffffffffffffffffff\n      and\n        /* \"contracts/MyContract_FungibleToken.sol\":1583:1593  msg.sender */\n      caller\n        /* \"contracts/MyContract_FungibleToken.sol\":1574:1611  Approval(msg.sender, spender, amount) */\n      0xffffffffffffffffffffffffffffffffffffffff\n      and\n      0x8c5be1e5ebec7d5bd14f71427d1e84f3dd0314c0f7b2291e5b200ac8c7c3b925\n        /* \"contracts/MyContract_FungibleToken.sol\":1604:1610  amount */\n      dup5\n        /* \"contracts/MyContract_FungibleToken.sol\":1574:1611  Approval(msg.sender, spender, amount) */\n      mload(0x40)\n      tag_68\n      swap2\n      swap1\n      tag_28\n      jump\t// in\n    tag_68:\n      mload(0x40)\n      dup1\n      swap2\n      sub\n      swap1\n      log3\n        /* \"contracts/MyContract_FungibleToken.sol\":1629:1633  true */\n      0x01\n        /* \"contracts/MyContract_FungibleToken.sol\":1622:1633  return true */\n      swap1\n      pop\n        /* \"contracts/MyContract_FungibleToken.sol\":1434:1641  function approve(address spender, uint256 amount) external returns (bool) {... */\n      swap3\n      swap2\n      pop\n      pop\n      jump\t// out\n        /* \"contracts/MyContract_FungibleToken.sol\":774:800  uint256 public totalSupply */\n    tag_26:\n      sload(0x00)\n      dup2\n      jump\t// out\n        /* \"contracts/MyContract_FungibleToken.sol\":1649:1956  function transferFrom(address sender, address recipient, uint256 amount) external returns (bool) {... */\n    tag_32:\n        /* \"contracts/MyContract_FungibleToken.sol\":1740:1744  bool */\n      0x00\n        /* \"contracts/MyContract_FungibleToken.sol\":1790:1796  amount */\n      dup2\n        /* \"contracts/MyContract_FungibleToken.sol\":1757:1766  allowance */\n      0x02\n        /* \"contracts/MyContract_FungibleToken.sol\":1757:1774  allowance[sender] */\n      0x00\n        /* \"contracts/MyContract_FungibleToken.sol\":1767:1773  sender */\n      dup7\n        /* \"contracts/MyContract_FungibleToken.sol\":1757:1774  allowance[sender] */\n      0xffffffffffffffffffffffffffffffffffffffff\n      and\n      0xffffffffffffffffffffffffffffffffffffffff\n      and\n      dup2\n      mstore\n      0x20\n      add\n      swap1\n      dup2\n      mstore\n      0x20\n      add\n      0x00\n      keccak256\n        /* \"contracts/MyContract_FungibleToken.sol\":1757:1786  allowance[sender][msg.sender] */\n      0x00\n        /* \"contracts/MyContract_FungibleToken.sol\":1775:1785  msg.sender */\n      caller\n        /* \"contracts/MyContract_FungibleToken.sol\":1757:1786  allowance[sender][msg.sender] */\n      0xffffffffffffffffffffffffffffffffffffffff\n      and\n      0xffffffffffffffffffffffffffffffffffffffff\n      and\n      dup2\n      mstore\n      0x20\n      add\n      swap1\n      dup2\n      mstore\n      0x20\n      add\n      0x00\n      keccak256\n      0x00\n        /* \"contracts/MyContract_FungibleToken.sol\":1757:1796  allowance[sender][msg.sender] -= amount */\n      dup3\n      dup3\n      sload\n      tag_70\n      swap2\n      swap1\n      tag_71\n      jump\t// in\n    tag_70:\n      swap3\n      pop\n      pop\n      dup2\n      swap1\n      sstore\n      pop\n        /* \"contracts/MyContract_FungibleToken.sol\":1828:1834  amount */\n      dup2\n        /* \"contracts/MyContract_FungibleToken.sol\":1807:1816  balanceOf */\n      0x01\n        /* \"contracts/MyContract_FungibleToken.sol\":1807:1824  balanceOf[sender] */\n      0x00\n        /* \"contracts/MyContract_FungibleToken.sol\":1817:1823  sender */\n      dup7\n        /* \"contracts/MyContract_FungibleToken.sol\":1807:1824  balanceOf[sender] */\n      0xffffffffffffffffffffffffffffffffffffffff\n      and\n      0xffffffffffffffffffffffffffffffffffffffff\n      and\n      dup2\n      mstore\n      0x20\n      add\n      swap1\n      dup2\n      mstore\n      0x20\n      add\n      0x00\n      keccak256\n      0x00\n        /* \"contracts/MyContract_FungibleToken.sol\":1807:1834  balanceOf[sender] -= amount */\n      dup3\n      dup3\n      sload\n      tag_72\n      swap2\n      swap1\n      tag_71\n      jump\t// in\n    tag_72:\n      swap3\n      pop\n      pop\n      dup2\n      swap1\n      sstore\n      pop\n        /* \"contracts/MyContract_FungibleToken.sol\":1869:1875  amount */\n      dup2\n        /* \"contracts/MyContract_FungibleToken.sol\":1845:1854  balanceOf */\n      0x01\n        /* \"contracts/MyContract_FungibleToken.sol\":1845:1865  balanceOf[recipient] */\n      0x00\n        /* \"contracts/MyContract_FungibleToken.sol\":1855:1864  recipient */\n      dup6\n        /* \"contracts/MyContract_FungibleToken.sol\":1845:1865  balanceOf[recipient] */\n      0xffffffffffffffffffffffffffffffffffffffff\n      and\n      0xffffffffffffffffffffffffffffffffffffffff\n      and\n      dup2\n      mstore\n      0x20\n      add\n      swap1\n      dup2\n      mstore\n      0x20\n      add\n      0x00\n      keccak256\n      0x00\n        /* \"contracts/MyContract_FungibleToken.sol\":1845:1875  balanceOf[recipient] += amount */\n      dup3\n      dup3\n      sload\n      tag_73\n      swap2\n      swap1\n      tag_74\n      jump\t// in\n    tag_73:\n      swap3\n      pop\n      pop\n      dup2\n      swap1\n      sstore\n      pop\n        /* \"contracts/MyContract_FungibleToken.sol\":1908:1917  recipient */\n      dup3\n        /* \"contracts/MyContract_FungibleToken.sol\":1891:1926  Transfer(sender, recipient, amount) */\n      0xffffffffffffffffffffffffffffffffffffffff\n      and\n        /* \"contracts/MyContract_FungibleToken.sol\":1900:1906  sender */\n      dup5\n        /* \"contracts/MyContract_FungibleToken.sol\":1891:1926  Transfer(sender, recipient, amount) */\n      0xffffffffffffffffffffffffffffffffffffffff\n      and\n      0xddf252ad1be2c89b69c2b068fc378daa952ba7f163c4a11628f55a4df523b3ef\n        /* \"contracts/MyContract_FungibleToken.sol\":1919:1925  amount */\n      dup5\n        /* \"contracts/MyContract_FungibleToken.sol\":1891:1926  Transfer(sender, recipient, amount) */\n      mload(0x40)\n      tag_75\n      swap2\n      swap1\n      tag_28\n      jump\t// in\n    tag_75:\n      mload(0x40)\n      dup1\n      swap2\n      sub\n      swap1\n      log3\n        /* \"contracts/MyContract_FungibleToken.sol\":1944:1948  true */\n      0x01\n        /* \"contracts/MyContract_FungibleToken.sol\":1937:1948  return true */\n      swap1\n      pop\n        /* \"contracts/MyContract_FungibleToken.sol\":1649:1956  function transferFrom(address sender, address recipient, uint256 amount) external returns (bool) {... */\n      swap4\n      swap3\n      pop\n      pop\n      pop\n      jump\t// out\n        /* \"contracts/MyContract_FungibleToken.sol\":981:1002  uint8 public decimals */\n    tag_35:\n      0x05\n      0x00\n      swap1\n      sload\n      swap1\n      0x0100\n      exp\n      swap1\n      div\n      0xff\n      and\n      dup2\n      jump\t// out\n        /* \"contracts/MyContract_FungibleToken.sol\":2334:2421  function mint(address to, uint256 amount) external {... */\n    tag_40:\n        /* \"contracts/MyContract_FungibleToken.sol\":2396:2413  _mint(to, amount) */\n      tag_77\n        /* \"contracts/MyContract_FungibleToken.sol\":2402:2404  to */\n      dup3\n        /* \"contracts/MyContract_FungibleToken.sol\":2406:2412  amount */\n      dup3\n        /* \"contracts/MyContract_FungibleToken.sol\":2396:2401  _mint */\n      tag_78\n        /* \"contracts/MyContract_FungibleToken.sol\":2396:2413  _mint(to, amount) */\n      jump\t// in\n    tag_77:\n        /* \"contracts/MyContract_FungibleToken.sol\":2334:2421  function mint(address to, uint256 amount) external {... */\n      pop\n      pop\n      jump\t// out\n        /* \"contracts/MyContract_FungibleToken.sol\":807:851  mapping(address => uint256) public balanceOf */\n    tag_44:\n      mstore(0x20, 0x01)\n      dup1\n      0x00\n      mstore\n      keccak256(0x00, 0x40)\n      0x00\n      swap2\n      pop\n      swap1\n      pop\n      sload\n      dup2\n      jump\t// out\n        /* \"contracts/MyContract_FungibleToken.sol\":954:974  string public symbol */\n    tag_47:\n      0x04\n      dup1\n      sload\n      tag_79\n      swap1\n      tag_62\n      jump\t// in\n    tag_79:\n      dup1\n      0x1f\n      add\n      0x20\n      dup1\n      swap2\n      div\n      mul\n      0x20\n      add\n      mload(0x40)\n      swap1\n      dup2\n      add\n      0x40\n      mstore\n      dup1\n      swap3\n      swap2\n      swap1\n      dup2\n      dup2\n      mstore\n      0x20\n      add\n      dup3\n      dup1\n      sload\n      tag_80\n      swap1\n      tag_62\n      jump\t// in\n    tag_80:\n      dup1\n      iszero\n      tag_81\n      jumpi\n      dup1\n      0x1f\n      lt\n      tag_82\n      jumpi\n      0x0100\n      dup1\n      dup4\n      sload\n      div\n      mul\n      dup4\n      mstore\n      swap2\n      0x20\n      add\n      swap2\n      jump(tag_81)\n    tag_82:\n      dup3\n      add\n      swap2\n      swap1\n      0x00\n      mstore\n      keccak256(0x00, 0x20)\n      swap1\n    tag_83:\n      dup2\n      sload\n      dup2\n      mstore\n      swap1\n      0x01\n      add\n      swap1\n      0x20\n      add\n      dup1\n      dup4\n      gt\n      tag_83\n      jumpi\n      dup3\n      swap1\n      sub\n      0x1f\n      and\n      dup3\n      add\n      swap2\n    tag_81:\n      pop\n      pop\n      pop\n      pop\n      pop\n      dup2\n      jump\t// out\n        /* \"contracts/MyContract_FungibleToken.sol\":2429:2520  function burn(address from, uint256 amount) external {... */\n    tag_51:\n        /* \"contracts/MyContract_FungibleToken.sol\":2493:2512  _burn(from, amount) */\n      tag_85\n        /* \"contracts/MyContract_FungibleToken.sol\":2499:2503  from */\n      dup3\n        /* \"contracts/MyContract_FungibleToken.sol\":2505:2511  amount */\n      dup3\n        /* \"contracts/MyContract_FungibleToken.sol\":2493:2498  _burn */\n      tag_86\n        /* \"contracts/MyContract_FungibleToken.sol\":2493:2512  _burn(from, amount) */\n      jump\t// in\n    tag_85:\n        /* \"contracts/MyContract_FungibleToken.sol\":2429:2520  function burn(address from, uint256 amount) external {... */\n      pop\n      pop\n      jump\t// out\n        /* \"contracts/MyContract_FungibleToken.sol\":1181:1426  function transfer(address recipient, uint256 amount) external returns (bool) {... */\n    tag_54:\n        /* \"contracts/MyContract_FungibleToken.sol\":1252:1256  bool */\n      0x00\n        /* \"contracts/MyContract_FungibleToken.sol\":1294:1300  amount */\n      dup2\n        /* \"contracts/MyContract_FungibleToken.sol\":1269:1278  balanceOf */\n      0x01\n        /* \"contracts/MyContract_FungibleToken.sol\":1269:1290  balanceOf[msg.sender] */\n      0x00\n        /* \"contracts/MyContract_FungibleToken.sol\":1279:1289  msg.sender */\n      caller\n        /* \"contracts/MyContract_FungibleToken.sol\":1269:1290  balanceOf[msg.sender] */\n      0xffffffffffffffffffffffffffffffffffffffff\n      and\n      0xffffffffffffffffffffffffffffffffffffffff\n      and\n      dup2\n      mstore\n      0x20\n      add\n      swap1\n      dup2\n      mstore\n      0x20\n      add\n      0x00\n      keccak256\n      0x00\n        /* \"contracts/MyContract_FungibleToken.sol\":1269:1300  balanceOf[msg.sender] -= amount */\n      dup3\n      dup3\n      sload\n      tag_88\n      swap2\n      swap1\n      tag_71\n      jump\t// in\n    tag_88:\n      swap3\n      pop\n      pop\n      dup2\n      swap1\n      sstore\n      pop\n        /* \"contracts/MyContract_FungibleToken.sol\":1335:1341  amount */\n      dup2\n        /* \"contracts/MyContract_FungibleToken.sol\":1311:1320  balanceOf */\n      0x01\n        /* \"contracts/MyContract_FungibleToken.sol\":1311:1331  balanceOf[recipient] */\n      0x00\n        /* \"contracts/MyContract_FungibleToken.sol\":1321:1330  recipient */\n      dup6\n        /* \"contracts/MyContract_FungibleToken.sol\":1311:1331  balanceOf[recipient] */\n      0xffffffffffffffffffffffffffffffffffffffff\n      and\n      0xffffffffffffffffffffffffffffffffffffffff\n      and\n      dup2\n      mstore\n      0x20\n      add\n      swap1\n      dup2\n      mstore\n      0x20\n      add\n      0x00\n      keccak256\n      0x00\n        /* \"contracts/MyContract_FungibleToken.sol\":1311:1341  balanceOf[recipient] += amount */\n      dup3\n      dup3\n      sload\n      tag_89\n      swap2\n      swap1\n      tag_74\n      jump\t// in\n    tag_89:\n      swap3\n      pop\n      pop\n      dup2\n      swap1\n      sstore\n      pop\n        /* \"contracts/MyContract_FungibleToken.sol\":1378:1387  recipient */\n      dup3\n        /* \"contracts/MyContract_FungibleToken.sol\":1357:1396  Transfer(msg.sender, recipient, amount) */\n      0xffffffffffffffffffffffffffffffffffffffff\n      and\n        /* \"contracts/MyContract_FungibleToken.sol\":1366:1376  msg.sender */\n      caller\n        /* \"contracts/MyContract_FungibleToken.sol\":1357:1396  Transfer(msg.sender, recipient, amount) */\n      0xffffffffffffffffffffffffffffffffffffffff\n      and\n      0xddf252ad1be2c89b69c2b068fc378daa952ba7f163c4a11628f55a4df523b3ef\n        /* \"contracts/MyContract_FungibleToken.sol\":1389:1395  amount */\n      dup5\n        /* \"contracts/MyContract_FungibleToken.sol\":1357:1396  Transfer(msg.sender, recipient, amount) */\n      mload(0x40)\n      tag_90\n      swap2\n      swap1\n      tag_28\n      jump\t// in\n    tag_90:\n      mload(0x40)\n      dup1\n      swap2\n      sub\n      swap1\n      log3\n        /* \"contracts/MyContract_FungibleToken.sol\":1414:1418  true */\n      0x01\n        /* \"contracts/MyContract_FungibleToken.sol\":1407:1418  return true */\n      swap1\n      pop\n        /* \"contracts/MyContract_FungibleToken.sol\":1181:1426  function transfer(address recipient, uint256 amount) external returns (bool) {... */\n      swap3\n      swap2\n      pop\n      pop\n      jump\t// out\n        /* \"contracts/MyContract_FungibleToken.sol\":858:922  mapping(address => mapping(address => uint256)) public allowance */\n    tag_59:\n      mstore(0x20, 0x02)\n      dup2\n      0x00\n      mstore\n      mstore(0x20, keccak256(0x00, 0x40))\n      dup1\n      0x00\n      mstore\n      keccak256(0x00, 0x40)\n      0x00\n      swap2\n      pop\n      swap2\n      pop\n      pop\n      sload\n      dup2\n      jump\t// out\n        /* \"contracts/MyContract_FungibleToken.sol\":1964:2138  function _mint(address to, uint256 amount) internal {... */\n    tag_78:\n        /* \"contracts/MyContract_FungibleToken.sol\":2044:2050  amount */\n      dup1\n        /* \"contracts/MyContract_FungibleToken.sol\":2027:2036  balanceOf */\n      0x01\n        /* \"contracts/MyContract_FungibleToken.sol\":2027:2040  balanceOf[to] */\n      0x00\n        /* \"contracts/MyContract_FungibleToken.sol\":2037:2039  to */\n      dup5\n        /* \"contracts/MyContract_FungibleToken.sol\":2027:2040  balanceOf[to] */\n      0xffffffffffffffffffffffffffffffffffffffff\n      and\n      0xffffffffffffffffffffffffffffffffffffffff\n      and\n      dup2\n      mstore\n      0x20\n      add\n      swap1\n      dup2\n      mstore\n      0x20\n      add\n      0x00\n      keccak256\n      0x00\n        /* \"contracts/MyContract_FungibleToken.sol\":2027:2050  balanceOf[to] += amount */\n      dup3\n      dup3\n      sload\n      tag_92\n      swap2\n      swap1\n      tag_74\n      jump\t// in\n    tag_92:\n      swap3\n      pop\n      pop\n      dup2\n      swap1\n      sstore\n      pop\n        /* \"contracts/MyContract_FungibleToken.sol\":2076:2082  amount */\n      dup1\n        /* \"contracts/MyContract_FungibleToken.sol\":2061:2072  totalSupply */\n      0x00\n      dup1\n        /* \"contracts/MyContract_FungibleToken.sol\":2061:2082  totalSupply += amount */\n      dup3\n      dup3\n      sload\n      tag_93\n      swap2\n      swap1\n      tag_74\n      jump\t// in\n    tag_93:\n      swap3\n      pop\n      pop\n      dup2\n      swap1\n      sstore\n      pop\n        /* \"contracts/MyContract_FungibleToken.sol\":2119:2121  to */\n      dup2\n        /* \"contracts/MyContract_FungibleToken.sol\":2098:2130  Transfer(address(0), to, amount) */\n      0xffffffffffffffffffffffffffffffffffffffff\n      and\n        /* \"contracts/MyContract_FungibleToken.sol\":2115:2116  0 */\n      0x00\n        /* \"contracts/MyContract_FungibleToken.sol\":2098:2130  Transfer(address(0), to, amount) */\n      0xffffffffffffffffffffffffffffffffffffffff\n      and\n      0xddf252ad1be2c89b69c2b068fc378daa952ba7f163c4a11628f55a4df523b3ef\n        /* \"contracts/MyContract_FungibleToken.sol\":2123:2129  amount */\n      dup4\n        /* \"contracts/MyContract_FungibleToken.sol\":2098:2130  Transfer(address(0), to, amount) */\n      mload(0x40)\n      tag_94\n      swap2\n      swap1\n      tag_28\n      jump\t// in\n    tag_94:\n      mload(0x40)\n      dup1\n      swap2\n      sub\n      swap1\n      log3\n        /* \"contracts/MyContract_FungibleToken.sol\":1964:2138  function _mint(address to, uint256 amount) internal {... */\n      pop\n      pop\n      jump\t// out\n        /* \"contracts/MyContract_FungibleToken.sol\":2146:2326  function _burn(address from, uint256 amount) internal {... */\n    tag_86:\n        /* \"contracts/MyContract_FungibleToken.sol\":2230:2236  amount */\n      dup1\n        /* \"contracts/MyContract_FungibleToken.sol\":2211:2220  balanceOf */\n      0x01\n        /* \"contracts/MyContract_FungibleToken.sol\":2211:2226  balanceOf[from] */\n      0x00\n        /* \"contracts/MyContract_FungibleToken.sol\":2221:2225  from */\n      dup5\n        /* \"contracts/MyContract_FungibleToken.sol\":2211:2226  balanceOf[from] */\n      0xffffffffffffffffffffffffffffffffffffffff\n      and\n      0xffffffffffffffffffffffffffffffffffffffff\n      and\n      dup2\n      mstore\n      0x20\n      add\n      swap1\n      dup2\n      mstore\n      0x20\n      add\n      0x00\n      keccak256\n      0x00\n        /* \"contracts/MyContract_FungibleToken.sol\":2211:2236  balanceOf[from] -= amount */\n      dup3\n      dup3\n      sload\n      tag_96\n      swap2\n      swap1\n      tag_71\n      jump\t// in\n    tag_96:\n      swap3\n      pop\n      pop\n      dup2\n      swap1\n      sstore\n      pop\n        /* \"contracts/MyContract_FungibleToken.sol\":2262:2268  amount */\n      dup1\n        /* \"contracts/MyContract_FungibleToken.sol\":2247:2258  totalSupply */\n      0x00\n      dup1\n        /* \"contracts/MyContract_FungibleToken.sol\":2247:2268  totalSupply -= amount */\n      dup3\n      dup3\n      sload\n      tag_97\n      swap2\n      swap1\n      tag_71\n      jump\t// in\n    tag_97:\n      swap3\n      pop\n      pop\n      dup2\n      swap1\n      sstore\n      pop\n        /* \"contracts/MyContract_FungibleToken.sol\":2307:2308  0 */\n      0x00\n        /* \"contracts/MyContract_FungibleToken.sol\":2284:2318  Transfer(from, address(0), amount) */\n      0xffffffffffffffffffffffffffffffffffffffff\n      and\n        /* \"contracts/MyContract_FungibleToken.sol\":2293:2297  from */\n      dup3\n        /* \"contracts/MyContract_FungibleToken.sol\":2284:2318  Transfer(from, address(0), amount) */\n      0xffffffffffffffffffffffffffffffffffffffff\n      and\n      0xddf252ad1be2c89b69c2b068fc378daa952ba7f163c4a11628f55a4df523b3ef\n        /* \"contracts/MyContract_FungibleToken.sol\":2311:2317  amount */\n      dup4\n        /* \"contracts/MyContract_FungibleToken.sol\":2284:2318  Transfer(from, address(0), amount) */\n      mload(0x40)\n      tag_98\n      swap2\n      swap1\n      tag_28\n      jump\t// in\n    tag_98:\n      mload(0x40)\n      dup1\n      swap2\n      sub\n      swap1\n      log3\n        /* \"contracts/MyContract_FungibleToken.sol\":2146:2326  function _burn(address from, uint256 amount) internal {... */\n      pop\n      pop\n      jump\t// out\n        /* \"#utility.yul\":7:106   */\n    tag_99:\n        /* \"#utility.yul\":59:65   */\n      0x00\n        /* \"#utility.yul\":93:98   */\n      dup2\n        /* \"#utility.yul\":87:99   */\n      mload\n        /* \"#utility.yul\":77:99   */\n      swap1\n      pop\n        /* \"#utility.yul\":7:106   */\n      swap2\n      swap1\n      pop\n      jump\t// out\n        /* \"#utility.yul\":112:281   */\n    tag_100:\n        /* \"#utility.yul\":196:207   */\n      0x00\n        /* \"#utility.yul\":230:236   */\n      dup3\n        /* \"#utility.yul\":225:228   */\n      dup3\n        /* \"#utility.yul\":218:237   */\n      mstore\n        /* \"#utility.yul\":270:274   */\n      0x20\n        /* \"#utility.yul\":265:268   */\n      dup3\n        /* \"#utility.yul\":261:275   */\n      add\n        /* \"#utility.yul\":246:275   */\n      swap1\n      pop\n        /* \"#utility.yul\":112:281   */\n      swap3\n      swap2\n      pop\n      pop\n      jump\t// out\n        /* \"#utility.yul\":287:426   */\n    tag_101:\n        /* \"#utility.yul\":376:382   */\n      dup3\n        /* \"#utility.yul\":371:374   */\n      dup2\n        /* \"#utility.yul\":366:369   */\n      dup4\n        /* \"#utility.yul\":360:383   */\n      mcopy\n        /* \"#utility.yul\":417:418   */\n      0x00\n        /* \"#utility.yul\":408:414   */\n      dup4\n        /* \"#utility.yul\":403:406   */\n      dup4\n        /* \"#utility.yul\":399:415   */\n      add\n        /* \"#utility.yul\":392:419   */\n      mstore\n        /* \"#utility.yul\":287:426   */\n      pop\n      pop\n      pop\n      jump\t// out\n        /* \"#utility.yul\":432:534   */\n    tag_102:\n        /* \"#utility.yul\":473:479   */\n      0x00\n        /* \"#utility.yul\":524:526   */\n      0x1f\n        /* \"#utility.yul\":520:527   */\n      not\n        /* \"#utility.yul\":515:517   */\n      0x1f\n        /* \"#utility.yul\":508:513   */\n      dup4\n        /* \"#utility.yul\":504:518   */\n      add\n        /* \"#utility.yul\":500:528   */\n      and\n        /* \"#utility.yul\":490:528   */\n      swap1\n      pop\n        /* \"#utility.yul\":432:534   */\n      swap2\n      swap1\n      pop\n      jump\t// out\n        /* \"#utility.yul\":540:917   */\n    tag_103:\n        /* \"#utility.yul\":628:631   */\n      0x00\n        /* \"#utility.yul\":656:695   */\n      tag_127\n        /* \"#utility.yul\":689:694   */\n      dup3\n        /* \"#utility.yul\":656:695   */\n      tag_99\n      jump\t// in\n    tag_127:\n        /* \"#utility.yul\":711:782   */\n      tag_128\n        /* \"#utility.yul\":775:781   */\n      dup2\n        /* \"#utility.yul\":770:773   */\n      dup6\n        /* \"#utility.yul\":711:782   */\n      tag_100\n      jump\t// in\n    tag_128:\n        /* \"#utility.yul\":704:782   */\n      swap4\n      pop\n        /* \"#utility.yul\":791:856   */\n      tag_129\n        /* \"#utility.yul\":849:855   */\n      dup2\n        /* \"#utility.yul\":844:847   */\n      dup6\n        /* \"#utility.yul\":837:841   */\n      0x20\n        /* \"#utility.yul\":830:835   */\n      dup7\n        /* \"#utility.yul\":826:842   */\n      add\n        /* \"#utility.yul\":791:856   */\n      tag_101\n      jump\t// in\n    tag_129:\n        /* \"#utility.yul\":881:910   */\n      tag_130\n        /* \"#utility.yul\":903:909   */\n      dup2\n        /* \"#utility.yul\":881:910   */\n      tag_102\n      jump\t// in\n    tag_130:\n        /* \"#utility.yul\":876:879   */\n      dup5\n        /* \"#utility.yul\":872:911   */\n      add\n        /* \"#utility.yul\":865:911   */\n      swap2\n      pop\n        /* \"#utility.yul\":632:917   */\n      pop\n        /* \"#utility.yul\":540:917   */\n      swap3\n      swap2\n      pop\n      pop\n      jump\t// out\n        /* \"#utility.yul\":923:1236   */\n    tag_18:\n        /* \"#utility.yul\":1036:1040   */\n      0x00\n        /* \"#utility.yul\":1074:1076   */\n      0x20\n        /* \"#utility.yul\":1063:1072   */\n      dup3\n        /* \"#utility.yul\":1059:1077   */\n      add\n        /* \"#utility.yul\":1051:1077   */\n      swap1\n      pop\n        /* \"#utility.yul\":1123:1132   */\n      dup2\n        /* \"#utility.yul\":1117:1121   */\n      dup2\n        /* \"#utility.yul\":1113:1133   */\n      sub\n        /* \"#utility.yul\":1109:1110   */\n      0x00\n        /* \"#utility.yul\":1098:1107   */\n      dup4\n        /* \"#utility.yul\":1094:1111   */\n      add\n        /* \"#utility.yul\":1087:1134   */\n      mstore\n        /* \"#utility.yul\":1151:1229   */\n      tag_132\n        /* \"#utility.yul\":1224:1228   */\n      dup2\n        /* \"#utility.yul\":1215:1221   */\n      dup5\n        /* \"#utility.yul\":1151:1229   */\n      tag_103\n      jump\t// in\n    tag_132:\n        /* \"#utility.yul\":1143:1229   */\n      swap1\n      pop\n        /* \"#utility.yul\":923:1236   */\n      swap3\n      swap2\n      pop\n      pop\n      jump\t// out\n        /* \"#utility.yul\":1323:1440   */\n    tag_105:\n        /* \"#utility.yul\":1432:1433   */\n      0x00\n        /* \"#utility.yul\":1429:1430   */\n      dup1\n        /* \"#utility.yul\":1422:1434   */\n      revert\n        /* \"#utility.yul\":1569:1695   */\n    tag_107:\n        /* \"#utility.yul\":1606:1613   */\n      0x00\n        /* \"#utility.yul\":1646:1688   */\n      0xffffffffffffffffffffffffffffffffffffffff\n        /* \"#utility.yul\":1639:1644   */\n      dup3\n        /* \"#utility.yul\":1635:1689   */\n      and\n        /* \"#utility.yul\":1624:1689   */\n      swap1\n      pop\n        /* \"#utility.yul\":1569:1695   */\n      swap2\n      swap1\n      pop\n      jump\t// out\n        /* \"#utility.yul\":1701:1797   */\n    tag_108:\n        /* \"#utility.yul\":1738:1745   */\n      0x00\n        /* \"#utility.yul\":1767:1791   */\n      tag_138\n        /* \"#utility.yul\":1785:1790   */\n      dup3\n        /* \"#utility.yul\":1767:1791   */\n      tag_107\n      jump\t// in\n    tag_138:\n        /* \"#utility.yul\":1756:1791   */\n      swap1\n      pop\n        /* \"#utility.yul\":1701:1797   */\n      swap2\n      swap1\n      pop\n      jump\t// out\n        /* \"#utility.yul\":1803:1925   */\n    tag_109:\n        /* \"#utility.yul\":1876:1900   */\n      tag_140\n        /* \"#utility.yul\":1894:1899   */\n      dup2\n        /* \"#utility.yul\":1876:1900   */\n      tag_108\n      jump\t// in\n    tag_140:\n        /* \"#utility.yul\":1869:1874   */\n      dup2\n        /* \"#utility.yul\":1866:1901   */\n      eq\n        /* \"#utility.yul\":1856:1919   */\n      tag_141\n      jumpi\n        /* \"#utility.yul\":1915:1916   */\n      0x00\n        /* \"#utility.yul\":1912:1913   */\n      dup1\n        /* \"#utility.yul\":1905:1917   */\n      revert\n        /* \"#utility.yul\":1856:1919   */\n    tag_141:\n        /* \"#utility.yul\":1803:1925   */\n      pop\n      jump\t// out\n        /* \"#utility.yul\":1931:2070   */\n    tag_110:\n        /* \"#utility.yul\":1977:1982   */\n      0x00\n        /* \"#utility.yul\":2015:2021   */\n      dup2\n        /* \"#utility.yul\":2002:2022   */\n      calldataload\n        /* \"#utility.yul\":1993:2022   */\n      swap1\n      pop\n        /* \"#utility.yul\":2031:2064   */\n      tag_143\n        /* \"#utility.yul\":2058:2063   */\n      dup2\n        /* \"#utility.yul\":2031:2064   */\n      tag_109\n      jump\t// in\n    tag_143:\n        /* \"#utility.yul\":1931:2070   */\n      swap3\n      swap2\n      pop\n      pop\n      jump\t// out\n        /* \"#utility.yul\":2076:2153   */\n    tag_111:\n        /* \"#utility.yul\":2113:2120   */\n      0x00\n        /* \"#utility.yul\":2142:2147   */\n      dup2\n        /* \"#utility.yul\":2131:2147   */\n      swap1\n      pop\n        /* \"#utility.yul\":2076:2153   */\n      swap2\n      swap1\n      pop\n      jump\t// out\n        /* \"#utility.yul\":2159:2281   */\n    tag_112:\n        /* \"#utility.yul\":2232:2256   */\n      tag_146\n        /* \"#utility.yul\":2250:2255   */\n      dup2\n        /* \"#utility.yul\":2232:2256   */\n      tag_111\n      jump\t// in\n    tag_146:\n        /* \"#utility.yul\":2225:2230   */\n      dup2\n        /* \"#utility.yul\":2222:2257   */\n      eq\n        /* \"#utility.yul\":2212:2275   */\n      tag_147\n      jumpi\n        /* \"#utility.yul\":2271:2272   */\n      0x00\n        /* \"#utility.yul\":2268:2269   */\n      dup1\n        /* \"#utility.yul\":2261:2273   */\n      revert\n        /* \"#utility.yul\":2212:2275   */\n    tag_147:\n        /* \"#utility.yul\":2159:2281   */\n      pop\n      jump\t// out\n        /* \"#utility.yul\":2287:2426   */\n    tag_113:\n        /* \"#utility.yul\":2333:2338   */\n      0x00\n        /* \"#utility.yul\":2371:2377   */\n      dup2\n        /* \"#utility.yul\":2358:2378   */\n      calldataload\n        /* \"#utility.yul\":2349:2378   */\n      swap1\n      pop\n        /* \"#utility.yul\":2387:2420   */\n      tag_149\n        /* \"#utility.yul\":2414:2419   */\n      dup2\n        /* \"#utility.yul\":2387:2420   */\n      tag_112\n      jump\t// in\n    tag_149:\n        /* \"#utility.yul\":2287:2426   */\n      swap3\n      swap2\n      pop\n      pop\n      jump\t// out\n        /* \"#utility.yul\":2432:2906   */\n    tag_21:\n        /* \"#utility.yul\":2500:2506   */\n      0x00\n        /* \"#utility.yul\":2508:2514   */\n      dup1\n        /* \"#utility.yul\":2557:2559   */\n      0x40\n        /* \"#utility.yul\":2545:2554   */\n      dup4\n        /* \"#utility.yul\":2536:2543   */\n      dup6\n        /* \"#utility.yul\":2532:2555   */\n      sub\n        /* \"#utility.yul\":2528:2560   */\n      slt\n        /* \"#utility.yul\":2525:2644   */\n      iszero\n      tag_151\n      jumpi\n        /* \"#utility.yul\":2563:2642   */\n      tag_152\n      tag_105\n      jump\t// in\n    tag_152:\n        /* \"#utility.yul\":2525:2644   */\n    tag_151:\n        /* \"#utility.yul\":2683:2684   */\n      0x00\n        /* \"#utility.yul\":2708:2761   */\n      tag_153\n        /* \"#utility.yul\":2753:2760   */\n      dup6\n        /* \"#utility.yul\":2744:2750   */\n      dup3\n        /* \"#utility.yul\":2733:2742   */\n      dup7\n        /* \"#utility.yul\":2729:2751   */\n      add\n        /* \"#utility.yul\":2708:2761   */\n      tag_110\n      jump\t// in\n    tag_153:\n        /* \"#utility.yul\":2698:2761   */\n      swap3\n      pop\n        /* \"#utility.yul\":2654:2771   */\n      pop\n        /* \"#utility.yul\":2810:2812   */\n      0x20\n        /* \"#utility.yul\":2836:2889   */\n      tag_154\n        /* \"#utility.yul\":2881:2888   */\n      dup6\n        /* \"#utility.yul\":2872:2878   */\n      dup3\n        /* \"#utility.yul\":2861:2870   */\n      dup7\n        /* \"#utility.yul\":2857:2879   */\n      add\n        /* \"#utility.yul\":2836:2889   */\n      tag_113\n      jump\t// in\n    tag_154:\n        /* \"#utility.yul\":2826:2889   */\n      swap2\n      pop\n        /* \"#utility.yul\":2781:2899   */\n      pop\n        /* \"#utility.yul\":2432:2906   */\n      swap3\n      pop\n      swap3\n      swap1\n      pop\n      jump\t// out\n        /* \"#utility.yul\":2912:3002   */\n    tag_114:\n        /* \"#utility.yul\":2946:2953   */\n      0x00\n        /* \"#utility.yul\":2989:2994   */\n      dup2\n        /* \"#utility.yul\":2982:2995   */\n      iszero\n        /* \"#utility.yul\":2975:2996   */\n      iszero\n        /* \"#utility.yul\":2964:2996   */\n      swap1\n      pop\n        /* \"#utility.yul\":2912:3002   */\n      swap2\n      swap1\n      pop\n      jump\t// out\n        /* \"#utility.yul\":3008:3117   */\n    tag_115:\n        /* \"#utility.yul\":3089:3110   */\n      tag_157\n        /* \"#utility.yul\":3104:3109   */\n      dup2\n        /* \"#utility.yul\":3089:3110   */\n      tag_114\n      jump\t// in\n    tag_157:\n        /* \"#utility.yul\":3084:3087   */\n      dup3\n        /* \"#utility.yul\":3077:3111   */\n      mstore\n        /* \"#utility.yul\":3008:3117   */\n      pop\n      pop\n      jump\t// out\n        /* \"#utility.yul\":3123:3333   */\n    tag_24:\n        /* \"#utility.yul\":3210:3214   */\n      0x00\n        /* \"#utility.yul\":3248:3250   */\n      0x20\n        /* \"#utility.yul\":3237:3246   */\n      dup3\n        /* \"#utility.yul\":3233:3251   */\n      add\n        /* \"#utility.yul\":3225:3251   */\n      swap1\n      pop\n        /* \"#utility.yul\":3261:3326   */\n      tag_159\n        /* \"#utility.yul\":3323:3324   */\n      0x00\n        /* \"#utility.yul\":3312:3321   */\n      dup4\n        /* \"#utility.yul\":3308:3325   */\n      add\n        /* \"#utility.yul\":3299:3305   */\n      dup5\n        /* \"#utility.yul\":3261:3326   */\n      tag_115\n      jump\t// in\n    tag_159:\n        /* \"#utility.yul\":3123:3333   */\n      swap3\n      swap2\n      pop\n      pop\n      jump\t// out\n        /* \"#utility.yul\":3339:3457   */\n    tag_116:\n        /* \"#utility.yul\":3426:3450   */\n      tag_161\n        /* \"#utility.yul\":3444:3449   */\n      dup2\n        /* \"#utility.yul\":3426:3450   */\n      tag_111\n      jump\t// in\n    tag_161:\n        /* \"#utility.yul\":3421:3424   */\n      dup3\n        /* \"#utility.yul\":3414:3451   */\n      mstore\n        /* \"#utility.yul\":3339:3457   */\n      pop\n      pop\n      jump\t// out\n        /* \"#utility.yul\":3463:3685   */\n    tag_28:\n        /* \"#utility.yul\":3556:3560   */\n      0x00\n        /* \"#utility.yul\":3594:3596   */\n      0x20\n        /* \"#utility.yul\":3583:3592   */\n      dup3\n        /* \"#utility.yul\":3579:3597   */\n      add\n        /* \"#utility.yul\":3571:3597   */\n      swap1\n      pop\n        /* \"#utility.yul\":3607:3678   */\n      tag_163\n        /* \"#utility.yul\":3675:3676   */\n      0x00\n        /* \"#utility.yul\":3664:3673   */\n      dup4\n        /* \"#utility.yul\":3660:3677   */\n      add\n        /* \"#utility.yul\":3651:3657   */\n      dup5\n        /* \"#utility.yul\":3607:3678   */\n      tag_116\n      jump\t// in\n    tag_163:\n        /* \"#utility.yul\":3463:3685   */\n      swap3\n      swap2\n      pop\n      pop\n      jump\t// out\n        /* \"#utility.yul\":3691:4310   */\n    tag_31:\n        /* \"#utility.yul\":3768:3774   */\n      0x00\n        /* \"#utility.yul\":3776:3782   */\n      dup1\n        /* \"#utility.yul\":3784:3790   */\n      0x00\n        /* \"#utility.yul\":3833:3835   */\n      0x60\n        /* \"#utility.yul\":3821:3830   */\n      dup5\n        /* \"#utility.yul\":3812:3819   */\n      dup7\n        /* \"#utility.yul\":3808:3831   */\n      sub\n        /* \"#utility.yul\":3804:3836   */\n      slt\n        /* \"#utility.yul\":3801:3920   */\n      iszero\n      tag_165\n      jumpi\n        /* \"#utility.yul\":3839:3918   */\n      tag_166\n      tag_105\n      jump\t// in\n    tag_166:\n        /* \"#utility.yul\":3801:3920   */\n    tag_165:\n        /* \"#utility.yul\":3959:3960   */\n      0x00\n        /* \"#utility.yul\":3984:4037   */\n      tag_167\n        /* \"#utility.yul\":4029:4036   */\n      dup7\n        /* \"#utility.yul\":4020:4026   */\n      dup3\n        /* \"#utility.yul\":4009:4018   */\n      dup8\n        /* \"#utility.yul\":4005:4027   */\n      add\n        /* \"#utility.yul\":3984:4037   */\n      tag_110\n      jump\t// in\n    tag_167:\n        /* \"#utility.yul\":3974:4037   */\n      swap4\n      pop\n        /* \"#utility.yul\":3930:4047   */\n      pop\n        /* \"#utility.yul\":4086:4088   */\n      0x20\n        /* \"#utility.yul\":4112:4165   */\n      tag_168\n        /* \"#utility.yul\":4157:4164   */\n      dup7\n        /* \"#utility.yul\":4148:4154   */\n      dup3\n        /* \"#utility.yul\":4137:4146   */\n      dup8\n        /* \"#utility.yul\":4133:4155   */\n      add\n        /* \"#utility.yul\":4112:4165   */\n      tag_110\n      jump\t// in\n    tag_168:\n        /* \"#utility.yul\":4102:4165   */\n      swap3\n      pop\n        /* \"#utility.yul\":4057:4175   */\n      pop\n        /* \"#utility.yul\":4214:4216   */\n      0x40\n        /* \"#utility.yul\":4240:4293   */\n      tag_169\n        /* \"#utility.yul\":4285:4292   */\n      dup7\n        /* \"#utility.yul\":4276:4282   */\n      dup3\n        /* \"#utility.yul\":4265:4274   */\n      dup8\n        /* \"#utility.yul\":4261:4283   */\n      add\n        /* \"#utility.yul\":4240:4293   */\n      tag_113\n      jump\t// in\n    tag_169:\n        /* \"#utility.yul\":4230:4293   */\n      swap2\n      pop\n        /* \"#utility.yul\":4185:4303   */\n      pop\n        /* \"#utility.yul\":3691:4310   */\n      swap3\n      pop\n      swap3\n      pop\n      swap3\n      jump\t// out\n        /* \"#utility.yul\":4316:4402   */\n    tag_117:\n        /* \"#utility.yul\":4351:4358   */\n      0x00\n        /* \"#utility.yul\":4391:4395   */\n      0xff\n        /* \"#utility.yul\":4384:4389   */\n      dup3\n        /* \"#utility.yul\":4380:4396   */\n      and\n        /* \"#utility.yul\":4369:4396   */\n      swap1\n      pop\n        /* \"#utility.yul\":4316:4402   */\n      swap2\n      swap1\n      pop\n      jump\t// out\n        /* \"#utility.yul\":4408:4520   */\n    tag_118:\n        /* \"#utility.yul\":4491:4513   */\n      tag_172\n        /* \"#utility.yul\":4507:4512   */\n      dup2\n        /* \"#utility.yul\":4491:4513   */\n      tag_117\n      jump\t// in\n    tag_172:\n        /* \"#utility.yul\":4486:4489   */\n      dup3\n        /* \"#utility.yul\":4479:4514   */\n      mstore\n        /* \"#utility.yul\":4408:4520   */\n      pop\n      pop\n      jump\t// out\n        /* \"#utility.yul\":4526:4740   */\n    tag_37:\n        /* \"#utility.yul\":4615:4619   */\n      0x00\n        /* \"#utility.yul\":4653:4655   */\n      0x20\n        /* \"#utility.yul\":4642:4651   */\n      dup3\n        /* \"#utility.yul\":4638:4656   */\n      add\n        /* \"#utility.yul\":4630:4656   */\n      swap1\n      pop\n        /* \"#utility.yul\":4666:4733   */\n      tag_174\n        /* \"#utility.yul\":4730:4731   */\n      0x00\n        /* \"#utility.yul\":4719:4728   */\n      dup4\n        /* \"#utility.yul\":4715:4732   */\n      add\n        /* \"#utility.yul\":4706:4712   */\n      dup5\n        /* \"#utility.yul\":4666:4733   */\n      tag_118\n      jump\t// in\n    tag_174:\n        /* \"#utility.yul\":4526:4740   */\n      swap3\n      swap2\n      pop\n      pop\n      jump\t// out\n        /* \"#utility.yul\":4746:5075   */\n    tag_43:\n        /* \"#utility.yul\":4805:4811   */\n      0x00\n        /* \"#utility.yul\":4854:4856   */\n      0x20\n        /* \"#utility.yul\":4842:4851   */\n      dup3\n        /* \"#utility.yul\":4833:4840   */\n      dup5\n        /* \"#utility.yul\":4829:4852   */\n      sub\n        /* \"#utility.yul\":4825:4857   */\n      slt\n        /* \"#utility.yul\":4822:4941   */\n      iszero\n      tag_176\n      jumpi\n        /* \"#utility.yul\":4860:4939   */\n      tag_177\n      tag_105\n      jump\t// in\n    tag_177:\n        /* \"#utility.yul\":4822:4941   */\n    tag_176:\n        /* \"#utility.yul\":4980:4981   */\n      0x00\n        /* \"#utility.yul\":5005:5058   */\n      tag_178\n        /* \"#utility.yul\":5050:5057   */\n      dup5\n        /* \"#utility.yul\":5041:5047   */\n      dup3\n        /* \"#utility.yul\":5030:5039   */\n      dup6\n        /* \"#utility.yul\":5026:5048   */\n      add\n        /* \"#utility.yul\":5005:5058   */\n      tag_110\n      jump\t// in\n    tag_178:\n        /* \"#utility.yul\":4995:5058   */\n      swap2\n      pop\n        /* \"#utility.yul\":4951:5068   */\n      pop\n        /* \"#utility.yul\":4746:5075   */\n      swap3\n      swap2\n      pop\n      pop\n      jump\t// out\n        /* \"#utility.yul\":5081:5555   */\n    tag_58:\n        /* \"#utility.yul\":5149:5155   */\n      0x00\n        /* \"#utility.yul\":5157:5163   */\n      dup1\n        /* \"#utility.yul\":5206:5208   */\n      0x40\n        /* \"#utility.yul\":5194:5203   */\n      dup4\n        /* \"#utility.yul\":5185:5192   */\n      dup6\n        /* \"#utility.yul\":5181:5204   */\n      sub\n        /* \"#utility.yul\":5177:5209   */\n      slt\n        /* \"#utility.yul\":5174:5293   */\n      iszero\n      tag_180\n      jumpi\n        /* \"#utility.yul\":5212:5291   */\n      tag_181\n      tag_105\n      jump\t// in\n    tag_181:\n        /* \"#utility.yul\":5174:5293   */\n    tag_180:\n        /* \"#utility.yul\":5332:5333   */\n      0x00\n        /* \"#utility.yul\":5357:5410   */\n      tag_182\n        /* \"#utility.yul\":5402:5409   */\n      dup6\n        /* \"#utility.yul\":5393:5399   */\n      dup3\n        /* \"#utility.yul\":5382:5391   */\n      dup7\n        /* \"#utility.yul\":5378:5400   */\n      add\n        /* \"#utility.yul\":5357:5410   */\n      tag_110\n      jump\t// in\n    tag_182:\n        /* \"#utility.yul\":5347:5410   */\n      swap3\n      pop\n        /* \"#utility.yul\":5303:5420   */\n      pop\n        /* \"#utility.yul\":5459:5461   */\n      0x20\n        /* \"#utility.yul\":5485:5538   */\n      tag_183\n        /* \"#utility.yul\":5530:5537   */\n      dup6\n        /* \"#utility.yul\":5521:5527   */\n      dup3\n        /* \"#utility.yul\":5510:5519   */\n      dup7\n        /* \"#utility.yul\":5506:5528   */\n      add\n        /* \"#utility.yul\":5485:5538   */\n      tag_110\n      jump\t// in\n    tag_183:\n        /* \"#utility.yul\":5475:5538   */\n      swap2\n      pop\n        /* \"#utility.yul\":5430:5548   */\n      pop\n        /* \"#utility.yul\":5081:5555   */\n      swap3\n      pop\n      swap3\n      swap1\n      pop\n      jump\t// out\n        /* \"#utility.yul\":5561:5741   */\n    tag_119:\n        /* \"#utility.yul\":5609:5686   */\n      0x4e487b7100000000000000000000000000000000000000000000000000000000\n        /* \"#utility.yul\":5606:5607   */\n      0x00\n        /* \"#utility.yul\":5599:5687   */\n      mstore\n        /* \"#utility.yul\":5706:5710   */\n      0x22\n        /* \"#utility.yul\":5703:5704   */\n      0x04\n        /* \"#utility.yul\":5696:5711   */\n      mstore\n        /* \"#utility.yul\":5730:5734   */\n      0x24\n        /* \"#utility.yul\":5727:5728   */\n      0x00\n        /* \"#utility.yul\":5720:5735   */\n      revert\n        /* \"#utility.yul\":5747:6067   */\n    tag_62:\n        /* \"#utility.yul\":5791:5797   */\n      0x00\n        /* \"#utility.yul\":5828:5829   */\n      0x02\n        /* \"#utility.yul\":5822:5826   */\n      dup3\n        /* \"#utility.yul\":5818:5830   */\n      div\n        /* \"#utility.yul\":5808:5830   */\n      swap1\n      pop\n        /* \"#utility.yul\":5875:5876   */\n      0x01\n        /* \"#utility.yul\":5869:5873   */\n      dup3\n        /* \"#utility.yul\":5865:5877   */\n      and\n        /* \"#utility.yul\":5896:5914   */\n      dup1\n        /* \"#utility.yul\":5886:5967   */\n      tag_186\n      jumpi\n        /* \"#utility.yul\":5952:5956   */\n      0x7f\n        /* \"#utility.yul\":5944:5950   */\n      dup3\n        /* \"#utility.yul\":5940:5957   */\n      and\n        /* \"#utility.yul\":5930:5957   */\n      swap2\n      pop\n        /* \"#utility.yul\":5886:5967   */\n    tag_186:\n        /* \"#utility.yul\":6014:6016   */\n      0x20\n        /* \"#utility.yul\":6006:6012   */\n      dup3\n        /* \"#utility.yul\":6003:6017   */\n      lt\n        /* \"#utility.yul\":5983:6001   */\n      dup2\n        /* \"#utility.yul\":5980:6018   */\n      sub\n        /* \"#utility.yul\":5977:6061   */\n      tag_187\n      jumpi\n        /* \"#utility.yul\":6033:6051   */\n      tag_188\n      tag_119\n      jump\t// in\n    tag_188:\n        /* \"#utility.yul\":5977:6061   */\n    tag_187:\n        /* \"#utility.yul\":5798:6067   */\n      pop\n        /* \"#utility.yul\":5747:6067   */\n      swap2\n      swap1\n      pop\n      jump\t// out\n        /* \"#utility.yul\":6073:6253   */\n    tag_120:\n        /* \"#utility.yul\":6121:6198   */\n      0x4e487b7100000000000000000000000000000000000000000000000000000000\n        /* \"#utility.yul\":6118:6119   */\n      0x00\n        /* \"#utility.yul\":6111:6199   */\n      mstore\n        /* \"#utility.yul\":6218:6222   */\n      0x11\n        /* \"#utility.yul\":6215:6216   */\n      0x04\n        /* \"#utility.yul\":6208:6223   */\n      mstore\n        /* \"#utility.yul\":6242:6246   */\n      0x24\n        /* \"#utility.yul\":6239:6240   */\n      0x00\n        /* \"#utility.yul\":6232:6247   */\n      revert\n        /* \"#utility.yul\":6259:6453   */\n    tag_71:\n        /* \"#utility.yul\":6299:6303   */\n      0x00\n        /* \"#utility.yul\":6319:6339   */\n      tag_191\n        /* \"#utility.yul\":6337:6338   */\n      dup3\n        /* \"#utility.yul\":6319:6339   */\n      tag_111\n      jump\t// in\n    tag_191:\n        /* \"#utility.yul\":6314:6339   */\n      swap2\n      pop\n        /* \"#utility.yul\":6353:6373   */\n      tag_192\n        /* \"#utility.yul\":6371:6372   */\n      dup4\n        /* \"#utility.yul\":6353:6373   */\n      tag_111\n      jump\t// in\n    tag_192:\n        /* \"#utility.yul\":6348:6373   */\n      swap3\n      pop\n        /* \"#utility.yul\":6397:6398   */\n      dup3\n        /* \"#utility.yul\":6394:6395   */\n      dup3\n        /* \"#utility.yul\":6390:6399   */\n      sub\n        /* \"#utility.yul\":6382:6399   */\n      swap1\n      pop\n        /* \"#utility.yul\":6421:6422   */\n      dup2\n        /* \"#utility.yul\":6415:6419   */\n      dup2\n        /* \"#utility.yul\":6412:6423   */\n      gt\n        /* \"#utility.yul\":6409:6446   */\n      iszero\n      tag_193\n      jumpi\n        /* \"#utility.yul\":6426:6444   */\n      tag_194\n      tag_120\n      jump\t// in\n    tag_194:\n        /* \"#utility.yul\":6409:6446   */\n    tag_193:\n        /* \"#utility.yul\":6259:6453   */\n      swap3\n      swap2\n      pop\n      pop\n      jump\t// out\n        /* \"#utility.yul\":6459:6650   */\n    tag_74:\n        /* \"#utility.yul\":6499:6502   */\n      0x00\n        /* \"#utility.yul\":6518:6538   */\n      tag_196\n        /* \"#utility.yul\":6536:6537   */\n      dup3\n        /* \"#utility.yul\":6518:6538   */\n      tag_111\n      jump\t// in\n    tag_196:\n        /* \"#utility.yul\":6513:6538   */\n      swap2\n      pop\n        /* \"#utility.yul\":6552:6572   */\n      tag_197\n        /* \"#utility.yul\":6570:6571   */\n      dup4\n        /* \"#utility.yul\":6552:6572   */\n      tag_111\n      jump\t// in\n    tag_197:\n        /* \"#utility.yul\":6547:6572   */\n      swap3\n      pop\n        /* \"#utility.yul\":6595:6596   */\n      dup3\n        /* \"#utility.yul\":6592:6593   */\n      dup3\n        /* \"#utility.yul\":6588:6597   */\n      add\n        /* \"#utility.yul\":6581:6597   */\n      swap1\n      pop\n        /* \"#utility.yul\":6616:6619   */\n      dup1\n        /* \"#utility.yul\":6613:6614   */\n      dup3\n        /* \"#utility.yul\":6610:6620   */\n      gt\n        /* \"#utility.yul\":6607:6643   */\n      iszero\n      tag_198\n      jumpi\n        /* \"#utility.yul\":6623:6641   */\n      tag_199\n      tag_120\n      jump\t// in\n    tag_199:\n        /* \"#utility.yul\":6607:6643   */\n    tag_198:\n        /* \"#utility.yul\":6459:6650   */\n      swap3\n      swap2\n      pop\n      pop\n      jump\t// out\n\n    auxdata: 0xa26469706673582212204a91946a37efde63071b4c7fb4c763bd48dedb7615d159d429175d5d2b464f9264736f6c634300081a0033\n}\n",
				"bytecode": {
					"linkReferences": {},
					"object": "608060405234801561000f575f80fd5b5060405161124d38038061124d833981810160405281019061003191906101f6565b8260039081610040919061048b565b508160049081610050919061048b565b508060055f6101000a81548160ff021916908360ff16021790555050505061055a565b5f604051905090565b5f80fd5b5f80fd5b5f80fd5b5f80fd5b5f601f19601f8301169050919050565b7f4e487b71000000000000000000000000000000000000000000000000000000005f52604160045260245ffd5b6100d28261008c565b810181811067ffffffffffffffff821117156100f1576100f061009c565b5b80604052505050565b5f610103610073565b905061010f82826100c9565b919050565b5f67ffffffffffffffff82111561012e5761012d61009c565b5b6101378261008c565b9050602081019050919050565b8281835e5f83830152505050565b5f61016461015f84610114565b6100fa565b9050828152602081018484840111156101805761017f610088565b5b61018b848285610144565b509392505050565b5f82601f8301126101a7576101a6610084565b5b81516101b7848260208601610152565b91505092915050565b5f60ff82169050919050565b6101d5816101c0565b81146101df575f80fd5b50565b5f815190506101f0816101cc565b92915050565b5f805f6060848603121561020d5761020c61007c565b5b5f84015167ffffffffffffffff81111561022a57610229610080565b5b61023686828701610193565b935050602084015167ffffffffffffffff81111561025757610256610080565b5b61026386828701610193565b9250506040610274868287016101e2565b9150509250925092565b5f81519050919050565b7f4e487b71000000000000000000000000000000000000000000000000000000005f52602260045260245ffd5b5f60028204905060018216806102cc57607f821691505b6020821081036102df576102de610288565b5b50919050565b5f819050815f5260205f209050919050565b5f6020601f8301049050919050565b5f82821b905092915050565b5f600883026103417fffffffffffffffffffffffffffffffffffffffffffffffffffffffffffffffff82610306565b61034b8683610306565b95508019841693508086168417925050509392505050565b5f819050919050565b5f819050919050565b5f61038f61038a61038584610363565b61036c565b610363565b9050919050565b5f819050919050565b6103a883610375565b6103bc6103b482610396565b848454610312565b825550505050565b5f90565b6103d06103c4565b6103db81848461039f565b505050565b5b818110156103fe576103f35f826103c8565b6001810190506103e1565b5050565b601f82111561044357610414816102e5565b61041d846102f7565b8101602085101561042c578190505b610440610438856102f7565b8301826103e0565b50505b505050565b5f82821c905092915050565b5f6104635f1984600802610448565b1980831691505092915050565b5f61047b8383610454565b9150826002028217905092915050565b6104948261027e565b67ffffffffffffffff8111156104ad576104ac61009c565b5b6104b782546102b5565b6104c2828285610402565b5f60209050601f8311600181146104f3575f84156104e1578287015190505b6104eb8582610470565b865550610552565b601f198416610501866102e5565b5f5b8281101561052857848901518255600182019150602085019450602081019050610503565b868310156105455784890151610541601f891682610454565b8355505b6001600288020188555050505b505050505050565b610ce6806105675f395ff3fe608060405234801561000f575f80fd5b50600436106100a7575f3560e01c806340c10f191161006f57806340c10f191461016557806370a082311461018157806395d89b41146101b15780639dc29fac146101cf578063a9059cbb146101eb578063dd62ed3e1461021b576100a7565b806306fdde03146100ab578063095ea7b3146100c957806318160ddd146100f957806323b872dd14610117578063313ce56714610147575b5f80fd5b6100b361024b565b6040516100c09190610989565b60405180910390f35b6100e360048036038101906100de9190610a3a565b6102d7565b6040516100f09190610a92565b60405180910390f35b6101016103c4565b60405161010e9190610aba565b60405180910390f35b610131600480360381019061012c9190610ad3565b6103c9565b60405161013e9190610a92565b60405180910390f35b61014f61056e565b60405161015c9190610b3e565b60405180910390f35b61017f600480360381019061017a9190610a3a565b610580565b005b61019b60048036038101906101969190610b57565b61058e565b6040516101a89190610aba565b60405180910390f35b6101b96105a3565b6040516101c69190610989565b60405180910390f35b6101e960048036038101906101e49190610a3a565b61062f565b005b61020560048036038101906102009190610a3a565b61063d565b6040516102129190610a92565b60405180910390f35b61023560048036038101906102309190610b82565b610753565b6040516102429190610aba565b60405180910390f35b6003805461025890610bed565b80601f016020809104026020016040519081016040528092919081815260200182805461028490610bed565b80156102cf5780601f106102a6576101008083540402835291602001916102cf565b820191905f5260205f20905b8154815290600101906020018083116102b257829003601f168201915b505050505081565b5f8160025f3373ffffffffffffffffffffffffffffffffffffffff1673ffffffffffffffffffffffffffffffffffffffff1681526020019081526020015f205f8573ffffffffffffffffffffffffffffffffffffffff1673ffffffffffffffffffffffffffffffffffffffff1681526020019081526020015f20819055508273ffffffffffffffffffffffffffffffffffffffff163373ffffffffffffffffffffffffffffffffffffffff167f8c5be1e5ebec7d5bd14f71427d1e84f3dd0314c0f7b2291e5b200ac8c7c3b925846040516103b29190610aba565b60405180910390a36001905092915050565b5f5481565b5f8160025f8673ffffffffffffffffffffffffffffffffffffffff1673ffffffffffffffffffffffffffffffffffffffff1681526020019081526020015f205f3373ffffffffffffffffffffffffffffffffffffffff1673ffffffffffffffffffffffffffffffffffffffff1681526020019081526020015f205f8282546104519190610c4a565b925050819055508160015f8673ffffffffffffffffffffffffffffffffffffffff1673ffffffffffffffffffffffffffffffffffffffff1681526020019081526020015f205f8282546104a49190610c4a565b925050819055508160015f8573ffffffffffffffffffffffffffffffffffffffff1673ffffffffffffffffffffffffffffffffffffffff1681526020019081526020015f205f8282546104f79190610c7d565b925050819055508273ffffffffffffffffffffffffffffffffffffffff168473ffffffffffffffffffffffffffffffffffffffff167fddf252ad1be2c89b69c2b068fc378daa952ba7f163c4a11628f55a4df523b3ef8460405161055b9190610aba565b60405180910390a3600190509392505050565b60055f9054906101000a900460ff1681565b61058a8282610773565b5050565b6001602052805f5260405f205f915090505481565b600480546105b090610bed565b80601f01602080910402602001604051908101604052809291908181526020018280546105dc90610bed565b80156106275780601f106105fe57610100808354040283529160200191610627565b820191905f5260205f20905b81548152906001019060200180831161060a57829003601f168201915b505050505081565b6106398282610846565b5050565b5f8160015f3373ffffffffffffffffffffffffffffffffffffffff1673ffffffffffffffffffffffffffffffffffffffff1681526020019081526020015f205f82825461068a9190610c4a565b925050819055508160015f8573ffffffffffffffffffffffffffffffffffffffff1673ffffffffffffffffffffffffffffffffffffffff1681526020019081526020015f205f8282546106dd9190610c7d565b925050819055508273ffffffffffffffffffffffffffffffffffffffff163373ffffffffffffffffffffffffffffffffffffffff167fddf252ad1be2c89b69c2b068fc378daa952ba7f163c4a11628f55a4df523b3ef846040516107419190610aba565b60405180910390a36001905092915050565b6002602052815f5260405f20602052805f5260405f205f91509150505481565b8060015f8473ffffffffffffffffffffffffffffffffffffffff1673ffffffffffffffffffffffffffffffffffffffff1681526020019081526020015f205f8282546107bf9190610c7d565b92505081905550805f808282546107d69190610c7d565b925050819055508173ffffffffffffffffffffffffffffffffffffffff165f73ffffffffffffffffffffffffffffffffffffffff167fddf252ad1be2c89b69c2b068fc378daa952ba7f163c4a11628f55a4df523b3ef8360405161083a9190610aba565b60405180910390a35050565b8060015f8473ffffffffffffffffffffffffffffffffffffffff1673ffffffffffffffffffffffffffffffffffffffff1681526020019081526020015f205f8282546108929190610c4a565b92505081905550805f808282546108a99190610c4a565b925050819055505f73ffffffffffffffffffffffffffffffffffffffff168273ffffffffffffffffffffffffffffffffffffffff167fddf252ad1be2c89b69c2b068fc378daa952ba7f163c4a11628f55a4df523b3ef8360405161090d9190610aba565b60405180910390a35050565b5f81519050919050565b5f82825260208201905092915050565b8281835e5f83830152505050565b5f601f19601f8301169050919050565b5f61095b82610919565b6109658185610923565b9350610975818560208601610933565b61097e81610941565b840191505092915050565b5f6020820190508181035f8301526109a18184610951565b905092915050565b5f80fd5b5f73ffffffffffffffffffffffffffffffffffffffff82169050919050565b5f6109d6826109ad565b9050919050565b6109e6816109cc565b81146109f0575f80fd5b50565b5f81359050610a01816109dd565b92915050565b5f819050919050565b610a1981610a07565b8114610a23575f80fd5b50565b5f81359050610a3481610a10565b92915050565b5f8060408385031215610a5057610a4f6109a9565b5b5f610a5d858286016109f3565b9250506020610a6e85828601610a26565b9150509250929050565b5f8115159050919050565b610a8c81610a78565b82525050565b5f602082019050610aa55f830184610a83565b92915050565b610ab481610a07565b82525050565b5f602082019050610acd5f830184610aab565b92915050565b5f805f60608486031215610aea57610ae96109a9565b5b5f610af7868287016109f3565b9350506020610b08868287016109f3565b9250506040610b1986828701610a26565b9150509250925092565b5f60ff82169050919050565b610b3881610b23565b82525050565b5f602082019050610b515f830184610b2f565b92915050565b5f60208284031215610b6c57610b6b6109a9565b5b5f610b79848285016109f3565b91505092915050565b5f8060408385031215610b9857610b976109a9565b5b5f610ba5858286016109f3565b9250506020610bb6858286016109f3565b9150509250929050565b7f4e487b71000000000000000000000000000000000000000000000000000000005f52602260045260245ffd5b5f6002820490506001821680610c0457607f821691505b602082108103610c1757610c16610bc0565b5b50919050565b7f4e487b71000000000000000000000000000000000000000000000000000000005f52601160045260245ffd5b5f610c5482610a07565b9150610c5f83610a07565b9250828203905081811115610c7757610c76610c1d565b5b92915050565b5f610c8782610a07565b9150610c9283610a07565b9250828201905080821115610caa57610ca9610c1d565b5b9291505056fea26469706673582212204a91946a37efde63071b4c7fb4c763bd48dedb7615d159d429175d5d2b464f9264736f6c634300081a0033",
					"opcodes": "PUSH1 0x80 PUSH1 0x40 MSTORE CALLVALUE DUP1 ISZERO PUSH2 0xF JUMPI PUSH0 DUP1 REVERT JUMPDEST POP PUSH1 0x40 MLOAD PUSH2 0x124D CODESIZE SUB DUP1 PUSH2 0x124D DUP4 CODECOPY DUP2 DUP2 ADD PUSH1 0x40 MSTORE DUP2 ADD SWAP1 PUSH2 0x31 SWAP2 SWAP1 PUSH2 0x1F6 JUMP JUMPDEST DUP3 PUSH1 0x3 SWAP1 DUP2 PUSH2 0x40 SWAP2 SWAP1 PUSH2 0x48B JUMP JUMPDEST POP DUP2 PUSH1 0x4 SWAP1 DUP2 PUSH2 0x50 SWAP2 SWAP1 PUSH2 0x48B JUMP JUMPDEST POP DUP1 PUSH1 0x5 PUSH0 PUSH2 0x100 EXP DUP2 SLOAD DUP2 PUSH1 0xFF MUL NOT AND SWAP1 DUP4 PUSH1 0xFF AND MUL OR SWAP1 SSTORE POP POP POP POP PUSH2 0x55A JUMP JUMPDEST PUSH0 PUSH1 0x40 MLOAD SWAP1 POP SWAP1 JUMP JUMPDEST PUSH0 DUP1 REVERT JUMPDEST PUSH0 DUP1 REVERT JUMPDEST PUSH0 DUP1 REVERT JUMPDEST PUSH0 DUP1 REVERT JUMPDEST PUSH0 PUSH1 0x1F NOT PUSH1 0x1F DUP4 ADD AND SWAP1 POP SWAP2 SWAP1 POP JUMP JUMPDEST PUSH32 0x4E487B7100000000000000000000000000000000000000000000000000000000 PUSH0 MSTORE PUSH1 0x41 PUSH1 0x4 MSTORE PUSH1 0x24 PUSH0 REVERT JUMPDEST PUSH2 0xD2 DUP3 PUSH2 0x8C JUMP JUMPDEST DUP2 ADD DUP2 DUP2 LT PUSH8 0xFFFFFFFFFFFFFFFF DUP3 GT OR ISZERO PUSH2 0xF1 JUMPI PUSH2 0xF0 PUSH2 0x9C JUMP JUMPDEST JUMPDEST DUP1 PUSH1 0x40 MSTORE POP POP POP JUMP JUMPDEST PUSH0 PUSH2 0x103 PUSH2 0x73 JUMP JUMPDEST SWAP1 POP PUSH2 0x10F DUP3 DUP3 PUSH2 0xC9 JUMP JUMPDEST SWAP2 SWAP1 POP JUMP JUMPDEST PUSH0 PUSH8 0xFFFFFFFFFFFFFFFF DUP3 GT ISZERO PUSH2 0x12E JUMPI PUSH2 0x12D PUSH2 0x9C JUMP JUMPDEST JUMPDEST PUSH2 0x137 DUP3 PUSH2 0x8C JUMP JUMPDEST SWAP1 POP PUSH1 0x20 DUP2 ADD SWAP1 POP SWAP2 SWAP1 POP JUMP JUMPDEST DUP3 DUP2 DUP4 MCOPY PUSH0 DUP4 DUP4 ADD MSTORE POP POP POP JUMP JUMPDEST PUSH0 PUSH2 0x164 PUSH2 0x15F DUP5 PUSH2 0x114 JUMP JUMPDEST PUSH2 0xFA JUMP JUMPDEST SWAP1 POP DUP3 DUP2 MSTORE PUSH1 0x20 DUP2 ADD DUP5 DUP5 DUP5 ADD GT ISZERO PUSH2 0x180 JUMPI PUSH2 0x17F PUSH2 0x88 JUMP JUMPDEST JUMPDEST PUSH2 0x18B DUP5 DUP3 DUP6 PUSH2 0x144 JUMP JUMPDEST POP SWAP4 SWAP3 POP POP POP JUMP JUMPDEST PUSH0 DUP3 PUSH1 0x1F DUP4 ADD SLT PUSH2 0x1A7 JUMPI PUSH2 0x1A6 PUSH2 0x84 JUMP JUMPDEST JUMPDEST DUP2 MLOAD PUSH2 0x1B7 DUP5 DUP3 PUSH1 0x20 DUP7 ADD PUSH2 0x152 JUMP JUMPDEST SWAP2 POP POP SWAP3 SWAP2 POP POP JUMP JUMPDEST PUSH0 PUSH1 0xFF DUP3 AND SWAP1 POP SWAP2 SWAP1 POP JUMP JUMPDEST PUSH2 0x1D5 DUP2 PUSH2 0x1C0 JUMP JUMPDEST DUP2 EQ PUSH2 0x1DF JUMPI PUSH0 DUP1 REVERT JUMPDEST POP JUMP JUMPDEST PUSH0 DUP2 MLOAD SWAP1 POP PUSH2 0x1F0 DUP2 PUSH2 0x1CC JUMP JUMPDEST SWAP3 SWAP2 POP POP JUMP JUMPDEST PUSH0 DUP1 PUSH0 PUSH1 0x60 DUP5 DUP7 SUB SLT ISZERO PUSH2 0x20D JUMPI PUSH2 0x20C PUSH2 0x7C JUMP JUMPDEST JUMPDEST PUSH0 DUP5 ADD MLOAD PUSH8 0xFFFFFFFFFFFFFFFF DUP2 GT ISZERO PUSH2 0x22A JUMPI PUSH2 0x229 PUSH2 0x80 JUMP JUMPDEST JUMPDEST PUSH2 0x236 DUP7 DUP3 DUP8 ADD PUSH2 0x193 JUMP JUMPDEST SWAP4 POP POP PUSH1 0x20 DUP5 ADD MLOAD PUSH8 0xFFFFFFFFFFFFFFFF DUP2 GT ISZERO PUSH2 0x257 JUMPI PUSH2 0x256 PUSH2 0x80 JUMP JUMPDEST JUMPDEST PUSH2 0x263 DUP7 DUP3 DUP8 ADD PUSH2 0x193 JUMP JUMPDEST SWAP3 POP POP PUSH1 0x40 PUSH2 0x274 DUP7 DUP3 DUP8 ADD PUSH2 0x1E2 JUMP JUMPDEST SWAP2 POP POP SWAP3 POP SWAP3 POP SWAP3 JUMP JUMPDEST PUSH0 DUP2 MLOAD SWAP1 POP SWAP2 SWAP1 POP JUMP JUMPDEST PUSH32 0x4E487B7100000000000000000000000000000000000000000000000000000000 PUSH0 MSTORE PUSH1 0x22 PUSH1 0x4 MSTORE PUSH1 0x24 PUSH0 REVERT JUMPDEST PUSH0 PUSH1 0x2 DUP3 DIV SWAP1 POP PUSH1 0x1 DUP3 AND DUP1 PUSH2 0x2CC JUMPI PUSH1 0x7F DUP3 AND SWAP2 POP JUMPDEST PUSH1 0x20 DUP3 LT DUP2 SUB PUSH2 0x2DF JUMPI PUSH2 0x2DE PUSH2 0x288 JUMP JUMPDEST JUMPDEST POP SWAP2 SWAP1 POP JUMP JUMPDEST PUSH0 DUP2 SWAP1 POP DUP2 PUSH0 MSTORE PUSH1 0x20 PUSH0 KECCAK256 SWAP1 POP SWAP2 SWAP1 POP JUMP JUMPDEST PUSH0 PUSH1 0x20 PUSH1 0x1F DUP4 ADD DIV SWAP1 POP SWAP2 SWAP1 POP JUMP JUMPDEST PUSH0 DUP3 DUP3 SHL SWAP1 POP SWAP3 SWAP2 POP POP JUMP JUMPDEST PUSH0 PUSH1 0x8 DUP4 MUL PUSH2 0x341 PUSH32 0xFFFFFFFFFFFFFFFFFFFFFFFFFFFFFFFFFFFFFFFFFFFFFFFFFFFFFFFFFFFFFFFF DUP3 PUSH2 0x306 JUMP JUMPDEST PUSH2 0x34B DUP7 DUP4 PUSH2 0x306 JUMP JUMPDEST SWAP6 POP DUP1 NOT DUP5 AND SWAP4 POP DUP1 DUP7 AND DUP5 OR SWAP3 POP POP POP SWAP4 SWAP3 POP POP POP JUMP JUMPDEST PUSH0 DUP2 SWAP1 POP SWAP2 SWAP1 POP JUMP JUMPDEST PUSH0 DUP2 SWAP1 POP SWAP2 SWAP1 POP JUMP JUMPDEST PUSH0 PUSH2 0x38F PUSH2 0x38A PUSH2 0x385 DUP5 PUSH2 0x363 JUMP JUMPDEST PUSH2 0x36C JUMP JUMPDEST PUSH2 0x363 JUMP JUMPDEST SWAP1 POP SWAP2 SWAP1 POP JUMP JUMPDEST PUSH0 DUP2 SWAP1 POP SWAP2 SWAP1 POP JUMP JUMPDEST PUSH2 0x3A8 DUP4 PUSH2 0x375 JUMP JUMPDEST PUSH2 0x3BC PUSH2 0x3B4 DUP3 PUSH2 0x396 JUMP JUMPDEST DUP5 DUP5 SLOAD PUSH2 0x312 JUMP JUMPDEST DUP3 SSTORE POP POP POP POP JUMP JUMPDEST PUSH0 SWAP1 JUMP JUMPDEST PUSH2 0x3D0 PUSH2 0x3C4 JUMP JUMPDEST PUSH2 0x3DB DUP2 DUP5 DUP5 PUSH2 0x39F JUMP JUMPDEST POP POP POP JUMP JUMPDEST JUMPDEST DUP2 DUP2 LT ISZERO PUSH2 0x3FE JUMPI PUSH2 0x3F3 PUSH0 DUP3 PUSH2 0x3C8 JUMP JUMPDEST PUSH1 0x1 DUP2 ADD SWAP1 POP PUSH2 0x3E1 JUMP JUMPDEST POP POP JUMP JUMPDEST PUSH1 0x1F DUP3 GT ISZERO PUSH2 0x443 JUMPI PUSH2 0x414 DUP2 PUSH2 0x2E5 JUMP JUMPDEST PUSH2 0x41D DUP5 PUSH2 0x2F7 JUMP JUMPDEST DUP2 ADD PUSH1 0x20 DUP6 LT ISZERO PUSH2 0x42C JUMPI DUP2 SWAP1 POP JUMPDEST PUSH2 0x440 PUSH2 0x438 DUP6 PUSH2 0x2F7 JUMP JUMPDEST DUP4 ADD DUP3 PUSH2 0x3E0 JUMP JUMPDEST POP POP JUMPDEST POP POP POP JUMP JUMPDEST PUSH0 DUP3 DUP3 SHR SWAP1 POP SWAP3 SWAP2 POP POP JUMP JUMPDEST PUSH0 PUSH2 0x463 PUSH0 NOT DUP5 PUSH1 0x8 MUL PUSH2 0x448 JUMP JUMPDEST NOT DUP1 DUP4 AND SWAP2 POP POP SWAP3 SWAP2 POP POP JUMP JUMPDEST PUSH0 PUSH2 0x47B DUP4 DUP4 PUSH2 0x454 JUMP JUMPDEST SWAP2 POP DUP3 PUSH1 0x2 MUL DUP3 OR SWAP1 POP SWAP3 SWAP2 POP POP JUMP JUMPDEST PUSH2 0x494 DUP3 PUSH2 0x27E JUMP JUMPDEST PUSH8 0xFFFFFFFFFFFFFFFF DUP2 GT ISZERO PUSH2 0x4AD JUMPI PUSH2 0x4AC PUSH2 0x9C JUMP JUMPDEST JUMPDEST PUSH2 0x4B7 DUP3 SLOAD PUSH2 0x2B5 JUMP JUMPDEST PUSH2 0x4C2 DUP3 DUP3 DUP6 PUSH2 0x402 JUMP JUMPDEST PUSH0 PUSH1 0x20 SWAP1 POP PUSH1 0x1F DUP4 GT PUSH1 0x1 DUP2 EQ PUSH2 0x4F3 JUMPI PUSH0 DUP5 ISZERO PUSH2 0x4E1 JUMPI DUP3 DUP8 ADD MLOAD SWAP1 POP JUMPDEST PUSH2 0x4EB DUP6 DUP3 PUSH2 0x470 JUMP JUMPDEST DUP7 SSTORE POP PUSH2 0x552 JUMP JUMPDEST PUSH1 0x1F NOT DUP5 AND PUSH2 0x501 DUP7 PUSH2 0x2E5 JUMP JUMPDEST PUSH0 JUMPDEST DUP3 DUP2 LT ISZERO PUSH2 0x528 JUMPI DUP5 DUP10 ADD MLOAD DUP3 SSTORE PUSH1 0x1 DUP3 ADD SWAP2 POP PUSH1 0x20 DUP6 ADD SWAP5 POP PUSH1 0x20 DUP2 ADD SWAP1 POP PUSH2 0x503 JUMP JUMPDEST DUP7 DUP4 LT ISZERO PUSH2 0x545 JUMPI DUP5 DUP10 ADD MLOAD PUSH2 0x541 PUSH1 0x1F DUP10 AND DUP3 PUSH2 0x454 JUMP JUMPDEST DUP4 SSTORE POP JUMPDEST PUSH1 0x1 PUSH1 0x2 DUP9 MUL ADD DUP9 SSTORE POP POP POP JUMPDEST POP POP POP POP POP POP JUMP JUMPDEST PUSH2 0xCE6 DUP1 PUSH2 0x567 PUSH0 CODECOPY PUSH0 RETURN INVALID PUSH1 0x80 PUSH1 0x40 MSTORE CALLVALUE DUP1 ISZERO PUSH2 0xF JUMPI PUSH0 DUP1 REVERT JUMPDEST POP PUSH1 0x4 CALLDATASIZE LT PUSH2 0xA7 JUMPI PUSH0 CALLDATALOAD PUSH1 0xE0 SHR DUP1 PUSH4 0x40C10F19 GT PUSH2 0x6F JUMPI DUP1 PUSH4 0x40C10F19 EQ PUSH2 0x165 JUMPI DUP1 PUSH4 0x70A08231 EQ PUSH2 0x181 JUMPI DUP1 PUSH4 0x95D89B41 EQ PUSH2 0x1B1 JUMPI DUP1 PUSH4 0x9DC29FAC EQ PUSH2 0x1CF JUMPI DUP1 PUSH4 0xA9059CBB EQ PUSH2 0x1EB JUMPI DUP1 PUSH4 0xDD62ED3E EQ PUSH2 0x21B JUMPI PUSH2 0xA7 JUMP JUMPDEST DUP1 PUSH4 0x6FDDE03 EQ PUSH2 0xAB JUMPI DUP1 PUSH4 0x95EA7B3 EQ PUSH2 0xC9 JUMPI DUP1 PUSH4 0x18160DDD EQ PUSH2 0xF9 JUMPI DUP1 PUSH4 0x23B872DD EQ PUSH2 0x117 JUMPI DUP1 PUSH4 0x313CE567 EQ PUSH2 0x147 JUMPI JUMPDEST PUSH0 DUP1 REVERT JUMPDEST PUSH2 0xB3 PUSH2 0x24B JUMP JUMPDEST PUSH1 0x40 MLOAD PUSH2 0xC0 SWAP2 SWAP1 PUSH2 0x989 JUMP JUMPDEST PUSH1 0x40 MLOAD DUP1 SWAP2 SUB SWAP1 RETURN JUMPDEST PUSH2 0xE3 PUSH1 0x4 DUP1 CALLDATASIZE SUB DUP2 ADD SWAP1 PUSH2 0xDE SWAP2 SWAP1 PUSH2 0xA3A JUMP JUMPDEST PUSH2 0x2D7 JUMP JUMPDEST PUSH1 0x40 MLOAD PUSH2 0xF0 SWAP2 SWAP1 PUSH2 0xA92 JUMP JUMPDEST PUSH1 0x40 MLOAD DUP1 SWAP2 SUB SWAP1 RETURN JUMPDEST PUSH2 0x101 PUSH2 0x3C4 JUMP JUMPDEST PUSH1 0x40 MLOAD PUSH2 0x10E SWAP2 SWAP1 PUSH2 0xABA JUMP JUMPDEST PUSH1 0x40 MLOAD DUP1 SWAP2 SUB SWAP1 RETURN JUMPDEST PUSH2 0x131 PUSH1 0x4 DUP1 CALLDATASIZE SUB DUP2 ADD SWAP1 PUSH2 0x12C SWAP2 SWAP1 PUSH2 0xAD3 JUMP JUMPDEST PUSH2 0x3C9 JUMP JUMPDEST PUSH1 0x40 MLOAD PUSH2 0x13E SWAP2 SWAP1 PUSH2 0xA92 JUMP JUMPDEST PUSH1 0x40 MLOAD DUP1 SWAP2 SUB SWAP1 RETURN JUMPDEST PUSH2 0x14F PUSH2 0x56E JUMP JUMPDEST PUSH1 0x40 MLOAD PUSH2 0x15C SWAP2 SWAP1 PUSH2 0xB3E JUMP JUMPDEST PUSH1 0x40 MLOAD DUP1 SWAP2 SUB SWAP1 RETURN JUMPDEST PUSH2 0x17F PUSH1 0x4 DUP1 CALLDATASIZE SUB DUP2 ADD SWAP1 PUSH2 0x17A SWAP2 SWAP1 PUSH2 0xA3A JUMP JUMPDEST PUSH2 0x580 JUMP JUMPDEST STOP JUMPDEST PUSH2 0x19B PUSH1 0x4 DUP1 CALLDATASIZE SUB DUP2 ADD SWAP1 PUSH2 0x196 SWAP2 SWAP1 PUSH2 0xB57 JUMP JUMPDEST PUSH2 0x58E JUMP JUMPDEST PUSH1 0x40 MLOAD PUSH2 0x1A8 SWAP2 SWAP1 PUSH2 0xABA JUMP JUMPDEST PUSH1 0x40 MLOAD DUP1 SWAP2 SUB SWAP1 RETURN JUMPDEST PUSH2 0x1B9 PUSH2 0x5A3 JUMP JUMPDEST PUSH1 0x40 MLOAD PUSH2 0x1C6 SWAP2 SWAP1 PUSH2 0x989 JUMP JUMPDEST PUSH1 0x40 MLOAD DUP1 SWAP2 SUB SWAP1 RETURN JUMPDEST PUSH2 0x1E9 PUSH1 0x4 DUP1 CALLDATASIZE SUB DUP2 ADD SWAP1 PUSH2 0x1E4 SWAP2 SWAP1 PUSH2 0xA3A JUMP JUMPDEST PUSH2 0x62F JUMP JUMPDEST STOP JUMPDEST PUSH2 0x205 PUSH1 0x4 DUP1 CALLDATASIZE SUB DUP2 ADD SWAP1 PUSH2 0x200 SWAP2 SWAP1 PUSH2 0xA3A JUMP JUMPDEST PUSH2 0x63D JUMP JUMPDEST PUSH1 0x40 MLOAD PUSH2 0x212 SWAP2 SWAP1 PUSH2 0xA92 JUMP JUMPDEST PUSH1 0x40 MLOAD DUP1 SWAP2 SUB SWAP1 RETURN JUMPDEST PUSH2 0x235 PUSH1 0x4 DUP1 CALLDATASIZE SUB DUP2 ADD SWAP1 PUSH2 0x230 SWAP2 SWAP1 PUSH2 0xB82 JUMP JUMPDEST PUSH2 0x753 JUMP JUMPDEST PUSH1 0x40 MLOAD PUSH2 0x242 SWAP2 SWAP1 PUSH2 0xABA JUMP JUMPDEST PUSH1 0x40 MLOAD DUP1 SWAP2 SUB SWAP1 RETURN JUMPDEST PUSH1 0x3 DUP1 SLOAD PUSH2 0x258 SWAP1 PUSH2 0xBED JUMP JUMPDEST DUP1 PUSH1 0x1F ADD PUSH1 0x20 DUP1 SWAP2 DIV MUL PUSH1 0x20 ADD PUSH1 0x40 MLOAD SWAP1 DUP2 ADD PUSH1 0x40 MSTORE DUP1 SWAP3 SWAP2 SWAP1 DUP2 DUP2 MSTORE PUSH1 0x20 ADD DUP3 DUP1 SLOAD PUSH2 0x284 SWAP1 PUSH2 0xBED JUMP JUMPDEST DUP1 ISZERO PUSH2 0x2CF JUMPI DUP1 PUSH1 0x1F LT PUSH2 0x2A6 JUMPI PUSH2 0x100 DUP1 DUP4 SLOAD DIV MUL DUP4 MSTORE SWAP2 PUSH1 0x20 ADD SWAP2 PUSH2 0x2CF JUMP JUMPDEST DUP3 ADD SWAP2 SWAP1 PUSH0 MSTORE PUSH1 0x20 PUSH0 KECCAK256 SWAP1 JUMPDEST DUP2 SLOAD DUP2 MSTORE SWAP1 PUSH1 0x1 ADD SWAP1 PUSH1 0x20 ADD DUP1 DUP4 GT PUSH2 0x2B2 JUMPI DUP3 SWAP1 SUB PUSH1 0x1F AND DUP3 ADD SWAP2 JUMPDEST POP POP POP POP POP DUP2 JUMP JUMPDEST PUSH0 DUP2 PUSH1 0x2 PUSH0 CALLER PUSH20 0xFFFFFFFFFFFFFFFFFFFFFFFFFFFFFFFFFFFFFFFF AND PUSH20 0xFFFFFFFFFFFFFFFFFFFFFFFFFFFFFFFFFFFFFFFF AND DUP2 MSTORE PUSH1 0x20 ADD SWAP1 DUP2 MSTORE PUSH1 0x20 ADD PUSH0 KECCAK256 PUSH0 DUP6 PUSH20 0xFFFFFFFFFFFFFFFFFFFFFFFFFFFFFFFFFFFFFFFF AND PUSH20 0xFFFFFFFFFFFFFFFFFFFFFFFFFFFFFFFFFFFFFFFF AND DUP2 MSTORE PUSH1 0x20 ADD SWAP1 DUP2 MSTORE PUSH1 0x20 ADD PUSH0 KECCAK256 DUP2 SWAP1 SSTORE POP DUP3 PUSH20 0xFFFFFFFFFFFFFFFFFFFFFFFFFFFFFFFFFFFFFFFF AND CALLER PUSH20 0xFFFFFFFFFFFFFFFFFFFFFFFFFFFFFFFFFFFFFFFF AND PUSH32 0x8C5BE1E5EBEC7D5BD14F71427D1E84F3DD0314C0F7B2291E5B200AC8C7C3B925 DUP5 PUSH1 0x40 MLOAD PUSH2 0x3B2 SWAP2 SWAP1 PUSH2 0xABA JUMP JUMPDEST PUSH1 0x40 MLOAD DUP1 SWAP2 SUB SWAP1 LOG3 PUSH1 0x1 SWAP1 POP SWAP3 SWAP2 POP POP JUMP JUMPDEST PUSH0 SLOAD DUP2 JUMP JUMPDEST PUSH0 DUP2 PUSH1 0x2 PUSH0 DUP7 PUSH20 0xFFFFFFFFFFFFFFFFFFFFFFFFFFFFFFFFFFFFFFFF AND PUSH20 0xFFFFFFFFFFFFFFFFFFFFFFFFFFFFFFFFFFFFFFFF AND DUP2 MSTORE PUSH1 0x20 ADD SWAP1 DUP2 MSTORE PUSH1 0x20 ADD PUSH0 KECCAK256 PUSH0 CALLER PUSH20 0xFFFFFFFFFFFFFFFFFFFFFFFFFFFFFFFFFFFFFFFF AND PUSH20 0xFFFFFFFFFFFFFFFFFFFFFFFFFFFFFFFFFFFFFFFF AND DUP2 MSTORE PUSH1 0x20 ADD SWAP1 DUP2 MSTORE PUSH1 0x20 ADD PUSH0 KECCAK256 PUSH0 DUP3 DUP3 SLOAD PUSH2 0x451 SWAP2 SWAP1 PUSH2 0xC4A JUMP JUMPDEST SWAP3 POP POP DUP2 SWAP1 SSTORE POP DUP2 PUSH1 0x1 PUSH0 DUP7 PUSH20 0xFFFFFFFFFFFFFFFFFFFFFFFFFFFFFFFFFFFFFFFF AND PUSH20 0xFFFFFFFFFFFFFFFFFFFFFFFFFFFFFFFFFFFFFFFF AND DUP2 MSTORE PUSH1 0x20 ADD SWAP1 DUP2 MSTORE PUSH1 0x20 ADD PUSH0 KECCAK256 PUSH0 DUP3 DUP3 SLOAD PUSH2 0x4A4 SWAP2 SWAP1 PUSH2 0xC4A JUMP JUMPDEST SWAP3 POP POP DUP2 SWAP1 SSTORE POP DUP2 PUSH1 0x1 PUSH0 DUP6 PUSH20 0xFFFFFFFFFFFFFFFFFFFFFFFFFFFFFFFFFFFFFFFF AND PUSH20 0xFFFFFFFFFFFFFFFFFFFFFFFFFFFFFFFFFFFFFFFF AND DUP2 MSTORE PUSH1 0x20 ADD SWAP1 DUP2 MSTORE PUSH1 0x20 ADD PUSH0 KECCAK256 PUSH0 DUP3 DUP3 SLOAD PUSH2 0x4F7 SWAP2 SWAP1 PUSH2 0xC7D JUMP JUMPDEST SWAP3 POP POP DUP2 SWAP1 SSTORE POP DUP3 PUSH20 0xFFFFFFFFFFFFFFFFFFFFFFFFFFFFFFFFFFFFFFFF AND DUP5 PUSH20 0xFFFFFFFFFFFFFFFFFFFFFFFFFFFFFFFFFFFFFFFF AND PUSH32 0xDDF252AD1BE2C89B69C2B068FC378DAA952BA7F163C4A11628F55A4DF523B3EF DUP5 PUSH1 0x40 MLOAD PUSH2 0x55B SWAP2 SWAP1 PUSH2 0xABA JUMP JUMPDEST PUSH1 0x40 MLOAD DUP1 SWAP2 SUB SWAP1 LOG3 PUSH1 0x1 SWAP1 POP SWAP4 SWAP3 POP POP POP JUMP JUMPDEST PUSH1 0x5 PUSH0 SWAP1 SLOAD SWAP1 PUSH2 0x100 EXP SWAP1 DIV PUSH1 0xFF AND DUP2 JUMP JUMPDEST PUSH2 0x58A DUP3 DUP3 PUSH2 0x773 JUMP JUMPDEST POP POP JUMP JUMPDEST PUSH1 0x1 PUSH1 0x20 MSTORE DUP1 PUSH0 MSTORE PUSH1 0x40 PUSH0 KECCAK256 PUSH0 SWAP2 POP SWAP1 POP SLOAD DUP2 JUMP JUMPDEST PUSH1 0x4 DUP1 SLOAD PUSH2 0x5B0 SWAP1 PUSH2 0xBED JUMP JUMPDEST DUP1 PUSH1 0x1F ADD PUSH1 0x20 DUP1 SWAP2 DIV MUL PUSH1 0x20 ADD PUSH1 0x40 MLOAD SWAP1 DUP2 ADD PUSH1 0x40 MSTORE DUP1 SWAP3 SWAP2 SWAP1 DUP2 DUP2 MSTORE PUSH1 0x20 ADD DUP3 DUP1 SLOAD PUSH2 0x5DC SWAP1 PUSH2 0xBED JUMP JUMPDEST DUP1 ISZERO PUSH2 0x627 JUMPI DUP1 PUSH1 0x1F LT PUSH2 0x5FE JUMPI PUSH2 0x100 DUP1 DUP4 SLOAD DIV MUL DUP4 MSTORE SWAP2 PUSH1 0x20 ADD SWAP2 PUSH2 0x627 JUMP JUMPDEST DUP3 ADD SWAP2 SWAP1 PUSH0 MSTORE PUSH1 0x20 PUSH0 KECCAK256 SWAP1 JUMPDEST DUP2 SLOAD DUP2 MSTORE SWAP1 PUSH1 0x1 ADD SWAP1 PUSH1 0x20 ADD DUP1 DUP4 GT PUSH2 0x60A JUMPI DUP3 SWAP1 SUB PUSH1 0x1F AND DUP3 ADD SWAP2 JUMPDEST POP POP POP POP POP DUP2 JUMP JUMPDEST PUSH2 0x639 DUP3 DUP3 PUSH2 0x846 JUMP JUMPDEST POP POP JUMP JUMPDEST PUSH0 DUP2 PUSH1 0x1 PUSH0 CALLER PUSH20 0xFFFFFFFFFFFFFFFFFFFFFFFFFFFFFFFFFFFFFFFF AND PUSH20 0xFFFFFFFFFFFFFFFFFFFFFFFFFFFFFFFFFFFFFFFF AND DUP2 MSTORE PUSH1 0x20 ADD SWAP1 DUP2 MSTORE PUSH1 0x20 ADD PUSH0 KECCAK256 PUSH0 DUP3 DUP3 SLOAD PUSH2 0x68A SWAP2 SWAP1 PUSH2 0xC4A JUMP JUMPDEST SWAP3 POP POP DUP2 SWAP1 SSTORE POP DUP2 PUSH1 0x1 PUSH0 DUP6 PUSH20 0xFFFFFFFFFFFFFFFFFFFFFFFFFFFFFFFFFFFFFFFF AND PUSH20 0xFFFFFFFFFFFFFFFFFFFFFFFFFFFFFFFFFFFFFFFF AND DUP2 MSTORE PUSH1 0x20 ADD SWAP1 DUP2 MSTORE PUSH1 0x20 ADD PUSH0 KECCAK256 PUSH0 DUP3 DUP3 SLOAD PUSH2 0x6DD SWAP2 SWAP1 PUSH2 0xC7D JUMP JUMPDEST SWAP3 POP POP DUP2 SWAP1 SSTORE POP DUP3 PUSH20 0xFFFFFFFFFFFFFFFFFFFFFFFFFFFFFFFFFFFFFFFF AND CALLER PUSH20 0xFFFFFFFFFFFFFFFFFFFFFFFFFFFFFFFFFFFFFFFF AND PUSH32 0xDDF252AD1BE2C89B69C2B068FC378DAA952BA7F163C4A11628F55A4DF523B3EF DUP5 PUSH1 0x40 MLOAD PUSH2 0x741 SWAP2 SWAP1 PUSH2 0xABA JUMP JUMPDEST PUSH1 0x40 MLOAD DUP1 SWAP2 SUB SWAP1 LOG3 PUSH1 0x1 SWAP1 POP SWAP3 SWAP2 POP POP JUMP JUMPDEST PUSH1 0x2 PUSH1 0x20 MSTORE DUP2 PUSH0 MSTORE PUSH1 0x40 PUSH0 KECCAK256 PUSH1 0x20 MSTORE DUP1 PUSH0 MSTORE PUSH1 0x40 PUSH0 KECCAK256 PUSH0 SWAP2 POP SWAP2 POP POP SLOAD DUP2 JUMP JUMPDEST DUP1 PUSH1 0x1 PUSH0 DUP5 PUSH20 0xFFFFFFFFFFFFFFFFFFFFFFFFFFFFFFFFFFFFFFFF AND PUSH20 0xFFFFFFFFFFFFFFFFFFFFFFFFFFFFFFFFFFFFFFFF AND DUP2 MSTORE PUSH1 0x20 ADD SWAP1 DUP2 MSTORE PUSH1 0x20 ADD PUSH0 KECCAK256 PUSH0 DUP3 DUP3 SLOAD PUSH2 0x7BF SWAP2 SWAP1 PUSH2 0xC7D JUMP JUMPDEST SWAP3 POP POP DUP2 SWAP1 SSTORE POP DUP1 PUSH0 DUP1 DUP3 DUP3 SLOAD PUSH2 0x7D6 SWAP2 SWAP1 PUSH2 0xC7D JUMP JUMPDEST SWAP3 POP POP DUP2 SWAP1 SSTORE POP DUP2 PUSH20 0xFFFFFFFFFFFFFFFFFFFFFFFFFFFFFFFFFFFFFFFF AND PUSH0 PUSH20 0xFFFFFFFFFFFFFFFFFFFFFFFFFFFFFFFFFFFFFFFF AND PUSH32 0xDDF252AD1BE2C89B69C2B068FC378DAA952BA7F163C4A11628F55A4DF523B3EF DUP4 PUSH1 0x40 MLOAD PUSH2 0x83A SWAP2 SWAP1 PUSH2 0xABA JUMP JUMPDEST PUSH1 0x40 MLOAD DUP1 SWAP2 SUB SWAP1 LOG3 POP POP JUMP JUMPDEST DUP1 PUSH1 0x1 PUSH0 DUP5 PUSH20 0xFFFFFFFFFFFFFFFFFFFFFFFFFFFFFFFFFFFFFFFF AND PUSH20 0xFFFFFFFFFFFFFFFFFFFFFFFFFFFFFFFFFFFFFFFF AND DUP2 MSTORE PUSH1 0x20 ADD SWAP1 DUP2 MSTORE PUSH1 0x20 ADD PUSH0 KECCAK256 PUSH0 DUP3 DUP3 SLOAD PUSH2 0x892 SWAP2 SWAP1 PUSH2 0xC4A JUMP JUMPDEST SWAP3 POP POP DUP2 SWAP1 SSTORE POP DUP1 PUSH0 DUP1 DUP3 DUP3 SLOAD PUSH2 0x8A9 SWAP2 SWAP1 PUSH2 0xC4A JUMP JUMPDEST SWAP3 POP POP DUP2 SWAP1 SSTORE POP PUSH0 PUSH20 0xFFFFFFFFFFFFFFFFFFFFFFFFFFFFFFFFFFFFFFFF AND DUP3 PUSH20 0xFFFFFFFFFFFFFFFFFFFFFFFFFFFFFFFFFFFFFFFF AND PUSH32 0xDDF252AD1BE2C89B69C2B068FC378DAA952BA7F163C4A11628F55A4DF523B3EF DUP4 PUSH1 0x40 MLOAD PUSH2 0x90D SWAP2 SWAP1 PUSH2 0xABA JUMP JUMPDEST PUSH1 0x40 MLOAD DUP1 SWAP2 SUB SWAP1 LOG3 POP POP JUMP JUMPDEST PUSH0 DUP2 MLOAD SWAP1 POP SWAP2 SWAP1 POP JUMP JUMPDEST PUSH0 DUP3 DUP3 MSTORE PUSH1 0x20 DUP3 ADD SWAP1 POP SWAP3 SWAP2 POP POP JUMP JUMPDEST DUP3 DUP2 DUP4 MCOPY PUSH0 DUP4 DUP4 ADD MSTORE POP POP POP JUMP JUMPDEST PUSH0 PUSH1 0x1F NOT PUSH1 0x1F DUP4 ADD AND SWAP1 POP SWAP2 SWAP1 POP JUMP JUMPDEST PUSH0 PUSH2 0x95B DUP3 PUSH2 0x919 JUMP JUMPDEST PUSH2 0x965 DUP2 DUP6 PUSH2 0x923 JUMP JUMPDEST SWAP4 POP PUSH2 0x975 DUP2 DUP6 PUSH1 0x20 DUP7 ADD PUSH2 0x933 JUMP JUMPDEST PUSH2 0x97E DUP2 PUSH2 0x941 JUMP JUMPDEST DUP5 ADD SWAP2 POP POP SWAP3 SWAP2 POP POP JUMP JUMPDEST PUSH0 PUSH1 0x20 DUP3 ADD SWAP1 POP DUP2 DUP2 SUB PUSH0 DUP4 ADD MSTORE PUSH2 0x9A1 DUP2 DUP5 PUSH2 0x951 JUMP JUMPDEST SWAP1 POP SWAP3 SWAP2 POP POP JUMP JUMPDEST PUSH0 DUP1 REVERT JUMPDEST PUSH0 PUSH20 0xFFFFFFFFFFFFFFFFFFFFFFFFFFFFFFFFFFFFFFFF DUP3 AND SWAP1 POP SWAP2 SWAP1 POP JUMP JUMPDEST PUSH0 PUSH2 0x9D6 DUP3 PUSH2 0x9AD JUMP JUMPDEST SWAP1 POP SWAP2 SWAP1 POP JUMP JUMPDEST PUSH2 0x9E6 DUP2 PUSH2 0x9CC JUMP JUMPDEST DUP2 EQ PUSH2 0x9F0 JUMPI PUSH0 DUP1 REVERT JUMPDEST POP JUMP JUMPDEST PUSH0 DUP2 CALLDATALOAD SWAP1 POP PUSH2 0xA01 DUP2 PUSH2 0x9DD JUMP JUMPDEST SWAP3 SWAP2 POP POP JUMP JUMPDEST PUSH0 DUP2 SWAP1 POP SWAP2 SWAP1 POP JUMP JUMPDEST PUSH2 0xA19 DUP2 PUSH2 0xA07 JUMP JUMPDEST DUP2 EQ PUSH2 0xA23 JUMPI PUSH0 DUP1 REVERT JUMPDEST POP JUMP JUMPDEST PUSH0 DUP2 CALLDATALOAD SWAP1 POP PUSH2 0xA34 DUP2 PUSH2 0xA10 JUMP JUMPDEST SWAP3 SWAP2 POP POP JUMP JUMPDEST PUSH0 DUP1 PUSH1 0x40 DUP4 DUP6 SUB SLT ISZERO PUSH2 0xA50 JUMPI PUSH2 0xA4F PUSH2 0x9A9 JUMP JUMPDEST JUMPDEST PUSH0 PUSH2 0xA5D DUP6 DUP3 DUP7 ADD PUSH2 0x9F3 JUMP JUMPDEST SWAP3 POP POP PUSH1 0x20 PUSH2 0xA6E DUP6 DUP3 DUP7 ADD PUSH2 0xA26 JUMP JUMPDEST SWAP2 POP POP SWAP3 POP SWAP3 SWAP1 POP JUMP JUMPDEST PUSH0 DUP2 ISZERO ISZERO SWAP1 POP SWAP2 SWAP1 POP JUMP JUMPDEST PUSH2 0xA8C DUP2 PUSH2 0xA78 JUMP JUMPDEST DUP3 MSTORE POP POP JUMP JUMPDEST PUSH0 PUSH1 0x20 DUP3 ADD SWAP1 POP PUSH2 0xAA5 PUSH0 DUP4 ADD DUP5 PUSH2 0xA83 JUMP JUMPDEST SWAP3 SWAP2 POP POP JUMP JUMPDEST PUSH2 0xAB4 DUP2 PUSH2 0xA07 JUMP JUMPDEST DUP3 MSTORE POP POP JUMP JUMPDEST PUSH0 PUSH1 0x20 DUP3 ADD SWAP1 POP PUSH2 0xACD PUSH0 DUP4 ADD DUP5 PUSH2 0xAAB JUMP JUMPDEST SWAP3 SWAP2 POP POP JUMP JUMPDEST PUSH0 DUP1 PUSH0 PUSH1 0x60 DUP5 DUP7 SUB SLT ISZERO PUSH2 0xAEA JUMPI PUSH2 0xAE9 PUSH2 0x9A9 JUMP JUMPDEST JUMPDEST PUSH0 PUSH2 0xAF7 DUP7 DUP3 DUP8 ADD PUSH2 0x9F3 JUMP JUMPDEST SWAP4 POP POP PUSH1 0x20 PUSH2 0xB08 DUP7 DUP3 DUP8 ADD PUSH2 0x9F3 JUMP JUMPDEST SWAP3 POP POP PUSH1 0x40 PUSH2 0xB19 DUP7 DUP3 DUP8 ADD PUSH2 0xA26 JUMP JUMPDEST SWAP2 POP POP SWAP3 POP SWAP3 POP SWAP3 JUMP JUMPDEST PUSH0 PUSH1 0xFF DUP3 AND SWAP1 POP SWAP2 SWAP1 POP JUMP JUMPDEST PUSH2 0xB38 DUP2 PUSH2 0xB23 JUMP JUMPDEST DUP3 MSTORE POP POP JUMP JUMPDEST PUSH0 PUSH1 0x20 DUP3 ADD SWAP1 POP PUSH2 0xB51 PUSH0 DUP4 ADD DUP5 PUSH2 0xB2F JUMP JUMPDEST SWAP3 SWAP2 POP POP JUMP JUMPDEST PUSH0 PUSH1 0x20 DUP3 DUP5 SUB SLT ISZERO PUSH2 0xB6C JUMPI PUSH2 0xB6B PUSH2 0x9A9 JUMP JUMPDEST JUMPDEST PUSH0 PUSH2 0xB79 DUP5 DUP3 DUP6 ADD PUSH2 0x9F3 JUMP JUMPDEST SWAP2 POP POP SWAP3 SWAP2 POP POP JUMP JUMPDEST PUSH0 DUP1 PUSH1 0x40 DUP4 DUP6 SUB SLT ISZERO PUSH2 0xB98 JUMPI PUSH2 0xB97 PUSH2 0x9A9 JUMP JUMPDEST JUMPDEST PUSH0 PUSH2 0xBA5 DUP6 DUP3 DUP7 ADD PUSH2 0x9F3 JUMP JUMPDEST SWAP3 POP POP PUSH1 0x20 PUSH2 0xBB6 DUP6 DUP3 DUP7 ADD PUSH2 0x9F3 JUMP JUMPDEST SWAP2 POP POP SWAP3 POP SWAP3 SWAP1 POP JUMP JUMPDEST PUSH32 0x4E487B7100000000000000000000000000000000000000000000000000000000 PUSH0 MSTORE PUSH1 0x22 PUSH1 0x4 MSTORE PUSH1 0x24 PUSH0 REVERT JUMPDEST PUSH0 PUSH1 0x2 DUP3 DIV SWAP1 POP PUSH1 0x1 DUP3 AND DUP1 PUSH2 0xC04 JUMPI PUSH1 0x7F DUP3 AND SWAP2 POP JUMPDEST PUSH1 0x20 DUP3 LT DUP2 SUB PUSH2 0xC17 JUMPI PUSH2 0xC16 PUSH2 0xBC0 JUMP JUMPDEST JUMPDEST POP SWAP2 SWAP1 POP JUMP JUMPDEST PUSH32 0x4E487B7100000000000000000000000000000000000000000000000000000000 PUSH0 MSTORE PUSH1 0x11 PUSH1 0x4 MSTORE PUSH1 0x24 PUSH0 REVERT JUMPDEST PUSH0 PUSH2 0xC54 DUP3 PUSH2 0xA07 JUMP JUMPDEST SWAP2 POP PUSH2 0xC5F DUP4 PUSH2 0xA07 JUMP JUMPDEST SWAP3 POP DUP3 DUP3 SUB SWAP1 POP DUP2 DUP2 GT ISZERO PUSH2 0xC77 JUMPI PUSH2 0xC76 PUSH2 0xC1D JUMP JUMPDEST JUMPDEST SWAP3 SWAP2 POP POP JUMP JUMPDEST PUSH0 PUSH2 0xC87 DUP3 PUSH2 0xA07 JUMP JUMPDEST SWAP2 POP PUSH2 0xC92 DUP4 PUSH2 0xA07 JUMP JUMPDEST SWAP3 POP DUP3 DUP3 ADD SWAP1 POP DUP1 DUP3 GT ISZERO PUSH2 0xCAA JUMPI PUSH2 0xCA9 PUSH2 0xC1D JUMP JUMPDEST JUMPDEST SWAP3 SWAP2 POP POP JUMP INVALID LOG2 PUSH5 0x6970667358 0x22 SLT KECCAK256 BLOBBASEFEE SWAP2 SWAP5 PUSH11 0x37EFDE63071B4C7FB4C763 0xBD BASEFEE 0xDE 0xDB PUSH23 0x15D159D429175D5D2B464F9264736F6C634300081A0033 "
				},
				"gasEstimates": {
					"creation": {
						"codeDepositCost": "660400",
						"executionCost": "infinite",
						"totalCost": "infinite"
					},
					"external": {
						"allowance(address,address)": "infinite",
						"approve(address,uint256)": "infinite",
						"balanceOf(address)": "2824",
						"burn(address,uint256)": "infinite",
						"decimals()": "2555",
						"mint(address,uint256)": "infinite",
						"name()": "infinite",
						"symbol()": "infinite",
						"totalSupply()": "2469",
						"transfer(address,uint256)": "infinite",
						"transferFrom(address,address,uint256)": "infinite"
					},
					"internal": {
						"_burn(address,uint256)": "infinite",
						"_mint(address,uint256)": "infinite"
					}
				},
				"methodIdentifiers": {
					"allowance(address,address)": "dd62ed3e",
					"approve(address,uint256)": "095ea7b3",
					"balanceOf(address)": "70a08231",
					"burn(address,uint256)": "9dc29fac",
					"decimals()": "313ce567",
					"mint(address,uint256)": "40c10f19",
					"name()": "06fdde03",
					"symbol()": "95d89b41",
					"totalSupply()": "18160ddd",
					"transfer(address,uint256)": "a9059cbb",
					"transferFrom(address,address,uint256)": "23b872dd"
				}
			},
			"storageLayout": {
				"storage": [
					{
						"astId": 72,
						"contract": "contracts/MyContract_FungibleToken.sol:ERC20",
						"label": "totalSupply",
						"offset": 0,
						"slot": "0",
						"type": "t_uint256"
					},
					{
						"astId": 76,
						"contract": "contracts/MyContract_FungibleToken.sol:ERC20",
						"label": "balanceOf",
						"offset": 0,
						"slot": "1",
						"type": "t_mapping(t_address,t_uint256)"
					},
					{
						"astId": 82,
						"contract": "contracts/MyContract_FungibleToken.sol:ERC20",
						"label": "allowance",
						"offset": 0,
						"slot": "2",
						"type": "t_mapping(t_address,t_mapping(t_address,t_uint256))"
					},
					{
						"astId": 84,
						"contract": "contracts/MyContract_FungibleToken.sol:ERC20",
						"label": "name",
						"offset": 0,
						"slot": "3",
						"type": "t_string_storage"
					},
					{
						"astId": 86,
						"contract": "contracts/MyContract_FungibleToken.sol:ERC20",
						"label": "symbol",
						"offset": 0,
						"slot": "4",
						"type": "t_string_storage"
					},
					{
						"astId": 88,
						"contract": "contracts/MyContract_FungibleToken.sol:ERC20",
						"label": "decimals",
						"offset": 0,
						"slot": "5",
						"type": "t_uint8"
					}
				],
				"types": {
					"t_address": {
						"encoding": "inplace",
						"label": "address",
						"numberOfBytes": "20"
					},
					"t_mapping(t_address,t_mapping(t_address,t_uint256))": {
						"encoding": "mapping",
						"key": "t_address",
						"label": "mapping(address => mapping(address => uint256))",
						"numberOfBytes": "32",
						"value": "t_mapping(t_address,t_uint256)"
					},
					"t_mapping(t_address,t_uint256)": {
						"encoding": "mapping",
						"key": "t_address",
						"label": "mapping(address => uint256)",
						"numberOfBytes": "32",
						"value": "t_uint256"
					},
					"t_string_storage": {
						"encoding": "bytes",
						"label": "string",
						"numberOfBytes": "32"
					},
					"t_uint256": {
						"encoding": "inplace",
						"label": "uint256",
						"numberOfBytes": "32"
					},
					"t_uint8": {
						"encoding": "inplace",
						"label": "uint8",
						"numberOfBytes": "1"
					}
				}
			},
			"userdoc": {
				"kind": "user",
				"methods": {},
				"version": 1
			}
		}
	}
}